{
    "_format": "hh-sol-artifact-1",
    "contractName": "SemaphoreAirdrop",
    "sourceName": "contracts/extensions/SemaphoreAirdrop.sol",
    "abi": [
        {
            "inputs": [
                {
                    "internalType": "address",
                    "name": "verifierAddress",
                    "type": "address"
                }
            ],
            "stateMutability": "nonpayable",
            "type": "constructor"
        },
        {
            "anonymous": false,
            "inputs": [
                {
                    "indexed": false,
                    "internalType": "uint256",
                    "name": "airdropId",
                    "type": "uint256"
                },
                {
                    "indexed": true,
                    "internalType": "address",
                    "name": "coordinator",
                    "type": "address"
                }
            ],
            "name": "AirdropCreated",
            "type": "event"
        },
        {
            "anonymous": false,
            "inputs": [
                {
                    "indexed": false,
                    "internalType": "uint256",
                    "name": "airdropId",
                    "type": "uint256"
                },
                {
                    "indexed": true,
                    "internalType": "address",
                    "name": "coordinator",
                    "type": "address"
                },
                {
                    "indexed": false,
                    "internalType": "uint256",
                    "name": "decryptionKey",
                    "type": "uint256"
                }
            ],
            "name": "AirdropEnded",
            "type": "event"
        },
        {
            "anonymous": false,
            "inputs": [
                {
                    "indexed": false,
                    "internalType": "uint256",
                    "name": "airdropId",
                    "type": "uint256"
                },
                {
                    "indexed": true,
                    "internalType": "address",
                    "name": "coordinator",
                    "type": "address"
                },
                {
                    "indexed": false,
                    "internalType": "uint256",
                    "name": "encryptionKey",
                    "type": "uint256"
                }
            ],
            "name": "AirdropStarted",
            "type": "event"
        },
        {
            "anonymous": false,
            "inputs": [
                {
                    "indexed": true,
                    "internalType": "uint256",
                    "name": "groupId",
                    "type": "uint256"
                },
                {
                    "indexed": false,
                    "internalType": "uint8",
                    "name": "depth",
                    "type": "uint8"
                },
                {
                    "indexed": false,
                    "internalType": "uint256",
                    "name": "zeroValue",
                    "type": "uint256"
                }
            ],
            "name": "GroupCreated",
            "type": "event"
        },
        {
            "anonymous": false,
            "inputs": [
                {
                    "indexed": true,
                    "internalType": "uint256",
                    "name": "groupId",
                    "type": "uint256"
                },
                {
                    "indexed": false,
                    "internalType": "uint256",
                    "name": "identityCommitment",
                    "type": "uint256"
                },
                {
                    "indexed": false,
                    "internalType": "uint256",
                    "name": "root",
                    "type": "uint256"
                }
            ],
            "name": "MemberAdded",
            "type": "event"
        },
        {
            "anonymous": false,
            "inputs": [
                {
                    "indexed": true,
                    "internalType": "uint256",
                    "name": "groupId",
                    "type": "uint256"
                },
                {
                    "indexed": false,
                    "internalType": "uint256",
                    "name": "identityCommitment",
                    "type": "uint256"
                },
                {
                    "indexed": false,
                    "internalType": "uint256",
                    "name": "root",
                    "type": "uint256"
                }
            ],
            "name": "MemberRemoved",
            "type": "event"
        },
        {
            "anonymous": false,
            "inputs": [
                {
                    "indexed": false,
                    "internalType": "uint256",
                    "name": "nullifierHash",
                    "type": "uint256"
                }
            ],
            "name": "NullifierHashAdded",
            "type": "event"
        },
        {
            "inputs": [
                {
                    "internalType": "uint256",
                    "name": "airdropId",
                    "type": "uint256"
                },
                {
                    "internalType": "uint256",
                    "name": "identityCommitment",
                    "type": "uint256"
                }
            ],
            "name": "addRecipient",
            "outputs": [],
            "stateMutability": "nonpayable",
            "type": "function"
        },
        {
            "inputs": [
                {
                    "internalType": "uint256",
                    "name": "airdropId",
                    "type": "uint256"
                },
                {
                    "internalType": "address",
                    "name": "coordinator",
                    "type": "address"
                },
                {
                    "internalType": "uint8",
                    "name": "depth",
                    "type": "uint8"
                }
            ],
            "name": "createAirdrop",
            "outputs": [],
            "stateMutability": "nonpayable",
            "type": "function"
        },
        {
            "inputs": [
                {
                    "internalType": "uint256",
                    "name": "airdropId",
                    "type": "uint256"
                },
                {
                    "internalType": "uint256",
                    "name": "decryptionKey",
                    "type": "uint256"
                }
            ],
            "name": "endAirdrop",
            "outputs": [],
            "stateMutability": "nonpayable",
            "type": "function"
        },
        {
            "inputs": [
                {
                    "internalType": "uint256",
                    "name": "groupId",
                    "type": "uint256"
                }
            ],
            "name": "getDepth",
            "outputs": [
                {
                    "internalType": "uint8",
                    "name": "",
                    "type": "uint8"
                }
            ],
            "stateMutability": "view",
            "type": "function"
        },
        {
            "inputs": [
                {
                    "internalType": "uint256",
                    "name": "groupId",
                    "type": "uint256"
                }
            ],
            "name": "getNumberOfLeaves",
            "outputs": [
                {
                    "internalType": "uint256",
                    "name": "",
                    "type": "uint256"
                }
            ],
            "stateMutability": "view",
            "type": "function"
        },
        {
            "inputs": [
                {
                    "internalType": "uint256",
                    "name": "groupId",
                    "type": "uint256"
                }
            ],
            "name": "getRoot",
            "outputs": [
                {
                    "internalType": "uint256",
                    "name": "",
                    "type": "uint256"
                }
            ],
            "stateMutability": "view",
            "type": "function"
        },
        {
            "inputs": [
                {
                    "internalType": "uint256",
                    "name": "airdropId",
                    "type": "uint256"
                },
                {
                    "internalType": "uint256",
                    "name": "encryptionKey",
                    "type": "uint256"
                }
            ],
            "name": "startAirdrop",
            "outputs": [],
            "stateMutability": "nonpayable",
            "type": "function"
        },
        {
            "inputs": [],
            "name": "verifier",
            "outputs": [
                {
                    "internalType": "contract IVerifier",
                    "name": "",
                    "type": "address"
                }
            ],
            "stateMutability": "view",
            "type": "function"
        },
        {
            "inputs": [
                {
                    "internalType": "uint256",
                    "name": "signalHash",
                    "type": "uint256"
                },
                {
                    "internalType": "uint256",
                    "name": "groupId",
                    "type": "uint256"
                },
                {
                    "internalType": "uint256",
                    "name": "nullifierHash",
                    "type": "uint256"
                },
                {
                    "internalType": "uint256",
                    "name": "externalNullifier",
                    "type": "uint256"
                },
                {
                    "internalType": "uint256[8]",
                    "name": "proof",
                    "type": "uint256[8]"
                }
            ],
            "name": "verifyProof",
            "outputs": [],
            "stateMutability": "view",
            "type": "function"
        }
    ],
    "bytecode": "0x60806040523480156200001157600080fd5b5060405162001c8e38038062001c8e833981810160405281019062000037919062000096565b80600360006101000a81548173ffffffffffffffffffffffffffffffffffffffff021916908373ffffffffffffffffffffffffffffffffffffffff1602179055505062000110565b6000815190506200009081620000f6565b92915050565b600060208284031215620000a957600080fd5b6000620000b9848285016200007f565b91505092915050565b6000620000cf82620000d6565b9050919050565b600073ffffffffffffffffffffffffffffffffffffffff82169050919050565b6200010181620000c2565b81146200010d57600080fd5b50565b611b6e80620001206000396000f3fe608060405234801561001057600080fd5b50600436106100935760003560e01c80636368939b116100665780636368939b1461010a57806375e618c9146101265780639b24b3b014610156578063af94ad0a14610186578063b9c78c2b146101a257610093565b806312f69cf5146100985780632b7ac3f3146100b4578063354ca120146100d257806344881343146100ee575b600080fd5b6100b260048036038101906100ad91906110b0565b6101d2565b005b6100bc610415565b6040516100c991906114d3565b60405180910390f35b6100ec60048036038101906100e791906110ec565b61043b565b005b610108600480360381019061010391906110b0565b610556565b005b610124600480360381019061011f91906110b0565b61063a565b005b610140600480360381019061013b9190611038565b61087c565b60405161014d91906116b2565b60405180910390f35b610170600480360381019061016b9190611038565b6108a9565b60405161017d919061166e565b60405180910390f35b6101a0600480360381019061019b9190611061565b6108c9565b005b6101bc60048036038101906101b79190611038565b6109e2565b6040516101c9919061166e565b60405180910390f35b816101db610a02565b73ffffffffffffffffffffffffffffffffffffffff166002600083815260200190815260200160002060000160009054906101000a900473ffffffffffffffffffffffffffffffffffffffff1673ffffffffffffffffffffffffffffffffffffffff161461027e576040517f08c379a00000000000000000000000000000000000000000000000000000000081526004016102759061150e565b60405180910390fd5b600060028111156102b8577f4e487b7100000000000000000000000000000000000000000000000000000000600052602160045260246000fd5b6002600085815260200190815260200160002060000160149054906101000a900460ff166002811115610314577f4e487b7100000000000000000000000000000000000000000000000000000000600052602160045260246000fd5b14610354576040517f08c379a000000000000000000000000000000000000000000000000000000000815260040161034b906114ee565b60405180910390fd5b60016002600085815260200190815260200160002060000160146101000a81548160ff021916908360028111156103b4577f4e487b7100000000000000000000000000000000000000000000000000000000600052602160045260246000fd5b02179055506103c1610a02565b73ffffffffffffffffffffffffffffffffffffffff167fcad6e6fdaab069363d778b7229d84cbb9b61eaf85b88c8f00a9e8d7eb25695928484604051610408929190611689565b60405180910390a2505050565b600360009054906101000a900473ffffffffffffffffffffffffffffffffffffffff1681565b60016002811115610475577f4e487b7100000000000000000000000000000000000000000000000000000000600052602160045260246000fd5b6002600086815260200190815260200160002060000160149054906101000a900460ff1660028111156104d1577f4e487b7100000000000000000000000000000000000000000000000000000000600052602160045260246000fd5b14610511576040517f08c379a0000000000000000000000000000000000000000000000000000000008152600401610508906115ae565b60405180910390fd5b600061051c856108a9565b905061054e8682868686600360009054906101000a900473ffffffffffffffffffffffffffffffffffffffff16610a0a565b505050505050565b60006002811115610590577f4e487b7100000000000000000000000000000000000000000000000000000000600052602160045260246000fd5b6002600084815260200190815260200160002060000160149054906101000a900460ff1660028111156105ec577f4e487b7100000000000000000000000000000000000000000000000000000000600052602160045260246000fd5b1461062c576040517f08c379a00000000000000000000000000000000000000000000000000000000081526004016106239061156e565b60405180910390fd5b6106368282610d55565b5050565b81610643610a02565b73ffffffffffffffffffffffffffffffffffffffff166002600083815260200190815260200160002060000160009054906101000a900473ffffffffffffffffffffffffffffffffffffffff1673ffffffffffffffffffffffffffffffffffffffff16146106e6576040517f08c379a00000000000000000000000000000000000000000000000000000000081526004016106dd9061150e565b60405180910390fd5b60016002811115610720577f4e487b7100000000000000000000000000000000000000000000000000000000600052602160045260246000fd5b6002600085815260200190815260200160002060000160149054906101000a900460ff16600281111561077c577f4e487b7100000000000000000000000000000000000000000000000000000000600052602160045260246000fd5b146107bc576040517f08c379a00000000000000000000000000000000000000000000000000000000081526004016107b3906115ce565b60405180910390fd5b600280600085815260200190815260200160002060000160146101000a81548160ff0219169083600281111561081b577f4e487b7100000000000000000000000000000000000000000000000000000000600052602160045260246000fd5b0217905550610828610a02565b73ffffffffffffffffffffffffffffffffffffffff167f2210ef815a9739fee3ba6e95a055e9c6b3075b83d1eb4acd118d77c5df73a482848460405161086f929190611689565b60405180910390a2505050565b60006001600083815260200190815260200160002060000160009054906101000a900460ff169050919050565b600060016000838152602001908152602001600020600101549050919050565b6108d583826000610e6d565b60006002600085815260200190815260200160002060000160146101000a81548160ff02191690836002811115610935577f4e487b7100000000000000000000000000000000000000000000000000000000600052602160045260246000fd5b0217905550816002600085815260200190815260200160002060000160006101000a81548173ffffffffffffffffffffffffffffffffffffffff021916908373ffffffffffffffffffffffffffffffffffffffff1602179055508173ffffffffffffffffffffffffffffffffffffffff167fe78e1ba9e7ed7cb0d428f450e01b6bfbbde903cea3f15b325af0c99f81c09f3d846040516109d5919061166e565b60405180910390a2505050565b600060016000838152602001908152602001600020600201549050919050565b600033905090565b60008085815260200190815260200160002060009054906101000a900460ff1615610a6a576040517f08c379a0000000000000000000000000000000000000000000000000000000008152600401610a619061152e565b60405180910390fd5b8073ffffffffffffffffffffffffffffffffffffffff16635fe8c13b604051806040016040528085600060088110610acb577f4e487b7100000000000000000000000000000000000000000000000000000000600052603260045260246000fd5b6020020135815260200185600160088110610b0f577f4e487b7100000000000000000000000000000000000000000000000000000000600052603260045260246000fd5b60200201358152506040518060400160405280604051806040016040528088600260088110610b67577f4e487b7100000000000000000000000000000000000000000000000000000000600052603260045260246000fd5b6020020135815260200188600360088110610bab577f4e487b7100000000000000000000000000000000000000000000000000000000600052603260045260246000fd5b60200201358152508152602001604051806040016040528088600460088110610bfd577f4e487b7100000000000000000000000000000000000000000000000000000000600052603260045260246000fd5b6020020135815260200188600560088110610c41577f4e487b7100000000000000000000000000000000000000000000000000000000600052603260045260246000fd5b6020020135815250815250604051806040016040528087600660088110610c91577f4e487b7100000000000000000000000000000000000000000000000000000000600052603260045260246000fd5b6020020135815260200187600760088110610cd5577f4e487b7100000000000000000000000000000000000000000000000000000000600052603260045260246000fd5b602002013581525060405180608001604052808b81526020018a81526020018c8152602001898152506040518563ffffffff1660e01b8152600401610d1d949392919061148c565b60006040518083038186803b158015610d3557600080fd5b505afa158015610d49573d6000803e3d6000fd5b50505050505050505050565b6000610d608361087c565b60ff161415610da4576040517f08c379a0000000000000000000000000000000000000000000000000000000008152600401610d9b9061158e565b60405180910390fd5b6001600083815260200190815260200160002073__$4c0484323457fe1a856f46a4759b553fe4$__63168703fa9091836040518363ffffffff1660e01b8152600401610df192919061160e565b60006040518083038186803b158015610e0957600080fd5b505af4158015610e1d573d6000803e3d6000fd5b505050506000610e2c836108a9565b9050827f03fd27265b7dd1f55558bedc22a58fa3b10afb1be776e614bd5a7ba7b94994068383604051610e60929190611689565b60405180910390a2505050565b7f30644e72e131a029b85045b68181585d2833e84879b9709143e1f593f00000018310610ecf576040517f08c379a0000000000000000000000000000000000000000000000000000000008152600401610ec6906115ee565b60405180910390fd5b6000610eda8461087c565b60ff1614610f1d576040517f08c379a0000000000000000000000000000000000000000000000000000000008152600401610f149061154e565b60405180910390fd5b6001600084815260200190815260200160002073__$4c0484323457fe1a856f46a4759b553fe4$__63b4bdd117909184846040518463ffffffff1660e01b8152600401610f6c93929190611637565b60006040518083038186803b158015610f8457600080fd5b505af4158015610f98573d6000803e3d6000fd5b50505050827fc3082aa494e9088c2c9f0fb62a0b6bd46e6699acb94cfba35be29b95a93f68c88383604051610fce9291906116cd565b60405180910390a2505050565b600081359050610fea81611af3565b92915050565b60008190508260206008028201111561100857600080fd5b92915050565b60008135905061101d81611b0a565b92915050565b60008135905061103281611b21565b92915050565b60006020828403121561104a57600080fd5b60006110588482850161100e565b91505092915050565b60008060006060848603121561107657600080fd5b60006110848682870161100e565b935050602061109586828701610fdb565b92505060406110a686828701611023565b9150509250925092565b600080604083850312156110c357600080fd5b60006110d18582860161100e565b92505060206110e28582860161100e565b9150509250929050565b6000806000806000610180868803121561110557600080fd5b60006111138882890161100e565b95505060206111248882890161100e565b94505060406111358882890161100e565b93505060606111468882890161100e565b925050608061115788828901610ff0565b9150509295509295909350565b600061117083836111eb565b60408301905092915050565b60006111888383611441565b60208301905092915050565b61119d81611714565b6111a7818461175c565b92506111b2826116f6565b8060005b838110156111e35781516111ca8782611164565b96506111d583611735565b9250506001810190506111b6565b505050505050565b6111f48161171f565b6111fe8184611767565b925061120982611700565b8060005b8381101561123a578151611221878261117c565b965061122c83611742565b92505060018101905061120d565b505050505050565b61124b8161171f565b6112558184611772565b925061126082611700565b8060005b83811015611291578151611278878261117c565b965061128383611742565b925050600181019050611264565b505050505050565b6112a28161172a565b6112ac818461177d565b92506112b78261170a565b8060005b838110156112e85781516112cf878261117c565b96506112da8361174f565b9250506001810190506112bb565b505050505050565b6112f9816117e2565b82525050565b600061130c603283611788565b915061131782611806565b604082019050919050565b600061132f603783611788565b915061133a82611855565b604082019050919050565b6000611352603683611788565b915061135d826118a4565b604082019050919050565b6000611375602583611788565b9150611380826118f3565b604082019050919050565b6000611398604183611788565b91506113a382611942565b606082019050919050565b60006113bb602583611788565b91506113c6826119b7565b604082019050919050565b60006113de602e83611788565b91506113e982611a06565b604082019050919050565b6000611401602883611788565b915061140c82611a55565b604082019050919050565b6000611424603683611788565b915061142f82611aa4565b604082019050919050565b8082525050565b61144a816117cb565b82525050565b611459816117cb565b82525050565b611468816117cb565b82525050565b611477816117d5565b82525050565b611486816117d5565b82525050565b6000610180820190506114a26000830187611242565b6114af6040830186611194565b6114bc60c0830185611242565b6114ca610100830184611299565b95945050505050565b60006020820190506114e860008301846112f0565b92915050565b60006020820190508181036000830152611507816112ff565b9050919050565b6000602082019050818103600083015261152781611322565b9050919050565b6000602082019050818103600083015261154781611345565b9050919050565b6000602082019050818103600083015261156781611368565b9050919050565b600060208201905081810360008301526115878161138b565b9050919050565b600060208201905081810360008301526115a7816113ae565b9050919050565b600060208201905081810360008301526115c7816113d1565b9050919050565b600060208201905081810360008301526115e7816113f4565b9050919050565b6000602082019050818103600083015261160781611417565b9050919050565b6000604082019050611623600083018561143a565b611630602083018461145f565b9392505050565b600060608201905061164c600083018661143a565b611659602083018561147d565b611666604083018461145f565b949350505050565b60006020820190506116836000830184611450565b92915050565b600060408201905061169e6000830185611450565b6116ab6020830184611450565b9392505050565b60006020820190506116c7600083018461146e565b92915050565b60006040820190506116e2600083018561146e565b6116ef6020830184611450565b9392505050565b6000819050919050565b6000819050919050565b6000819050919050565b600060029050919050565b600060029050919050565b600060049050919050565b6000602082019050919050565b6000602082019050919050565b6000602082019050919050565b600081905092915050565b600081905092915050565b600081905092915050565b600081905092915050565b600082825260208201905092915050565b60006117a4826117ab565b9050919050565b600073ffffffffffffffffffffffffffffffffffffffff82169050919050565b6000819050919050565b600060ff82169050919050565b60006117ed826117f4565b9050919050565b60006117ff826117ab565b9050919050565b7f53656d6170686f726541697264726f703a2061697264726f702068617320616c60008201527f7265616479206265656e20737461727465640000000000000000000000000000602082015250565b7f53656d6170686f726541697264726f703a2063616c6c6572206973206e6f742060008201527f7468652061697264726f7020636f6f7264696e61746f72000000000000000000602082015250565b7f53656d6170686f7265436f72653a20796f752063616e6e6f742075736520746860008201527f652073616d65206e756c6c696669657220747769636500000000000000000000602082015250565b7f53656d6170686f726547726f7570733a2067726f757020616c7265616479206560008201527f7869737473000000000000000000000000000000000000000000000000000000602082015250565b7f53656d6170686f726541697264726f703a20726563697069656e74732063616e60008201527f206f6e6c79206265206164646564206265666f72652061697264726f7070696e60208201527f6700000000000000000000000000000000000000000000000000000000000000604082015250565b7f53656d6170686f726547726f7570733a2067726f757020646f6573206e6f742060008201527f6578697374000000000000000000000000000000000000000000000000000000602082015250565b7f53656d6170686f726541697264726f703a2041697264726f702073746174652060008201527f6973206e6f74206f6e676f696e67000000000000000000000000000000000000602082015250565b7f53656d6170686f726541697264726f703a2061697264726f70206973206e6f7460008201527f206f6e676f696e67000000000000000000000000000000000000000000000000602082015250565b7f53656d6170686f726547726f7570733a2067726f7570206964206d757374206260008201527f65203c20534e41524b5f5343414c41525f4649454c4400000000000000000000602082015250565b611afc81611799565b8114611b0757600080fd5b50565b611b13816117cb565b8114611b1e57600080fd5b50565b611b2a816117d5565b8114611b3557600080fd5b5056fea2646970667358221220a2a37892894ee4a2ffb88aa5644bfd33341bc61aac03c8f54ce5450046349ca864736f6c63430008040033",
    "linkReferences": {
        "@zk-kit/incremental-merkle-tree.sol/contracts/IncrementalBinaryTree.sol": {
            "IncrementalBinaryTree": [
                {
                    "length": 20,
                    "start": 3801
                },
                {
                    "length": 20,
                    "start": 4178
                }
            ]
        }
    },
    "deployedLinkReferences": {
        "@zk-kit/incremental-merkle-tree.sol/contracts/IncrementalBinaryTree.sol": {
            "IncrementalBinaryTree": [
                {
                    "length": 20,
                    "start": 3513
                },
                {
                    "length": 20,
                    "start": 3890
                }
            ]
        }
    }
}