{
    "_format": "hh-sol-artifact-1",
    "contractName": "SemaphoreAirdrop",
    "sourceName": "contracts/extensions/SemaphoreAirdrop.sol",
    "abi": [
        {
            "inputs": [],
            "name": "InvalidId",
            "type": "error"
        },
        {
            "inputs": [],
            "name": "InvalidProof",
            "type": "error"
        },
        {
            "inputs": [],
            "name": "InvalidRoot",
            "type": "error"
        },
        {
            "inputs": [],
            "name": "Unauthorized",
            "type": "error"
        },
        {
            "anonymous": false,
            "inputs": [
                {
                    "indexed": true,
                    "internalType": "uint256",
                    "name": "groupId",
                    "type": "uint256"
                },
                {
                    "indexed": false,
                    "internalType": "uint8",
                    "name": "depth",
                    "type": "uint8"
                },
                {
                    "indexed": false,
                    "internalType": "uint256",
                    "name": "zeroValue",
                    "type": "uint256"
                }
            ],
            "name": "GroupCreated",
            "type": "event"
        },
        {
            "anonymous": false,
            "inputs": [
                {
                    "indexed": true,
                    "internalType": "uint256",
                    "name": "groupId",
                    "type": "uint256"
                },
                {
                    "indexed": false,
                    "internalType": "uint256",
                    "name": "identityCommitment",
                    "type": "uint256"
                },
                {
                    "indexed": false,
                    "internalType": "uint256",
                    "name": "root",
                    "type": "uint256"
                }
            ],
            "name": "MemberAdded",
            "type": "event"
        },
        {
            "anonymous": false,
            "inputs": [
                {
                    "indexed": true,
                    "internalType": "uint256",
                    "name": "groupId",
                    "type": "uint256"
                },
                {
                    "indexed": false,
                    "internalType": "uint256",
                    "name": "identityCommitment",
                    "type": "uint256"
                },
                {
                    "indexed": false,
                    "internalType": "uint256",
                    "name": "root",
                    "type": "uint256"
                }
            ],
            "name": "MemberRemoved",
            "type": "event"
        },
        {
            "anonymous": false,
            "inputs": [
                {
                    "indexed": false,
                    "internalType": "uint256",
                    "name": "nullifierHash",
                    "type": "uint256"
                }
            ],
            "name": "NullifierHashAdded",
            "type": "event"
        },
        {
            "inputs": [
                {
                    "internalType": "uint256",
                    "name": "groupId",
                    "type": "uint256"
                },
                {
                    "internalType": "uint256",
                    "name": "identityCommitment",
                    "type": "uint256"
                }
            ],
            "name": "addMember",
            "outputs": [],
            "stateMutability": "nonpayable",
            "type": "function"
        },
        {
            "inputs": [
                {
                    "internalType": "uint256",
                    "name": "groupId",
                    "type": "uint256"
                },
                {
                    "internalType": "uint256[]",
                    "name": "identityCommitments",
                    "type": "uint256[]"
                }
            ],
            "name": "addMembers",
            "outputs": [],
            "stateMutability": "nonpayable",
            "type": "function"
        },
        {
            "inputs": [
                {
                    "internalType": "uint256",
                    "name": "groupId",
                    "type": "uint256"
                },
                {
                    "internalType": "uint8",
                    "name": "depth",
                    "type": "uint8"
                },
                {
                    "internalType": "uint256",
                    "name": "zeroValue",
                    "type": "uint256"
                }
            ],
            "name": "createGroup",
            "outputs": [],
            "stateMutability": "nonpayable",
            "type": "function"
        },
        {
            "inputs": [
                {
                    "internalType": "uint256",
                    "name": "groupId",
                    "type": "uint256"
                }
            ],
            "name": "getDepth",
            "outputs": [
                {
                    "internalType": "uint8",
                    "name": "",
                    "type": "uint8"
                }
            ],
            "stateMutability": "view",
            "type": "function"
        },
        {
            "inputs": [
                {
                    "internalType": "uint256",
                    "name": "groupId",
                    "type": "uint256"
                }
            ],
            "name": "getNumberOfLeaves",
            "outputs": [
                {
                    "internalType": "uint256",
                    "name": "",
                    "type": "uint256"
                }
            ],
            "stateMutability": "view",
            "type": "function"
        },
        {
            "inputs": [
                {
                    "internalType": "uint256",
                    "name": "groupId",
                    "type": "uint256"
                }
            ],
            "name": "getRoot",
            "outputs": [
                {
                    "internalType": "uint256",
                    "name": "",
                    "type": "uint256"
                }
            ],
            "stateMutability": "view",
            "type": "function"
        },
        {
            "inputs": [],
            "name": "manager",
            "outputs": [
                {
                    "internalType": "address",
                    "name": "",
                    "type": "address"
                }
            ],
            "stateMutability": "view",
            "type": "function"
        },
        {
            "inputs": [
                {
                    "internalType": "uint256",
                    "name": "groupId",
                    "type": "uint256"
                },
                {
                    "internalType": "uint256",
                    "name": "identityCommitment",
                    "type": "uint256"
                },
                {
                    "internalType": "uint256[]",
                    "name": "proofSiblings",
                    "type": "uint256[]"
                },
                {
                    "internalType": "uint8[]",
                    "name": "proofPathIndices",
                    "type": "uint8[]"
                }
            ],
            "name": "removeMember",
            "outputs": [],
            "stateMutability": "nonpayable",
            "type": "function"
        },
        {
            "inputs": [
                {
                    "internalType": "address",
                    "name": "newManager",
                    "type": "address"
                }
            ],
            "name": "transferAccess",
            "outputs": [],
            "stateMutability": "nonpayable",
            "type": "function"
        },
        {
            "inputs": [
                {
                    "internalType": "uint256",
                    "name": "root",
                    "type": "uint256"
                },
                {
                    "internalType": "uint256",
                    "name": "groupId",
                    "type": "uint256"
                },
                {
                    "internalType": "uint256",
                    "name": "signalHash",
                    "type": "uint256"
                },
                {
                    "internalType": "uint256",
                    "name": "nullifierHash",
                    "type": "uint256"
                },
                {
                    "internalType": "uint256",
                    "name": "externalNullifierHash",
                    "type": "uint256"
                },
                {
                    "internalType": "uint256[8]",
                    "name": "proof",
                    "type": "uint256[8]"
                }
            ],
            "name": "verifyProof",
            "outputs": [],
            "stateMutability": "view",
            "type": "function"
        },
        {
            "inputs": [
                {
                    "internalType": "uint256[2]",
                    "name": "a",
                    "type": "uint256[2]"
                },
                {
                    "internalType": "uint256[2][2]",
                    "name": "b",
                    "type": "uint256[2][2]"
                },
                {
                    "internalType": "uint256[2]",
                    "name": "c",
                    "type": "uint256[2]"
                },
                {
                    "internalType": "uint256[4]",
                    "name": "input",
                    "type": "uint256[4]"
                }
            ],
            "name": "verifyProof",
            "outputs": [],
            "stateMutability": "view",
            "type": "function"
        }
    ],
    "bytecode": "0x6080604052600280546001600160a01b0319163317905534801561002257600080fd5b50611e8a806100326000396000f3fe608060405234801561001057600080fd5b50600436106100a95760003560e01c8063481c6a7511610071578063481c6a751461010f5780635fe8c13b1461013f57806366e759ee1461015257806375e618c9146101655780639b24b3b01461019a578063b9c78c2b146101cc57600080fd5b806304245371146100ae5780631783efc3146100c35780633bc778e3146100d65780633daedcd0146100e957806343989f85146100fc575b600080fd5b6100c16100bc366004611976565b6101ef565b005b6100c16100d1366004611a28565b6103a3565b6100c16100e4366004611a4a565b610516565b6100c16100f7366004611abb565b610639565b6100c161010a366004611b3c565b610694565b600254610122906001600160a01b031681565b6040516001600160a01b0390911681526020015b60405180910390f35b6100c161014d366004611c0f565b610805565b6100c1610160366004611ced565b610b80565b610188610173366004611d1d565b60009081526001602052604090205460ff1690565b60405160ff9091168152602001610136565b6101be6101a8366004611d1d565b6000908152600160208190526040909120015490565b604051908152602001610136565b6101be6101da366004611d1d565b60009081526001602052604090206002015490565b6002546001600160a01b03163314610219576040516282b42960e81b815260040160405180910390fd5b60008281526001602052604081205460ff16900361024a57604051631bf4348160e31b815260040160405180910390fd5b6000805b825181101561039d5782818151811061026957610269611d36565b602090810291909101810151600086815260019092526040918290209151630b4381fd60e11b8152600481019290925260248201819052925073__$ebf35adc03997610e67d8fa7fc80a43778$__9063168703fa9060440160006040518083038186803b1580156102d957600080fd5b505af41580156102ed573d6000803e3d6000fd5b5050506000858152600160208190526040822001549091506040805180820182526001600160801b038089168252428116602080840191825260008681526003909152849020925190518216600160801b0291161790555190915085907f03fd27265b7dd1f55558bedc22a58fa3b10afb1be776e614bd5a7ba7b9499406906103829086908590918252602082015260400190565b60405180910390a2508061039581611d62565b91505061024e565b50505050565b6002546001600160a01b031633146103cd576040516282b42960e81b815260040160405180910390fd5b60008281526001602052604081205460ff1690036103fe57604051631bf4348160e31b815260040160405180910390fd5b600082815260016020526040908190209051630b4381fd60e11b815260048101919091526024810182905273__$ebf35adc03997610e67d8fa7fc80a43778$__9063168703fa9060440160006040518083038186803b15801561046057600080fd5b505af4158015610474573d6000803e3d6000fd5b5050506000838152600160208190526040822001549091506040805180820182526001600160801b038087168252428116602080840191825260008681526003909152849020925190518216600160801b0291161790555190915083907f03fd27265b7dd1f55558bedc22a58fa3b10afb1be776e614bd5a7ba7b9499406906105099085908590918252602082015260400190565b60405180910390a2505050565b6000868152600360209081526040918290208251808401909352546001600160801b03808216808552600160801b9092041691830191909152861415806105765750610e1081602001516001600160801b0316426105749190611d7b565b115b156105945760405163504570e360e01b815260040160405180910390fd5b60408051608080820183528982526020808301889052828401899052606080840188905284518086018652873581528783013581840152855180850187528887013581880190815289840135938201939093529182528551808701875293880135845260a08801358484015281830193909352845180860190955260c08701358552929361062f939181018760076020020135905284610805565b5050505050505050565b6002546001600160a01b03163314610663576040516282b42960e81b815260040160405180910390fd5b8260000361068457604051631bf4348160e31b815260040160405180910390fd5b61068f838383610bcc565b505050565b6002546001600160a01b031633146106be576040516282b42960e81b815260040160405180910390fd5b60008681526001602052604081205460ff1690036106ef57604051631bf4348160e31b815260040160405180910390fd5b600086815260016020526040908190209051630629596f60e01b815273__$ebf35adc03997610e67d8fa7fc80a43778$__91630629596f9161073e919089908990899089908990600401611d92565b60006040518083038186803b15801561075657600080fd5b505af415801561076a573d6000803e3d6000fd5b505050600087815260016020818152604080842083018054825180840184526001600160801b03808f16825242811682870190815283895260038752858920925190518216600160801b029116179055948c9052928252915482518a81529182015291925088917fe270325ded177064d7bda473e6519ef40a291058c41286f71a6e4872f1e9ab5c910160405180910390a250505050505050565b61080d6117a9565b604080518082018252865181526020808801518183015290835281516080810183528651518184019081528751830151606083015281528251808401845287830180515182525183015181840152818301528382015281518083018352855181528582015191810191909152908201526000610887610d8a565b60808101515190915061089c60046001611e1d565b146108ba576040516309bde33960e01b815260040160405180910390fd5b600081608001516000815181106108d3576108d3611d36565b602002602001015190506109258161092084608001516001815181106108fb576108fb611d36565b60200260200101518760006004811061091657610916611d36565b602002015161128a565b611333565b905061096081610920846080015160028151811061094557610945611d36565b60200260200101518760016004811061091657610916611d36565b905061099b81610920846080015160038151811061098057610980611d36565b60200260200101518760026004811061091657610916611d36565b90506109d68161092084608001516004815181106109bb576109bb611d36565b60200260200101518760036004811061091657610916611d36565b60408051600480825260a0820190925291925060009190816020015b60408051808201909152600080825260208201528152602001906001900390816109f257505060408051600480825260a0820190925291925060009190602082015b610a3c6117fa565b815260200190600190039081610a345750508551909150610a5c9061139f565b82600081518110610a6f57610a6f611d36565b6020026020010181905250846020015181600081518110610a9257610a92611d36565b6020026020010181905250836000015182600181518110610ab557610ab5611d36565b6020026020010181905250836020015181600181518110610ad857610ad8611d36565b60200260200101819052508282600281518110610af757610af7611d36565b6020026020010181905250836040015181600281518110610b1a57610b1a611d36565b6020026020010181905250846040015182600381518110610b3d57610b3d611d36565b6020026020010181905250836060015181600381518110610b6057610b60611d36565b6020026020010181905250610b7582826114a1565b505050505050505050565b6002546001600160a01b03163314610baa576040516282b42960e81b815260040160405180910390fd5b600280546001600160a01b0319166001600160a01b0392909216919091179055565b7f30644e72e131a029b85045b68181585d2833e84879b9709143e1f593f00000018310610c5f5760405162461bcd60e51b815260206004820152603660248201527f53656d6170686f726547726f7570733a2067726f7570206964206d757374206260448201527519480f0814d3905492d7d4d0d053105497d19251531160521b60648201526084015b60405180910390fd5b60008381526001602052604090205460ff1615610ccc5760405162461bcd60e51b815260206004820152602560248201527f53656d6170686f726547726f7570733a2067726f757020616c72656164792065604482015264786973747360d81b6064820152608401610c56565b60008381526001602052604090819020905163b4bdd11760e01b8152600481019190915260ff831660248201526044810182905273__$ebf35adc03997610e67d8fa7fc80a43778$__9063b4bdd1179060640160006040518083038186803b158015610d3757600080fd5b505af4158015610d4b573d6000803e3d6000fd5b50506040805160ff86168152602081018590528693507fc3082aa494e9088c2c9f0fb62a0b6bd46e6699acb94cfba35be29b95a93f68c8925001610509565b610d9261181a565b6040805180820182527f2d4d9aa7e302d9df41749d5507949d05dbea33fbb16c643b22f599a2be6df2e281527f14bedd503c37ceb061d8ec60209fe345ce89830a19230301f076caff004d19266020808301919091529083528151608080820184527f0967032fcbf776d1afc985f88877f182d38480a653f2decaa9794cbc3bf3060c8285019081527f0e187847ad4c798374d0d6732bf501847dd68bc0e071241e0213bc7fc13db7ab606080850191909152908352845180860186527f304cfbd1e08a704a99f5e847d93f8c3caafddec46b7a0d379da69a4d112346a781527f1739c1b1a457a8c7313123d24d2f9192f896b7c63eea05a9d57f06547ad0cec8818601528385015285840192909252835180820185527f198e9393920d483a7260bfb731fb5d25f1aa493335a9e71297e485b7aef312c28186019081527f1800deef121f1e76426a00665e5c4479674322d4f75edadd46debd5cd992f6ed828501528152845180860186527f090689d0585ff075ec9e99ad690c3395bc4b313370b38ef355acdadcd122975b81527f12c85ea5db8c6deb4aab71808dcb408fe3d1e7690c43d37b4ce6cc0166fa7daa818601528185015285850152835190810184527f1bdb443ce61ebcf93daed4215a57e1cec90ca64973023e31197a112e8cee72f68185019081527f117e26c4235f42625b3404f2973059814ff260dba7176d7aae910f493a8e1fb5828401528152835180850185527f196e247a12f580e36894f256f0c122393489b4c213b3e913250feee806ca45ff81527f2fedff4e4bbcbf9f1c56e28a060d50eef5f54e2aab897f6b465acd2ed005ae918185015281840152908401528151600580825260c08201909352919082015b604080518082019091526000808252602082015281526020019060019003908161100d57505060808201908152604080518082019091527f2c097b31a897227a6f64c9fc31d9a8fc421b0d8b8207f92532b464e431e61db881527f0fcf6d89d77d5123a43dfb23efb9c929c28c148ca82c794057864b8e66903c546020820152905180516000906110a0576110a0611d36565b602002602001018190525060405180604001604052807f0186dae5999acfe2cda6fa7a157ae726afda7c6f57b00ea0aa6c2c23bf83838881526020017f2f078608f710c45b60d23716c58e106d8c7a1c6db28119defffc413e074f8716815250816080015160018151811061111757611117611d36565b602002602001018190525060405180604001604052807f2464c1784bda2cbfb51e5ab87cf7eb2764ad81f7038152bdbbb07d404b49aa3781526020017f0638b273e4ee33e03e42ca6c7de1ea7043dbdcaa48661864de644d91c6b4821f815250816080015160028151811061118e5761118e611d36565b602002602001018190525060405180604001604052807f098ce8b5289ef791db34b68b9e0043ab7bf25306d83a9f0ce74396b8a69c57bb81526020017f1ec6f7a81748f3d2c2b87610d747ca72045ac1530e226f00710630d41aad7e26815250816080015160038151811061120557611205611d36565b602002602001018190525060405180604001604052807f07dbf682cc528d3ff763fa576d05db50e023921728119ef66f880b6adae01cbe81526020017f0d287dcd9318207576eaa871e7b3308f613d9df7865059cdbc9f66fdef342dc6815250816080015160048151811061127c5761127c611d36565b602002602001018190525090565b60408051808201909152600080825260208201527f30644e72e131a029b85045b68181585d2833e84879b9709143e1f593f000000182106112de576040516309bde33960e01b815260040160405180910390fd5b6112e661186b565b835181526020808501519082015260408101839052600060608360808460076107d05a03fa90508061132b576040516309bde33960e01b815260040160405180910390fd5b505092915050565b604080518082019091526000808252602082015261134f611889565b8351815260208085015181830152835160408301528301516060808301919091526000908360c08460066107d05a03fa90508061132b576040516309bde33960e01b815260040160405180910390fd5b604080518082019091526000808252602082015281511580156113c457506020820151155b156113e2575050604080518082019091526000808252602082015290565b81517f30644e72e131a029b85045b68181585d97816a916871ca8d3c208c16d87cfd4711158061143657507f30644e72e131a029b85045b68181585d97816a916871ca8d3c208c16d87cfd47826020015110155b15611454576040516309bde33960e01b815260040160405180910390fd5b60405180604001604052808360000151815260200183602001517f30644e72e131a029b85045b68181585d97816a916871ca8d3c208c16d87cfd476114999190611d7b565b905292915050565b80518251146114c3576040516309bde33960e01b815260040160405180910390fd5b815160006114d2826006611e35565b905060008167ffffffffffffffff8111156114ef576114ef6118e3565b604051908082528060200260200182016040528015611518578160200160208202803683370190505b50905060005b838110156117535785818151811061153857611538611d36565b602002602001015160000151828260066115529190611e35565b61155d906000611e1d565b8151811061156d5761156d611d36565b60200260200101818152505085818151811061158b5761158b611d36565b602002602001015160200151828260066115a59190611e35565b6115b0906001611e1d565b815181106115c0576115c0611d36565b6020026020010181815250508481815181106115de576115de611d36565b60209081029190910101515151826115f7836006611e35565b611602906002611e1d565b8151811061161257611612611d36565b60200260200101818152505084818151811061163057611630611d36565b6020908102919091018101515101518261164b836006611e35565b611656906003611e1d565b8151811061166657611666611d36565b60200260200101818152505084818151811061168457611684611d36565b6020026020010151602001516000600281106116a2576116a2611d36565b6020020151826116b3836006611e35565b6116be906004611e1d565b815181106116ce576116ce611d36565b6020026020010181815250508481815181106116ec576116ec611d36565b60200260200101516020015160016002811061170a5761170a611d36565b60200201518261171b836006611e35565b611726906005611e1d565b8151811061173657611736611d36565b60209081029190910101528061174b81611d62565b91505061151e565b5061175c6118a7565b6000602082602086026020860160086107d05a03fa905080158061178257508151600114155b156117a0576040516309bde33960e01b815260040160405180910390fd5b50505050505050565b6040805160a0810190915260006060820181815260808301919091528152602081016117d36117fa565b81526020016117f5604051806040016040528060008152602001600081525090565b905290565b604051806040016040528061180d6118c5565b81526020016117f56118c5565b6040805160e08101909152600060a0820181815260c08301919091528152602081016118446117fa565b81526020016118516117fa565b815260200161185e6117fa565b8152602001606081525090565b60405180606001604052806003906020820280368337509192915050565b60405180608001604052806004906020820280368337509192915050565b60405180602001604052806001906020820280368337509192915050565b60405180604001604052806002906020820280368337509192915050565b634e487b7160e01b600052604160045260246000fd5b6040805190810167ffffffffffffffff8111828210171561191c5761191c6118e3565b60405290565b6040516080810167ffffffffffffffff8111828210171561191c5761191c6118e3565b604051601f8201601f1916810167ffffffffffffffff8111828210171561196e5761196e6118e3565b604052919050565b6000806040838503121561198957600080fd5b8235915060208084013567ffffffffffffffff808211156119a957600080fd5b818601915086601f8301126119bd57600080fd5b8135818111156119cf576119cf6118e3565b8060051b91506119e0848301611945565b81815291830184019184810190898411156119fa57600080fd5b938501935b83851015611a18578435825293850193908501906119ff565b8096505050505050509250929050565b60008060408385031215611a3b57600080fd5b50508035926020909101359150565b6000806000806000806101a080888a031215611a6557600080fd5b8735965060208801359550604088013594506060880135935060808801359250888189011115611a9457600080fd5b5060a0870190509295509295509295565b803560ff81168114611ab657600080fd5b919050565b600080600060608486031215611ad057600080fd5b83359250611ae060208501611aa5565b9150604084013590509250925092565b60008083601f840112611b0257600080fd5b50813567ffffffffffffffff811115611b1a57600080fd5b6020830191508360208260051b8501011115611b3557600080fd5b9250929050565b60008060008060008060808789031215611b5557600080fd5b8635955060208701359450604087013567ffffffffffffffff80821115611b7b57600080fd5b611b878a838b01611af0565b90965094506060890135915080821115611ba057600080fd5b50611bad89828a01611af0565b979a9699509497509295939492505050565b600082601f830112611bd057600080fd5b611bd86118f9565b806040840185811115611bea57600080fd5b845b81811015611c04578035845260209384019301611bec565b509095945050505050565b600080600080610180808688031215611c2757600080fd5b611c318787611bbf565b9450604087605f880112611c4457600080fd5b611c4c6118f9565b8060c089018a811115611c5e57600080fd5b838a015b81811015611c8357611c748c82611bbf565b84526020909301928401611c62565b50819750611c918b82611bbf565b9650505050508661011f870112611ca757600080fd5b611caf611922565b908601908088831115611cc157600080fd5b61010088015b83811015611cdf578035835260209283019201611cc7565b509598949750929550505050565b600060208284031215611cff57600080fd5b81356001600160a01b0381168114611d1657600080fd5b9392505050565b600060208284031215611d2f57600080fd5b5035919050565b634e487b7160e01b600052603260045260246000fd5b634e487b7160e01b600052601160045260246000fd5b600060018201611d7457611d74611d4c565b5060010190565b600082821015611d8d57611d8d611d4c565b500390565b8681526000602087818401526080604084015285608084015260018060fb1b03861115611dbe57600080fd5b8560051b808860a0860137830183810360a090810160608601528101859052859060009060c0015b86821015611e0e5760ff611df984611aa5565b16815291830191600191909101908301611de6565b9b9a5050505050505050505050565b60008219821115611e3057611e30611d4c565b500190565b6000816000190483118215151615611e4f57611e4f611d4c565b50029056fea264697066735822122081515ede079980f19353de4705dd360157c66771f126f396fa291c8ce76c6c4264736f6c634300080e0033",
    "linkReferences": {
        "@zk-kit/incremental-merkle-tree.sol/contracts/IncrementalBinaryTree.sol": {
            "IncrementalBinaryTree": [
                {
                    "length": 20,
                    "start": 828
                },
                {
                    "length": 20,
                    "start": 2308
                },
                {
                    "length": 20,
                    "start": 4615
                }
            ]
        }
    },
    "deployedLinkReferences": {
        "@zk-kit/incremental-merkle-tree.sol/contracts/IncrementalBinaryTree.sol": {
            "IncrementalBinaryTree": [
                {
                    "length": 20,
                    "start": 731
                },
                {
                    "length": 20,
                    "start": 2211
                },
                {
                    "length": 20,
                    "start": 4518
                }
            ]
        }
    }
}