{
  "_format": "hh-sol-artifact-1",
  "contractName": "Semaphore",
  "sourceName": "contracts/Semaphore.sol",
  "abi": [
    {
      "inputs": [
        {
          "internalType": "uint8",
          "name": "_treeLevels",
          "type": "uint8"
        },
        {
          "internalType": "uint232",
          "name": "_firstExternalNullifier",
          "type": "uint232"
        }
      ],
      "stateMutability": "nonpayable",
      "type": "constructor"
    },
    {
      "anonymous": false,
      "inputs": [
        {
          "indexed": true,
          "internalType": "uint232",
          "name": "externalNullifier",
          "type": "uint232"
        }
      ],
      "name": "ExternalNullifierAdd",
      "type": "event"
    },
    {
      "anonymous": false,
      "inputs": [
        {
          "indexed": true,
          "internalType": "uint232",
          "name": "externalNullifier",
          "type": "uint232"
        },
        {
          "indexed": true,
          "internalType": "bool",
          "name": "active",
          "type": "bool"
        }
      ],
      "name": "ExternalNullifierChangeStatus",
      "type": "event"
    },
    {
      "anonymous": false,
      "inputs": [
        {
          "indexed": true,
          "internalType": "uint256",
          "name": "leaf",
          "type": "uint256"
        },
        {
          "indexed": true,
          "internalType": "uint256",
          "name": "leafIndex",
          "type": "uint256"
        }
      ],
      "name": "LeafInsertion",
      "type": "event"
    },
    {
      "anonymous": false,
      "inputs": [
        {
          "indexed": true,
          "internalType": "address",
          "name": "previousOwner",
          "type": "address"
        },
        {
          "indexed": true,
          "internalType": "address",
          "name": "newOwner",
          "type": "address"
        }
      ],
      "name": "OwnershipTransferred",
      "type": "event"
    },
    {
      "anonymous": false,
      "inputs": [
        {
          "indexed": true,
          "internalType": "bool",
          "name": "newPermission",
          "type": "bool"
        }
      ],
      "name": "PermissionSet",
      "type": "event"
    },
    {
      "inputs": [],
      "name": "NOTHING_UP_MY_SLEEVE_ZERO",
      "outputs": [
        {
          "internalType": "uint256",
          "name": "",
          "type": "uint256"
        }
      ],
      "stateMutability": "view",
      "type": "function"
    },
    {
      "inputs": [
        {
          "internalType": "uint232",
          "name": "_externalNullifier",
          "type": "uint232"
        }
      ],
      "name": "addExternalNullifier",
      "outputs": [],
      "stateMutability": "nonpayable",
      "type": "function"
    },
    {
      "inputs": [
        {
          "internalType": "bytes",
          "name": "_signal",
          "type": "bytes"
        },
        {
          "internalType": "uint256[8]",
          "name": "_proof",
          "type": "uint256[8]"
        },
        {
          "internalType": "uint256",
          "name": "_root",
          "type": "uint256"
        },
        {
          "internalType": "uint256",
          "name": "_nullifiersHash",
          "type": "uint256"
        },
        {
          "internalType": "uint232",
          "name": "_externalNullifier",
          "type": "uint232"
        }
      ],
      "name": "broadcastSignal",
      "outputs": [],
      "stateMutability": "nonpayable",
      "type": "function"
    },
    {
      "inputs": [
        {
          "internalType": "uint232",
          "name": "_externalNullifier",
          "type": "uint232"
        }
      ],
      "name": "deactivateExternalNullifier",
      "outputs": [],
      "stateMutability": "nonpayable",
      "type": "function"
    },
    {
      "inputs": [
        {
          "internalType": "uint232",
          "name": "",
          "type": "uint232"
        }
      ],
      "name": "externalNullifierLinkedList",
      "outputs": [
        {
          "internalType": "uint232",
          "name": "next",
          "type": "uint232"
        },
        {
          "internalType": "bool",
          "name": "exists",
          "type": "bool"
        },
        {
          "internalType": "bool",
          "name": "isActive",
          "type": "bool"
        }
      ],
      "stateMutability": "view",
      "type": "function"
    },
    {
      "inputs": [
        {
          "internalType": "uint256",
          "name": "",
          "type": "uint256"
        }
      ],
      "name": "filledSubtrees",
      "outputs": [
        {
          "internalType": "uint256",
          "name": "",
          "type": "uint256"
        }
      ],
      "stateMutability": "view",
      "type": "function"
    },
    {
      "inputs": [],
      "name": "firstExternalNullifier",
      "outputs": [
        {
          "internalType": "uint232",
          "name": "",
          "type": "uint232"
        }
      ],
      "stateMutability": "view",
      "type": "function"
    },
    {
      "inputs": [
        {
          "internalType": "uint232",
          "name": "_externalNullifier",
          "type": "uint232"
        }
      ],
      "name": "getNextExternalNullifier",
      "outputs": [
        {
          "internalType": "uint232",
          "name": "",
          "type": "uint232"
        }
      ],
      "stateMutability": "view",
      "type": "function"
    },
    {
      "inputs": [],
      "name": "getNumIdentityCommitments",
      "outputs": [
        {
          "internalType": "uint256",
          "name": "",
          "type": "uint256"
        }
      ],
      "stateMutability": "view",
      "type": "function"
    },
    {
      "inputs": [
        {
          "internalType": "uint256",
          "name": "_identityCommitment",
          "type": "uint256"
        }
      ],
      "name": "insertIdentity",
      "outputs": [
        {
          "internalType": "uint256",
          "name": "",
          "type": "uint256"
        }
      ],
      "stateMutability": "nonpayable",
      "type": "function"
    },
    {
      "inputs": [],
      "name": "isBroadcastPermissioned",
      "outputs": [
        {
          "internalType": "bool",
          "name": "",
          "type": "bool"
        }
      ],
      "stateMutability": "view",
      "type": "function"
    },
    {
      "inputs": [
        {
          "internalType": "uint232",
          "name": "_externalNullifier",
          "type": "uint232"
        }
      ],
      "name": "isExternalNullifierActive",
      "outputs": [
        {
          "internalType": "bool",
          "name": "",
          "type": "bool"
        }
      ],
      "stateMutability": "view",
      "type": "function"
    },
    {
      "inputs": [],
      "name": "isOwner",
      "outputs": [
        {
          "internalType": "bool",
          "name": "",
          "type": "bool"
        }
      ],
      "stateMutability": "view",
      "type": "function"
    },
    {
      "inputs": [],
      "name": "lastExternalNullifier",
      "outputs": [
        {
          "internalType": "uint232",
          "name": "",
          "type": "uint232"
        }
      ],
      "stateMutability": "view",
      "type": "function"
    },
    {
      "inputs": [
        {
          "internalType": "uint256",
          "name": "",
          "type": "uint256"
        }
      ],
      "name": "nullifierHashHistory",
      "outputs": [
        {
          "internalType": "bool",
          "name": "",
          "type": "bool"
        }
      ],
      "stateMutability": "view",
      "type": "function"
    },
    {
      "inputs": [],
      "name": "numExternalNullifiers",
      "outputs": [
        {
          "internalType": "uint256",
          "name": "",
          "type": "uint256"
        }
      ],
      "stateMutability": "view",
      "type": "function"
    },
    {
      "inputs": [],
      "name": "owner",
      "outputs": [
        {
          "internalType": "address",
          "name": "",
          "type": "address"
        }
      ],
      "stateMutability": "view",
      "type": "function"
    },
    {
      "inputs": [
        {
          "internalType": "uint256[2]",
          "name": "_a",
          "type": "uint256[2]"
        },
        {
          "internalType": "uint256[2][2]",
          "name": "_b",
          "type": "uint256[2][2]"
        },
        {
          "internalType": "uint256[2]",
          "name": "_c",
          "type": "uint256[2]"
        }
      ],
      "name": "packProof",
      "outputs": [
        {
          "internalType": "uint256[8]",
          "name": "",
          "type": "uint256[8]"
        }
      ],
      "stateMutability": "pure",
      "type": "function"
    },
    {
      "inputs": [
        {
          "internalType": "bytes",
          "name": "_signal",
          "type": "bytes"
        },
        {
          "internalType": "uint256[8]",
          "name": "_proof",
          "type": "uint256[8]"
        },
        {
          "internalType": "uint256",
          "name": "_root",
          "type": "uint256"
        },
        {
          "internalType": "uint256",
          "name": "_nullifiersHash",
          "type": "uint256"
        },
        {
          "internalType": "uint256",
          "name": "_signalHash",
          "type": "uint256"
        },
        {
          "internalType": "uint232",
          "name": "_externalNullifier",
          "type": "uint232"
        }
      ],
      "name": "preBroadcastCheck",
      "outputs": [
        {
          "internalType": "bool",
          "name": "",
          "type": "bool"
        }
      ],
      "stateMutability": "view",
      "type": "function"
    },
    {
      "inputs": [
        {
          "internalType": "uint232",
          "name": "_externalNullifier",
          "type": "uint232"
        }
      ],
      "name": "reactivateExternalNullifier",
      "outputs": [],
      "stateMutability": "nonpayable",
      "type": "function"
    },
    {
      "inputs": [],
      "name": "renounceOwnership",
      "outputs": [],
      "stateMutability": "nonpayable",
      "type": "function"
    },
    {
      "inputs": [],
      "name": "root",
      "outputs": [
        {
          "internalType": "uint256",
          "name": "",
          "type": "uint256"
        }
      ],
      "stateMutability": "view",
      "type": "function"
    },
    {
      "inputs": [
        {
          "internalType": "uint256",
          "name": "",
          "type": "uint256"
        }
      ],
      "name": "rootHistory",
      "outputs": [
        {
          "internalType": "bool",
          "name": "",
          "type": "bool"
        }
      ],
      "stateMutability": "view",
      "type": "function"
    },
    {
      "inputs": [
        {
          "internalType": "bool",
          "name": "_newPermission",
          "type": "bool"
        }
      ],
      "name": "setPermissioning",
      "outputs": [],
      "stateMutability": "nonpayable",
      "type": "function"
    },
    {
      "inputs": [
        {
          "internalType": "address",
          "name": "newOwner",
          "type": "address"
        }
      ],
      "name": "transferOwnership",
      "outputs": [],
      "stateMutability": "nonpayable",
      "type": "function"
    },
    {
      "inputs": [
        {
          "internalType": "uint256[8]",
          "name": "_proof",
          "type": "uint256[8]"
        }
      ],
      "name": "unpackProof",
      "outputs": [
        {
          "internalType": "uint256[2]",
          "name": "",
          "type": "uint256[2]"
        },
        {
          "internalType": "uint256[2][2]",
          "name": "",
          "type": "uint256[2][2]"
        },
        {
          "internalType": "uint256[2]",
          "name": "",
          "type": "uint256[2]"
        }
      ],
      "stateMutability": "pure",
      "type": "function"
    },
    {
      "inputs": [
        {
          "internalType": "uint256[2]",
          "name": "a",
          "type": "uint256[2]"
        },
        {
          "internalType": "uint256[2][2]",
          "name": "b",
          "type": "uint256[2][2]"
        },
        {
          "internalType": "uint256[2]",
          "name": "c",
          "type": "uint256[2]"
        },
        {
          "internalType": "uint256[4]",
          "name": "input",
          "type": "uint256[4]"
        }
      ],
      "name": "verifyProof",
      "outputs": [
        {
          "internalType": "bool",
          "name": "r",
          "type": "bool"
        }
      ],
      "stateMutability": "view",
      "type": "function"
    },
    {
      "inputs": [
        {
          "internalType": "uint256",
          "name": "",
          "type": "uint256"
        }
      ],
      "name": "zeros",
      "outputs": [
        {
          "internalType": "uint256",
          "name": "",
          "type": "uint256"
        }
      ],
      "stateMutability": "view",
      "type": "function"
    }
  ],
  "bytecode": "0x60006001819055604655604780546001600160e81b0319169055604880546001600160f01b03191690556853656d6170686f726560b81b60a052600960805260a96040527f1c4823575d154474ee3e5ac838d002456a815181437afd14f126da58a9912bbe604a553480156200007457600080fd5b5060405162003d7538038062003d75833981810160405260408110156200009a57600080fd5b508051602090910151604a54829060ff821615801590620000bf5750602060ff831611155b620000fc5760405162461bcd60e51b815260040180806020018281038252603b81526020018062003d3a603b913960400191505060405180910390fd5b6000805460ff191660ff84161781558190600301558060015b8360ff168160ff16101562000167576000620001328380620001db565b90508060038360ff16602081106200014657fe5b015580602360ff8416602081106200015a57fe5b0155915060010162000115565b50620001748180620001db565b6002555050604480546001600160a01b0319163317908190556040516001600160a01b039190911691506000907f8be0079c531659141344cd1fd0a4f28419497f9722a3daafe3b4186f6b6457e0908290a3620001d381600162000337565b50506200048a565b60408051633f1a118760e01b81526004810184905260006024820181905260448201819052825190928592849273__$cf5da3090e28b1d67a537682696360513a$__92633f1a11879260648082019391829003018186803b1580156200024057600080fd5b505af415801562000255573d6000803e3d6000fd5b505050506040513d60408110156200026c57600080fd5b50805160209091015190925090507f30644e72e131a029b85045b68181585d2833e84879b9709143e1f593f000000184830860408051633f1a118760e01b8152600481018390526024810184905260006044820152815192945073__$cf5da3090e28b1d67a537682696360513a$__92633f1a118792606480840193919291829003018186803b1580156200030057600080fd5b505af415801562000315573d6000803e3d6000fd5b505050506040513d60408110156200032c57600080fd5b505195945050505050565b80156200035f57604780546001600160e81b0319166001600160e81b038416179055620003f2565b6001600160e81b038216600090815260456020526040902054600160e81b900460ff1615620003c05760405162461bcd60e51b815260040180806020018281038252602981526020018062003d116029913960400191505060405180910390fd5b6048546001600160e81b03908116600090815260456020526040902080546001600160e81b0319169184169190911790555b6001600160e81b038216600081815260456020526040808220805460ff60e81b197fff00ff0000000000000000000000000000000000000000000000000000000000909116600160f01b1716600160e81b179055604880546001600160e81b03191684179055604680546001019055517fd1ca56647596090d70fa8d49bcc376b97248314e3f204c491333b3440405f5899190a25050565b613877806200049a6000396000f3fe608060405234801561001057600080fd5b50600436106101c45760003560e01c80638f32d59b116100f9578063e829558811610097578063f178e47c11610071578063f178e47c146108c1578063f1c621ee146108de578063f2fde38b146108fb578063f5ab0dd61461092e576101c4565b8063e829558814610860578063eac4287e1461087d578063ebf0c717146108b9576101c4565b8063c3a3407f116100d3578063c3a3407f146107e0578063c4cd55961461081c578063c8cf02da14610839578063ce85bbdb14610841576101c4565b80638f32d59b146107c85780638f6efd00146107d0578063ba10b81d146107d8576101c4565b80635fe8c13b11610166578063715018a611610140578063715018a6146106d75780637a5519f9146106df578063819bd8a51461075b5780638da5cb5b14610797576101c4565b80635fe8c13b146105a45780636d80efca146106a05780636ebf6265146106cf576101c4565b8063539f38b2116101a2578063539f38b2146103215780635d3ce7251461035d5780635d86faba146104615780635e05ea171461049b576101c4565b80630e57596f146101c957806323baaa83146102c9578063283ebaf414610305575b600080fd5b6102c760048036036101808110156101e057600080fd5b8101906020810181356401000000008111156101fb57600080fd5b82018360208201111561020d57600080fd5b8035906020019184600183028401116401000000008311171561022f57600080fd5b91908080601f01602080910402602001604051908101604052809392919081815260200183838082843760009201919091525050604080516101008181019092529396959481810194935091506008908390839080828437600092019190915250919450508135925050602081013590604001357cffffffffffffffffffffffffffffffffffffffffffffffffffffffffff16610a35565b005b6102c7600480360360208110156102df57600080fd5b50357cffffffffffffffffffffffffffffffffffffffffffffffffffffffffff16610e1b565b61030d611065565b604080519115158252519081900360200190f35b6102c76004803603602081101561033757600080fd5b50357cffffffffffffffffffffffffffffffffffffffffffffffffffffffffff1661108f565b61030d60048036036101a081101561037457600080fd5b81019060208101813564010000000081111561038f57600080fd5b8201836020820111156103a157600080fd5b803590602001918460018302840111640100000000831117156103c357600080fd5b91908080601f01602080910402602001604051908101604052809392919081815260200183838082843760009201919091525050604080516101008181019092529396959481810194935091506008908390839080828437600092019190915250919450508135925050602081013590604081013590606001357cffffffffffffffffffffffffffffffffffffffffffffffffffffffffff16611110565b610469611270565b604080517cffffffffffffffffffffffffffffffffffffffffffffffffffffffffff9092168252519081900360200190f35b61056b60048036036101008110156104b257600080fd5b6040805180820182529183019291818301918390600290839083908082843760009201829052506040805180820190915293969594608081019493509150600290835b8282101561053357604080518082018252908084028601906002908390839080828437600092019190915250505081526001909101906020016104f5565b505060408051808201825293969594818101949350915060029083908390808284376000920191909152509194506112959350505050565b604051808261010080838360005b83811015610591578181015183820152602001610579565b5050505090500191505060405180910390f35b61030d60048036036101808110156105bb57600080fd5b6040805180820182529183019291818301918390600290839083908082843760009201829052506040805180820190915293969594608081019493509150600290835b8282101561063c57604080518082018252908084028601906002908390839080828437600092019190915250505081526001909101906020016105fe565b5050604080518082018252939695948181019493509150600290839083908082843760009201919091525050604080516080818101909252929594938181019392509060049083908390808284376000920191909152509194506112f29350505050565b6106bd600480360360208110156106b657600080fd5b5035611981565b60408051918252519081900360200190f35b6106bd611a62565b6102c7611a68565b61071b600480360360208110156106f557600080fd5b50357cffffffffffffffffffffffffffffffffffffffffffffffffffffffffff16611b4a565b604080517cffffffffffffffffffffffffffffffffffffffffffffffffffffffffff90941684529115156020840152151582820152519081900360600190f35b6102c76004803603602081101561077157600080fd5b50357cffffffffffffffffffffffffffffffffffffffffffffffffffffffffff16611bc6565b61079f611e2c565b6040805173ffffffffffffffffffffffffffffffffffffffff9092168252519081900360200190f35b61030d611e48565b6106bd611e66565b6106bd611e6c565b610469600480360360208110156107f657600080fd5b50357cffffffffffffffffffffffffffffffffffffffffffffffffffffffffff16611e72565b61030d6004803603602081101561083257600080fd5b5035612003565b610469612018565b6102c76004803603602081101561085757600080fd5b5035151561203d565b6106bd6004803603602081101561087657600080fd5b503561212e565b61030d6004803603602081101561089357600080fd5b50357cffffffffffffffffffffffffffffffffffffffffffffffffffffffffff16612142565b6106bd612198565b6106bd600480360360208110156108d757600080fd5b503561219e565b61030d600480360360208110156108f457600080fd5b50356121ab565b6102c76004803603602081101561091157600080fd5b503573ffffffffffffffffffffffffffffffffffffffff166121c0565b610982600480360361010081101561094557600080fd5b81019080806101000190600880602002604051908101604052809291908260086020028082843760009201919091525091945061223c9350505050565b6040518084600260200280838360005b838110156109aa578181015183820152602001610992565b505050509050018360026000925b818410156109f85760208402830151604080838360005b838110156109e75781810151838201526020016109cf565b5050505090500192600101926109b8565b9250505082600260200280838360005b83811015610a20578181015183820152602001610a08565b50505050905001935050505060405180910390f35b6048547d010000000000000000000000000000000000000000000000000000000000900460ff161580610a6b5750610a6b611e48565b610ac0576040517f08c379a000000000000000000000000000000000000000000000000000000000815260040180806020018281038252602681526020018061370b6026913960400191505060405180910390fd5b8484848484610ace846122c5565b610b23576040517f08c379a000000000000000000000000000000000000000000000000000000000815260040180806020018281038252602c815260200180613731602c913960400191505060405180910390fd5b60008281526049602052604090205460ff1615610b8b576040517f08c379a000000000000000000000000000000000000000000000000000000000815260040180806020018281038252602181526020018061375d6021913960400191505060405180910390fd5b610b9481612142565b610be9576040517f08c379a000000000000000000000000000000000000000000000000000000000815260040180806020018281038252602781526020018061377e6027913960400191505060405180910390fd5b60008381526043602052604090205460ff16610c6657604080517f08c379a000000000000000000000000000000000000000000000000000000000815260206004820152601860248201527f53656d6170686f72653a20726f6f74206e6f74207365656e0000000000000000604482015290519081900360640190fd5b6000610c7186612437565b90507f30644e72e131a029b85045b68181585d2833e84879b9709143e1f593f00000018310610ceb576040517f08c379a00000000000000000000000000000000000000000000000000000000081526004018080602001828103825260408152602001806137ec6040913960400191505060405180910390fd5b610cf36133ce565b6040518060800160405280868152602001858152602001838152602001847cffffffffffffffffffffffffffffffffffffffffffffffffffffffffff168152509050610d3d6133ec565b610d4561340a565b610d4d6133ec565b610d568961223c565b925092509250610d68838383876112f2565b610dd357604080517f08c379a000000000000000000000000000000000000000000000000000000000815260206004820152601860248201527f53656d6170686f72653a20696e76616c69642070726f6f660000000000000000604482015290519081900360640190fd5b5050506000988952505060496020525050604090942080547fffffffffffffffffffffffffffffffffffffffffffffffffffffffffffffff0016600117905550505050505050565b610e23611e48565b610e8e57604080517f08c379a000000000000000000000000000000000000000000000000000000000815260206004820181905260248201527f4f776e61626c653a2063616c6c6572206973206e6f7420746865206f776e6572604482015290519081900360640190fd5b7cffffffffffffffffffffffffffffffffffffffffffffffffffffffffff81166000908152604560205260409020547d010000000000000000000000000000000000000000000000000000000000900460ff16610f36576040517f08c379a000000000000000000000000000000000000000000000000000000000815260040180806020018281038252602781526020018061377e6027913960400191505060405180910390fd5b7cffffffffffffffffffffffffffffffffffffffffffffffffffffffffff81166000908152604560205260409020547e01000000000000000000000000000000000000000000000000000000000000900460ff161515600114610fe4576040517f08c379a00000000000000000000000000000000000000000000000000000000081526004018080602001828103825260318152602001806136b16031913960400191505060405180910390fd5b7cffffffffffffffffffffffffffffffffffffffffffffffffffffffffff811660008181526045602052604080822080547fff00ffffffffffffffffffffffffffffffffffffffffffffffffffffffffffff169055519091907fb8d2b8a2b352df7f139810483b3c80fc3a4a88711c90bdb7180f1030b7f49acf908390a350565b6048547d010000000000000000000000000000000000000000000000000000000000900460ff1681565b611097611e48565b61110257604080517f08c379a000000000000000000000000000000000000000000000000000000000815260206004820181905260248201527f4f776e61626c653a2063616c6c6572206973206e6f7420746865206f776e6572604482015290519081900360640190fd5b61110d816000612445565b50565b600061111a6133ce565b6040518060800160405280878152602001868152602001858152602001847cffffffffffffffffffffffffffffffffffffffffffffffffffffffffff1681525090506111646133ec565b61116c61340a565b6111746133ec565b61117d8a61223c565b60008b815260496020526040902054929550909350915060ff161580156111ab5750866111a98c612437565b145b80156111be57506111bb8b612437565b87145b80156111ce57506111ce86612142565b80156111e8575060008981526043602052604090205460ff165b80156111f857506111f88a6122c5565b801561122357507f30644e72e131a029b85045b68181585d2833e84879b9709143e1f593f000000189105b801561124e57507f30644e72e131a029b85045b68181585d2833e84879b9709143e1f593f000000188105b80156112615750611261838383876112f2565b9b9a5050505050505050505050565b6047547cffffffffffffffffffffffffffffffffffffffffffffffffffffffffff1681565b61129d613437565b5060408051610100810182528451815260209485015185820152835151918101919091528251840151606082015291830180515160808401525183015160a0830152805160c08301529091015160e082015290565b60006112fc613456565b60408051808201825287518152602080890151818301529083528151608081018352875151818401908152885183015160608301528152825180840184528883018051518252518301518184015281830152838201528151808301835286518152868201519181019190915290820152611374613488565b61137c6126b8565b90506113866134cf565b5060408051808201909152600080825260208201528251517f30644e72e131a029b85045b68181585d97816a916871ca8d3c208c16d87cfd471161142b57604080517f08c379a000000000000000000000000000000000000000000000000000000000815260206004820152601760248201527f76657269666965722d61582d6774652d7072696d652d71000000000000000000604482015290519081900360640190fd5b8251602001517f30644e72e131a029b85045b68181585d97816a916871ca8d3c208c16d87cfd47116114be57604080517f08c379a000000000000000000000000000000000000000000000000000000000815260206004820152601760248201527f76657269666965722d61592d6774652d7072696d652d71000000000000000000604482015290519081900360640190fd5b602083015151517f30644e72e131a029b85045b68181585d97816a916871ca8d3c208c16d87cfd471161155257604080517f08c379a000000000000000000000000000000000000000000000000000000000815260206004820152601860248201527f76657269666965722d6258302d6774652d7072696d652d710000000000000000604482015290519081900360640190fd5b6020838101510151517f30644e72e131a029b85045b68181585d97816a916871ca8d3c208c16d87cfd47116115e857604080517f08c379a000000000000000000000000000000000000000000000000000000000815260206004820152601860248201527f76657269666965722d6259302d6774652d7072696d652d710000000000000000604482015290519081900360640190fd5b6020838101515101517f30644e72e131a029b85045b68181585d97816a916871ca8d3c208c16d87cfd471161167e57604080517f08c379a000000000000000000000000000000000000000000000000000000000815260206004820152601860248201527f76657269666965722d6258312d6774652d7072696d652d710000000000000000604482015290519081900360640190fd5b60208381015181015101517f30644e72e131a029b85045b68181585d97816a916871ca8d3c208c16d87cfd471161171657604080517f08c379a000000000000000000000000000000000000000000000000000000000815260206004820152601860248201527f76657269666965722d6259312d6774652d7072696d652d710000000000000000604482015290519081900360640190fd5b6040830151517f30644e72e131a029b85045b68181585d97816a916871ca8d3c208c16d87cfd47116117a957604080517f08c379a000000000000000000000000000000000000000000000000000000000815260206004820152601760248201527f76657269666965722d63582d6774652d7072696d652d71000000000000000000604482015290519081900360640190fd5b7f30644e72e131a029b85045b68181585d97816a916871ca8d3c208c16d87cfd478360400151602001511061183f57604080517f08c379a000000000000000000000000000000000000000000000000000000000815260206004820152601760248201527f76657269666965722d63592d6774652d7072696d652d71000000000000000000604482015290519081900360640190fd5b60005b600481101561192d577f30644e72e131a029b85045b68181585d2833e84879b9709143e1f593f000000186826004811061187857fe5b6020020151106118e957604080517f08c379a000000000000000000000000000000000000000000000000000000000815260206004820152601f60248201527f76657269666965722d6774652d736e61726b2d7363616c61722d6669656c6400604482015290519081900360640190fd5b6119238261191e8560800151846001016005811061190357fe5b602002015189856004811061191457fe5b6020020151612ad8565b612b92565b9150600101611842565b5060808201515161193f908290612b92565b90506119756119518460000151612c48565b84602001518460000151856020015185876040015189604001518960600151612cee565b98975050505050505050565b600061198b611e48565b6119f657604080517f08c379a000000000000000000000000000000000000000000000000000000000815260206004820181905260248201527f4f776e61626c653a2063616c6c6572206973206e6f7420746865206f776e6572604482015290519081900360640190fd5b604a54821415611a51576040517f08c379a00000000000000000000000000000000000000000000000000000000081526004018080602001828103825260478152602001806136226047913960600191505060405180910390fd5b611a5a82612f6e565b90505b919050565b604a5481565b611a70611e48565b611adb57604080517f08c379a000000000000000000000000000000000000000000000000000000000815260206004820181905260248201527f4f776e61626c653a2063616c6c6572206973206e6f7420746865206f776e6572604482015290519081900360640190fd5b60445460405160009173ffffffffffffffffffffffffffffffffffffffff16907f8be0079c531659141344cd1fd0a4f28419497f9722a3daafe3b4186f6b6457e0908390a3604480547fffffffffffffffffffffffff0000000000000000000000000000000000000000169055565b6045602052600090815260409020547cffffffffffffffffffffffffffffffffffffffffffffffffffffffffff81169060ff7d01000000000000000000000000000000000000000000000000000000000082048116917e0100000000000000000000000000000000000000000000000000000000000090041683565b611bce611e48565b611c3957604080517f08c379a000000000000000000000000000000000000000000000000000000000815260206004820181905260248201527f4f776e61626c653a2063616c6c6572206973206e6f7420746865206f776e6572604482015290519081900360640190fd5b7cffffffffffffffffffffffffffffffffffffffffffffffffffffffffff81166000908152604560205260409020547d010000000000000000000000000000000000000000000000000000000000900460ff16611ce1576040517f08c379a000000000000000000000000000000000000000000000000000000000815260040180806020018281038252602781526020018061377e6027913960400191505060405180910390fd5b7cffffffffffffffffffffffffffffffffffffffffffffffffffffffffff81166000908152604560205260409020547e01000000000000000000000000000000000000000000000000000000000000900460ff1615611d8b576040517f08c379a000000000000000000000000000000000000000000000000000000000815260040180806020018281038252602f8152602001806135cd602f913960400191505060405180910390fd5b7cffffffffffffffffffffffffffffffffffffffffffffffffffffffffff811660008181526045602052604080822080547fff00ffffffffffffffffffffffffffffffffffffffffffffffffffffffffffff167e0100000000000000000000000000000000000000000000000000000000000017905551600192917fb8d2b8a2b352df7f139810483b3c80fc3a4a88711c90bdb7180f1030b7f49acf91a350565b60445473ffffffffffffffffffffffffffffffffffffffff1690565b60445473ffffffffffffffffffffffffffffffffffffffff16331490565b60465481565b60015490565b7cffffffffffffffffffffffffffffffffffffffffffffffffffffffffff81166000908152604560205260408120547d010000000000000000000000000000000000000000000000000000000000900460ff16611f1a576040517f08c379a000000000000000000000000000000000000000000000000000000000815260040180806020018281038252602581526020018061368c6025913960400191505060405180910390fd5b7cffffffffffffffffffffffffffffffffffffffffffffffffffffffffff8083166000908152604560205260409020546046549116906001108015611fae57507cffffffffffffffffffffffffffffffffffffffffffffffffffffffffff81166000908152604560205260409020547d010000000000000000000000000000000000000000000000000000000000900460ff165b611a5a576040517f08c379a000000000000000000000000000000000000000000000000000000000815260040180806020018281038252603f81526020018061382c603f913960400191505060405180910390fd5b60496020526000908152604090205460ff1681565b6048547cffffffffffffffffffffffffffffffffffffffffffffffffffffffffff1681565b612045611e48565b6120b057604080517f08c379a000000000000000000000000000000000000000000000000000000000815260206004820181905260248201527f4f776e61626c653a2063616c6c6572206973206e6f7420746865206f776e6572604482015290519081900360640190fd5b604880547fffff00ffffffffffffffffffffffffffffffffffffffffffffffffffffffffff167d010000000000000000000000000000000000000000000000000000000000831515908102919091179091556040517ffba91b9002bc7732a7bff1b44ee16a30ebaeb06d7921779034c6a6ab27e69c2790600090a250565b6003816020811061213b57fe5b0154905081565b7cffffffffffffffffffffffffffffffffffffffffffffffffffffffffff166000908152604560205260409020547e01000000000000000000000000000000000000000000000000000000000000900460ff1690565b60025481565b6023816020811061213b57fe5b60436020526000908152604090205460ff1681565b6121c8611e48565b61223357604080517f08c379a000000000000000000000000000000000000000000000000000000000815260206004820181905260248201527f4f776e61626c653a2063616c6c6572206973206e6f7420746865206f776e6572604482015290519081900360640190fd5b61110d8161314c565b6122446133ec565b61224c61340a565b6122546133ec565b50506040805180820182528351815260208085015181830152825160808082018552868501518286019081526060808901519084015282528451808601865290870151815260a08701518184015281830152835180850190945260c0860151845260e0909501519083015293909150565b80516000907f30644e72e131a029b85045b68181585d2833e84879b9709143e1f593f000000111801561231b575060208201517f30644e72e131a029b85045b68181585d2833e84879b9709143e1f593f0000001115b801561234a575060408201517f30644e72e131a029b85045b68181585d2833e84879b9709143e1f593f0000001115b8015612379575060608201517f30644e72e131a029b85045b68181585d2833e84879b9709143e1f593f0000001115b80156123a8575060808201517f30644e72e131a029b85045b68181585d2833e84879b9709143e1f593f0000001115b80156123d7575060a08201517f30644e72e131a029b85045b68181585d2833e84879b9709143e1f593f0000001115b8015612406575060c08201517f30644e72e131a029b85045b68181585d2833e84879b9709143e1f593f0000001115b8015611a5a57505060e001517f30644e72e131a029b85045b68181585d2833e84879b9709143e1f593f00000011190565b805160209091012060081c90565b801561249957604780547fffffff0000000000000000000000000000000000000000000000000000000000167cffffffffffffffffffffffffffffffffffffffffffffffffffffffffff84161790556125a2565b7cffffffffffffffffffffffffffffffffffffffffffffffffffffffffff82166000908152604560205260409020547d010000000000000000000000000000000000000000000000000000000000900460ff1615612542576040517f08c379a00000000000000000000000000000000000000000000000000000000081526004018080602001828103825260298152602001806136e26029913960400191505060405180910390fd5b6048547cffffffffffffffffffffffffffffffffffffffffffffffffffffffffff908116600090815260456020526040902080547fffffff0000000000000000000000000000000000000000000000000000000000169184169190911790555b7cffffffffffffffffffffffffffffffffffffffffffffffffffffffffff821660008181526045602052604080822080547fffff00ffffffffffffffffffffffffffffffffffffffffffffffffffffffffff7fff00ff00000000000000000000000000000000000000000000000000000000009091167e0100000000000000000000000000000000000000000000000000000000000017167d010000000000000000000000000000000000000000000000000000000000179055604880547fffffff00000000000000000000000000000000000000000000000000000000001684179055604680546001019055517fd1ca56647596090d70fa8d49bcc376b97248314e3f204c491333b3440405f5899190a25050565b6126c0613488565b6040805180820182527f0a5c7213e0c61d1c0acc2a543540ffe37f4f4ba81fea3b0f3ae1af52fd98f08b81527f1b87f3cadd5d1415e2df9d37c625962cb843e1a3a8b5ac2ad20afbc39a46fc046020808301919091529083528151608080820184527f19eb24ff6177ae9e94f271a825fcf62f082e76dbf2b5d8ab0d9b17f7a667633d8285019081527f0bbc330ace4ec6959295db13b0cc1ceb48859140198491b0834d129c475325ce606080850191909152908352845180860186527f1e5edc15a86ebc9c9fffd23e64cbb813da63fcc0ac5ab8857906900a2e44021381527f203b10133adc8646374827f863c21a340493476856c8c1dbd0a6625d9d3c4364818601528385015285840192909252835180820185527f2db1f3d9c0c14441a893ec95785cf43083158786355c32a824acafaf9ab34af08186019081527f0913d611f6ecade3d6df033465fef9cfb16edd398bfdb72f7bc9f3ff80e9a08a828501528152845180860186527f19a76223c0a0addc65adbdec7761d35b373887cb024273da84812d6aefcc031081527ec359f4f540c0030a18bce58bb7b3b418ac4b138d091826ec01dbf5e25687a7818601528185015285850152835180820185527f0ad1ca293ea861d3b09c03607ef5a271fb2a3d5e3b8dfe5e55efa63d2e8f9eb98186019081527f037572ad36d88333cb17a1049ba8ddbdcaa59a4588d5fd5f1401a5e3962f9995828501528152845180860186527f1d50e5d54e5b17963a8a8e710aaa8babe5e33652789da5b3a26bebca4b6ebc3781527f17fa7fc3c794c16f5c710abc79627fdc6af9739a6e9a061d2d4f7137187971e8818601528185015282860152835180850185527f1f3fafe7e2244aea8ba5e1be37179809d8262790d2302b3187f48737d263088781527f0b551e2bc2aa0a8981c1242217755e991bba142939f26852ed52bcfb5f0c7df581850152818601805191909152845180860186527f05299203b4df4081f8b5e346e93a4e5bcaab05df9d6922e6449c537306166f5381527f24a61f2aab38d2349d77fb3f06f544c9dab354ba22a81fc29e64e82bb04b6f73818601528151850152845180860186527f25cf17364022ba439d8329d00a9d32b6a62db8d7dba57b01a6d4d0410bcc43b481527f2c37bf3f3a736cb75d0055a89f0e9beb1151cdae3a73206502386cde162a5952818601528151860152845180860186527f26b391e123466aeda54ab0883b574361ce1318b407f9372b9a163afe29d6c09581527f0460abbffc2f0f3b65e37c3215c9ae4f468adc4a8f49520e0da1b98ec9380f3b8186015281519093019290925283518085019094527f2d300046ec3b7fdb2b15fddf6e7bb6bcb44e99f74b1daa4f5c40c8842d162c1384527f120e17799de1a8ae2ec1ed575fea4d70449962993863483d5fdfac090fdc1bed9284019290925251015290565b612ae06134cf565b612ae86134e9565b835181526020808501519082015260408101839052600060608360808460076107d05a03fa9050808015612b1b57612b1d565bfe5b5080612b8a57604080517f08c379a000000000000000000000000000000000000000000000000000000000815260206004820152601260248201527f70616972696e672d6d756c2d6661696c65640000000000000000000000000000604482015290519081900360640190fd5b505092915050565b612b9a6134cf565b612ba26133ce565b8351815260208085015181830152835160408301528301516060808301919091526000908360c08460066107d05a03fa9050808015612b1b575080612b8a57604080517f08c379a000000000000000000000000000000000000000000000000000000000815260206004820152601260248201527f70616972696e672d6164642d6661696c65640000000000000000000000000000604482015290519081900360640190fd5b612c506134cf565b8151158015612c6157506020820151155b15612c8057506040805180820190915260008082526020820152611a5d565b6040518060400160405280836000015181526020017f30644e72e131a029b85045b68181585d97816a916871ca8d3c208c16d87cfd47846020015181612cc257fe5b067f30644e72e131a029b85045b68181585d97816a916871ca8d3c208c16d87cfd470390529050611a5d565b6000612cf8613507565b60405180608001604052808b8152602001898152602001878152602001858152509050612d23613534565b50604080516080810182528a81526020810189905280820187905260608082018690528251601880825261032082019094529192918281602001602082028036833701905050905060005b6004811015612ec55760068102858260048110612d8757fe5b6020020151518351849083908110612d9b57fe5b602002602001018181525050858260048110612db357fe5b602002015160200151838260010181518110612dcb57fe5b602002602001018181525050848260048110612de357fe5b602002015151518351849060028401908110612dfb57fe5b602002602001018181525050848260048110612e1357fe5b60200201515160016020020151838260030181518110612e2f57fe5b602002602001018181525050848260048110612e4757fe5b602002015160200151600060028110612e5c57fe5b6020020151838260040181518110612e7057fe5b602002602001018181525050848260048110612e8857fe5b602002015160200151600160028110612e9d57fe5b6020020151838260050181518110612eb157fe5b602090810291909101015250600101612d6e565b50612ece613561565b6000602082602086026020860160086107d05a03fa9050808015612b1b575080612f5957604080517f08c379a000000000000000000000000000000000000000000000000000000000815260206004820152601560248201527f70616972696e672d6f70636f64652d6661696c65640000000000000000000000604482015290519081900360640190fd5b505115159d9c50505050505050505050505050565b60007f30644e72e131a029b85045b68181585d2833e84879b9709143e1f593f00000018210612fe8576040517f08c379a00000000000000000000000000000000000000000000000000000000081526004018080602001828103825260478152602001806137a56047913960600191505060405180910390fd5b60015460005460ff16600281900a821061304d576040517f08c379a00000000000000000000000000000000000000000000000000000000081526004018080602001828103825260238152602001806136696023913960400191505060405180910390fd5b83600080805b60005460ff90811690821610156130cc576002860661309b5783925060038160ff166020811061307f57fe5b015491508360238260ff166020811061309457fe5b01556130b3565b60238160ff16602081106130ab57fe5b015492508391505b6130bd8383613246565b600196871c9690945001613053565b50600283905560008381526043602052604080822080547fffffffffffffffffffffffffffffffffffffffffffffffffffffffffffffff0016600190811790915580548082019091559051909182918a917fe6f49fa84abd31919f446b22a52bb3ceae774b4b87f062f022fec45c46f4f45891a350939695505050505050565b73ffffffffffffffffffffffffffffffffffffffff81166131b8576040517f08c379a00000000000000000000000000000000000000000000000000000000081526004018080602001828103825260268152602001806135fc6026913960400191505060405180910390fd5b60445460405173ffffffffffffffffffffffffffffffffffffffff8084169216907f8be0079c531659141344cd1fd0a4f28419497f9722a3daafe3b4186f6b6457e090600090a3604480547fffffffffffffffffffffffff00000000000000000000000000000000000000001673ffffffffffffffffffffffffffffffffffffffff92909216919091179055565b604080517f3f1a11870000000000000000000000000000000000000000000000000000000081526004810184905260006024820181905260448201819052825190928592849273__$cf5da3090e28b1d67a537682696360513a$__92633f1a11879260648082019391829003018186803b1580156132c357600080fd5b505af41580156132d7573d6000803e3d6000fd5b505050506040513d60408110156132ed57600080fd5b50805160209091015190925090507f30644e72e131a029b85045b68181585d2833e84879b9709143e1f593f0000001848308604080517f3f1a1187000000000000000000000000000000000000000000000000000000008152600481018390526024810184905260006044820152815192945073__$cf5da3090e28b1d67a537682696360513a$__92633f1a118792606480840193919291829003018186803b15801561339957600080fd5b505af41580156133ad573d6000803e3d6000fd5b505050506040513d60408110156133c357600080fd5b505195945050505050565b60405180608001604052806004906020820280368337509192915050565b60405180604001604052806002906020820280368337509192915050565b60405180604001604052806002905b6134216133ec565b8152602001906001900390816134195790505090565b6040518061010001604052806008906020820280368337509192915050565b60405180606001604052806134696134cf565b815260200161347661357f565b81526020016134836134cf565b905290565b6040518060a0016040528061349b6134cf565b81526020016134a861357f565b81526020016134b561357f565b81526020016134c261357f565b815260200161348361359f565b604051806040016040528060008152602001600081525090565b60405180606001604052806003906020820280368337509192915050565b60405180608001604052806004905b61351e6134cf565b8152602001906001900390816135165790505090565b60405180608001604052806004905b61354b61357f565b8152602001906001900390816135435790505090565b60405180602001604052806001906020820280368337509192915050565b60405180604001604052806135926133ec565b81526020016134836133ec565b6040518060a001604052806005905b6135b66134cf565b8152602001906001900390816135ae579050509056fe53656d6170686f72653a2065787465726e616c206e756c6c696669657220697320616c7265616479206163746976654f776e61626c653a206e6577206f776e657220697320746865207a65726f206164647265737353656d6170686f72653a206964656e7469747920636f6d6d69746d656e742063616e6e6f7420626520746865206e6f7468696e672d75702d6d792d736c656576652d76616c7565496e6372656d656e74616c4d65726b6c65547265653a20747265652069732066756c6c53656d6170686f72653a206e6f20737563682065787465726e616c206e756c6c696669657253656d6170686f72653a2065787465726e616c206e756c6c696669657220616c726561647920646561637469766174656453656d6170686f72653a2065787465726e616c206e756c6c696669657220616c72656164792073657453656d6170686f72653a2062726f616463617374207065726d697373696f6e2064656e69656453656d6170686f72653a20696e76616c6964206669656c6420656c656d656e7428732920696e2070726f6f6653656d6170686f72653a206e756c6c696669657220616c7265616479207365656e53656d6170686f72653a2065787465726e616c206e756c6c6966696572206e6f7420666f756e64496e6372656d656e74616c4d65726b6c65547265653a20696e736572744c65616620617267756d656e74206d757374206265203c20534e41524b5f5343414c41525f4649454c4453656d6170686f72653a20746865206e756c6c6966696572732068617368206d757374206265206c742074686520736e61726b207363616c6172206669656c6453656d6170686f72653a206e6f2065787465726e616c206e756c6c6966696572206578697374732061667465722074686520737065636966696564206f6e65a164736f6c634300060c000a53656d6170686f72653a2065787465726e616c206e756c6c696669657220616c726561647920736574496e6372656d656e74616c4d65726b6c65547265653a205f747265654c6576656c73206d757374206265206265747765656e203020616e64203333",
  "linkReferences": {
    "contracts/MiMC.sol": {
      "MiMC": [
        {
          "length": 20,
          "start": 522
        },
        {
          "length": 20,
          "start": 712
        },
        {
          "length": 20,
          "start": 14120
        },
        {
          "length": 20,
          "start": 14332
        }
      ]
    }
  },
  "deployedLinkReferences": {
    "contracts/MiMC.sol": {
      "MiMC": [
        {
          "length": 20,
          "start": 12942
        },
        {
          "length": 20,
          "start": 13154
        }
      ]
    }
  }
}