{
  "abi": [
    {
      "inputs": [],
      "name": "ProofInvalid",
      "type": "error"
    },
    {
      "inputs": [],
      "name": "PublicInputNotInField",
      "type": "error"
    },
    {
      "inputs": [
        {
          "internalType": "uint256[8]",
          "name": "proof",
          "type": "uint256[8]"
        }
      ],
      "name": "compressProof",
      "outputs": [
        {
          "internalType": "uint256[4]",
          "name": "compressed",
          "type": "uint256[4]"
        }
      ],
      "stateMutability": "view",
      "type": "function"
    },
    {
      "inputs": [
        {
          "internalType": "uint256[4]",
          "name": "compressedProof",
          "type": "uint256[4]"
        },
        {
          "internalType": "uint256[4]",
          "name": "input",
          "type": "uint256[4]"
        }
      ],
      "name": "verifyCompressedProof",
      "outputs": [],
      "stateMutability": "view",
      "type": "function"
    },
    {
      "inputs": [
        {
          "internalType": "uint256[8]",
          "name": "proof",
          "type": "uint256[8]"
        },
        {
          "internalType": "uint256[4]",
          "name": "input",
          "type": "uint256[4]"
        }
      ],
      "name": "verifyProof",
      "outputs": [],
      "stateMutability": "view",
      "type": "function"
    }
  ],
  "bytecode": {
    "object": "0x608060405234801561001057600080fd5b50611461806100206000396000f3fe608060405234801561001057600080fd5b50600436106100415760003560e01c8063235725111461004657806344f636921461005b578063f2457c8d14610084575b600080fd5b6100596100543660046112fb565b610097565b005b61006e610069366004611332565b610315565b60405161007b9190611356565b60405180910390f35b610059610092366004611387565b610372565b6000806100a38361068e565b9150915060006040516101008682377f29f41c6e0e30802e2749bfb0729810876f3423e6f24829ad3e30adb1934f1c8a6101008201527f030e7a5f70bb5daa6e18d80d6d447e772efb0bb7fb9d0ffcd54fc5a48af1286d6101208201527f21bd27c1c94d134f2c82226d412257f312b396b46cd09b90a31299bd67da81da6101408201527e2e019de88f0c78180144632cf41a5bdcd46174ff684de8522e20309a3c67926101608201527f2d4d9aa7e302d9df41749d5507949d05dbea33fbb16c643b22f599a2be6df2e26101808201527f14bedd503c37ceb061d8ec60209fe345ce89830a19230301f076caff004d19266101a08201527f0967032fcbf776d1afc985f88877f182d38480a653f2decaa9794cbc3bf3060c6101c08201527f0e187847ad4c798374d0d6732bf501847dd68bc0e071241e0213bc7fc13db7ab6101e08201527e1752a100a72fdf1e5a5d6ea841cc20ec838bccfcf7bd559e79f1c9c759b6a06102008201527f192a8cc13cd9f762871f21e43451c6ca9eeab2cb2987c4e366a185c25dac2e7f61022082015283610240820152826102608201527f198e9393920d483a7260bfb731fb5d25f1aa493335a9e71297e485b7aef312c26102808201527f1800deef121f1e76426a00665e5c4479674322d4f75edadd46debd5cd992f6ed6102a08201527f275dc4a288d1afb3cbb1ac09187524c7db36395df7be3b99e673b13a075a65ec6102c08201527f1d9befcd05a5323e6da4d435f3b617cdb3af83285c2df711ef39c01571827f9d6102e08201526020816103008360085afa90511690508061030e57604051631ff3747d60e21b815260040160405180910390fd5b5050505050565b61031d61127d565b61033082358360015b6020020135610933565b815261034e6060830135604084013560a08501356080860135610a28565b6020830152604082015261036860c0830135836007610326565b6060820152919050565b60008061038584825b6020020135610d1f565b909250905060008080806103a1604089013560208a0135610dc4565b929650909450925090506000806103b98a600361037b565b915091506000806103c98b61068e565b915091506103d561129b565b8a8152602081018a905260408101889052606081018990526080810186905260a0810187905260c0810185905260e081018490527f29f41c6e0e30802e2749bfb0729810876f3423e6f24829ad3e30adb1934f1c8a6101008201527f030e7a5f70bb5daa6e18d80d6d447e772efb0bb7fb9d0ffcd54fc5a48af1286d6101208201527f21bd27c1c94d134f2c82226d412257f312b396b46cd09b90a31299bd67da81da6101408201527e2e019de88f0c78180144632cf41a5bdcd46174ff684de8522e20309a3c67926101608201527f2d4d9aa7e302d9df41749d5507949d05dbea33fbb16c643b22f599a2be6df2e26101808201527f14bedd503c37ceb061d8ec60209fe345ce89830a19230301f076caff004d19266101a08201527f0967032fcbf776d1afc985f88877f182d38480a653f2decaa9794cbc3bf3060c6101c08201527f0e187847ad4c798374d0d6732bf501847dd68bc0e071241e0213bc7fc13db7ab6101e08201527e1752a100a72fdf1e5a5d6ea841cc20ec838bccfcf7bd559e79f1c9c759b6a06102008201527f192a8cc13cd9f762871f21e43451c6ca9eeab2cb2987c4e366a185c25dac2e7f610220820152610240810183905261026081018290527f198e9393920d483a7260bfb731fb5d25f1aa493335a9e71297e485b7aef312c26102808201527f1800deef121f1e76426a00665e5c4479674322d4f75edadd46debd5cd992f6ed6102a08201527f275dc4a288d1afb3cbb1ac09187524c7db36395df7be3b99e673b13a075a65ec6102c08201527f1d9befcd05a5323e6da4d435f3b617cdb3af83285c2df711ef39c01571827f9d6102e082015260006106436112ba565b6020816103008560085afa915081158061065f57508051600114155b1561067d57604051631ff3747d60e21b815260040160405180910390fd5b505050505050505050505050505050565b6000806000600190506040516040810160007f2c097b31a897227a6f64c9fc31d9a8fc421b0d8b8207f92532b464e431e61db883527f0fcf6d89d77d5123a43dfb23efb9c929c28c148ca82c794057864b8e66903c5460208401527f0186dae5999acfe2cda6fa7a157ae726afda7c6f57b00ea0aa6c2c23bf83838882527f2f078608f710c45b60d23716c58e106d8c7a1c6db28119defffc413e074f871660208301528635905080604083015260008051602061140c83398151915281108416935060408260608460075afa8416935060408360808560065afa841693507f2464c1784bda2cbfb51e5ab87cf7eb2764ad81f7038152bdbbb07d404b49aa3782527f0638b273e4ee33e03e42ca6c7de1ea7043dbdcaa48661864de644d91c6b4821f60208301526020870135905080604083015260008051602061140c83398151915281108416935060408260608460075afa8416935060408360808560065afa841693507f098ce8b5289ef791db34b68b9e0043ab7bf25306d83a9f0ce74396b8a69c57bb82527f1ec6f7a81748f3d2c2b87610d747ca72045ac1530e226f00710630d41aad7e2660208301526040870135905080604083015260008051602061140c83398151915281108416935060408260608460075afa8416935060408360808560065afa841693507f07dbf682cc528d3ff763fa576d05db50e023921728119ef66f880b6adae01cbe82527f0d287dcd9318207576eaa871e7b3308f613d9df7865059cdbc9f66fdef342dc660208301526060870135905080604083015260008051602061140c8339815191528110841693505060408160608360075afa831692505060408160808360065afa8151602090920151919450909250168061092d5760405163a54f8e2760e01b815260040160405180910390fd5b50915091565b60006000805160206113ec8339815191528310158061096057506000805160206113ec8339815191528210155b1561097e57604051631ff3747d60e21b815260040160405180910390fd5b8215801561098a575081155b1561099757506000610a22565b60006109d66000805160206113ec83398151915260036000805160206113ec833981519152876000805160206113ec833981519152898a090908610faa565b90508083036109eb575050600182901b610a22565b6109f48161100e565b8303610a07575050600182811b17610a22565b604051631ff3747d60e21b815260040160405180910390fd5b505b92915050565b6000806000805160206113ec83398151915286101580610a5657506000805160206113ec8339815191528510155b80610a6f57506000805160206113ec8339815191528410155b80610a8857506000805160206113ec8339815191528310155b15610aa657604051631ff3747d60e21b815260040160405180910390fd5b82848688171717600003610abf57506000905080610d16565b600080806000805160206113ec833981519152610aeb60036000805160206113ec8339815191526113ca565b6000805160206113ec8339815191528a8c0909905060006000805160206113ec8339815191528a6000805160206113ec8339815191528c8d0909905060006000805160206113ec8339815191528a6000805160206113ec8339815191528c8d090990506000805160206113ec833981519152806000805160206113ec8339815191528c860984087f2b149d40ceb8aaae81be18991be06ac3b5b4c5e559dbefa33267e6dc24a138e5089450610be46000805160206113ec833981519152806000805160206113ec8339815191528e870984087f2fcd3ac2a640a154eb23960892a85a68f031ca0c8344b23a577dcf1052b9e7750861100e565b9350505050600080610c356000805160206113ec83398151915280610c0b57610c0b6113b4565b6000805160206113ec8339815191528586096000805160206113ec83398151915287880908610faa565b9050610c826000805160206113ec8339815191527f183227397098d014dc2822db40c0ac2ecbc0b548b438e5469e10460b6c3e7ea46000805160206113ec83398151915284880809611027565b15915050610c91838383611071565b90935091508683148015610ca457508186145b15610cce5780610cb5576000610cb8565b60025b60ff1660028a901b176000179450879350610d12565b610cd78361100e565b87148015610cec5750610ce98261100e565b86145b15610a075780610cfd576000610d00565b60025b60ff1660028a901b1760011794508793505b5050505b94509492505050565b60008082600003610d3557506000928392509050565b600183811c9250808416146000805160206113ec8339815191528310610d6e57604051631ff3747d60e21b815260040160405180910390fd5b610dab6000805160206113ec83398151915260036000805160206113ec833981519152866000805160206113ec8339815191528889090908610faa565b9150801561092d57610dbc8261100e565b915050915091565b600080808085158015610dd5575084155b15610deb57506000925082915081905080610fa1565b600286811c945085935060018088161490808816146000805160206113ec83398151915286101580610e2b57506000805160206113ec8339815191528510155b15610e4957604051631ff3747d60e21b815260040160405180910390fd5b60006000805160206113ec833981519152610e7360036000805160206113ec8339815191526113ca565b6000805160206113ec833981519152888a0909905060006000805160206113ec833981519152886000805160206113ec8339815191528a8b0909905060006000805160206113ec833981519152886000805160206113ec8339815191528a8b090990506000805160206113ec833981519152806000805160206113ec8339815191528a860984087f2b149d40ceb8aaae81be18991be06ac3b5b4c5e559dbefa33267e6dc24a138e5089650610f6c6000805160206113ec833981519152806000805160206113ec8339815191528c870984087f2fcd3ac2a640a154eb23960892a85a68f031ca0c8344b23a577dcf1052b9e7750861100e565b9550610f79878786611071565b90975095508415610f9b57610f8d8761100e565b9650610f988661100e565b95505b50505050505b92959194509250565b6000610fd6827f0c19139cb84c680a6e14116da060561765e05aa45a1c72a34f082305b61f3f526111b8565b9050816000805160206113ec8339815191528283091461100957604051631ff3747d60e21b815260040160405180910390fd5b919050565b6000805160206113ec8339815191529081900681030690565b600080611054837f0c19139cb84c680a6e14116da060561765e05aa45a1c72a34f082305b61f3f526111b8565b9050826000805160206113ec833981519152828309149392505050565b600080806110a36000805160206113ec833981519152808788096000805160206113ec833981519152898a0908610faa565b905083156110b7576110b48161100e565b90505b6111026000805160206113ec8339815191527f183227397098d014dc2822db40c0ac2ecbc0b548b438e5469e10460b6c3e7ea46000805160206113ec833981519152848a0809610faa565b92506000805160206113ec83398151915261112e6000805160206113ec8339815191526002860961121d565b860991506000805160206113ec83398151915261115b6000805160206113ec83398151915284850961100e565b6000805160206113ec833981519152858609088614158061119157506000805160206113ec833981519152808385096002098514155b156111af57604051631ff3747d60e21b815260040160405180910390fd5b50935093915050565b60008060405160208152602080820152602060408201528460608201528360808201526000805160206113ec83398151915260a082015260208160c08360055afa90519250905080610a2057604051631ff3747d60e21b815260040160405180910390fd5b6000611249827f30644e72e131a029b85045b68181585d97816a916871ca8d3c208c16d87cfd456111b8565b90506000805160206113ec83398151915281830960011461100957604051631ff3747d60e21b815260040160405180910390fd5b60405180608001604052806004906020820280368337509192915050565b6040518061030001604052806018906020820280368337509192915050565b60405180602001604052806001906020820280368337509192915050565b806101008101831015610a2257600080fd5b8060808101831015610a2257600080fd5b600080610180838503121561130f57600080fd5b61131984846112d8565b91506113298461010085016112ea565b90509250929050565b6000610100828403121561134557600080fd5b61134f83836112d8565b9392505050565b60808101818360005b600481101561137e57815183526020928301929091019060010161135f565b50505092915050565b600080610100838503121561139b57600080fd5b6113a584846112ea565b915061132984608085016112ea565b634e487b7160e01b600052601260045260246000fd5b81810381811115610a2257634e487b7160e01b600052601160045260246000fdfe30644e72e131a029b85045b68181585d97816a916871ca8d3c208c16d87cfd4730644e72e131a029b85045b68181585d2833e84879b9709143e1f593f0000001a2646970667358221220d4cd20485c12e4db693530e1fd7c46ddb1ff0e06728632d9c0cea42f243f1f4164736f6c63430008150033",
    "linkReferences": {}
  },
  "methodIdentifiers": {
    "compressProof(uint256[8])": "44f63692",
    "verifyCompressedProof(uint256[4],uint256[4])": "f2457c8d",
    "verifyProof(uint256[8],uint256[4])": "23572511"
  },
  "id": 39
}