{
    "_format": "hh-sol-artifact-1",
    "contractName": "SemaphoreAirdrop",
    "sourceName": "contracts/extensions/SemaphoreAirdrop.sol",
    "abi": [
        {
            "inputs": [
                {
                    "internalType": "address",
                    "name": "verifierAddress",
                    "type": "address"
                }
            ],
            "stateMutability": "nonpayable",
            "type": "constructor"
        },
        {
            "anonymous": false,
            "inputs": [
                {
                    "indexed": false,
                    "internalType": "uint256",
                    "name": "airdropId",
                    "type": "uint256"
                },
                {
                    "indexed": true,
                    "internalType": "address",
                    "name": "coordinator",
                    "type": "address"
                }
            ],
            "name": "AirdropCreated",
            "type": "event"
        },
        {
            "anonymous": false,
            "inputs": [
                {
                    "indexed": false,
                    "internalType": "uint256",
                    "name": "airdropId",
                    "type": "uint256"
                },
                {
                    "indexed": true,
                    "internalType": "address",
                    "name": "coordinator",
                    "type": "address"
                },
                {
                    "indexed": false,
                    "internalType": "uint256",
                    "name": "decryptionKey",
                    "type": "uint256"
                }
            ],
            "name": "AirdropEnded",
            "type": "event"
        },
        {
            "anonymous": false,
            "inputs": [
                {
                    "indexed": false,
                    "internalType": "uint256",
                    "name": "airdropId",
                    "type": "uint256"
                },
                {
                    "indexed": true,
                    "internalType": "address",
                    "name": "coordinator",
                    "type": "address"
                },
                {
                    "indexed": false,
                    "internalType": "uint256",
                    "name": "encryptionKey",
                    "type": "uint256"
                }
            ],
            "name": "AirdropStarted",
            "type": "event"
        },
        {
            "anonymous": false,
            "inputs": [
                {
                    "indexed": true,
                    "internalType": "uint256",
                    "name": "groupId",
                    "type": "uint256"
                },
                {
                    "indexed": false,
                    "internalType": "uint8",
                    "name": "depth",
                    "type": "uint8"
                },
                {
                    "indexed": false,
                    "internalType": "uint256",
                    "name": "zeroValue",
                    "type": "uint256"
                }
            ],
            "name": "GroupCreated",
            "type": "event"
        },
        {
            "anonymous": false,
            "inputs": [
                {
                    "indexed": true,
                    "internalType": "uint256",
                    "name": "groupId",
                    "type": "uint256"
                },
                {
                    "indexed": false,
                    "internalType": "uint256",
                    "name": "identityCommitment",
                    "type": "uint256"
                },
                {
                    "indexed": false,
                    "internalType": "uint256",
                    "name": "root",
                    "type": "uint256"
                }
            ],
            "name": "MemberAdded",
            "type": "event"
        },
        {
            "anonymous": false,
            "inputs": [
                {
                    "indexed": true,
                    "internalType": "uint256",
                    "name": "groupId",
                    "type": "uint256"
                },
                {
                    "indexed": false,
                    "internalType": "uint256",
                    "name": "identityCommitment",
                    "type": "uint256"
                },
                {
                    "indexed": false,
                    "internalType": "uint256",
                    "name": "root",
                    "type": "uint256"
                }
            ],
            "name": "MemberRemoved",
            "type": "event"
        },
        {
            "anonymous": false,
            "inputs": [
                {
                    "indexed": false,
                    "internalType": "uint256",
                    "name": "nullifierHash",
                    "type": "uint256"
                }
            ],
            "name": "NullifierHashAdded",
            "type": "event"
        },
        {
            "inputs": [
                {
                    "internalType": "uint256",
                    "name": "airdropId",
                    "type": "uint256"
                },
                {
                    "internalType": "uint256",
                    "name": "identityCommitment",
                    "type": "uint256"
                }
            ],
            "name": "addRecipient",
            "outputs": [],
            "stateMutability": "nonpayable",
            "type": "function"
        },
        {
            "inputs": [
                {
                    "internalType": "uint256",
                    "name": "airdropId",
                    "type": "uint256"
                },
                {
                    "internalType": "address",
                    "name": "coordinator",
                    "type": "address"
                },
                {
                    "internalType": "uint8",
                    "name": "depth",
                    "type": "uint8"
                }
            ],
            "name": "createAirdrop",
            "outputs": [],
            "stateMutability": "nonpayable",
            "type": "function"
        },
        {
            "inputs": [
                {
                    "internalType": "uint256",
                    "name": "airdropId",
                    "type": "uint256"
                },
                {
                    "internalType": "uint256",
                    "name": "decryptionKey",
                    "type": "uint256"
                }
            ],
            "name": "endAirdrop",
            "outputs": [],
            "stateMutability": "nonpayable",
            "type": "function"
        },
        {
            "inputs": [
                {
                    "internalType": "uint256",
                    "name": "groupId",
                    "type": "uint256"
                }
            ],
            "name": "getDepth",
            "outputs": [
                {
                    "internalType": "uint8",
                    "name": "",
                    "type": "uint8"
                }
            ],
            "stateMutability": "view",
            "type": "function"
        },
        {
            "inputs": [
                {
                    "internalType": "uint256",
                    "name": "groupId",
                    "type": "uint256"
                }
            ],
            "name": "getNumberOfLeaves",
            "outputs": [
                {
                    "internalType": "uint256",
                    "name": "",
                    "type": "uint256"
                }
            ],
            "stateMutability": "view",
            "type": "function"
        },
        {
            "inputs": [
                {
                    "internalType": "uint256",
                    "name": "groupId",
                    "type": "uint256"
                }
            ],
            "name": "getRoot",
            "outputs": [
                {
                    "internalType": "uint256",
                    "name": "",
                    "type": "uint256"
                }
            ],
            "stateMutability": "view",
            "type": "function"
        },
        {
            "inputs": [
                {
                    "internalType": "uint256",
                    "name": "airdropId",
                    "type": "uint256"
                },
                {
                    "internalType": "uint256",
                    "name": "encryptionKey",
                    "type": "uint256"
                }
            ],
            "name": "startAirdrop",
            "outputs": [],
            "stateMutability": "nonpayable",
            "type": "function"
        },
        {
            "inputs": [],
            "name": "verifier",
            "outputs": [
                {
                    "internalType": "contract IVerifier",
                    "name": "",
                    "type": "address"
                }
            ],
            "stateMutability": "view",
            "type": "function"
        },
        {
            "inputs": [
                {
                    "internalType": "uint256",
                    "name": "signalHash",
                    "type": "uint256"
                },
                {
                    "internalType": "uint256",
                    "name": "groupId",
                    "type": "uint256"
                },
                {
                    "internalType": "uint256",
                    "name": "nullifierHash",
                    "type": "uint256"
                },
                {
                    "internalType": "uint256",
                    "name": "externalNullifier",
                    "type": "uint256"
                },
                {
                    "internalType": "uint256[8]",
                    "name": "proof",
                    "type": "uint256[8]"
                }
            ],
            "name": "verifyProof",
            "outputs": [],
            "stateMutability": "view",
            "type": "function"
        }
    ],
    "bytecode": "0x60806040523480156200001157600080fd5b5060405162001d3b38038062001d3b833981810160405281019062000037919062000096565b80600360006101000a81548173ffffffffffffffffffffffffffffffffffffffff021916908373ffffffffffffffffffffffffffffffffffffffff1602179055505062000110565b6000815190506200009081620000f6565b92915050565b600060208284031215620000a957600080fd5b6000620000b9848285016200007f565b91505092915050565b6000620000cf82620000d6565b9050919050565b600073ffffffffffffffffffffffffffffffffffffffff82169050919050565b6200010181620000c2565b81146200010d57600080fd5b50565b611c1b80620001206000396000f3fe608060405234801561001057600080fd5b50600436106100935760003560e01c80636368939b116100665780636368939b1461010a57806375e618c9146101265780639b24b3b014610156578063af94ad0a14610186578063b9c78c2b146101a257610093565b806312f69cf5146100985780632b7ac3f3146100b4578063354ca120146100d257806344881343146100ee575b600080fd5b6100b260048036038101906100ad919061115d565b6101d2565b005b6100bc610415565b6040516100c99190611580565b60405180910390f35b6100ec60048036038101906100e79190611199565b61043b565b005b6101086004803603810190610103919061115d565b610556565b005b610124600480360381019061011f919061115d565b6106e7565b005b610140600480360381019061013b91906110e5565b610929565b60405161014d919061175f565b60405180910390f35b610170600480360381019061016b91906110e5565b610956565b60405161017d919061171b565b60405180910390f35b6101a0600480360381019061019b919061110e565b610976565b005b6101bc60048036038101906101b791906110e5565b610a8f565b6040516101c9919061171b565b60405180910390f35b816101db610aaf565b73ffffffffffffffffffffffffffffffffffffffff166002600083815260200190815260200160002060000160009054906101000a900473ffffffffffffffffffffffffffffffffffffffff1673ffffffffffffffffffffffffffffffffffffffff161461027e576040517f08c379a0000000000000000000000000000000000000000000000000000000008152600401610275906115bb565b60405180910390fd5b600060028111156102b8577f4e487b7100000000000000000000000000000000000000000000000000000000600052602160045260246000fd5b6002600085815260200190815260200160002060000160149054906101000a900460ff166002811115610314577f4e487b7100000000000000000000000000000000000000000000000000000000600052602160045260246000fd5b14610354576040517f08c379a000000000000000000000000000000000000000000000000000000000815260040161034b9061159b565b60405180910390fd5b60016002600085815260200190815260200160002060000160146101000a81548160ff021916908360028111156103b4577f4e487b7100000000000000000000000000000000000000000000000000000000600052602160045260246000fd5b02179055506103c1610aaf565b73ffffffffffffffffffffffffffffffffffffffff167fcad6e6fdaab069363d778b7229d84cbb9b61eaf85b88c8f00a9e8d7eb25695928484604051610408929190611736565b60405180910390a2505050565b600360009054906101000a900473ffffffffffffffffffffffffffffffffffffffff1681565b60016002811115610475577f4e487b7100000000000000000000000000000000000000000000000000000000600052602160045260246000fd5b6002600086815260200190815260200160002060000160149054906101000a900460ff1660028111156104d1577f4e487b7100000000000000000000000000000000000000000000000000000000600052602160045260246000fd5b14610511576040517f08c379a00000000000000000000000000000000000000000000000000000000081526004016105089061165b565b60405180910390fd5b600061051c85610956565b905061054e8682868686600360009054906101000a900473ffffffffffffffffffffffffffffffffffffffff16610ab7565b505050505050565b8161055f610aaf565b73ffffffffffffffffffffffffffffffffffffffff166002600083815260200190815260200160002060000160009054906101000a900473ffffffffffffffffffffffffffffffffffffffff1673ffffffffffffffffffffffffffffffffffffffff1614610602576040517f08c379a00000000000000000000000000000000000000000000000000000000081526004016105f9906115bb565b60405180910390fd5b6000600281111561063c577f4e487b7100000000000000000000000000000000000000000000000000000000600052602160045260246000fd5b6002600085815260200190815260200160002060000160149054906101000a900460ff166002811115610698577f4e487b7100000000000000000000000000000000000000000000000000000000600052602160045260246000fd5b146106d8576040517f08c379a00000000000000000000000000000000000000000000000000000000081526004016106cf9061161b565b60405180910390fd5b6106e28383610e02565b505050565b816106f0610aaf565b73ffffffffffffffffffffffffffffffffffffffff166002600083815260200190815260200160002060000160009054906101000a900473ffffffffffffffffffffffffffffffffffffffff1673ffffffffffffffffffffffffffffffffffffffff1614610793576040517f08c379a000000000000000000000000000000000000000000000000000000000815260040161078a906115bb565b60405180910390fd5b600160028111156107cd577f4e487b7100000000000000000000000000000000000000000000000000000000600052602160045260246000fd5b6002600085815260200190815260200160002060000160149054906101000a900460ff166002811115610829577f4e487b7100000000000000000000000000000000000000000000000000000000600052602160045260246000fd5b14610869576040517f08c379a00000000000000000000000000000000000000000000000000000000081526004016108609061167b565b60405180910390fd5b600280600085815260200190815260200160002060000160146101000a81548160ff021916908360028111156108c8577f4e487b7100000000000000000000000000000000000000000000000000000000600052602160045260246000fd5b02179055506108d5610aaf565b73ffffffffffffffffffffffffffffffffffffffff167f2210ef815a9739fee3ba6e95a055e9c6b3075b83d1eb4acd118d77c5df73a482848460405161091c929190611736565b60405180910390a2505050565b60006001600083815260200190815260200160002060000160009054906101000a900460ff169050919050565b600060016000838152602001908152602001600020600101549050919050565b61098283826000610f1a565b60006002600085815260200190815260200160002060000160146101000a81548160ff021916908360028111156109e2577f4e487b7100000000000000000000000000000000000000000000000000000000600052602160045260246000fd5b0217905550816002600085815260200190815260200160002060000160006101000a81548173ffffffffffffffffffffffffffffffffffffffff021916908373ffffffffffffffffffffffffffffffffffffffff1602179055508173ffffffffffffffffffffffffffffffffffffffff167fe78e1ba9e7ed7cb0d428f450e01b6bfbbde903cea3f15b325af0c99f81c09f3d84604051610a82919061171b565b60405180910390a2505050565b600060016000838152602001908152602001600020600201549050919050565b600033905090565b60008085815260200190815260200160002060009054906101000a900460ff1615610b17576040517f08c379a0000000000000000000000000000000000000000000000000000000008152600401610b0e906115db565b60405180910390fd5b8073ffffffffffffffffffffffffffffffffffffffff16635fe8c13b604051806040016040528085600060088110610b78577f4e487b7100000000000000000000000000000000000000000000000000000000600052603260045260246000fd5b6020020135815260200185600160088110610bbc577f4e487b7100000000000000000000000000000000000000000000000000000000600052603260045260246000fd5b60200201358152506040518060400160405280604051806040016040528088600260088110610c14577f4e487b7100000000000000000000000000000000000000000000000000000000600052603260045260246000fd5b6020020135815260200188600360088110610c58577f4e487b7100000000000000000000000000000000000000000000000000000000600052603260045260246000fd5b60200201358152508152602001604051806040016040528088600460088110610caa577f4e487b7100000000000000000000000000000000000000000000000000000000600052603260045260246000fd5b6020020135815260200188600560088110610cee577f4e487b7100000000000000000000000000000000000000000000000000000000600052603260045260246000fd5b6020020135815250815250604051806040016040528087600660088110610d3e577f4e487b7100000000000000000000000000000000000000000000000000000000600052603260045260246000fd5b6020020135815260200187600760088110610d82577f4e487b7100000000000000000000000000000000000000000000000000000000600052603260045260246000fd5b602002013581525060405180608001604052808b81526020018a81526020018c8152602001898152506040518563ffffffff1660e01b8152600401610dca9493929190611539565b60006040518083038186803b158015610de257600080fd5b505afa158015610df6573d6000803e3d6000fd5b50505050505050505050565b6000610e0d83610929565b60ff161415610e51576040517f08c379a0000000000000000000000000000000000000000000000000000000008152600401610e489061163b565b60405180910390fd5b6001600083815260200190815260200160002073__$4c0484323457fe1a856f46a4759b553fe4$__63168703fa9091836040518363ffffffff1660e01b8152600401610e9e9291906116bb565b60006040518083038186803b158015610eb657600080fd5b505af4158015610eca573d6000803e3d6000fd5b505050506000610ed983610956565b9050827f03fd27265b7dd1f55558bedc22a58fa3b10afb1be776e614bd5a7ba7b94994068383604051610f0d929190611736565b60405180910390a2505050565b7f30644e72e131a029b85045b68181585d2833e84879b9709143e1f593f00000018310610f7c576040517f08c379a0000000000000000000000000000000000000000000000000000000008152600401610f739061169b565b60405180910390fd5b6000610f8784610929565b60ff1614610fca576040517f08c379a0000000000000000000000000000000000000000000000000000000008152600401610fc1906115fb565b60405180910390fd5b6001600084815260200190815260200160002073__$4c0484323457fe1a856f46a4759b553fe4$__63b4bdd117909184846040518463ffffffff1660e01b8152600401611019939291906116e4565b60006040518083038186803b15801561103157600080fd5b505af4158015611045573d6000803e3d6000fd5b50505050827fc3082aa494e9088c2c9f0fb62a0b6bd46e6699acb94cfba35be29b95a93f68c8838360405161107b92919061177a565b60405180910390a2505050565b60008135905061109781611ba0565b92915050565b6000819050826020600802820111156110b557600080fd5b92915050565b6000813590506110ca81611bb7565b92915050565b6000813590506110df81611bce565b92915050565b6000602082840312156110f757600080fd5b6000611105848285016110bb565b91505092915050565b60008060006060848603121561112357600080fd5b6000611131868287016110bb565b935050602061114286828701611088565b9250506040611153868287016110d0565b9150509250925092565b6000806040838503121561117057600080fd5b600061117e858286016110bb565b925050602061118f858286016110bb565b9150509250929050565b600080600080600061018086880312156111b257600080fd5b60006111c0888289016110bb565b95505060206111d1888289016110bb565b94505060406111e2888289016110bb565b93505060606111f3888289016110bb565b92505060806112048882890161109d565b9150509295509295909350565b600061121d8383611298565b60408301905092915050565b600061123583836114ee565b60208301905092915050565b61124a816117c1565b6112548184611809565b925061125f826117a3565b8060005b838110156112905781516112778782611211565b9650611282836117e2565b925050600181019050611263565b505050505050565b6112a1816117cc565b6112ab8184611814565b92506112b6826117ad565b8060005b838110156112e75781516112ce8782611229565b96506112d9836117ef565b9250506001810190506112ba565b505050505050565b6112f8816117cc565b611302818461181f565b925061130d826117ad565b8060005b8381101561133e5781516113258782611229565b9650611330836117ef565b925050600181019050611311565b505050505050565b61134f816117d7565b611359818461182a565b9250611364826117b7565b8060005b8381101561139557815161137c8782611229565b9650611387836117fc565b925050600181019050611368565b505050505050565b6113a68161188f565b82525050565b60006113b9603283611835565b91506113c4826118b3565b604082019050919050565b60006113dc603783611835565b91506113e782611902565b604082019050919050565b60006113ff603683611835565b915061140a82611951565b604082019050919050565b6000611422602583611835565b915061142d826119a0565b604082019050919050565b6000611445604183611835565b9150611450826119ef565b606082019050919050565b6000611468602583611835565b915061147382611a64565b604082019050919050565b600061148b602e83611835565b915061149682611ab3565b604082019050919050565b60006114ae602883611835565b91506114b982611b02565b604082019050919050565b60006114d1603683611835565b91506114dc82611b51565b604082019050919050565b8082525050565b6114f781611878565b82525050565b61150681611878565b82525050565b61151581611878565b82525050565b61152481611882565b82525050565b61153381611882565b82525050565b60006101808201905061154f60008301876112ef565b61155c6040830186611241565b61156960c08301856112ef565b611577610100830184611346565b95945050505050565b6000602082019050611595600083018461139d565b92915050565b600060208201905081810360008301526115b4816113ac565b9050919050565b600060208201905081810360008301526115d4816113cf565b9050919050565b600060208201905081810360008301526115f4816113f2565b9050919050565b6000602082019050818103600083015261161481611415565b9050919050565b6000602082019050818103600083015261163481611438565b9050919050565b600060208201905081810360008301526116548161145b565b9050919050565b600060208201905081810360008301526116748161147e565b9050919050565b60006020820190508181036000830152611694816114a1565b9050919050565b600060208201905081810360008301526116b4816114c4565b9050919050565b60006040820190506116d060008301856114e7565b6116dd602083018461150c565b9392505050565b60006060820190506116f960008301866114e7565b611706602083018561152a565b611713604083018461150c565b949350505050565b600060208201905061173060008301846114fd565b92915050565b600060408201905061174b60008301856114fd565b61175860208301846114fd565b9392505050565b6000602082019050611774600083018461151b565b92915050565b600060408201905061178f600083018561151b565b61179c60208301846114fd565b9392505050565b6000819050919050565b6000819050919050565b6000819050919050565b600060029050919050565b600060029050919050565b600060049050919050565b6000602082019050919050565b6000602082019050919050565b6000602082019050919050565b600081905092915050565b600081905092915050565b600081905092915050565b600081905092915050565b600082825260208201905092915050565b600061185182611858565b9050919050565b600073ffffffffffffffffffffffffffffffffffffffff82169050919050565b6000819050919050565b600060ff82169050919050565b600061189a826118a1565b9050919050565b60006118ac82611858565b9050919050565b7f53656d6170686f726541697264726f703a2061697264726f702068617320616c60008201527f7265616479206265656e20737461727465640000000000000000000000000000602082015250565b7f53656d6170686f726541697264726f703a2063616c6c6572206973206e6f742060008201527f7468652061697264726f7020636f6f7264696e61746f72000000000000000000602082015250565b7f53656d6170686f7265436f72653a20796f752063616e6e6f742075736520746860008201527f652073616d65206e756c6c696669657220747769636500000000000000000000602082015250565b7f53656d6170686f726547726f7570733a2067726f757020616c7265616479206560008201527f7869737473000000000000000000000000000000000000000000000000000000602082015250565b7f53656d6170686f726541697264726f703a20726563697069656e74732063616e60008201527f206f6e6c79206265206164646564206265666f72652061697264726f7070696e60208201527f6700000000000000000000000000000000000000000000000000000000000000604082015250565b7f53656d6170686f726547726f7570733a2067726f757020646f6573206e6f742060008201527f6578697374000000000000000000000000000000000000000000000000000000602082015250565b7f53656d6170686f726541697264726f703a2041697264726f702073746174652060008201527f6973206e6f74206f6e676f696e67000000000000000000000000000000000000602082015250565b7f53656d6170686f726541697264726f703a2061697264726f70206973206e6f7460008201527f206f6e676f696e67000000000000000000000000000000000000000000000000602082015250565b7f53656d6170686f726547726f7570733a2067726f7570206964206d757374206260008201527f65203c20534e41524b5f5343414c41525f4649454c4400000000000000000000602082015250565b611ba981611846565b8114611bb457600080fd5b50565b611bc081611878565b8114611bcb57600080fd5b50565b611bd781611882565b8114611be257600080fd5b5056fea2646970667358221220f262887ba7bd65100524899a36171fe779cfdb3ad00bb86211c8092c78ade66a64736f6c63430008040033",
    "linkReferences": {
        "@zk-kit/incremental-merkle-tree.sol/contracts/IncrementalBinaryTree.sol": {
            "IncrementalBinaryTree": [
                {
                    "length": 20,
                    "start": 3974
                },
                {
                    "length": 20,
                    "start": 4351
                }
            ]
        }
    },
    "deployedLinkReferences": {
        "@zk-kit/incremental-merkle-tree.sol/contracts/IncrementalBinaryTree.sol": {
            "IncrementalBinaryTree": [
                {
                    "length": 20,
                    "start": 3686
                },
                {
                    "length": 20,
                    "start": 4063
                }
            ]
        }
    }
}