{
    "_format": "hh-sol-artifact-1",
    "contractName": "SemaphoreAirdrop",
    "sourceName": "contracts/extensions/SemaphoreAirdrop.sol",
    "abi": [
        {
            "anonymous": false,
            "inputs": [],
            "name": "InvalidId",
            "type": "event"
        },
        {
            "anonymous": false,
            "inputs": [],
            "name": "InvalidProof",
            "type": "event"
        },
        {
            "anonymous": false,
            "inputs": [],
            "name": "InvalidRoot",
            "type": "event"
        },
        {
            "anonymous": false,
            "inputs": [],
            "name": "Unauthorized",
            "type": "event"
        },
        {
            "anonymous": false,
            "inputs": [
                {
                    "indexed": true,
                    "internalType": "uint256",
                    "name": "groupId",
                    "type": "uint256"
                },
                {
                    "indexed": false,
                    "internalType": "uint8",
                    "name": "depth",
                    "type": "uint8"
                },
                {
                    "indexed": false,
                    "internalType": "uint256",
                    "name": "zeroValue",
                    "type": "uint256"
                }
            ],
            "name": "GroupCreated",
            "type": "event"
        },
        {
            "anonymous": false,
            "inputs": [
                {
                    "indexed": true,
                    "internalType": "uint256",
                    "name": "groupId",
                    "type": "uint256"
                },
                {
                    "indexed": false,
                    "internalType": "uint256",
                    "name": "identityCommitment",
                    "type": "uint256"
                },
                {
                    "indexed": false,
                    "internalType": "uint256",
                    "name": "root",
                    "type": "uint256"
                }
            ],
            "name": "MemberAdded",
            "type": "event"
        },
        {
            "anonymous": false,
            "inputs": [
                {
                    "indexed": true,
                    "internalType": "uint256",
                    "name": "groupId",
                    "type": "uint256"
                },
                {
                    "indexed": false,
                    "internalType": "uint256",
                    "name": "identityCommitment",
                    "type": "uint256"
                },
                {
                    "indexed": false,
                    "internalType": "uint256",
                    "name": "root",
                    "type": "uint256"
                }
            ],
            "name": "MemberRemoved",
            "type": "event"
        },
        {
            "anonymous": false,
            "inputs": [
                {
                    "indexed": false,
                    "internalType": "uint256",
                    "name": "nullifierHash",
                    "type": "uint256"
                }
            ],
            "name": "NullifierHashAdded",
            "type": "event"
        },
        {
            "inputs": [
                {
                    "internalType": "uint256",
                    "name": "groupId",
                    "type": "uint256"
                },
                {
                    "internalType": "uint256",
                    "name": "identityCommitment",
                    "type": "uint256"
                }
            ],
            "name": "addMember",
            "outputs": [],
            "stateMutability": "nonpayable",
            "type": "function"
        },
        {
            "inputs": [
                {
                    "internalType": "uint256",
                    "name": "groupId",
                    "type": "uint256"
                },
                {
                    "internalType": "uint8",
                    "name": "depth",
                    "type": "uint8"
                },
                {
                    "internalType": "uint256",
                    "name": "zeroValue",
                    "type": "uint256"
                }
            ],
            "name": "createGroup",
            "outputs": [],
            "stateMutability": "nonpayable",
            "type": "function"
        },
        {
            "inputs": [
                {
                    "internalType": "uint256",
                    "name": "groupId",
                    "type": "uint256"
                }
            ],
            "name": "getDepth",
            "outputs": [
                {
                    "internalType": "uint8",
                    "name": "",
                    "type": "uint8"
                }
            ],
            "stateMutability": "view",
            "type": "function"
        },
        {
            "inputs": [
                {
                    "internalType": "uint256",
                    "name": "groupId",
                    "type": "uint256"
                }
            ],
            "name": "getNumberOfLeaves",
            "outputs": [
                {
                    "internalType": "uint256",
                    "name": "",
                    "type": "uint256"
                }
            ],
            "stateMutability": "view",
            "type": "function"
        },
        {
            "inputs": [
                {
                    "internalType": "uint256",
                    "name": "groupId",
                    "type": "uint256"
                }
            ],
            "name": "getRoot",
            "outputs": [
                {
                    "internalType": "uint256",
                    "name": "",
                    "type": "uint256"
                }
            ],
            "stateMutability": "view",
            "type": "function"
        },
        {
            "inputs": [],
            "name": "manager",
            "outputs": [
                {
                    "internalType": "address",
                    "name": "",
                    "type": "address"
                }
            ],
            "stateMutability": "view",
            "type": "function"
        },
        {
            "inputs": [
                {
                    "internalType": "uint256",
                    "name": "groupId",
                    "type": "uint256"
                },
                {
                    "internalType": "uint256",
                    "name": "identityCommitment",
                    "type": "uint256"
                },
                {
                    "internalType": "uint256[]",
                    "name": "proofSiblings",
                    "type": "uint256[]"
                },
                {
                    "internalType": "uint8[]",
                    "name": "proofPathIndices",
                    "type": "uint8[]"
                }
            ],
            "name": "removeMember",
            "outputs": [],
            "stateMutability": "nonpayable",
            "type": "function"
        },
        {
            "inputs": [
                {
                    "internalType": "address",
                    "name": "newManager",
                    "type": "address"
                }
            ],
            "name": "transferAccess",
            "outputs": [],
            "stateMutability": "nonpayable",
            "type": "function"
        },
        {
            "inputs": [
                {
                    "internalType": "uint256",
                    "name": "root",
                    "type": "uint256"
                },
                {
                    "internalType": "uint256",
                    "name": "groupId",
                    "type": "uint256"
                },
                {
                    "internalType": "uint256",
                    "name": "signalHash",
                    "type": "uint256"
                },
                {
                    "internalType": "uint256",
                    "name": "nullifierHash",
                    "type": "uint256"
                },
                {
                    "internalType": "uint256",
                    "name": "externalNullifierHash",
                    "type": "uint256"
                },
                {
                    "internalType": "uint256[8]",
                    "name": "proof",
                    "type": "uint256[8]"
                }
            ],
            "name": "verifyProof",
            "outputs": [],
            "stateMutability": "view",
            "type": "function"
        },
        {
            "inputs": [
                {
                    "internalType": "uint256[2]",
                    "name": "a",
                    "type": "uint256[2]"
                },
                {
                    "internalType": "uint256[2][2]",
                    "name": "b",
                    "type": "uint256[2][2]"
                },
                {
                    "internalType": "uint256[2]",
                    "name": "c",
                    "type": "uint256[2]"
                },
                {
                    "internalType": "uint256[4]",
                    "name": "input",
                    "type": "uint256[4]"
                }
            ],
            "name": "verifyProof",
            "outputs": [],
            "stateMutability": "view",
            "type": "function"
        }
    ],
    "bytecode": "0x608060405233600260006101000a81548173ffffffffffffffffffffffffffffffffffffffff021916908373ffffffffffffffffffffffffffffffffffffffff16021790555034801561005157600080fd5b50612c98806100616000396000f3fe608060405234801561001057600080fd5b506004361061009e5760003560e01c80635fe8c13b116100665780635fe8c13b1461013157806366e759ee1461014d57806375e618c9146101695780639b24b3b014610199578063b9c78c2b146101c95761009e565b80631783efc3146100a35780633bc778e3146100bf5780633daedcd0146100db57806343989f85146100f7578063481c6a7514610113575b600080fd5b6100bd60048036038101906100b89190612014565b6101f9565b005b6100d960048036038101906100d4919061207b565b61045c565b005b6100f560048036038101906100f09190612142565b6106ef565b005b610111600480360381019061010c919061224b565b6107c1565b005b61011b610a46565b6040516101289190612333565b60405180910390f35b61014b600480360381019061014691906125ed565b610a6c565b005b61016760048036038101906101629190612682565b610fa9565b005b610183600480360381019061017e91906126af565b611074565b60405161019091906126eb565b60405180910390f35b6101b360048036038101906101ae91906126af565b6110a1565b6040516101c09190612715565b60405180910390f35b6101e360048036038101906101de91906126af565b6110c1565b6040516101f09190612715565b60405180910390f35b600260009054906101000a900473ffffffffffffffffffffffffffffffffffffffff1673ffffffffffffffffffffffffffffffffffffffff163373ffffffffffffffffffffffffffffffffffffffff1614610280576040517f82b4290000000000000000000000000000000000000000000000000000000000815260040160405180910390fd5b600061028b83611074565b60ff1614156102c6576040517fdfa1a40800000000000000000000000000000000000000000000000000000000815260040160405180910390fd5b6001600083815260200190815260200160002073__$4c0484323457fe1a856f46a4759b553fe4$__63168703fa9091836040518363ffffffff1660e01b8152600401610313929190612746565b60006040518083038186803b15801561032b57600080fd5b505af415801561033f573d6000803e3d6000fd5b50505050600061034e836110a1565b90506040518060400160405280846fffffffffffffffffffffffffffffffff168152602001426fffffffffffffffffffffffffffffffff168152506003600083815260200190815260200160002060008201518160000160006101000a8154816fffffffffffffffffffffffffffffffff02191690836fffffffffffffffffffffffffffffffff16021790555060208201518160000160106101000a8154816fffffffffffffffffffffffffffffffff02191690836fffffffffffffffffffffffffffffffff160217905550905050827f03fd27265b7dd1f55558bedc22a58fa3b10afb1be776e614bd5a7ba7b9499406838360405161044f92919061276f565b60405180910390a2505050565b6000600360008881526020019081526020016000206040518060400160405290816000820160009054906101000a90046fffffffffffffffffffffffffffffffff166fffffffffffffffffffffffffffffffff166fffffffffffffffffffffffffffffffff1681526020016000820160109054906101000a90046fffffffffffffffffffffffffffffffff166fffffffffffffffffffffffffffffffff166fffffffffffffffffffffffffffffffff168152505090508581600001516fffffffffffffffffffffffffffffffff161415806105595750610e1081602001516fffffffffffffffffffffffffffffffff164261055791906127c7565b115b15610590576040517f504570e300000000000000000000000000000000000000000000000000000000815260040160405180910390fd5b600060405180608001604052808981526020018681526020018781526020018581525090506106e56040518060400160405280856000600881106105d7576105d66127fb565b5b60200201358152602001856001600881106105f5576105f46127fb565b5b60200201358152506040518060400160405280604051806040016040528088600260088110610627576106266127fb565b5b6020020135815260200188600360088110610645576106446127fb565b5b60200201358152508152602001604051806040016040528088600460088110610671576106706127fb565b5b602002013581526020018860056008811061068f5761068e6127fb565b5b60200201358152508152506040518060400160405280876006600881106106b9576106b86127fb565b5b60200201358152602001876007600881106106d7576106d66127fb565b5b602002013581525084610a6c565b5050505050505050565b600260009054906101000a900473ffffffffffffffffffffffffffffffffffffffff1673ffffffffffffffffffffffffffffffffffffffff163373ffffffffffffffffffffffffffffffffffffffff1614610776576040517f82b4290000000000000000000000000000000000000000000000000000000000815260040160405180910390fd5b60008314156107b1576040517fdfa1a40800000000000000000000000000000000000000000000000000000000815260040160405180910390fd5b6107bc8383836110e1565b505050565b600260009054906101000a900473ffffffffffffffffffffffffffffffffffffffff1673ffffffffffffffffffffffffffffffffffffffff163373ffffffffffffffffffffffffffffffffffffffff1614610848576040517f82b4290000000000000000000000000000000000000000000000000000000000815260040160405180910390fd5b600061085387611074565b60ff16141561088e576040517fdfa1a40800000000000000000000000000000000000000000000000000000000815260040160405180910390fd5b6001600087815260200190815260200160002073__$4c0484323457fe1a856f46a4759b553fe4$__630629596f909187878787876040518763ffffffff1660e01b81526004016108e39695949392919061296e565b60006040518083038186803b1580156108fb57600080fd5b505af415801561090f573d6000803e3d6000fd5b50505050600061091e876110a1565b90506040518060400160405280886fffffffffffffffffffffffffffffffff168152602001426fffffffffffffffffffffffffffffffff168152506003600083815260200190815260200160002060008201518160000160006101000a8154816fffffffffffffffffffffffffffffffff02191690836fffffffffffffffffffffffffffffffff16021790555060208201518160000160106101000a8154816fffffffffffffffffffffffffffffffff02191690836fffffffffffffffffffffffffffffffff160217905550905050867fe270325ded177064d7bda473e6519ef40a291058c41286f71a6e4872f1e9ab5c87600160008b815260200190815260200160002060010154604051610a3592919061276f565b60405180910390a250505050505050565b600260009054906101000a900473ffffffffffffffffffffffffffffffffffffffff1681565b610a74611e88565b604051806040016040528086600060028110610a9357610a926127fb565b5b6020020151815260200186600160028110610ab157610ab06127fb565b5b602002015181525081600001819052506040518060400160405280604051806040016040528087600060028110610aeb57610aea6127fb565b5b6020020151600060028110610b0357610b026127fb565b5b6020020151815260200187600060028110610b2157610b206127fb565b5b6020020151600160028110610b3957610b386127fb565b5b60200201518152508152602001604051806040016040528087600160028110610b6557610b646127fb565b5b6020020151600060028110610b7d57610b7c6127fb565b5b6020020151815260200187600160028110610b9b57610b9a6127fb565b5b6020020151600160028110610bb357610bb26127fb565b5b60200201518152508152508160200181905250604051806040016040528084600060028110610be557610be46127fb565b5b6020020151815260200184600160028110610c0357610c026127fb565b5b602002015181525081604001819052506000610c1d61124f565b905080608001515160016004610c3391906129c5565b14610c6a576040517f09bde33900000000000000000000000000000000000000000000000000000000815260040160405180910390fd5b60008160800151600081518110610c8457610c836127fb565b5b60200260200101519050610cd881610cd38460800151600181518110610cad57610cac6127fb565b5b602002602001015187600060048110610cc957610cc86127fb565b5b60200201516117bb565b6118d7565b9050610d2481610d1f8460800151600281518110610cf957610cf86127fb565b5b602002602001015187600160048110610d1557610d146127fb565b5b60200201516117bb565b6118d7565b9050610d7081610d6b8460800151600381518110610d4557610d446127fb565b5b602002602001015187600260048110610d6157610d606127fb565b5b60200201516117bb565b6118d7565b9050610dbc81610db78460800151600481518110610d9157610d906127fb565b5b602002602001015187600360048110610dad57610dac6127fb565b5b60200201516117bb565b6118d7565b90506000600467ffffffffffffffff811115610ddb57610dda61235f565b5b604051908082528060200260200182016040528015610e1457816020015b610e01611ebb565b815260200190600190039081610df95790505b5090506000600467ffffffffffffffff811115610e3457610e3361235f565b5b604051908082528060200260200182016040528015610e6d57816020015b610e5a611ed5565b815260200190600190039081610e525790505b509050610e7d85600001516119c0565b82600081518110610e9157610e906127fb565b5b6020026020010181905250846020015181600081518110610eb557610eb46127fb565b5b6020026020010181905250836000015182600181518110610ed957610ed86127fb565b5b6020026020010181905250836020015181600181518110610efd57610efc6127fb565b5b60200260200101819052508282600281518110610f1d57610f1c6127fb565b5b6020026020010181905250836040015181600281518110610f4157610f406127fb565b5b6020026020010181905250846040015182600381518110610f6557610f646127fb565b5b6020026020010181905250836060015181600381518110610f8957610f886127fb565b5b6020026020010181905250610f9e8282611ae1565b505050505050505050565b600260009054906101000a900473ffffffffffffffffffffffffffffffffffffffff1673ffffffffffffffffffffffffffffffffffffffff163373ffffffffffffffffffffffffffffffffffffffff1614611030576040517f82b4290000000000000000000000000000000000000000000000000000000000815260040160405180910390fd5b80600260006101000a81548173ffffffffffffffffffffffffffffffffffffffff021916908373ffffffffffffffffffffffffffffffffffffffff16021790555050565b60006001600083815260200190815260200160002060000160009054906101000a900460ff169050919050565b600060016000838152602001908152602001600020600101549050919050565b600060016000838152602001908152602001600020600201549050919050565b7f30644e72e131a029b85045b68181585d2833e84879b9709143e1f593f00000018310611143576040517f08c379a000000000000000000000000000000000000000000000000000000000815260040161113a90612a9e565b60405180910390fd5b600061114e84611074565b60ff1614611191576040517f08c379a000000000000000000000000000000000000000000000000000000000815260040161118890612b30565b60405180910390fd5b6001600084815260200190815260200160002073__$4c0484323457fe1a856f46a4759b553fe4$__63b4bdd117909184846040518463ffffffff1660e01b81526004016111e093929190612b5f565b60006040518083038186803b1580156111f857600080fd5b505af415801561120c573d6000803e3d6000fd5b50505050827fc3082aa494e9088c2c9f0fb62a0b6bd46e6699acb94cfba35be29b95a93f68c88383604051611242929190612b96565b60405180910390a2505050565b611257611efb565b60405180604001604052807f2d4d9aa7e302d9df41749d5507949d05dbea33fbb16c643b22f599a2be6df2e281526020017f14bedd503c37ceb061d8ec60209fe345ce89830a19230301f076caff004d19268152508160000181905250604051806040016040528060405180604001604052807f0967032fcbf776d1afc985f88877f182d38480a653f2decaa9794cbc3bf3060c81526020017f0e187847ad4c798374d0d6732bf501847dd68bc0e071241e0213bc7fc13db7ab815250815260200160405180604001604052807f304cfbd1e08a704a99f5e847d93f8c3caafddec46b7a0d379da69a4d112346a781526020017f1739c1b1a457a8c7313123d24d2f9192f896b7c63eea05a9d57f06547ad0cec88152508152508160200181905250604051806040016040528060405180604001604052807f198e9393920d483a7260bfb731fb5d25f1aa493335a9e71297e485b7aef312c281526020017f1800deef121f1e76426a00665e5c4479674322d4f75edadd46debd5cd992f6ed815250815260200160405180604001604052807f090689d0585ff075ec9e99ad690c3395bc4b313370b38ef355acdadcd122975b81526020017f12c85ea5db8c6deb4aab71808dcb408fe3d1e7690c43d37b4ce6cc0166fa7daa8152508152508160400181905250604051806040016040528060405180604001604052807f1bdb443ce61ebcf93daed4215a57e1cec90ca64973023e31197a112e8cee72f681526020017f117e26c4235f42625b3404f2973059814ff260dba7176d7aae910f493a8e1fb5815250815260200160405180604001604052807f196e247a12f580e36894f256f0c122393489b4c213b3e913250feee806ca45ff81526020017f2fedff4e4bbcbf9f1c56e28a060d50eef5f54e2aab897f6b465acd2ed005ae918152508152508160600181905250600567ffffffffffffffff81111561151e5761151d61235f565b5b60405190808252806020026020018201604052801561155757816020015b611544611ebb565b81526020019060019003908161153c5790505b50816080018190525060405180604001604052807f2c097b31a897227a6f64c9fc31d9a8fc421b0d8b8207f92532b464e431e61db881526020017f0fcf6d89d77d5123a43dfb23efb9c929c28c148ca82c794057864b8e66903c5481525081608001516000815181106115cd576115cc6127fb565b5b602002602001018190525060405180604001604052807f0186dae5999acfe2cda6fa7a157ae726afda7c6f57b00ea0aa6c2c23bf83838881526020017f2f078608f710c45b60d23716c58e106d8c7a1c6db28119defffc413e074f87168152508160800151600181518110611645576116446127fb565b5b602002602001018190525060405180604001604052807f2464c1784bda2cbfb51e5ab87cf7eb2764ad81f7038152bdbbb07d404b49aa3781526020017f0638b273e4ee33e03e42ca6c7de1ea7043dbdcaa48661864de644d91c6b4821f81525081608001516002815181106116bd576116bc6127fb565b5b602002602001018190525060405180604001604052807f098ce8b5289ef791db34b68b9e0043ab7bf25306d83a9f0ce74396b8a69c57bb81526020017f1ec6f7a81748f3d2c2b87610d747ca72045ac1530e226f00710630d41aad7e268152508160800151600381518110611735576117346127fb565b5b602002602001018190525060405180604001604052807f07dbf682cc528d3ff763fa576d05db50e023921728119ef66f880b6adae01cbe81526020017f0d287dcd9318207576eaa871e7b3308f613d9df7865059cdbc9f66fdef342dc681525081608001516004815181106117ad576117ac6127fb565b5b602002602001018190525090565b6117c3611ebb565b7f30644e72e131a029b85045b68181585d2833e84879b9709143e1f593f0000001821061181c576040517f09bde33900000000000000000000000000000000000000000000000000000000815260040160405180910390fd5b611824611f42565b83600001518160006003811061183d5761183c6127fb565b5b60200201818152505083602001518160016003811061185f5761185e6127fb565b5b602002018181525050828160026003811061187d5761187c6127fb565b5b602002018181525050600060608360808460076107d05a03fa9050806118cf576040517f09bde33900000000000000000000000000000000000000000000000000000000815260040160405180910390fd5b505092915050565b6118df611ebb565b6118e7611f64565b836000015181600060048110611900576118ff6127fb565b5b602002018181525050836020015181600160048110611922576119216127fb565b5b602002018181525050826000015181600260048110611944576119436127fb565b5b602002018181525050826020015181600360048110611966576119656127fb565b5b602002018181525050600060608360c08460066107d05a03fa9050806119b8576040517f09bde33900000000000000000000000000000000000000000000000000000000815260040160405180910390fd5b505092915050565b6119c8611ebb565b600082600001511480156119e0575060008260200151145b15611a035760405180604001604052806000815260200160008152509050611adc565b7f30644e72e131a029b85045b68181585d97816a916871ca8d3c208c16d87cfd478260000151101580611a5a57507f30644e72e131a029b85045b68181585d97816a916871ca8d3c208c16d87cfd47826020015110155b15611a91576040517f09bde33900000000000000000000000000000000000000000000000000000000815260040160405180910390fd5b60405180604001604052808360000151815260200183602001517f30644e72e131a029b85045b68181585d97816a916871ca8d3c208c16d87cfd47611ad691906127c7565b81525090505b919050565b8051825114611b1c576040517f09bde33900000000000000000000000000000000000000000000000000000000815260040160405180910390fd5b6000825190506000600682611b319190612bbf565b905060008167ffffffffffffffff811115611b4f57611b4e61235f565b5b604051908082528060200260200182016040528015611b7d5781602001602082028036833780820191505090505b50905060005b83811015611e0257858181518110611b9e57611b9d6127fb565b5b602002602001015160000151826000600684611bba9190612bbf565b611bc491906129c5565b81518110611bd557611bd46127fb565b5b602002602001018181525050858181518110611bf457611bf36127fb565b5b602002602001015160200151826001600684611c109190612bbf565b611c1a91906129c5565b81518110611c2b57611c2a6127fb565b5b602002602001018181525050848181518110611c4a57611c496127fb565b5b602002602001015160000151600060028110611c6957611c686127fb565b5b6020020151826002600684611c7e9190612bbf565b611c8891906129c5565b81518110611c9957611c986127fb565b5b602002602001018181525050848181518110611cb857611cb76127fb565b5b602002602001015160000151600160028110611cd757611cd66127fb565b5b6020020151826003600684611cec9190612bbf565b611cf691906129c5565b81518110611d0757611d066127fb565b5b602002602001018181525050848181518110611d2657611d256127fb565b5b602002602001015160200151600060028110611d4557611d446127fb565b5b6020020151826004600684611d5a9190612bbf565b611d6491906129c5565b81518110611d7557611d746127fb565b5b602002602001018181525050848181518110611d9457611d936127fb565b5b602002602001015160200151600160028110611db357611db26127fb565b5b6020020151826005600684611dc89190612bbf565b611dd291906129c5565b81518110611de357611de26127fb565b5b6020026020010181815250508080611dfa90612c19565b915050611b83565b50611e0b611f86565b6000602082602086026020860160086107d05a03fa9050801580611e485750600182600060018110611e4057611e3f6127fb565b5b602002015114155b15611e7f576040517f09bde33900000000000000000000000000000000000000000000000000000000815260040160405180910390fd5b50505050505050565b6040518060600160405280611e9b611ebb565b8152602001611ea8611ed5565b8152602001611eb5611ebb565b81525090565b604051806040016040528060008152602001600081525090565b6040518060400160405280611ee8611fa8565b8152602001611ef5611fa8565b81525090565b6040518060a00160405280611f0e611ebb565b8152602001611f1b611ed5565b8152602001611f28611ed5565b8152602001611f35611ed5565b8152602001606081525090565b6040518060600160405280600390602082028036833780820191505090505090565b6040518060800160405280600490602082028036833780820191505090505090565b6040518060200160405280600190602082028036833780820191505090505090565b6040518060400160405280600290602082028036833780820191505090505090565b6000604051905090565b600080fd5b600080fd5b6000819050919050565b611ff181611fde565b8114611ffc57600080fd5b50565b60008135905061200e81611fe8565b92915050565b6000806040838503121561202b5761202a611fd4565b5b600061203985828601611fff565b925050602061204a85828601611fff565b9150509250929050565b600080fd5b60008190508260206008028201111561207557612074612054565b5b92915050565b6000806000806000806101a0878903121561209957612098611fd4565b5b60006120a789828a01611fff565b96505060206120b889828a01611fff565b95505060406120c989828a01611fff565b94505060606120da89828a01611fff565b93505060806120eb89828a01611fff565b92505060a06120fc89828a01612059565b9150509295509295509295565b600060ff82169050919050565b61211f81612109565b811461212a57600080fd5b50565b60008135905061213c81612116565b92915050565b60008060006060848603121561215b5761215a611fd4565b5b600061216986828701611fff565b935050602061217a8682870161212d565b925050604061218b86828701611fff565b9150509250925092565b600080fd5b600080fd5b60008083601f8401126121b5576121b4612195565b5b8235905067ffffffffffffffff8111156121d2576121d161219a565b5b6020830191508360208202830111156121ee576121ed612054565b5b9250929050565b60008083601f84011261220b5761220a612195565b5b8235905067ffffffffffffffff8111156122285761222761219a565b5b60208301915083602082028301111561224457612243612054565b5b9250929050565b6000806000806000806080878903121561226857612267611fd4565b5b600061227689828a01611fff565b965050602061228789828a01611fff565b955050604087013567ffffffffffffffff8111156122a8576122a7611fd9565b5b6122b489828a0161219f565b9450945050606087013567ffffffffffffffff8111156122d7576122d6611fd9565b5b6122e389828a016121f5565b92509250509295509295509295565b600073ffffffffffffffffffffffffffffffffffffffff82169050919050565b600061231d826122f2565b9050919050565b61232d81612312565b82525050565b60006020820190506123486000830184612324565b92915050565b6000601f19601f8301169050919050565b7f4e487b7100000000000000000000000000000000000000000000000000000000600052604160045260246000fd5b6123978261234e565b810181811067ffffffffffffffff821117156123b6576123b561235f565b5b80604052505050565b60006123c9611fca565b90506123d5828261238e565b919050565b600067ffffffffffffffff8211156123f5576123f461235f565b5b602082029050919050565b600061241361240e846123da565b6123bf565b9050806020840283018581111561242d5761242c612054565b5b835b8181101561245657806124428882611fff565b84526020840193505060208101905061242f565b5050509392505050565b600082601f83011261247557612474612195565b5b6002612482848285612400565b91505092915050565b600067ffffffffffffffff8211156124a6576124a561235f565b5b602082029050919050565b60006124c46124bf8461248b565b6123bf565b905080604084028301858111156124de576124dd612054565b5b835b8181101561250757806124f38882612460565b8452602084019350506040810190506124e0565b5050509392505050565b600082601f83011261252657612525612195565b5b60026125338482856124b1565b91505092915050565b600067ffffffffffffffff8211156125575761255661235f565b5b602082029050919050565b60006125756125708461253c565b6123bf565b9050806020840283018581111561258f5761258e612054565b5b835b818110156125b857806125a48882611fff565b845260208401935050602081019050612591565b5050509392505050565b600082601f8301126125d7576125d6612195565b5b60046125e4848285612562565b91505092915050565b600080600080610180858703121561260857612607611fd4565b5b600061261687828801612460565b945050604061262787828801612511565b93505060c061263887828801612460565b92505061010061264a878288016125c2565b91505092959194509250565b61265f81612312565b811461266a57600080fd5b50565b60008135905061267c81612656565b92915050565b60006020828403121561269857612697611fd4565b5b60006126a68482850161266d565b91505092915050565b6000602082840312156126c5576126c4611fd4565b5b60006126d384828501611fff565b91505092915050565b6126e581612109565b82525050565b600060208201905061270060008301846126dc565b92915050565b61270f81611fde565b82525050565b600060208201905061272a6000830184612706565b92915050565b8082525050565b61274081611fde565b82525050565b600060408201905061275b6000830185612730565b6127686020830184612737565b9392505050565b60006040820190506127846000830185612706565b6127916020830184612706565b9392505050565b7f4e487b7100000000000000000000000000000000000000000000000000000000600052601160045260246000fd5b60006127d282611fde565b91506127dd83611fde565b9250828210156127f0576127ef612798565b5b828203905092915050565b7f4e487b7100000000000000000000000000000000000000000000000000000000600052603260045260246000fd5b600082825260208201905092915050565b600080fd5b82818337600083830152505050565b600061285b838561282a565b93507f07ffffffffffffffffffffffffffffffffffffffffffffffffffffffffffffff83111561288e5761288d61283b565b5b60208302925061289f838584612840565b82840190509392505050565b600082825260208201905092915050565b6000819050919050565b6128cf81612109565b82525050565b60006128e183836128c6565b60208301905092915050565b60006128fc602084018461212d565b905092915050565b6000602082019050919050565b600061291d83856128ab565b9350612928826128bc565b8060005b858110156129615761293e82846128ed565b61294888826128d5565b975061295383612904565b92505060018101905061292c565b5085925050509392505050565b60006080820190506129836000830189612730565b6129906020830188612737565b81810360408301526129a381868861284f565b905081810360608301526129b8818486612911565b9050979650505050505050565b60006129d082611fde565b91506129db83611fde565b9250827fffffffffffffffffffffffffffffffffffffffffffffffffffffffffffffffff03821115612a1057612a0f612798565b5b828201905092915050565b600082825260208201905092915050565b7f53656d6170686f726547726f7570733a2067726f7570206964206d757374206260008201527f65203c20534e41524b5f5343414c41525f4649454c4400000000000000000000602082015250565b6000612a88603683612a1b565b9150612a9382612a2c565b604082019050919050565b60006020820190508181036000830152612ab781612a7b565b9050919050565b7f53656d6170686f726547726f7570733a2067726f757020616c7265616479206560008201527f7869737473000000000000000000000000000000000000000000000000000000602082015250565b6000612b1a602583612a1b565b9150612b2582612abe565b604082019050919050565b60006020820190508181036000830152612b4981612b0d565b9050919050565b612b5981612109565b82525050565b6000606082019050612b746000830186612730565b612b816020830185612b50565b612b8e6040830184612737565b949350505050565b6000604082019050612bab60008301856126dc565b612bb86020830184612706565b9392505050565b6000612bca82611fde565b9150612bd583611fde565b9250817fffffffffffffffffffffffffffffffffffffffffffffffffffffffffffffffff0483118215151615612c0e57612c0d612798565b5b828202905092915050565b6000612c2482611fde565b91507fffffffffffffffffffffffffffffffffffffffffffffffffffffffffffffffff821415612c5757612c56612798565b5b60018201905091905056fea26469706673582212201f276ab9b514dae6bbf5267e6e5f2a3b9401b909e3bd06dbb28f3830ba37704d64736f6c634300080a0033",
    "linkReferences": {
        "@zk-kit/incremental-merkle-tree.sol/contracts/IncrementalBinaryTree.sol": {
            "IncrementalBinaryTree": [
                {
                    "length": 20,
                    "start": 828
                },
                {
                    "length": 20,
                    "start": 2308
                },
                {
                    "length": 20,
                    "start": 4615
                }
            ]
        }
    },
    "deployedLinkReferences": {
        "@zk-kit/incremental-merkle-tree.sol/contracts/IncrementalBinaryTree.sol": {
            "IncrementalBinaryTree": [
                {
                    "length": 20,
                    "start": 731
                },
                {
                    "length": 20,
                    "start": 2211
                },
                {
                    "length": 20,
                    "start": 4518
                }
            ]
        }
    }
}