{
    "_format": "hh-sol-artifact-1",
    "contractName": "Semaphore",
    "sourceName": "contracts/Semaphore.sol",
    "abi": [
        {
            "inputs": [
                {
                    "internalType": "uint8",
                    "name": "_treeLevels",
                    "type": "uint8"
                },
                {
                    "internalType": "uint232",
                    "name": "_firstExternalNullifier",
                    "type": "uint232"
                }
            ],
            "stateMutability": "nonpayable",
            "type": "constructor"
        },
        {
            "anonymous": false,
            "inputs": [
                {
                    "indexed": true,
                    "internalType": "uint232",
                    "name": "externalNullifier",
                    "type": "uint232"
                }
            ],
            "name": "ExternalNullifierAdd",
            "type": "event"
        },
        {
            "anonymous": false,
            "inputs": [
                {
                    "indexed": true,
                    "internalType": "uint232",
                    "name": "externalNullifier",
                    "type": "uint232"
                },
                {
                    "indexed": true,
                    "internalType": "bool",
                    "name": "active",
                    "type": "bool"
                }
            ],
            "name": "ExternalNullifierChangeStatus",
            "type": "event"
        },
        {
            "anonymous": false,
            "inputs": [
                {
                    "indexed": true,
                    "internalType": "uint256",
                    "name": "leaf",
                    "type": "uint256"
                },
                {
                    "indexed": true,
                    "internalType": "uint256",
                    "name": "leafIndex",
                    "type": "uint256"
                }
            ],
            "name": "LeafInsertion",
            "type": "event"
        },
        {
            "anonymous": false,
            "inputs": [
                {
                    "indexed": true,
                    "internalType": "address",
                    "name": "previousOwner",
                    "type": "address"
                },
                {
                    "indexed": true,
                    "internalType": "address",
                    "name": "newOwner",
                    "type": "address"
                }
            ],
            "name": "OwnershipTransferred",
            "type": "event"
        },
        {
            "anonymous": false,
            "inputs": [
                {
                    "indexed": true,
                    "internalType": "bool",
                    "name": "newPermission",
                    "type": "bool"
                }
            ],
            "name": "PermissionSet",
            "type": "event"
        },
        {
            "inputs": [],
            "name": "NOTHING_UP_MY_SLEEVE_ZERO",
            "outputs": [
                {
                    "internalType": "uint256",
                    "name": "",
                    "type": "uint256"
                }
            ],
            "stateMutability": "view",
            "type": "function"
        },
        {
            "inputs": [
                {
                    "internalType": "uint232",
                    "name": "_externalNullifier",
                    "type": "uint232"
                }
            ],
            "name": "addExternalNullifier",
            "outputs": [],
            "stateMutability": "nonpayable",
            "type": "function"
        },
        {
            "inputs": [
                {
                    "internalType": "bytes",
                    "name": "_signal",
                    "type": "bytes"
                },
                {
                    "internalType": "uint256[8]",
                    "name": "_proof",
                    "type": "uint256[8]"
                },
                {
                    "internalType": "uint256",
                    "name": "_root",
                    "type": "uint256"
                },
                {
                    "internalType": "uint256",
                    "name": "_nullifiersHash",
                    "type": "uint256"
                },
                {
                    "internalType": "uint232",
                    "name": "_externalNullifier",
                    "type": "uint232"
                }
            ],
            "name": "broadcastSignal",
            "outputs": [],
            "stateMutability": "nonpayable",
            "type": "function"
        },
        {
            "inputs": [
                {
                    "internalType": "uint232",
                    "name": "_externalNullifier",
                    "type": "uint232"
                }
            ],
            "name": "deactivateExternalNullifier",
            "outputs": [],
            "stateMutability": "nonpayable",
            "type": "function"
        },
        {
            "inputs": [
                {
                    "internalType": "uint232",
                    "name": "",
                    "type": "uint232"
                }
            ],
            "name": "externalNullifierLinkedList",
            "outputs": [
                {
                    "internalType": "uint232",
                    "name": "next",
                    "type": "uint232"
                },
                {
                    "internalType": "bool",
                    "name": "exists",
                    "type": "bool"
                },
                {
                    "internalType": "bool",
                    "name": "isActive",
                    "type": "bool"
                }
            ],
            "stateMutability": "view",
            "type": "function"
        },
        {
            "inputs": [
                {
                    "internalType": "uint256",
                    "name": "",
                    "type": "uint256"
                },
                {
                    "internalType": "uint256",
                    "name": "",
                    "type": "uint256"
                }
            ],
            "name": "filledSubtrees",
            "outputs": [
                {
                    "internalType": "uint256",
                    "name": "",
                    "type": "uint256"
                }
            ],
            "stateMutability": "view",
            "type": "function"
        },
        {
            "inputs": [],
            "name": "firstExternalNullifier",
            "outputs": [
                {
                    "internalType": "uint232",
                    "name": "",
                    "type": "uint232"
                }
            ],
            "stateMutability": "view",
            "type": "function"
        },
        {
            "inputs": [
                {
                    "internalType": "uint232",
                    "name": "_externalNullifier",
                    "type": "uint232"
                }
            ],
            "name": "getNextExternalNullifier",
            "outputs": [
                {
                    "internalType": "uint232",
                    "name": "",
                    "type": "uint232"
                }
            ],
            "stateMutability": "view",
            "type": "function"
        },
        {
            "inputs": [],
            "name": "getNumIdentityCommitments",
            "outputs": [
                {
                    "internalType": "uint256",
                    "name": "",
                    "type": "uint256"
                }
            ],
            "stateMutability": "view",
            "type": "function"
        },
        {
            "inputs": [
                {
                    "internalType": "uint256[]",
                    "name": "array",
                    "type": "uint256[]"
                }
            ],
            "name": "hash11",
            "outputs": [
                {
                    "internalType": "uint256",
                    "name": "",
                    "type": "uint256"
                }
            ],
            "stateMutability": "pure",
            "type": "function"
        },
        {
            "inputs": [
                {
                    "internalType": "uint256[5]",
                    "name": "array",
                    "type": "uint256[5]"
                }
            ],
            "name": "hash5",
            "outputs": [
                {
                    "internalType": "uint256",
                    "name": "",
                    "type": "uint256"
                }
            ],
            "stateMutability": "pure",
            "type": "function"
        },
        {
            "inputs": [
                {
                    "internalType": "uint256",
                    "name": "_left",
                    "type": "uint256"
                },
                {
                    "internalType": "uint256",
                    "name": "_right",
                    "type": "uint256"
                }
            ],
            "name": "hashLeftRight",
            "outputs": [
                {
                    "internalType": "uint256",
                    "name": "",
                    "type": "uint256"
                }
            ],
            "stateMutability": "pure",
            "type": "function"
        },
        {
            "inputs": [
                {
                    "internalType": "uint256",
                    "name": "_identityCommitment",
                    "type": "uint256"
                }
            ],
            "name": "insertIdentity",
            "outputs": [
                {
                    "internalType": "uint256",
                    "name": "",
                    "type": "uint256"
                }
            ],
            "stateMutability": "nonpayable",
            "type": "function"
        },
        {
            "inputs": [
                {
                    "internalType": "uint256",
                    "name": "_leaf",
                    "type": "uint256"
                }
            ],
            "name": "insertLeaf",
            "outputs": [
                {
                    "internalType": "uint256",
                    "name": "",
                    "type": "uint256"
                }
            ],
            "stateMutability": "nonpayable",
            "type": "function"
        },
        {
            "inputs": [],
            "name": "isBroadcastPermissioned",
            "outputs": [
                {
                    "internalType": "bool",
                    "name": "",
                    "type": "bool"
                }
            ],
            "stateMutability": "view",
            "type": "function"
        },
        {
            "inputs": [
                {
                    "internalType": "uint232",
                    "name": "_externalNullifier",
                    "type": "uint232"
                }
            ],
            "name": "isExternalNullifierActive",
            "outputs": [
                {
                    "internalType": "bool",
                    "name": "",
                    "type": "bool"
                }
            ],
            "stateMutability": "view",
            "type": "function"
        },
        {
            "inputs": [],
            "name": "isOwner",
            "outputs": [
                {
                    "internalType": "bool",
                    "name": "",
                    "type": "bool"
                }
            ],
            "stateMutability": "view",
            "type": "function"
        },
        {
            "inputs": [],
            "name": "lastExternalNullifier",
            "outputs": [
                {
                    "internalType": "uint232",
                    "name": "",
                    "type": "uint232"
                }
            ],
            "stateMutability": "view",
            "type": "function"
        },
        {
            "inputs": [
                {
                    "internalType": "uint256",
                    "name": "",
                    "type": "uint256"
                }
            ],
            "name": "nullifierHashHistory",
            "outputs": [
                {
                    "internalType": "bool",
                    "name": "",
                    "type": "bool"
                }
            ],
            "stateMutability": "view",
            "type": "function"
        },
        {
            "inputs": [],
            "name": "numExternalNullifiers",
            "outputs": [
                {
                    "internalType": "uint256",
                    "name": "",
                    "type": "uint256"
                }
            ],
            "stateMutability": "view",
            "type": "function"
        },
        {
            "inputs": [],
            "name": "owner",
            "outputs": [
                {
                    "internalType": "address",
                    "name": "",
                    "type": "address"
                }
            ],
            "stateMutability": "view",
            "type": "function"
        },
        {
            "inputs": [
                {
                    "internalType": "uint256[2]",
                    "name": "_a",
                    "type": "uint256[2]"
                },
                {
                    "internalType": "uint256[2][2]",
                    "name": "_b",
                    "type": "uint256[2][2]"
                },
                {
                    "internalType": "uint256[2]",
                    "name": "_c",
                    "type": "uint256[2]"
                }
            ],
            "name": "packProof",
            "outputs": [
                {
                    "internalType": "uint256[8]",
                    "name": "",
                    "type": "uint256[8]"
                }
            ],
            "stateMutability": "pure",
            "type": "function"
        },
        {
            "inputs": [
                {
                    "internalType": "bytes",
                    "name": "_signal",
                    "type": "bytes"
                },
                {
                    "internalType": "uint256[8]",
                    "name": "_proof",
                    "type": "uint256[8]"
                },
                {
                    "internalType": "uint256",
                    "name": "_root",
                    "type": "uint256"
                },
                {
                    "internalType": "uint256",
                    "name": "_nullifiersHash",
                    "type": "uint256"
                },
                {
                    "internalType": "uint256",
                    "name": "_signalHash",
                    "type": "uint256"
                },
                {
                    "internalType": "uint232",
                    "name": "_externalNullifier",
                    "type": "uint232"
                }
            ],
            "name": "preBroadcastCheck",
            "outputs": [
                {
                    "internalType": "bool",
                    "name": "",
                    "type": "bool"
                }
            ],
            "stateMutability": "view",
            "type": "function"
        },
        {
            "inputs": [
                {
                    "internalType": "uint232",
                    "name": "_externalNullifier",
                    "type": "uint232"
                }
            ],
            "name": "reactivateExternalNullifier",
            "outputs": [],
            "stateMutability": "nonpayable",
            "type": "function"
        },
        {
            "inputs": [],
            "name": "renounceOwnership",
            "outputs": [],
            "stateMutability": "nonpayable",
            "type": "function"
        },
        {
            "inputs": [],
            "name": "root",
            "outputs": [
                {
                    "internalType": "uint256",
                    "name": "",
                    "type": "uint256"
                }
            ],
            "stateMutability": "view",
            "type": "function"
        },
        {
            "inputs": [
                {
                    "internalType": "uint256",
                    "name": "",
                    "type": "uint256"
                }
            ],
            "name": "rootHistory",
            "outputs": [
                {
                    "internalType": "bool",
                    "name": "",
                    "type": "bool"
                }
            ],
            "stateMutability": "view",
            "type": "function"
        },
        {
            "inputs": [
                {
                    "internalType": "bool",
                    "name": "_newPermission",
                    "type": "bool"
                }
            ],
            "name": "setPermissioning",
            "outputs": [],
            "stateMutability": "nonpayable",
            "type": "function"
        },
        {
            "inputs": [
                {
                    "internalType": "address",
                    "name": "newOwner",
                    "type": "address"
                }
            ],
            "name": "transferOwnership",
            "outputs": [],
            "stateMutability": "nonpayable",
            "type": "function"
        },
        {
            "inputs": [
                {
                    "internalType": "uint256[8]",
                    "name": "_proof",
                    "type": "uint256[8]"
                }
            ],
            "name": "unpackProof",
            "outputs": [
                {
                    "internalType": "uint256[2]",
                    "name": "",
                    "type": "uint256[2]"
                },
                {
                    "internalType": "uint256[2][2]",
                    "name": "",
                    "type": "uint256[2][2]"
                },
                {
                    "internalType": "uint256[2]",
                    "name": "",
                    "type": "uint256[2]"
                }
            ],
            "stateMutability": "pure",
            "type": "function"
        },
        {
            "inputs": [
                {
                    "internalType": "uint256[2]",
                    "name": "a",
                    "type": "uint256[2]"
                },
                {
                    "internalType": "uint256[2][2]",
                    "name": "b",
                    "type": "uint256[2][2]"
                },
                {
                    "internalType": "uint256[2]",
                    "name": "c",
                    "type": "uint256[2]"
                },
                {
                    "internalType": "uint256[4]",
                    "name": "input",
                    "type": "uint256[4]"
                }
            ],
            "name": "verifyProof",
            "outputs": [
                {
                    "internalType": "bool",
                    "name": "r",
                    "type": "bool"
                }
            ],
            "stateMutability": "view",
            "type": "function"
        },
        {
            "inputs": [
                {
                    "internalType": "uint256",
                    "name": "",
                    "type": "uint256"
                }
            ],
            "name": "zeros",
            "outputs": [
                {
                    "internalType": "uint256",
                    "name": "",
                    "type": "uint256"
                }
            ],
            "stateMutability": "view",
            "type": "function"
        }
    ],
    "bytecode": "0x60006001819055600755600880546001600160e81b0319169055600980546001600160f01b03191681556853656d6170686f726560b81b60a05260805260a96040527f1c4823575d154474ee3e5ac838d002456a815181437afd14f126da58a9912bbe600b553480156200007257600080fd5b506040516200423838038062004238833981810160405260408110156200009857600080fd5b508051602090910151600b54600080546001600160a01b03191633178082556040518593926001600160a01b039290921691907f8be0079c531659141344cd1fd0a4f28419497f9722a3daafe3b4186f6b6457e0908290a360008260ff16118015620001085750602060ff831611155b620001455760405162461bcd60e51b8152600401808060200182810382526039815260200180620041d66039913960400191505060405180910390fd5b6000805460ff60a01b1916600160a01b60ff851602179055806200016862000414565b60005b8460ff168160ff161015620001df5760005b600260ff82161015620001a95783838260ff16600281106200019b57fe5b60200201526001016200017d565b5060ff81166000908152600360209081526040909120849055825190830151620001d49190620001fc565b92506001016200016b565b505060025550620001f49050816001620002c1565b505062000432565b60006200020862000414565b83815260208101839052604080516314d2f97b60e11b815273__$86e0c54df1042e28bf2dd20ccf184dc428$__916329a5f2f69184916004909101908190839080838360005b83811015620002685781810151838201526020016200024e565b5050505090500191505060206040518083038186803b1580156200028b57600080fd5b505af4158015620002a0573d6000803e3d6000fd5b505050506040513d6020811015620002b757600080fd5b5051949350505050565b8015620002e957600880546001600160e81b0319166001600160e81b0384161790556200037c565b6001600160e81b038216600090815260066020526040902054600160e81b900460ff16156200034a5760405162461bcd60e51b81526004018080602001828103825260298152602001806200420f6029913960400191505060405180910390fd5b6009546001600160e81b03908116600090815260066020526040902080546001600160e81b0319169184169190911790555b6001600160e81b038216600081815260066020526040808220805460ff60e81b197fff00ff0000000000000000000000000000000000000000000000000000000000909116600160f01b1716600160e81b179055600980546001600160e81b03191684179055600780546001019055517fd1ca56647596090d70fa8d49bcc376b97248314e3f204c491333b3440405f5899190a25050565b60405180604001604052806002906020820280368337509192915050565b613d9480620004426000396000f3fe608060405234801561001057600080fd5b50600436106101f05760003560e01c80638da5cb5b1161010f578063c8cf02da116100a2578063ebf0c71711610071578063ebf0c71714610a3d578063f1c621ee14610a45578063f2fde38b14610a62578063f5ab0dd614610a95576101f0565b8063c8cf02da146109bd578063ce85bbdb146109c5578063e8295588146109e4578063eac4287e14610a01576101f0565b8063b7202434116100de578063b72024341461093f578063ba10b81d1461095c578063c3a3407f14610964578063c4cd5596146109a0576101f0565b80638da5cb5b146108ac5780638f32d59b146108dd5780638f6efd00146108e55780639cfced97146108ed576101f0565b80635fe8c13b11610187578063715018a611610156578063715018a6146107495780637a5519f914610751578063819bd8a5146107cd5780638a1a52d214610809576101f0565b80635fe8c13b1461060557806364e9fa6a146107015780636d80efca146107245780636ebf626514610741576101f0565b80635bb93995116101c35780635bb93995146103895780635d3ce725146103be5780635d86faba146104c25780635e05ea17146104fc576101f0565b80630e57596f146101f557806323baaa83146102f5578063283ebaf414610331578063539f38b21461034d575b600080fd5b6102f3600480360361018081101561020c57600080fd5b81019060208101813564010000000081111561022757600080fd5b82018360208201111561023957600080fd5b8035906020019184600183028401116401000000008311171561025b57600080fd5b91908080601f01602080910402602001604051908101604052809392919081815260200183838082843760009201919091525050604080516101008181019092529396959481810194935091506008908390839080828437600092019190915250919450508135925050602081013590604001357cffffffffffffffffffffffffffffffffffffffffffffffffffffffffff16610b9c565b005b6102f36004803603602081101561030b57600080fd5b50357cffffffffffffffffffffffffffffffffffffffffffffffffffffffffff16610f82565b6103396111cc565b604080519115158252519081900360200190f35b6102f36004803603602081101561036357600080fd5b50357cffffffffffffffffffffffffffffffffffffffffffffffffffffffffff166111f6565b6103ac6004803603604081101561039f57600080fd5b5080359060200135611277565b60408051918252519081900360200190f35b61033960048036036101a08110156103d557600080fd5b8101906020810181356401000000008111156103f057600080fd5b82018360208201111561040257600080fd5b8035906020019184600183028401116401000000008311171561042457600080fd5b91908080601f01602080910402602001604051908101604052809392919081815260200183838082843760009201919091525050604080516101008181019092529396959481810194935091506008908390839080828437600092019190915250919450508135925050602081013590604081013590606001357cffffffffffffffffffffffffffffffffffffffffffffffffffffffffff16611350565b6104ca6114b0565b604080517cffffffffffffffffffffffffffffffffffffffffffffffffffffffffff9092168252519081900360200190f35b6105cc600480360361010081101561051357600080fd5b6040805180820182529183019291818301918390600290839083908082843760009201829052506040805180820190915293969594608081019493509150600290835b828210156105945760408051808201825290808402860190600290839083908082843760009201919091525050508152600190910190602001610556565b505060408051808201825293969594818101949350915060029083908390808284376000920191909152509194506114d59350505050565b604051808261010080838360005b838110156105f25781810151838201526020016105da565b5050505090500191505060405180910390f35b610339600480360361018081101561061c57600080fd5b6040805180820182529183019291818301918390600290839083908082843760009201829052506040805180820190915293969594608081019493509150600290835b8282101561069d576040805180820182529080840286019060029083908390808284376000920191909152505050815260019091019060200161065f565b5050604080518082018252939695948181019493509150600290839083908082843760009201919091525050604080516080818101909252929594938181019392509060049083908390808284376000920191909152509194506115329350505050565b6103ac6004803603604081101561071757600080fd5b5080359060200135611636565b6103ac6004803603602081101561073a57600080fd5b5035611653565b6103ac611734565b6102f361173a565b61078d6004803603602081101561076757600080fd5b50357cffffffffffffffffffffffffffffffffffffffffffffffffffffffffff1661181c565b604080517cffffffffffffffffffffffffffffffffffffffffffffffffffffffffff90941684529115156020840152151582820152519081900360600190f35b6102f3600480360360208110156107e357600080fd5b50357cffffffffffffffffffffffffffffffffffffffffffffffffffffffffff16611898565b6103ac6004803603602081101561081f57600080fd5b81019060208101813564010000000081111561083a57600080fd5b82018360208201111561084c57600080fd5b8035906020019184602083028401116401000000008311171561086e57600080fd5b919080806020026020016040519081016040528093929190818152602001838360200280828437600092019190915250929550611afe945050505050565b6108b4611f1f565b6040805173ffffffffffffffffffffffffffffffffffffffff9092168252519081900360200190f35b610339611f3b565b6103ac611f59565b6103ac600480360360a081101561090357600080fd5b810190808060a001906005806020026040519081016040528092919082600560200280828437600092019190915250919450611f5f9350505050565b6103ac6004803603602081101561095557600080fd5b503561201e565b6103ac61231b565b6104ca6004803603602081101561097a57600080fd5b50357cffffffffffffffffffffffffffffffffffffffffffffffffffffffffff16612321565b610339600480360360208110156109b657600080fd5b50356124b2565b6104ca6124c7565b6102f3600480360360208110156109db57600080fd5b503515156124ec565b6103ac600480360360208110156109fa57600080fd5b50356125dd565b61033960048036036020811015610a1757600080fd5b50357cffffffffffffffffffffffffffffffffffffffffffffffffffffffffff166125ef565b6103ac612645565b61033960048036036020811015610a5b57600080fd5b503561264b565b6102f360048036036020811015610a7857600080fd5b503573ffffffffffffffffffffffffffffffffffffffff16612660565b610ae96004803603610100811015610aac57600080fd5b8101908080610100019060088060200260405190810160405280929190826008602002808284376000920191909152509194506126dc9350505050565b6040518084600260200280838360005b83811015610b11578181015183820152602001610af9565b505050509050018360026000925b81841015610b5f5760208402830151604080838360005b83811015610b4e578181015183820152602001610b36565b505050509050019260010192610b1f565b9250505082600260200280838360005b83811015610b87578181015183820152602001610b6f565b50505050905001935050505060405180910390f35b6009547d010000000000000000000000000000000000000000000000000000000000900460ff161580610bd25750610bd2611f3b565b610c27576040517f08c379a0000000000000000000000000000000000000000000000000000000008152600401808060200182810382526026815260200180613c4e6026913960400191505060405180910390fd5b8484848484610c3584612765565b610c8a576040517f08c379a000000000000000000000000000000000000000000000000000000000815260040180806020018281038252602c815260200180613c74602c913960400191505060405180910390fd5b6000828152600a602052604090205460ff1615610cf2576040517f08c379a0000000000000000000000000000000000000000000000000000000008152600401808060200182810382526021815260200180613ca06021913960400191505060405180910390fd5b610cfb816125ef565b610d50576040517f08c379a0000000000000000000000000000000000000000000000000000000008152600401808060200182810382526027815260200180613cc16027913960400191505060405180910390fd5b60008381526005602052604090205460ff16610dcd57604080517f08c379a000000000000000000000000000000000000000000000000000000000815260206004820152601860248201527f53656d6170686f72653a20726f6f74206e6f74207365656e0000000000000000604482015290519081900360640190fd5b6000610dd8866128d7565b90507f30644e72e131a029b85045b68181585d2833e84879b9709143e1f593f00000018310610e52576040517f08c379a0000000000000000000000000000000000000000000000000000000008152600401808060200182810382526040815260200180613ce86040913960400191505060405180910390fd5b610e5a613958565b6040518060800160405280868152602001858152602001838152602001847cffffffffffffffffffffffffffffffffffffffffffffffffffffffffff168152509050610ea4613976565b610eac613994565b610eb4613976565b610ebd896126dc565b925092509250610ecf83838387611532565b610f3a57604080517f08c379a000000000000000000000000000000000000000000000000000000000815260206004820152601860248201527f53656d6170686f72653a20696e76616c69642070726f6f660000000000000000604482015290519081900360640190fd5b50505060009889525050600a6020525050604090942080547fffffffffffffffffffffffffffffffffffffffffffffffffffffffffffffff0016600117905550505050505050565b610f8a611f3b565b610ff557604080517f08c379a000000000000000000000000000000000000000000000000000000000815260206004820181905260248201527f4f776e61626c653a2063616c6c6572206973206e6f7420746865206f776e6572604482015290519081900360640190fd5b7cffffffffffffffffffffffffffffffffffffffffffffffffffffffffff81166000908152600660205260409020547d010000000000000000000000000000000000000000000000000000000000900460ff1661109d576040517f08c379a0000000000000000000000000000000000000000000000000000000008152600401808060200182810382526027815260200180613cc16027913960400191505060405180910390fd5b7cffffffffffffffffffffffffffffffffffffffffffffffffffffffffff81166000908152600660205260409020547e01000000000000000000000000000000000000000000000000000000000000900460ff16151560011461114b576040517f08c379a0000000000000000000000000000000000000000000000000000000008152600401808060200182810382526031815260200180613baf6031913960400191505060405180910390fd5b7cffffffffffffffffffffffffffffffffffffffffffffffffffffffffff811660008181526006602052604080822080547fff00ffffffffffffffffffffffffffffffffffffffffffffffffffffffffffff169055519091907fb8d2b8a2b352df7f139810483b3c80fc3a4a88711c90bdb7180f1030b7f49acf908390a350565b6009547d010000000000000000000000000000000000000000000000000000000000900460ff1681565b6111fe611f3b565b61126957604080517f08c379a000000000000000000000000000000000000000000000000000000000815260206004820181905260248201527f4f776e61626c653a2063616c6c6572206973206e6f7420746865206f776e6572604482015290519081900360640190fd5b6112748160006128e5565b50565b6000611281613976565b83815260208101839052604080517f29a5f2f600000000000000000000000000000000000000000000000000000000815273__$86e0c54df1042e28bf2dd20ccf184dc428$__916329a5f2f69184916004909101908190839080838360005b838110156112f85781810151838201526020016112e0565b5050505090500191505060206040518083038186803b15801561131a57600080fd5b505af415801561132e573d6000803e3d6000fd5b505050506040513d602081101561134457600080fd5b50519150505b92915050565b600061135a613958565b6040518060800160405280878152602001868152602001858152602001847cffffffffffffffffffffffffffffffffffffffffffffffffffffffffff1681525090506113a4613976565b6113ac613994565b6113b4613976565b6113bd8a6126dc565b60008b8152600a6020526040902054929550909350915060ff161580156113eb5750866113e98c6128d7565b145b80156113fe57506113fb8b6128d7565b87145b801561140e575061140e866125ef565b8015611428575060008981526005602052604090205460ff165b801561143857506114388a612765565b801561146357507f30644e72e131a029b85045b68181585d2833e84879b9709143e1f593f000000189105b801561148e57507f30644e72e131a029b85045b68181585d2833e84879b9709143e1f593f000000188105b80156114a157506114a183838387611532565b9b9a5050505050505050505050565b6008547cffffffffffffffffffffffffffffffffffffffffffffffffffffffffff1681565b6114dd6139c1565b5060408051610100810182528451815260209485015185820152835151918101919091528251840151606082015291830180515160808401525183015160a0830152805160c08301529091015160e082015290565b600061153c6139e0565b60408051808201825287518152602080890151818301529083528151608080820184528851518285019081528951840151606080850191909152908352845180860186528a850180515182525185015181860152838501528584019290925283518085018552885181528884015181850152858501528351600480825260a08201909552919391928301908036833701905050905060005b600481101561160d578481600481106115e957fe5b60200201518282815181106115fa57fe5b60209081029190910101526001016115d4565b506116188183612b58565b6116275760019250505061162e565b6000925050505b949350505050565b600460209081526000928352604080842090915290825290205481565b600061165d611f3b565b6116c857604080517f08c379a000000000000000000000000000000000000000000000000000000000815260206004820181905260248201527f4f776e61626c653a2063616c6c6572206973206e6f7420746865206f776e6572604482015290519081900360640190fd5b600b54821415611723576040517f08c379a0000000000000000000000000000000000000000000000000000000008152600401808060200182810382526047815260200180613b436047913960600191505060405180910390fd5b61172c8261201e565b90505b919050565b600b5481565b611742611f3b565b6117ad57604080517f08c379a000000000000000000000000000000000000000000000000000000000815260206004820181905260248201527f4f776e61626c653a2063616c6c6572206973206e6f7420746865206f776e6572604482015290519081900360640190fd5b6000805460405173ffffffffffffffffffffffffffffffffffffffff909116907f8be0079c531659141344cd1fd0a4f28419497f9722a3daafe3b4186f6b6457e0908390a3600080547fffffffffffffffffffffffff0000000000000000000000000000000000000000169055565b6006602052600090815260409020547cffffffffffffffffffffffffffffffffffffffffffffffffffffffffff81169060ff7d01000000000000000000000000000000000000000000000000000000000082048116917e0100000000000000000000000000000000000000000000000000000000000090041683565b6118a0611f3b565b61190b57604080517f08c379a000000000000000000000000000000000000000000000000000000000815260206004820181905260248201527f4f776e61626c653a2063616c6c6572206973206e6f7420746865206f776e6572604482015290519081900360640190fd5b7cffffffffffffffffffffffffffffffffffffffffffffffffffffffffff81166000908152600660205260409020547d010000000000000000000000000000000000000000000000000000000000900460ff166119b3576040517f08c379a0000000000000000000000000000000000000000000000000000000008152600401808060200182810382526027815260200180613cc16027913960400191505060405180910390fd5b7cffffffffffffffffffffffffffffffffffffffffffffffffffffffffff81166000908152600660205260409020547e01000000000000000000000000000000000000000000000000000000000000900460ff1615611a5d576040517f08c379a000000000000000000000000000000000000000000000000000000000815260040180806020018281038252602f815260200180613aee602f913960400191505060405180910390fd5b7cffffffffffffffffffffffffffffffffffffffffffffffffffffffffff811660008181526006602052604080822080547fff00ffffffffffffffffffffffffffffffffffffffffffffffffffffffffffff167e0100000000000000000000000000000000000000000000000000000000000017905551600192917fb8d2b8a2b352df7f139810483b3c80fc3a4a88711c90bdb7180f1030b7f49acf91a350565b60408051600b8082526101808201909252600091606091906020820161016080368337019050509050611b2f613a12565b611b37613a12565b60005b8551811015611b7657858181518110611b4f57fe5b6020026020010151848281518110611b6357fe5b6020908102919091010152600101611b3a565b5084515b600b811015611ba4576000848281518110611b9157fe5b6020908102919091010152600101611b7a565b5060005b6005811015611c0857838181518110611bbd57fe5b6020026020010151838260058110611bd157fe5b60200201528351849060058301908110611be757fe5b6020026020010151828260058110611bfb57fe5b6020020152600101611ba8565b50611c11613976565b6040517f4937a25800000000000000000000000000000000000000000000000000000000815273__$223301b175b06473d424a7afc957d4e96c$__90634937a258908590600401808260a080838360005b83811015611c7a578181015183820152602001611c62565b5050505090500191505060206040518083038186803b158015611c9c57600080fd5b505af4158015611cb0573d6000803e3d6000fd5b505050506040513d6020811015611cc657600080fd5b505181526040517f4937a25800000000000000000000000000000000000000000000000000000000815273__$223301b175b06473d424a7afc957d4e96c$__90634937a258908490600401808260a080838360005b83811015611d33578181015183820152602001611d1b565b5050505090500191505060206040518083038186803b158015611d5557600080fd5b505af4158015611d69573d6000803e3d6000fd5b505050506040513d6020811015611d7f57600080fd5b50516020820152611d8e613976565b73__$86e0c54df1042e28bf2dd20ccf184dc428$__6329a5f2f6836040518263ffffffff1660e01b81526004018082600260200280838360005b83811015611de0578181015183820152602001611dc8565b5050505090500191505060206040518083038186803b158015611e0257600080fd5b505af4158015611e16573d6000803e3d6000fd5b505050506040513d6020811015611e2c57600080fd5b5051815284518590600a908110611e3f57fe5b602002602001015181600160028110611e5457fe5b6020020152604080517f29a5f2f600000000000000000000000000000000000000000000000000000000815273__$86e0c54df1042e28bf2dd20ccf184dc428$__916329a5f2f69184916004909101908190839080838360005b83811015611ec6578181015183820152602001611eae565b5050505090500191505060206040518083038186803b158015611ee857600080fd5b505af4158015611efc573d6000803e3d6000fd5b505050506040513d6020811015611f1257600080fd5b5051979650505050505050565b60005473ffffffffffffffffffffffffffffffffffffffff1690565b60005473ffffffffffffffffffffffffffffffffffffffff16331490565b60075481565b6040517f4937a25800000000000000000000000000000000000000000000000000000000815260009073__$223301b175b06473d424a7afc957d4e96c$__90634937a258908490600401808260a08083838a5b83811015611fca578181015183820152602001611fb2565b5050505090500191505060206040518083038186803b158015611fec57600080fd5b505af4158015612000573d6000803e3d6000fd5b505050506040513d602081101561201657600080fd5b505192915050565b6000612028611f3b565b61209357604080517f08c379a000000000000000000000000000000000000000000000000000000000815260206004820181905260248201527f4f776e61626c653a2063616c6c6572206973206e6f7420746865206f776e6572604482015290519081900360640190fd5b7f30644e72e131a029b85045b68181585d2833e84879b9709143e1f593f0000001821061210b576040517f08c379a0000000000000000000000000000000000000000000000000000000008152600401808060200182810382526045815260200180613be06045913960600191505060405180910390fd5b6000546001547401000000000000000000000000000000000000000090910460ff1660020a11612186576040517f08c379a0000000000000000000000000000000000000000000000000000000008152600401808060200182810382526021815260200180613d676021913960400191505060405180910390fd5b60015482612192613976565b6001831660005b60005460ff740100000000000000000000000000000000000000009091048116908216101561229c578161220a5760015b600260ff821610156122085760ff808316600090815260036020908152604080832054600483528184209486168452939091529020556001016121ca565b505b60ff8116600090815260046020908152604080832085845290915281208590555b600260ff821610156122745760ff8083166000908152600460209081526040808320938516808452939091529020549085906002811061226757fe5b602002015260010161222b565b50825160208401516122869190611277565b9350600285049450600285069150600101612199565b50600283905560008381526005602052604080822080547fffffffffffffffffffffffffffffffffffffffffffffffffffffffffffffff00166001908117909155805480820190915590519091829189917fe6f49fa84abd31919f446b22a52bb3ceae774b4b87f062f022fec45c46f4f45891a3509295945050505050565b60015490565b7cffffffffffffffffffffffffffffffffffffffffffffffffffffffffff81166000908152600660205260408120547d010000000000000000000000000000000000000000000000000000000000900460ff166123c9576040517f08c379a0000000000000000000000000000000000000000000000000000000008152600401808060200182810382526025815260200180613b8a6025913960400191505060405180910390fd5b7cffffffffffffffffffffffffffffffffffffffffffffffffffffffffff808316600090815260066020526040902054600754911690600110801561245d57507cffffffffffffffffffffffffffffffffffffffffffffffffffffffffff81166000908152600660205260409020547d010000000000000000000000000000000000000000000000000000000000900460ff165b61172c576040517f08c379a000000000000000000000000000000000000000000000000000000000815260040180806020018281038252603f815260200180613d28603f913960400191505060405180910390fd5b600a6020526000908152604090205460ff1681565b6009547cffffffffffffffffffffffffffffffffffffffffffffffffffffffffff1681565b6124f4611f3b565b61255f57604080517f08c379a000000000000000000000000000000000000000000000000000000000815260206004820181905260248201527f4f776e61626c653a2063616c6c6572206973206e6f7420746865206f776e6572604482015290519081900360640190fd5b600980547fffff00ffffffffffffffffffffffffffffffffffffffffffffffffffffffffff167d010000000000000000000000000000000000000000000000000000000000831515908102919091179091556040517ffba91b9002bc7732a7bff1b44ee16a30ebaeb06d7921779034c6a6ab27e69c2790600090a250565b60036020526000908152604090205481565b7cffffffffffffffffffffffffffffffffffffffffffffffffffffffffff166000908152600660205260409020547e01000000000000000000000000000000000000000000000000000000000000900460ff1690565b60025481565b60056020526000908152604090205460ff1681565b612668611f3b565b6126d357604080517f08c379a000000000000000000000000000000000000000000000000000000000815260206004820181905260248201527f4f776e61626c653a2063616c6c6572206973206e6f7420746865206f776e6572604482015290519081900360640190fd5b61127481612d71565b6126e4613976565b6126ec613994565b6126f4613976565b50506040805180820182528351815260208085015181830152825160808082018552868501518286019081526060808901519084015282528451808601865290870151815260a08701518184015281830152835180850190945260c0860151845260e0909501519083015293909150565b80516000907f30644e72e131a029b85045b68181585d2833e84879b9709143e1f593f00000011180156127bb575060208201517f30644e72e131a029b85045b68181585d2833e84879b9709143e1f593f0000001115b80156127ea575060408201517f30644e72e131a029b85045b68181585d2833e84879b9709143e1f593f0000001115b8015612819575060608201517f30644e72e131a029b85045b68181585d2833e84879b9709143e1f593f0000001115b8015612848575060808201517f30644e72e131a029b85045b68181585d2833e84879b9709143e1f593f0000001115b8015612877575060a08201517f30644e72e131a029b85045b68181585d2833e84879b9709143e1f593f0000001115b80156128a6575060c08201517f30644e72e131a029b85045b68181585d2833e84879b9709143e1f593f0000001115b801561172c57505060e001517f30644e72e131a029b85045b68181585d2833e84879b9709143e1f593f00000011190565b805160209091012060081c90565b801561293957600880547fffffff0000000000000000000000000000000000000000000000000000000000167cffffffffffffffffffffffffffffffffffffffffffffffffffffffffff8416179055612a42565b7cffffffffffffffffffffffffffffffffffffffffffffffffffffffffff82166000908152600660205260409020547d010000000000000000000000000000000000000000000000000000000000900460ff16156129e2576040517f08c379a0000000000000000000000000000000000000000000000000000000008152600401808060200182810382526029815260200180613c256029913960400191505060405180910390fd5b6009547cffffffffffffffffffffffffffffffffffffffffffffffffffffffffff908116600090815260066020526040902080547fffffff0000000000000000000000000000000000000000000000000000000000169184169190911790555b7cffffffffffffffffffffffffffffffffffffffffffffffffffffffffff821660008181526006602052604080822080547fffff00ffffffffffffffffffffffffffffffffffffffffffffffffffffffffff7fff00ff00000000000000000000000000000000000000000000000000000000009091167e0100000000000000000000000000000000000000000000000000000000000017167d010000000000000000000000000000000000000000000000000000000000179055600980547fffffff00000000000000000000000000000000000000000000000000000000001684179055600780546001019055517fd1ca56647596090d70fa8d49bcc376b97248314e3f204c491333b3440405f5899190a25050565b60007f30644e72e131a029b85045b68181585d2833e84879b9709143e1f593f0000001612b83613a30565b612b8b612e6a565b9050806080015151855160010114612c0457604080517f08c379a000000000000000000000000000000000000000000000000000000000815260206004820152601260248201527f76657269666965722d6261642d696e7075740000000000000000000000000000604482015290519081900360640190fd5b612c0c613a77565b6040518060400160405280600081526020016000815250905060005b8651811015612cfc5783878281518110612c3e57fe5b602002602001015110612cb257604080517f08c379a000000000000000000000000000000000000000000000000000000000815260206004820152601f60248201527f76657269666965722d6774652d736e61726b2d7363616c61722d6669656c6400604482015290519081900360640190fd5b612cf282612ced85608001518460010181518110612ccc57fe5b60200260200101518a8581518110612ce057fe5b6020026020010151613340565b6133fa565b9150600101612c28565b50612d1f818360800151600081518110612d1257fe5b60200260200101516133fa565b9050612d55612d3186600001516134b0565b8660200151846000015185602001518587604001518b60400151896060015161353a565b612d65576001935050505061134a565b50600095945050505050565b73ffffffffffffffffffffffffffffffffffffffff8116612ddd576040517f08c379a0000000000000000000000000000000000000000000000000000000008152600401808060200182810382526026815260200180613b1d6026913960400191505060405180910390fd5b6000805460405173ffffffffffffffffffffffffffffffffffffffff808516939216917f8be0079c531659141344cd1fd0a4f28419497f9722a3daafe3b4186f6b6457e091a3600080547fffffffffffffffffffffffff00000000000000000000000000000000000000001673ffffffffffffffffffffffffffffffffffffffff92909216919091179055565b612e72613a30565b6040805180820182527f2d4d9aa7e302d9df41749d5507949d05dbea33fbb16c643b22f599a2be6df2e281527f14bedd503c37ceb061d8ec60209fe345ce89830a19230301f076caff004d19266020808301919091529083528151608080820184527f0967032fcbf776d1afc985f88877f182d38480a653f2decaa9794cbc3bf3060c8285019081527f0e187847ad4c798374d0d6732bf501847dd68bc0e071241e0213bc7fc13db7ab606080850191909152908352845180860186527f304cfbd1e08a704a99f5e847d93f8c3caafddec46b7a0d379da69a4d112346a781527f1739c1b1a457a8c7313123d24d2f9192f896b7c63eea05a9d57f06547ad0cec8818601528385015285840192909252835180820185527f198e9393920d483a7260bfb731fb5d25f1aa493335a9e71297e485b7aef312c28186019081527f1800deef121f1e76426a00665e5c4479674322d4f75edadd46debd5cd992f6ed828501528152845180860186527f090689d0585ff075ec9e99ad690c3395bc4b313370b38ef355acdadcd122975b81527f12c85ea5db8c6deb4aab71808dcb408fe3d1e7690c43d37b4ce6cc0166fa7daa818601528185015285850152835190810184527f10c2eeff65a1890d44cdd79f1ffa6652c68a294dfc891f69c2eb2fdd08991df58185019081527f0f6b6c24ea0fedcfd233747971ba1a8ca5d2c23093681c29b45bbf99f0bbe6cd828401528152835180850185527f0e8c918fdb9b668c902ed6c3aa3c762a32c050b1fe622e71d343109198d61ce081527f0af8a246f769de6f65c40787c888d375fe3d685c9a660985f28ece637fd091e68185015281840152908401528151600580825260c08201909352919082015b6130f5613a77565b8152602001906001900390816130ed57505060808201908152604080518082019091527f08248cfc1be37f87793e23bbe2b067787e9d5bcc29e2a0d1f26199cde1b2efe981527f2aa767f0424a4ec14d2868541154a51b311a80cf8079bb610cdff4a187a06d3360208201529051805160009061316e57fe5b602002602001018190525060405180604001604052807f17851f26604c23c944413b5dceedd76fab605eab17cd06d4464b0ce3c0786b7a81526020017f09d4707381c57b59cdaa0f169826c7e63f771832a16731bca3839659fc1b54aa81525081608001516001815181106131df57fe5b602002602001018190525060405180604001604052807f134b8f983ff2ee46733f7f5a50ea1b7439f79994be08f7e8e0fb6f2efa82317981526020017f279de053411ced27b2b36dbf9d1d315c4de151ea64179ac0d7fca990be4bed64815250816080015160028151811061325057fe5b602002602001018190525060405180604001604052807f020cceb4f7880f273115c42ae3374e09902c250df6603501fcee58486578292381526020017f087636c851a36d4a7c65054cee9ebdab63d73aec6d9285fd695a416fdee0c1f881525081608001516003815181106132c157fe5b602002602001018190525060405180604001604052807f29098180f2c297a437ceaea5fb2654c12a5f45093470205e526a73cb920f079f81526020017f1e66e63fec347da3cb3c4d4d71d314291ca66d7574c43d3710599f6ac3fbdeb5815250816080015160048151811061333257fe5b602002602001018190525090565b613348613a77565b613350613a91565b835181526020808501519082015260408101839052600060608360808460076107d05a03fa905080801561338357613385565bfe5b50806133f257604080517f08c379a000000000000000000000000000000000000000000000000000000000815260206004820152601260248201527f70616972696e672d6d756c2d6661696c65640000000000000000000000000000604482015290519081900360640190fd5b505092915050565b613402613a77565b61340a613958565b8351815260208085015181830152835160408301528301516060808301919091526000908360c08460066107d05a03fa90508080156133835750806133f257604080517f08c379a000000000000000000000000000000000000000000000000000000000815260206004820152601260248201527f70616972696e672d6164642d6661696c65640000000000000000000000000000604482015290519081900360640190fd5b6134b8613a77565b81517f30644e72e131a029b85045b68181585d97816a916871ca8d3c208c16d87cfd47901580156134eb57506020830151155b1561350b575050604080518082019091526000808252602082015261172f565b6040518060400160405280846000015181526020018285602001518161352d57fe5b0690920390915292915050565b60408051600480825260a0820190925260009160609190816020015b61355e613a77565b81526020019060019003908161355657505060408051600480825260a0820190925291925060609190602082015b613594613aaf565b81526020019060019003908161358c5790505090508a826000815181106135b757fe5b602002602001018190525088826001815181106135d057fe5b602002602001018190525086826002815181106135e957fe5b6020026020010181905250848260038151811061360257fe5b6020026020010181905250898160008151811061361b57fe5b6020026020010181905250878160018151811061363457fe5b6020026020010181905250858160028151811061364d57fe5b6020026020010181905250838160038151811061366657fe5b60200260200101819052506114a18282600081518351146136e857604080517f08c379a000000000000000000000000000000000000000000000000000000000815260206004820152601660248201527f70616972696e672d6c656e677468732d6661696c656400000000000000000000604482015290519081900360640190fd5b82516006810260608167ffffffffffffffff8111801561370757600080fd5b50604051908082528060200260200182016040528015613731578160200160208202803683370190505b50905060005b838110156138b65786818151811061374b57fe5b60200260200101516000015182826006026000018151811061376957fe5b60200260200101818152505086818151811061378157fe5b60200260200101516020015182826006026001018151811061379f57fe5b6020026020010181815250508581815181106137b757fe5b6020908102919091010151515182518390600260068502019081106137d857fe5b6020026020010181815250508581815181106137f057fe5b6020908102919091010151516001602002015182826006026003018151811061381557fe5b60200260200101818152505085818151811061382d57fe5b60200260200101516020015160006002811061384557fe5b602002015182826006026004018151811061385c57fe5b60200260200101818152505085818151811061387457fe5b60200260200101516020015160016002811061388c57fe5b60200201518282600602600501815181106138a357fe5b6020908102919091010152600101613737565b506138bf613acf565b6000602082602086026020860160086107d05a03fa905080801561338357508061394a57604080517f08c379a000000000000000000000000000000000000000000000000000000000815260206004820152601560248201527f70616972696e672d6f70636f64652d6661696c65640000000000000000000000604482015290519081900360640190fd5b505115159695505050505050565b60405180608001604052806004906020820280368337509192915050565b60405180604001604052806002906020820280368337509192915050565b60405180604001604052806002905b6139ab613976565b8152602001906001900390816139a35790505090565b6040518061010001604052806008906020820280368337509192915050565b60405180606001604052806139f3613a77565b8152602001613a00613aaf565b8152602001613a0d613a77565b905290565b6040518060a001604052806005906020820280368337509192915050565b6040518060a00160405280613a43613a77565b8152602001613a50613aaf565b8152602001613a5d613aaf565b8152602001613a6a613aaf565b8152602001606081525090565b604051806040016040528060008152602001600081525090565b60405180606001604052806003906020820280368337509192915050565b6040518060400160405280613ac2613976565b8152602001613a0d613976565b6040518060200160405280600190602082028036833750919291505056fe53656d6170686f72653a2065787465726e616c206e756c6c696669657220697320616c7265616479206163746976654f776e61626c653a206e6577206f776e657220697320746865207a65726f206164647265737353656d6170686f72653a206964656e7469747920636f6d6d69746d656e742063616e6e6f7420626520746865206e6f7468696e672d75702d6d792d736c656576652d76616c756553656d6170686f72653a206e6f20737563682065787465726e616c206e756c6c696669657253656d6170686f72653a2065787465726e616c206e756c6c696669657220616c7265616479206465616374697661746564496e6372656d656e74616c5175696e547265653a20696e736572744c65616620617267756d656e74206d757374206265203c20534e41524b5f5343414c41525f4649454c4453656d6170686f72653a2065787465726e616c206e756c6c696669657220616c72656164792073657453656d6170686f72653a2062726f616463617374207065726d697373696f6e2064656e69656453656d6170686f72653a20696e76616c6964206669656c6420656c656d656e7428732920696e2070726f6f6653656d6170686f72653a206e756c6c696669657220616c7265616479207365656e53656d6170686f72653a2065787465726e616c206e756c6c6966696572206e6f7420666f756e6453656d6170686f72653a20746865206e756c6c6966696572732068617368206d757374206265206c742074686520736e61726b207363616c6172206669656c6453656d6170686f72653a206e6f2065787465726e616c206e756c6c6966696572206578697374732061667465722074686520737065636966696564206f6e65496e6372656d656e74616c5175696e547265653a20747265652069732066756c6ca164736f6c634300060c000a496e6372656d656e74616c5175696e547265653a205f747265654c6576656c73206d757374206265206265747765656e203020616e6420333353656d6170686f72653a2065787465726e616c206e756c6c696669657220616c726561647920736574",
    "linkReferences": {
        "contracts/Poseidon.sol": {
            "PoseidonT3": [
                {
                    "length": 20,
                    "start": 546
                },
                {
                    "length": 20,
                    "start": 5878
                },
                {
                    "length": 20,
                    "start": 8658
                },
                {
                    "length": 20,
                    "start": 8900
                }
            ],
            "PoseidonT6": [
                {
                    "length": 20,
                    "start": 8315
                },
                {
                    "length": 20,
                    "start": 8500
                },
                {
                    "length": 20,
                    "start": 9164
                }
            ]
        }
    },
    "deployedLinkReferences": {
        "contracts/Poseidon.sol": {
            "PoseidonT3": [
                {
                    "length": 20,
                    "start": 4788
                },
                {
                    "length": 20,
                    "start": 7568
                },
                {
                    "length": 20,
                    "start": 7810
                }
            ],
            "PoseidonT6": [
                {
                    "length": 20,
                    "start": 7225
                },
                {
                    "length": 20,
                    "start": 7410
                },
                {
                    "length": 20,
                    "start": 8074
                }
            ]
        }
    }
}