{
    "abi": [
        {
            "inputs": [
                {
                    "internalType": "uint256[8]",
                    "name": "proof",
                    "type": "uint256[8]"
                },
                {
                    "internalType": "uint256[1]",
                    "name": "input",
                    "type": "uint256[1]"
                }
            ],
            "name": "verifyProof",
            "outputs": [],
            "stateMutability": "pure",
            "type": "function"
        }
    ],
    "bytecode": {
        "object": "0x608060405234801561001057600080fd5b5061016c806100206000396000f3fe608060405234801561001057600080fd5b506004361061002b5760003560e01c80631b81f82914610030575b600080fd5b61004361003e3660046100cf565b610045565b005b61005160028335610114565b15801561008b575080356100897f30644e72e131a029b85045b68181585d2833e84879b9709143e1f593f00000016020850135610114565b145b6100cb5760405162461bcd60e51b815260206004820152600d60248201526c24b73b30b634b210283937b7b360991b604482015260640160405180910390fd5b5050565b6000806101208084860312156100e457600080fd5b6101008401858111156100f657600080fd5b84935085828601111561010857600080fd5b80925050509250929050565b60008261013157634e487b7160e01b600052601260045260246000fd5b50069056fea264697066735822122052365dd6994a4a98e85f037d39e5b835d33e286586b1fb45ae2719472036bdad64736f6c63430008150033",
        "linkReferences": {}
    },
    "methodIdentifiers": {
        "verifyProof(uint256[8],uint256[1])": "1b81f829"
    },
    "id": 1
}