{
  "abi": [
    {
      "anonymous": false,
      "inputs": [
        {
          "indexed": true,
          "internalType": "uint256",
          "name": "root",
          "type": "uint256"
        }
      ],
      "name": "StateRootSentMultichain",
      "type": "event"
    },
    {
      "inputs": [
        {
          "internalType": "uint256",
          "name": "root",
          "type": "uint256"
        }
      ],
      "name": "sendRootMultichain",
      "outputs": [],
      "stateMutability": "nonpayable",
      "type": "function"
    }
  ],
  "bytecode": {
    "object": "0x608060405234801561001057600080fd5b5060ba8061001f6000396000f3fe6080604052348015600f57600080fd5b506004361060285760003560e01c8063393170cf14602d575b600080fd5b603c6038366004606c565b603e565b005b60405181907f118a5978e509351fb120eb558e2dc9bd6db3cf57cf66ec9744ef8acabf3b0aec90600090a250565b600060208284031215607d57600080fd5b503591905056fea26469706673582212202d94e86370d1d6efee2f907d4d61f79f543dc1c949683dd42dc8f2894eb1e70c64736f6c63430008130033",
    "linkReferences": {}
  },
  "methodIdentifiers": {
    "sendRootMultichain(uint256)": "393170cf"
  },
  "id": 53
}