{
  "abi": [
    {
      "inputs": [
        {
          "internalType": "uint256",
          "name": "initialBatchSize",
          "type": "uint256"
        },
        {
          "internalType": "contract ITreeVerifier",
          "name": "initialVerifier",
          "type": "address"
        }
      ],
      "stateMutability": "nonpayable",
      "type": "constructor"
    },
    {
      "inputs": [],
      "name": "NoSuchVerifier",
      "type": "error"
    },
    {
      "inputs": [],
      "name": "VerifierExists",
      "type": "error"
    },
    {
      "anonymous": false,
      "inputs": [
        {
          "indexed": true,
          "internalType": "address",
          "name": "previousOwner",
          "type": "address"
        },
        {
          "indexed": true,
          "internalType": "address",
          "name": "newOwner",
          "type": "address"
        }
      ],
      "name": "OwnershipTransferred",
      "type": "event"
    },
    {
      "inputs": [
        {
          "internalType": "uint256",
          "name": "batchSize",
          "type": "uint256"
        },
        {
          "internalType": "contract ITreeVerifier",
          "name": "verifier",
          "type": "address"
        }
      ],
      "name": "addVerifier",
      "outputs": [],
      "stateMutability": "nonpayable",
      "type": "function"
    },
    {
      "inputs": [
        {
          "internalType": "uint256",
          "name": "batchSize",
          "type": "uint256"
        }
      ],
      "name": "disableVerifier",
      "outputs": [
        {
          "internalType": "contract ITreeVerifier",
          "name": "oldVerifier",
          "type": "address"
        }
      ],
      "stateMutability": "nonpayable",
      "type": "function"
    },
    {
      "inputs": [
        {
          "internalType": "uint256",
          "name": "batchSize",
          "type": "uint256"
        }
      ],
      "name": "getVerifierFor",
      "outputs": [
        {
          "internalType": "contract ITreeVerifier",
          "name": "verifier",
          "type": "address"
        }
      ],
      "stateMutability": "view",
      "type": "function"
    },
    {
      "inputs": [],
      "name": "owner",
      "outputs": [
        {
          "internalType": "address",
          "name": "",
          "type": "address"
        }
      ],
      "stateMutability": "view",
      "type": "function"
    },
    {
      "inputs": [],
      "name": "renounceOwnership",
      "outputs": [],
      "stateMutability": "nonpayable",
      "type": "function"
    },
    {
      "inputs": [
        {
          "internalType": "address",
          "name": "newOwner",
          "type": "address"
        }
      ],
      "name": "transferOwnership",
      "outputs": [],
      "stateMutability": "nonpayable",
      "type": "function"
    },
    {
      "inputs": [
        {
          "internalType": "uint256",
          "name": "batchSize",
          "type": "uint256"
        },
        {
          "internalType": "contract ITreeVerifier",
          "name": "verifier",
          "type": "address"
        }
      ],
      "name": "updateVerifier",
      "outputs": [
        {
          "internalType": "contract ITreeVerifier",
          "name": "oldVerifier",
          "type": "address"
        }
      ],
      "stateMutability": "nonpayable",
      "type": "function"
    }
  ],
  "bytecode": {
    "object": "0x608060405234801561001057600080fd5b506040516105d63803806105d683398101604081905261002f91610180565b61003833610049565b6100428282610099565b50506101bd565b600080546001600160a01b038381166001600160a01b0319831681178455604051919092169283917f8be0079c531659141344cd1fd0a4f28419497f9722a3daafe3b4186f6b6457e09190a35050565b6100a16100e6565b6000828152600160205260409020546001600160a01b0316156100d757604051630b832ba160e41b815260040160405180910390fd5b6100e18282610146565b505050565b6000546001600160a01b031633146101445760405162461bcd60e51b815260206004820181905260248201527f4f776e61626c653a2063616c6c6572206973206e6f7420746865206f776e6572604482015260640160405180910390fd5b565b60006101506100e6565b5060009182526001602052604090912080546001600160a01b039283166001600160a01b03198216179091551690565b6000806040838503121561019357600080fd5b825160208401519092506001600160a01b03811681146101b257600080fd5b809150509250929050565b61040a806101cc6000396000f3fe608060405234801561001057600080fd5b506004361061007d5760003560e01c80638a283fc31161005b5780638a283fc3146100ce5780638da5cb5b146100e1578063b2832096146100f2578063f2fde38b1461010557600080fd5b8063245b3ef314610082578063293de354146100b1578063715018a6146100c4575b600080fd5b610095610090366004610352565b610118565b6040516001600160a01b03909116815260200160405180910390f35b6100956100bf366004610380565b610133565b6100cc61016d565b005b6100956100dc366004610352565b610181565b6000546001600160a01b0316610095565b6100cc610100366004610380565b6101a8565b6100cc6101133660046103b0565b6101f5565b6000610122610273565b61012d826000610133565b92915050565b600061013d610273565b5060009182526001602052604090912080546001600160a01b039283166001600160a01b03198216179091551690565b610175610273565b61017f60006102cd565b565b600061018c8261031d565b506000908152600160205260409020546001600160a01b031690565b6101b0610273565b6000828152600160205260409020546001600160a01b0316156101e657604051630b832ba160e41b815260040160405180910390fd5b6101f08282610133565b505050565b6101fd610273565b6001600160a01b0381166102675760405162461bcd60e51b815260206004820152602660248201527f4f776e61626c653a206e6577206f776e657220697320746865207a65726f206160448201526564647265737360d01b60648201526084015b60405180910390fd5b610270816102cd565b50565b6000546001600160a01b0316331461017f5760405162461bcd60e51b815260206004820181905260248201527f4f776e61626c653a2063616c6c6572206973206e6f7420746865206f776e6572604482015260640161025e565b600080546001600160a01b038381166001600160a01b0319831681178455604051919092169283917f8be0079c531659141344cd1fd0a4f28419497f9722a3daafe3b4186f6b6457e09190a35050565b6000818152600160205260409020546001600160a01b0316610270576040516312ea862760e21b815260040160405180910390fd5b60006020828403121561036457600080fd5b5035919050565b6001600160a01b038116811461027057600080fd5b6000806040838503121561039357600080fd5b8235915060208301356103a58161036b565b809150509250929050565b6000602082840312156103c257600080fd5b81356103cd8161036b565b939250505056fea26469706673582212206d4a025bbd6e383efec1c4349e643dbbff8055dd47a526b1022aa117507320bc64736f6c63430008130033",
    "linkReferences": {}
  },
  "methodIdentifiers": {
    "addVerifier(uint256,address)": "b2832096",
    "disableVerifier(uint256)": "245b3ef3",
    "getVerifierFor(uint256)": "8a283fc3",
    "owner()": "8da5cb5b",
    "renounceOwnership()": "715018a6",
    "transferOwnership(address)": "f2fde38b",
    "updateVerifier(uint256,address)": "293de354"
  },
  "id": 34
}