{
  "abi": [
    {
      "inputs": [
        {
          "internalType": "uint256",
          "name": "initialBatchSize",
          "type": "uint256"
        },
        {
          "internalType": "contract ITreeVerifier",
          "name": "initialVerifier",
          "type": "address"
        }
      ],
      "stateMutability": "nonpayable",
      "type": "constructor"
    },
    {
      "inputs": [
        {
          "internalType": "uint256",
          "name": "requestedBatch",
          "type": "uint256"
        }
      ],
      "name": "BatchTooLarge",
      "type": "error"
    },
    {
      "inputs": [],
      "name": "NoSuchVerifier",
      "type": "error"
    },
    {
      "inputs": [],
      "name": "VerifierExists",
      "type": "error"
    },
    {
      "anonymous": false,
      "inputs": [
        {
          "indexed": true,
          "internalType": "address",
          "name": "previousOwner",
          "type": "address"
        },
        {
          "indexed": true,
          "internalType": "address",
          "name": "newOwner",
          "type": "address"
        }
      ],
      "name": "OwnershipTransferred",
      "type": "event"
    },
    {
      "inputs": [
        {
          "internalType": "uint256",
          "name": "batchSize",
          "type": "uint256"
        },
        {
          "internalType": "contract ITreeVerifier",
          "name": "verifier",
          "type": "address"
        }
      ],
      "name": "addVerifier",
      "outputs": [],
      "stateMutability": "nonpayable",
      "type": "function"
    },
    {
      "inputs": [
        {
          "internalType": "uint256",
          "name": "batchSize",
          "type": "uint256"
        }
      ],
      "name": "disableVerifier",
      "outputs": [
        {
          "internalType": "contract ITreeVerifier",
          "name": "oldVerifier",
          "type": "address"
        }
      ],
      "stateMutability": "nonpayable",
      "type": "function"
    },
    {
      "inputs": [
        {
          "internalType": "uint256",
          "name": "batchSize",
          "type": "uint256"
        }
      ],
      "name": "getVerifierFor",
      "outputs": [
        {
          "internalType": "contract ITreeVerifier",
          "name": "verifier",
          "type": "address"
        }
      ],
      "stateMutability": "view",
      "type": "function"
    },
    {
      "inputs": [],
      "name": "maximumBatchSize",
      "outputs": [
        {
          "internalType": "uint256",
          "name": "batchSize",
          "type": "uint256"
        }
      ],
      "stateMutability": "pure",
      "type": "function"
    },
    {
      "inputs": [],
      "name": "owner",
      "outputs": [
        {
          "internalType": "address",
          "name": "",
          "type": "address"
        }
      ],
      "stateMutability": "view",
      "type": "function"
    },
    {
      "inputs": [],
      "name": "renounceOwnership",
      "outputs": [],
      "stateMutability": "nonpayable",
      "type": "function"
    },
    {
      "inputs": [
        {
          "internalType": "address",
          "name": "newOwner",
          "type": "address"
        }
      ],
      "name": "transferOwnership",
      "outputs": [],
      "stateMutability": "nonpayable",
      "type": "function"
    },
    {
      "inputs": [
        {
          "internalType": "uint256",
          "name": "batchSize",
          "type": "uint256"
        },
        {
          "internalType": "contract ITreeVerifier",
          "name": "verifier",
          "type": "address"
        }
      ],
      "name": "updateVerifier",
      "outputs": [
        {
          "internalType": "contract ITreeVerifier",
          "name": "oldVerifier",
          "type": "address"
        }
      ],
      "stateMutability": "nonpayable",
      "type": "function"
    }
  ],
  "bytecode": {
    "object": "0x608060405234801561001057600080fd5b5060405161071638038061071683398101604081905261002f916101f0565b61003833610049565b6100428282610099565b5050610243565b600080546001600160a01b038381166001600160a01b0319831681178455604051919092169283917f8be0079c531659141344cd1fd0a4f28419497f9722a3daafe3b4186f6b6457e09190a35050565b6100a16100f8565b6100aa82610159565b60006001836103e981106100c0576100c061022d565b01546001600160a01b0316146100e957604051630b832ba160e41b815260040160405180910390fd5b6100f38282610182565b505050565b6000546001600160a01b031633146101575760405162461bcd60e51b815260206004820181905260248201527f4f776e61626c653a2063616c6c6572206973206e6f7420746865206f776e657260448201526064015b60405180910390fd5b565b6103e881111561017f5760405163533dcfcf60e11b81526004810182905260240161014e565b50565b600061018c6100f8565b61019583610159565b6001836103e981106101a9576101a961022d565b01546001600160a01b03169050816001846103e981106101cb576101cb61022d565b0180546001600160a01b0319166001600160a01b039290921691909117905592915050565b6000806040838503121561020357600080fd5b825160208401519092506001600160a01b038116811461022257600080fd5b809150509250929050565b634e487b7160e01b600052603260045260246000fd5b6104c4806102526000396000f3fe608060405234801561001057600080fd5b50600436106100885760003560e01c80638a283fc31161005b5780638a283fc3146100ea5780638da5cb5b146100fd578063b28320961461010e578063f2fde38b1461012157600080fd5b8063245b3ef31461008d578063293de354146100bd578063715018a6146100d05780637aa414cb146100da575b600080fd5b6100a061009b3660046103f6565b610134565b6040516001600160a01b0390911681526020015b60405180910390f35b6100a06100cb366004610424565b61014f565b6100d86101bd565b005b6040516103e881526020016100b4565b6100a06100f83660046103f6565b6101d1565b6000546001600160a01b03166100a0565b6100d861011c366004610424565b610201565b6100d861012f366004610454565b610260565b600061013e6102de565b61014982600061014f565b92915050565b60006101596102de565b61016283610338565b6001836103e9811061017657610176610478565b01546001600160a01b03169050816001846103e9811061019857610198610478565b0180546001600160a01b0319166001600160a01b039290921691909117905592915050565b6101c56102de565b6101cf600061035e565b565b60006101dc826103ae565b6001826103e981106101f0576101f0610478565b01546001600160a01b031692915050565b6102096102de565b61021282610338565b60006001836103e9811061022857610228610478565b01546001600160a01b03161461025157604051630b832ba160e41b815260040160405180910390fd5b61025b828261014f565b505050565b6102686102de565b6001600160a01b0381166102d25760405162461bcd60e51b815260206004820152602660248201527f4f776e61626c653a206e6577206f776e657220697320746865207a65726f206160448201526564647265737360d01b60648201526084015b60405180910390fd5b6102db8161035e565b50565b6000546001600160a01b031633146101cf5760405162461bcd60e51b815260206004820181905260248201527f4f776e61626c653a2063616c6c6572206973206e6f7420746865206f776e657260448201526064016102c9565b6103e88111156102db5760405163533dcfcf60e11b8152600481018290526024016102c9565b600080546001600160a01b038381166001600160a01b0319831681178455604051919092169283917f8be0079c531659141344cd1fd0a4f28419497f9722a3daafe3b4186f6b6457e09190a35050565b6103b781610338565b60006001826103e981106103cd576103cd610478565b01546001600160a01b0316036102db576040516312ea862760e21b815260040160405180910390fd5b60006020828403121561040857600080fd5b5035919050565b6001600160a01b03811681146102db57600080fd5b6000806040838503121561043757600080fd5b8235915060208301356104498161040f565b809150509250929050565b60006020828403121561046657600080fd5b81356104718161040f565b9392505050565b634e487b7160e01b600052603260045260246000fdfea2646970667358221220f6a9ab81b5b064d17e8e605e3dbfda8556a431d27cf04b2a35490df0e3716c8164736f6c63430008130033",
    "linkReferences": {}
  },
  "methodIdentifiers": {
    "addVerifier(uint256,address)": "b2832096",
    "disableVerifier(uint256)": "245b3ef3",
    "getVerifierFor(uint256)": "8a283fc3",
    "maximumBatchSize()": "7aa414cb",
    "owner()": "8da5cb5b",
    "renounceOwnership()": "715018a6",
    "transferOwnership(address)": "f2fde38b",
    "updateVerifier(uint256,address)": "293de354"
  },
  "id": 32
}