{
  "abi": [
    {
      "inputs": [],
      "stateMutability": "nonpayable",
      "type": "constructor"
    },
    {
      "inputs": [],
      "name": "CannotRenounceOwnership",
      "type": "error"
    },
    {
      "inputs": [],
      "name": "ExpiredRoot",
      "type": "error"
    },
    {
      "inputs": [],
      "name": "ImplementationNotInitialized",
      "type": "error"
    },
    {
      "inputs": [
        {
          "internalType": "uint256",
          "name": "index",
          "type": "uint256"
        }
      ],
      "name": "InvalidCommitment",
      "type": "error"
    },
    {
      "inputs": [],
      "name": "InvalidStateBridgeAddress",
      "type": "error"
    },
    {
      "inputs": [],
      "name": "InvalidVerifier",
      "type": "error"
    },
    {
      "inputs": [],
      "name": "InvalidVerifierLUT",
      "type": "error"
    },
    {
      "inputs": [],
      "name": "MismatchedInputLengths",
      "type": "error"
    },
    {
      "inputs": [],
      "name": "NonExistentRoot",
      "type": "error"
    },
    {
      "inputs": [
        {
          "internalType": "uint256",
          "name": "providedRoot",
          "type": "uint256"
        },
        {
          "internalType": "uint256",
          "name": "latestRoot",
          "type": "uint256"
        }
      ],
      "name": "NotLatestRoot",
      "type": "error"
    },
    {
      "inputs": [],
      "name": "ProofValidationFailure",
      "type": "error"
    },
    {
      "inputs": [],
      "name": "StateBridgeAlreadyDisabled",
      "type": "error"
    },
    {
      "inputs": [],
      "name": "StateBridgeAlreadyEnabled",
      "type": "error"
    },
    {
      "inputs": [
        {
          "internalType": "address",
          "name": "user",
          "type": "address"
        }
      ],
      "name": "Unauthorized",
      "type": "error"
    },
    {
      "inputs": [
        {
          "internalType": "enum WorldIDIdentityManagerImplV1.UnreducedElementType",
          "name": "elementType",
          "type": "uint8"
        },
        {
          "internalType": "uint256",
          "name": "element",
          "type": "uint256"
        }
      ],
      "name": "UnreducedElement",
      "type": "error"
    },
    {
      "inputs": [
        {
          "internalType": "uint8",
          "name": "depth",
          "type": "uint8"
        }
      ],
      "name": "UnsupportedTreeDepth",
      "type": "error"
    },
    {
      "anonymous": false,
      "inputs": [
        {
          "indexed": false,
          "internalType": "address",
          "name": "previousAdmin",
          "type": "address"
        },
        {
          "indexed": false,
          "internalType": "address",
          "name": "newAdmin",
          "type": "address"
        }
      ],
      "name": "AdminChanged",
      "type": "event"
    },
    {
      "anonymous": false,
      "inputs": [
        {
          "indexed": true,
          "internalType": "address",
          "name": "beacon",
          "type": "address"
        }
      ],
      "name": "BeaconUpgraded",
      "type": "event"
    },
    {
      "anonymous": false,
      "inputs": [
        {
          "indexed": true,
          "internalType": "enum WorldIDIdentityManagerImplV1.Dependency",
          "name": "kind",
          "type": "uint8"
        },
        {
          "indexed": true,
          "internalType": "address",
          "name": "oldAddress",
          "type": "address"
        },
        {
          "indexed": true,
          "internalType": "address",
          "name": "newAddress",
          "type": "address"
        }
      ],
      "name": "DependencyUpdated",
      "type": "event"
    },
    {
      "anonymous": false,
      "inputs": [
        {
          "indexed": true,
          "internalType": "address",
          "name": "oldOperator",
          "type": "address"
        },
        {
          "indexed": true,
          "internalType": "address",
          "name": "newOperator",
          "type": "address"
        }
      ],
      "name": "IdentityOperatorChanged",
      "type": "event"
    },
    {
      "anonymous": false,
      "inputs": [
        {
          "indexed": false,
          "internalType": "uint8",
          "name": "version",
          "type": "uint8"
        }
      ],
      "name": "Initialized",
      "type": "event"
    },
    {
      "anonymous": false,
      "inputs": [
        {
          "indexed": true,
          "internalType": "address",
          "name": "previousOwner",
          "type": "address"
        },
        {
          "indexed": true,
          "internalType": "address",
          "name": "newOwner",
          "type": "address"
        }
      ],
      "name": "OwnershipTransferStarted",
      "type": "event"
    },
    {
      "anonymous": false,
      "inputs": [
        {
          "indexed": true,
          "internalType": "address",
          "name": "previousOwner",
          "type": "address"
        },
        {
          "indexed": true,
          "internalType": "address",
          "name": "newOwner",
          "type": "address"
        }
      ],
      "name": "OwnershipTransferred",
      "type": "event"
    },
    {
      "anonymous": false,
      "inputs": [
        {
          "indexed": true,
          "internalType": "uint256",
          "name": "oldExpiryTime",
          "type": "uint256"
        },
        {
          "indexed": true,
          "internalType": "uint256",
          "name": "newExpiryTime",
          "type": "uint256"
        }
      ],
      "name": "RootHistoryExpirySet",
      "type": "event"
    },
    {
      "anonymous": false,
      "inputs": [
        {
          "indexed": true,
          "internalType": "bool",
          "name": "isEnabled",
          "type": "bool"
        }
      ],
      "name": "StateBridgeStateChange",
      "type": "event"
    },
    {
      "anonymous": false,
      "inputs": [
        {
          "indexed": true,
          "internalType": "uint256",
          "name": "preRoot",
          "type": "uint256"
        },
        {
          "indexed": true,
          "internalType": "enum WorldIDIdentityManagerImplV1.TreeChange",
          "name": "kind",
          "type": "uint8"
        },
        {
          "indexed": true,
          "internalType": "uint256",
          "name": "postRoot",
          "type": "uint256"
        }
      ],
      "name": "TreeChanged",
      "type": "event"
    },
    {
      "anonymous": false,
      "inputs": [
        {
          "indexed": true,
          "internalType": "address",
          "name": "implementation",
          "type": "address"
        }
      ],
      "name": "Upgraded",
      "type": "event"
    },
    {
      "anonymous": false,
      "inputs": [
        {
          "indexed": false,
          "internalType": "uint8",
          "name": "_treeDepth",
          "type": "uint8"
        },
        {
          "indexed": false,
          "internalType": "uint256",
          "name": "initialRoot",
          "type": "uint256"
        }
      ],
      "name": "WorldIDIdentityManagerImplInitialized",
      "type": "event"
    },
    {
      "inputs": [],
      "name": "NO_SUCH_ROOT",
      "outputs": [
        {
          "components": [
            {
              "internalType": "uint256",
              "name": "root",
              "type": "uint256"
            },
            {
              "internalType": "uint128",
              "name": "supersededTimestamp",
              "type": "uint128"
            },
            {
              "internalType": "bool",
              "name": "isValid",
              "type": "bool"
            }
          ],
          "internalType": "struct WorldIDIdentityManagerImplV1.RootInfo",
          "name": "rootInfo",
          "type": "tuple"
        }
      ],
      "stateMutability": "pure",
      "type": "function"
    },
    {
      "inputs": [],
      "name": "acceptOwnership",
      "outputs": [],
      "stateMutability": "nonpayable",
      "type": "function"
    },
    {
      "inputs": [
        {
          "internalType": "uint32",
          "name": "startIndex",
          "type": "uint32"
        },
        {
          "internalType": "uint256",
          "name": "preRoot",
          "type": "uint256"
        },
        {
          "internalType": "uint256",
          "name": "postRoot",
          "type": "uint256"
        },
        {
          "internalType": "uint256[]",
          "name": "identityCommitments",
          "type": "uint256[]"
        }
      ],
      "name": "calculateIdentityRegistrationInputHash",
      "outputs": [
        {
          "internalType": "bytes32",
          "name": "hash",
          "type": "bytes32"
        }
      ],
      "stateMutability": "view",
      "type": "function"
    },
    {
      "inputs": [],
      "name": "getRegisterIdentitiesVerifierLookupTableAddress",
      "outputs": [
        {
          "internalType": "address",
          "name": "",
          "type": "address"
        }
      ],
      "stateMutability": "view",
      "type": "function"
    },
    {
      "inputs": [],
      "name": "getRootHistoryExpiry",
      "outputs": [
        {
          "internalType": "uint256",
          "name": "",
          "type": "uint256"
        }
      ],
      "stateMutability": "view",
      "type": "function"
    },
    {
      "inputs": [],
      "name": "getSemaphoreVerifierAddress",
      "outputs": [
        {
          "internalType": "address",
          "name": "",
          "type": "address"
        }
      ],
      "stateMutability": "view",
      "type": "function"
    },
    {
      "inputs": [],
      "name": "getTreeDepth",
      "outputs": [
        {
          "internalType": "uint8",
          "name": "",
          "type": "uint8"
        }
      ],
      "stateMutability": "view",
      "type": "function"
    },
    {
      "inputs": [],
      "name": "identityOperator",
      "outputs": [
        {
          "internalType": "address",
          "name": "",
          "type": "address"
        }
      ],
      "stateMutability": "view",
      "type": "function"
    },
    {
      "inputs": [
        {
          "internalType": "uint8",
          "name": "_treeDepth",
          "type": "uint8"
        },
        {
          "internalType": "uint256",
          "name": "initialRoot",
          "type": "uint256"
        },
        {
          "internalType": "contract VerifierLookupTable",
          "name": "_batchInsertionVerifiers",
          "type": "address"
        },
        {
          "internalType": "contract VerifierLookupTable",
          "name": "_batchUpdateVerifiers",
          "type": "address"
        },
        {
          "internalType": "contract ISemaphoreVerifier",
          "name": "_semaphoreVerifier",
          "type": "address"
        }
      ],
      "name": "initialize",
      "outputs": [],
      "stateMutability": "nonpayable",
      "type": "function"
    },
    {
      "inputs": [],
      "name": "latestRoot",
      "outputs": [
        {
          "internalType": "uint256",
          "name": "",
          "type": "uint256"
        }
      ],
      "stateMutability": "view",
      "type": "function"
    },
    {
      "inputs": [],
      "name": "owner",
      "outputs": [
        {
          "internalType": "address",
          "name": "",
          "type": "address"
        }
      ],
      "stateMutability": "view",
      "type": "function"
    },
    {
      "inputs": [],
      "name": "pendingOwner",
      "outputs": [
        {
          "internalType": "address",
          "name": "",
          "type": "address"
        }
      ],
      "stateMutability": "view",
      "type": "function"
    },
    {
      "inputs": [],
      "name": "proxiableUUID",
      "outputs": [
        {
          "internalType": "bytes32",
          "name": "",
          "type": "bytes32"
        }
      ],
      "stateMutability": "view",
      "type": "function"
    },
    {
      "inputs": [
        {
          "internalType": "uint256",
          "name": "root",
          "type": "uint256"
        }
      ],
      "name": "queryRoot",
      "outputs": [
        {
          "components": [
            {
              "internalType": "uint256",
              "name": "root",
              "type": "uint256"
            },
            {
              "internalType": "uint128",
              "name": "supersededTimestamp",
              "type": "uint128"
            },
            {
              "internalType": "bool",
              "name": "isValid",
              "type": "bool"
            }
          ],
          "internalType": "struct WorldIDIdentityManagerImplV1.RootInfo",
          "name": "",
          "type": "tuple"
        }
      ],
      "stateMutability": "view",
      "type": "function"
    },
    {
      "inputs": [
        {
          "internalType": "uint256[8]",
          "name": "insertionProof",
          "type": "uint256[8]"
        },
        {
          "internalType": "uint256",
          "name": "preRoot",
          "type": "uint256"
        },
        {
          "internalType": "uint32",
          "name": "startIndex",
          "type": "uint32"
        },
        {
          "internalType": "uint256[]",
          "name": "identityCommitments",
          "type": "uint256[]"
        },
        {
          "internalType": "uint256",
          "name": "postRoot",
          "type": "uint256"
        }
      ],
      "name": "registerIdentities",
      "outputs": [],
      "stateMutability": "nonpayable",
      "type": "function"
    },
    {
      "inputs": [],
      "name": "renounceOwnership",
      "outputs": [],
      "stateMutability": "view",
      "type": "function"
    },
    {
      "inputs": [
        {
          "internalType": "uint256",
          "name": "root",
          "type": "uint256"
        }
      ],
      "name": "requireValidRoot",
      "outputs": [],
      "stateMutability": "view",
      "type": "function"
    },
    {
      "inputs": [
        {
          "internalType": "address",
          "name": "newIdentityOperator",
          "type": "address"
        }
      ],
      "name": "setIdentityOperator",
      "outputs": [
        {
          "internalType": "address",
          "name": "",
          "type": "address"
        }
      ],
      "stateMutability": "nonpayable",
      "type": "function"
    },
    {
      "inputs": [
        {
          "internalType": "contract VerifierLookupTable",
          "name": "newTable",
          "type": "address"
        }
      ],
      "name": "setRegisterIdentitiesVerifierLookupTable",
      "outputs": [],
      "stateMutability": "nonpayable",
      "type": "function"
    },
    {
      "inputs": [
        {
          "internalType": "uint256",
          "name": "newExpiryTime",
          "type": "uint256"
        }
      ],
      "name": "setRootHistoryExpiry",
      "outputs": [],
      "stateMutability": "nonpayable",
      "type": "function"
    },
    {
      "inputs": [
        {
          "internalType": "contract ISemaphoreVerifier",
          "name": "newVerifier",
          "type": "address"
        }
      ],
      "name": "setSemaphoreVerifier",
      "outputs": [],
      "stateMutability": "nonpayable",
      "type": "function"
    },
    {
      "inputs": [
        {
          "internalType": "address",
          "name": "newOwner",
          "type": "address"
        }
      ],
      "name": "transferOwnership",
      "outputs": [],
      "stateMutability": "nonpayable",
      "type": "function"
    },
    {
      "inputs": [
        {
          "internalType": "address",
          "name": "newImplementation",
          "type": "address"
        }
      ],
      "name": "upgradeTo",
      "outputs": [],
      "stateMutability": "nonpayable",
      "type": "function"
    },
    {
      "inputs": [
        {
          "internalType": "address",
          "name": "newImplementation",
          "type": "address"
        },
        {
          "internalType": "bytes",
          "name": "data",
          "type": "bytes"
        }
      ],
      "name": "upgradeToAndCall",
      "outputs": [],
      "stateMutability": "payable",
      "type": "function"
    },
    {
      "inputs": [
        {
          "internalType": "uint256",
          "name": "root",
          "type": "uint256"
        },
        {
          "internalType": "uint256",
          "name": "signalHash",
          "type": "uint256"
        },
        {
          "internalType": "uint256",
          "name": "nullifierHash",
          "type": "uint256"
        },
        {
          "internalType": "uint256",
          "name": "externalNullifierHash",
          "type": "uint256"
        },
        {
          "internalType": "uint256[8]",
          "name": "proof",
          "type": "uint256[8]"
        }
      ],
      "name": "verifyProof",
      "outputs": [],
      "stateMutability": "view",
      "type": "function"
    }
  ],
  "bytecode": {
    "object": "0x60a0604052306080523480156200001557600080fd5b506200002062000026565b620000e8565b600054610100900460ff1615620000935760405162461bcd60e51b815260206004820152602760248201527f496e697469616c697a61626c653a20636f6e747261637420697320696e697469604482015266616c697a696e6760c81b606482015260840160405180910390fd5b60005460ff9081161015620000e6576000805460ff191660ff9081179091556040519081527f7f26b83ff96e1f2b6a682f133852f6798a09c465da95921460cefb38474024989060200160405180910390a15b565b60805161299f62000200600039600081816104ad015281816104f6015281816105fb0152818161063b015281816109060152818161094601528181610a2201528181610a6201528181610b6c01528181610bac01528181610e9301528181610ed30152818161102901528181611069015281816110f501528181611135015281816111b1015281816112fb0152818161133b015281816113fe0152818161143e015281816114d501528181611515015281816115ab015281816115eb015281816116cb0152818161170b0152818161182201528181611862015281816118ef0152818161192f015281816119c501528181611a0501528181611a9901528181611ad901528181611cbf0152611cff015261299f6000f3fe6080604052600436106101665760003560e01c806379ba5097116100d1578063c70aa7271161008a578063f134b6ca11610064578063f134b6ca14610439578063f2038f951461044e578063f2358e1d14610463578063f2fde38b1461048357600080fd5b8063c70aa727146103e6578063d7b0fef114610406578063e30c39781461041b57600080fd5b806379ba5097146103235780638c76a909146103385780638da5cb5b146103585780638e5cdd501461038a5780638fc22e9f146103b1578063a7bba582146103c657600080fd5b80633f7c178d116101235780633f7c178d1461022d57806343f974cb1461027f5780634f1ef286146102a257806352d1902d146102b5578063561f204b146102ca578063715018a61461030e57600080fd5b80630e3a12f31461016b5780632217b2111461018d5780632f059fca146101ad578063354ca120146101cd5780633659cfe6146101ed57806338c870651461020d575b600080fd5b34801561017757600080fd5b5061018b6101863660046122bc565b6104a3565b005b34801561019957600080fd5b5061018b6101a836600461234b565b6105f1565b3480156101b957600080fd5b5061018b6101c83660046122bc565b6108fc565b3480156101d957600080fd5b5061018b6101e83660046123c8565b610a18565b3480156101f957600080fd5b5061018b6102083660046122bc565b610b62565b34801561021957600080fd5b5061018b610228366004612413565b610c2a565b34801561023957600080fd5b5061024d610248366004612481565b610e6c565b60408051825181526020808401516001600160801b031690820152918101511515908201526060015b60405180910390f35b34801561028b57600080fd5b5061029461101d565b604051908152602001610276565b61018b6102b03660046124dd565b6110eb565b3480156102c157600080fd5b506102946111a4565b3480156102d657600080fd5b50604080516060808201835260008083526020808401829052928401819052835191820184528082529181018290529182015261024d565b34801561031a57600080fd5b5061018b611257565b34801561032f57600080fd5b5061018b611278565b34801561034457600080fd5b50610294610353366004612589565b6112ef565b34801561036457600080fd5b506033546001600160a01b03165b6040516001600160a01b039091168152602001610276565b34801561039657600080fd5b5061039f6113f2565b60405160ff9091168152602001610276565b3480156103bd57600080fd5b506103726114c9565b3480156103d257600080fd5b506103726103e13660046122bc565b61159f565b3480156103f257600080fd5b5061018b610401366004612481565b6116c1565b34801561041257600080fd5b50610294611816565b34801561042757600080fd5b506065546001600160a01b0316610372565b34801561044557600080fd5b506103726118e3565b34801561045a57600080fd5b506103726119b9565b34801561046f57600080fd5b5061018b61047e366004612481565b611a8f565b34801561048f57600080fd5b5061018b61049e3660046122bc565b611bcc565b6001600160a01b037f00000000000000000000000000000000000000000000000000000000000000001630036104f45760405162461bcd60e51b81526004016104eb906125f1565b60405180910390fd5b7f00000000000000000000000000000000000000000000000000000000000000006001600160a01b0316610526611c3d565b6001600160a01b03161461054c5760405162461bcd60e51b81526004016104eb9061263d565b60fb5460ff1661056f57604051630103019560e11b815260040160405180910390fd5b610577611c59565b6001600160a01b03811661059e5760405163baa3de5f60e01b815260040160405180910390fd5b61013380546001600160a01b038381166001600160a01b03198316811790935516908160035b6040517fd194b8423e9cb3c7cbebbbc3fe7f79dc2cbe0b40e03270d975abff491504c7b190600090a45050565b6001600160a01b037f00000000000000000000000000000000000000000000000000000000000000001630036106395760405162461bcd60e51b81526004016104eb906125f1565b7f00000000000000000000000000000000000000000000000000000000000000006001600160a01b031661066b611c3d565b6001600160a01b0316146106915760405162461bcd60e51b81526004016104eb9061263d565b60fb5460ff166106b457604051630103019560e11b815260040160405180910390fd5b61012d546001600160a01b031633146106e25760405163472511eb60e11b81523360048201526024016104eb565b61012e5485146107145761012e5460405163542fced960e11b81526104eb918791600401918252602082015260400190565b600061072385878487876112ef565b905060006107517f30644e72e131a029b85045b68181585d2833e84879b9709143e1f593f000000183612689565b61013154604051638a283fc360e01b8152600481018790529192506000916001600160a01b0390911690638a283fc390602401602060405180830381865afa1580156107a1573d6000803e3d6000fd5b505050506040513d601f19601f820116820180604052508101906107c591906126ab565b604080516020810182528481529051631b81f82960e01b81529192506001600160a01b03831691631b81f82991610801918d91906004016126c8565b600060405180830381600087803b15801561081b57600080fd5b505af192505050801561082c575060015b61088c57610838612703565b806308c379a003610871575061084c61271e565b806108575750610873565b8060405162461bcd60e51b81526004016104eb91906127cc565b505b604051631e716a8b60e01b815260040160405180910390fd5b61012e849055600088815261012f6020526040812080546fffffffffffffffffffffffffffffffff1916426001600160801b031617905584906040518a907f25f6d5cc356ee0b49cf708c13c68197947f5740a878a298765e4b18e4afdaf0490600090a45b505050505050505050565b6001600160a01b037f00000000000000000000000000000000000000000000000000000000000000001630036109445760405162461bcd60e51b81526004016104eb906125f1565b7f00000000000000000000000000000000000000000000000000000000000000006001600160a01b0316610976611c3d565b6001600160a01b03161461099c5760405162461bcd60e51b81526004016104eb9061263d565b60fb5460ff166109bf57604051630103019560e11b815260040160405180910390fd5b6109c7611c59565b6001600160a01b0381166109ee57604051634fdab25360e01b815260040160405180910390fd5b61013180546001600160a01b038381166001600160a01b03198316811790935516908160016105c4565b6001600160a01b037f0000000000000000000000000000000000000000000000000000000000000000163003610a605760405162461bcd60e51b81526004016104eb906125f1565b7f00000000000000000000000000000000000000000000000000000000000000006001600160a01b0316610a92611c3d565b6001600160a01b031614610ab85760405162461bcd60e51b81526004016104eb9061263d565b60fb5460ff16610adb57604051630103019560e11b815260040160405180910390fd5b610ae485611a8f565b610133546040805160808101825287815260208101869052808201879052606081018590529051632357251160e01b81526001600160a01b0390921691632357251191610b36918591906004016127ff565b60006040518083038186803b158015610b4e57600080fd5b505afa1580156108f1573d6000803e3d6000fd5b6001600160a01b037f0000000000000000000000000000000000000000000000000000000000000000163003610baa5760405162461bcd60e51b81526004016104eb906125f1565b7f00000000000000000000000000000000000000000000000000000000000000006001600160a01b0316610bdc611c3d565b6001600160a01b031614610c025760405162461bcd60e51b81526004016104eb9061263d565b610c0b81611cb5565b60408051600080825260208201909252610c2791839190611d5d565b50565b600054600190610100900460ff16158015610c4c575060005460ff8083169116105b610caf5760405162461bcd60e51b815260206004820152602e60248201527f496e697469616c697a61626c653a20636f6e747261637420697320616c72656160448201526d191e481a5b9a5d1a585b1a5e995960921b60648201526084016104eb565b6000805461ffff191660ff8316176101001790556001600160a01b038416610cea57604051634fdab25360e01b815260040160405180910390fd5b6001600160a01b038316610d1157604051634fdab25360e01b815260040160405180910390fd5b6001600160a01b038216610d385760405163baa3de5f60e01b815260040160405180910390fd5b610d40611ecd565b610d4986611efc565b610d6b57604051630220cee360e61b815260ff871660048201526024016104eb565b610134805460ff60a81b1916600160a81b60ff891602179055610e106101305561012e85905561013180546001600160a01b03199081166001600160a01b0387811691909117909255610132805482168684161790556101338054821685841617905560335461012d8054919093169116179055610de7611f23565b6040805160ff88168152602081018790527fd1bcc66c061c32a21f569d138c2dadef4a38a0636309881954af5f44010ec1d8910160405180910390a16000805461ff001916905560405160ff821681527f7f26b83ff96e1f2b6a682f133852f6798a09c465da95921460cefb38474024989060200160405180910390a1505050505050565b60408051606081018252600080825260208201819052918101919091526001600160a01b037f0000000000000000000000000000000000000000000000000000000000000000163003610ed15760405162461bcd60e51b81526004016104eb906125f1565b7f00000000000000000000000000000000000000000000000000000000000000006001600160a01b0316610f03611c3d565b6001600160a01b031614610f295760405162461bcd60e51b81526004016104eb9061263d565b60fb5460ff16610f4c57604051630103019560e11b815260040160405180910390fd5b61012e548203610f7b5750506040805160608101825261012e5481526000602082015260019181019190915290565b600082815261012f60205260408120546001600160801b031690819003610fd65760408051606080820183526000808352602080840182905292840181905283519182018452808252918101829052918201525b9392505050565b61013054600090610ff06001600160801b03841642612830565b604080516060810182528781526001600160801b039095166020860152911015908301525090505b919050565b60006001600160a01b037f00000000000000000000000000000000000000000000000000000000000000001630036110675760405162461bcd60e51b81526004016104eb906125f1565b7f00000000000000000000000000000000000000000000000000000000000000006001600160a01b0316611099611c3d565b6001600160a01b0316146110bf5760405162461bcd60e51b81526004016104eb9061263d565b60fb5460ff166110e257604051630103019560e11b815260040160405180910390fd5b50610130545b90565b6001600160a01b037f00000000000000000000000000000000000000000000000000000000000000001630036111335760405162461bcd60e51b81526004016104eb906125f1565b7f00000000000000000000000000000000000000000000000000000000000000006001600160a01b0316611165611c3d565b6001600160a01b03161461118b5760405162461bcd60e51b81526004016104eb9061263d565b61119482611cb5565b6111a082826001611d5d565b5050565b6000306001600160a01b037f000000000000000000000000000000000000000000000000000000000000000016146112445760405162461bcd60e51b815260206004820152603860248201527f555550535570677261646561626c653a206d757374206e6f742062652063616c60448201527f6c6564207468726f7567682064656c656761746563616c6c000000000000000060648201526084016104eb565b5060008051602061292383398151915290565b61125f611c59565b6040516377aeb0ad60e01b815260040160405180910390fd5b60655433906001600160a01b031681146112e65760405162461bcd60e51b815260206004820152602960248201527f4f776e61626c6532537465703a2063616c6c6572206973206e6f7420746865206044820152683732bb9037bbb732b960b91b60648201526084016104eb565b610c2781611f59565b60006001600160a01b037f00000000000000000000000000000000000000000000000000000000000000001630036113395760405162461bcd60e51b81526004016104eb906125f1565b7f00000000000000000000000000000000000000000000000000000000000000006001600160a01b031661136b611c3d565b6001600160a01b0316146113915760405162461bcd60e51b81526004016104eb9061263d565b60fb5460ff166113b457604051630103019560e11b815260040160405180910390fd5b600086868686866040516020016113cf959493929190612851565b60408051601f198184030181529190528051602090910120979650505050505050565b60006001600160a01b037f000000000000000000000000000000000000000000000000000000000000000016300361143c5760405162461bcd60e51b81526004016104eb906125f1565b7f00000000000000000000000000000000000000000000000000000000000000006001600160a01b031661146e611c3d565b6001600160a01b0316146114945760405162461bcd60e51b81526004016104eb9061263d565b60fb5460ff166114b757604051630103019560e11b815260040160405180910390fd5b5061013454600160a81b900460ff1690565b60006001600160a01b037f00000000000000000000000000000000000000000000000000000000000000001630036115135760405162461bcd60e51b81526004016104eb906125f1565b7f00000000000000000000000000000000000000000000000000000000000000006001600160a01b0316611545611c3d565b6001600160a01b03161461156b5760405162461bcd60e51b81526004016104eb9061263d565b60fb5460ff1661158e57604051630103019560e11b815260040160405180910390fd5b50610131546001600160a01b031690565b60006001600160a01b037f00000000000000000000000000000000000000000000000000000000000000001630036115e95760405162461bcd60e51b81526004016104eb906125f1565b7f00000000000000000000000000000000000000000000000000000000000000006001600160a01b031661161b611c3d565b6001600160a01b0316146116415760405162461bcd60e51b81526004016104eb9061263d565b60fb5460ff1661166457604051630103019560e11b815260040160405180910390fd5b61166c611c59565b61012d80546001600160a01b038481166001600160a01b0319831681179093556040519116919082907f5a674c516c196404869e5f502b5634ce442416bb016dde54b5de4c812cc019e690600090a392915050565b6001600160a01b037f00000000000000000000000000000000000000000000000000000000000000001630036117095760405162461bcd60e51b81526004016104eb906125f1565b7f00000000000000000000000000000000000000000000000000000000000000006001600160a01b031661173b611c3d565b6001600160a01b0316146117615760405162461bcd60e51b81526004016104eb9061263d565b60fb5460ff1661178457604051630103019560e11b815260040160405180910390fd5b61178c611c59565b806000036117dc5760405162461bcd60e51b815260206004820152601b60248201527f4578706972792074696d652063616e6e6f74206265207a65726f2e000000000060448201526064016104eb565b610130805490829055604051829082907ff62a6f06fde00a303cd5939e6b53762854412c96a196cda26720cedd28af9e7090600090a35050565b60006001600160a01b037f00000000000000000000000000000000000000000000000000000000000000001630036118605760405162461bcd60e51b81526004016104eb906125f1565b7f00000000000000000000000000000000000000000000000000000000000000006001600160a01b0316611892611c3d565b6001600160a01b0316146118b85760405162461bcd60e51b81526004016104eb9061263d565b60fb5460ff166118db57604051630103019560e11b815260040160405180910390fd5b5061012e5490565b60006001600160a01b037f000000000000000000000000000000000000000000000000000000000000000016300361192d5760405162461bcd60e51b81526004016104eb906125f1565b7f00000000000000000000000000000000000000000000000000000000000000006001600160a01b031661195f611c3d565b6001600160a01b0316146119855760405162461bcd60e51b81526004016104eb9061263d565b60fb5460ff166119a857604051630103019560e11b815260040160405180910390fd5b5061012d546001600160a01b031690565b60006001600160a01b037f0000000000000000000000000000000000000000000000000000000000000000163003611a035760405162461bcd60e51b81526004016104eb906125f1565b7f00000000000000000000000000000000000000000000000000000000000000006001600160a01b0316611a35611c3d565b6001600160a01b031614611a5b5760405162461bcd60e51b81526004016104eb9061263d565b60fb5460ff16611a7e57604051630103019560e11b815260040160405180910390fd5b50610133546001600160a01b031690565b6001600160a01b037f0000000000000000000000000000000000000000000000000000000000000000163003611ad75760405162461bcd60e51b81526004016104eb906125f1565b7f00000000000000000000000000000000000000000000000000000000000000006001600160a01b0316611b09611c3d565b6001600160a01b031614611b2f5760405162461bcd60e51b81526004016104eb9061263d565b60fb5460ff16611b5257604051630103019560e11b815260040160405180910390fd5b61012e548114610c2757600081815261012f60205260408120546001600160801b031690819003611b965760405163ddae3b7160e01b815260040160405180910390fd5b61013054611bad6001600160801b03831642612830565b11156111a057604051631d739acf60e11b815260040160405180910390fd5b611bd4611c59565b606580546001600160a01b0383166001600160a01b03199091168117909155611c056033546001600160a01b031690565b6001600160a01b03167f38d16b8cac22d99fc7c124b9cd0de2d3fa1faef420bfe791d8c362d765e2270060405160405180910390a350565b600080516020612923833981519152546001600160a01b031690565b6033546001600160a01b03163314611cb35760405162461bcd60e51b815260206004820181905260248201527f4f776e61626c653a2063616c6c6572206973206e6f7420746865206f776e657260448201526064016104eb565b565b6001600160a01b037f0000000000000000000000000000000000000000000000000000000000000000163003611cfd5760405162461bcd60e51b81526004016104eb906125f1565b7f00000000000000000000000000000000000000000000000000000000000000006001600160a01b0316611d2f611c3d565b6001600160a01b031614611d555760405162461bcd60e51b81526004016104eb9061263d565b610c27611c59565b7f4910fdfa16fed3260ed0e7147f7cc6da11a60208b5b9406d12a635614ffd91435460ff1615611d9557611d9083611f72565b505050565b826001600160a01b03166352d1902d6040518163ffffffff1660e01b8152600401602060405180830381865afa925050508015611def575060408051601f3d908101601f19168201909252611dec918101906128a2565b60015b611e525760405162461bcd60e51b815260206004820152602e60248201527f45524331393637557067726164653a206e657720696d706c656d656e7461746960448201526d6f6e206973206e6f74205555505360901b60648201526084016104eb565b6000805160206129238339815191528114611ec15760405162461bcd60e51b815260206004820152602960248201527f45524331393637557067726164653a20756e737570706f727465642070726f786044820152681a58589b195555525160ba1b60648201526084016104eb565b50611d9083838361200e565b600054610100900460ff16611ef45760405162461bcd60e51b81526004016104eb906128bb565b611cb3612039565b60006010602060ff84168211801590611f1b57508060ff168460ff1611155b949350505050565b600054610100900460ff16611f4a5760405162461bcd60e51b81526004016104eb906128bb565b60fb805460ff19166001179055565b606580546001600160a01b0319169055610c2781612070565b6001600160a01b0381163b611fdf5760405162461bcd60e51b815260206004820152602d60248201527f455243313936373a206e657720696d706c656d656e746174696f6e206973206e60448201526c1bdd08184818dbdb9d1c9858dd609a1b60648201526084016104eb565b60008051602061292383398151915280546001600160a01b0319166001600160a01b0392909216919091179055565b612017836120c2565b6000825111806120245750805b15611d90576120338383612102565b50505050565b600054610100900460ff166120605760405162461bcd60e51b81526004016104eb906128bb565b6120686121f8565b611cb3612227565b603380546001600160a01b038381166001600160a01b0319831681179093556040519116919082907f8be0079c531659141344cd1fd0a4f28419497f9722a3daafe3b4186f6b6457e090600090a35050565b6120cb81611f72565b6040516001600160a01b038216907fbc7cd75a20ee27fd9adebab32041f755214dbc6bffa90cc0225b39da2e5c2d3b90600090a250565b60606001600160a01b0383163b61216a5760405162461bcd60e51b815260206004820152602660248201527f416464726573733a2064656c65676174652063616c6c20746f206e6f6e2d636f6044820152651b9d1c9858dd60d21b60648201526084016104eb565b600080846001600160a01b0316846040516121859190612906565b600060405180830381855af49150503d80600081146121c0576040519150601f19603f3d011682016040523d82523d6000602084013e6121c5565b606091505b50915091506121ed82826040518060600160405280602781526020016129436027913961224e565b925050505b92915050565b600054610100900460ff1661221f5760405162461bcd60e51b81526004016104eb906128bb565b611cb3612267565b600054610100900460ff16611cb35760405162461bcd60e51b81526004016104eb906128bb565b6060831561225d575081610fcf565b610fcf8383612297565b600054610100900460ff1661228e5760405162461bcd60e51b81526004016104eb906128bb565b611cb333611f59565b8151156108575781518083602001fd5b6001600160a01b0381168114610c2757600080fd5b6000602082840312156122ce57600080fd5b8135610fcf816122a7565b8061010081018310156121f257600080fd5b803563ffffffff8116811461101857600080fd5b60008083601f84011261231157600080fd5b50813567ffffffffffffffff81111561232957600080fd5b6020830191508360208260051b850101111561234457600080fd5b9250929050565b600080600080600080610180878903121561236557600080fd5b61236f88886122d9565b9550610100870135945061238661012088016122eb565b935061014087013567ffffffffffffffff8111156123a357600080fd5b6123af89828a016122ff565b979a969950949794969561016090950135949350505050565b600080600080600061018086880312156123e157600080fd5b8535945060208601359350604086013592506060860135915061240787608088016122d9565b90509295509295909350565b600080600080600060a0868803121561242b57600080fd5b853560ff8116811461243c57600080fd5b9450602086013593506040860135612453816122a7565b92506060860135612463816122a7565b91506080860135612473816122a7565b809150509295509295909350565b60006020828403121561249357600080fd5b5035919050565b634e487b7160e01b600052604160045260246000fd5b601f8201601f1916810167ffffffffffffffff811182821017156124d6576124d661249a565b6040525050565b600080604083850312156124f057600080fd5b82356124fb816122a7565b915060208381013567ffffffffffffffff8082111561251957600080fd5b818601915086601f83011261252d57600080fd5b81358181111561253f5761253f61249a565b6040519150612557601f8201601f19168501836124b0565b808252878482850101111561256b57600080fd5b80848401858401376000848284010152508093505050509250929050565b6000806000806000608086880312156125a157600080fd5b6125aa866122eb565b94506020860135935060408601359250606086013567ffffffffffffffff8111156125d457600080fd5b6125e0888289016122ff565b969995985093965092949392505050565b6020808252602c908201527f46756e6374696f6e206d7573742062652063616c6c6564207468726f7567682060408201526b19195b1959d85d1958d85b1b60a21b606082015260800190565b6020808252602c908201527f46756e6374696f6e206d7573742062652063616c6c6564207468726f7567682060408201526b6163746976652070726f787960a01b606082015260800190565b6000826126a657634e487b7160e01b600052601260045260246000fd5b500690565b6000602082840312156126bd57600080fd5b8151610fcf816122a7565b61012081016101008085843782018360005b60018110156126f95781518352602092830192909101906001016126da565b5050509392505050565b600060033d11156110e85760046000803e5060005160e01c90565b600060443d101561272c5790565b6040516003193d81016004833e81513d67ffffffffffffffff816024840111818411171561275c57505050505090565b82850191508151818111156127745750505050505090565b843d870101602082850101111561278e5750505050505090565b61279d602082860101876124b0565b509095945050505050565b60005b838110156127c35781810151838201526020016127ab565b50506000910152565b60208152600082518060208401526127eb8160408501602087016127a8565b601f01601f19169190910160400192915050565b61018081016101008085843782018360005b60048110156126f9578151835260209283019290910190600101612811565b818103818111156121f257634e487b7160e01b600052601160045260246000fd5b60e086901b6001600160e01b0319168152600481018590526024810184905260006001600160fb1b0383111561288657600080fd5b8260051b80856044850137919091016044019695505050505050565b6000602082840312156128b457600080fd5b5051919050565b6020808252602b908201527f496e697469616c697a61626c653a20636f6e7472616374206973206e6f74206960408201526a6e697469616c697a696e6760a81b606082015260800190565b600082516129188184602087016127a8565b919091019291505056fe360894a13ba1a3210667c828492db98dca3e2076cc3735a920a3ca505d382bbc416464726573733a206c6f772d6c6576656c2064656c65676174652063616c6c206661696c6564a264697066735822122007672aade5deb7682ae55653751ac09c246fe87ab8c3cc282a427d1db95c090d64736f6c63430008150033",
    "linkReferences": {}
  },
  "methodIdentifiers": {
    "NO_SUCH_ROOT()": "561f204b",
    "acceptOwnership()": "79ba5097",
    "calculateIdentityRegistrationInputHash(uint32,uint256,uint256,uint256[])": "8c76a909",
    "getRegisterIdentitiesVerifierLookupTableAddress()": "8fc22e9f",
    "getRootHistoryExpiry()": "43f974cb",
    "getSemaphoreVerifierAddress()": "f2038f95",
    "getTreeDepth()": "8e5cdd50",
    "identityOperator()": "f134b6ca",
    "initialize(uint8,uint256,address,address,address)": "38c87065",
    "latestRoot()": "d7b0fef1",
    "owner()": "8da5cb5b",
    "pendingOwner()": "e30c3978",
    "proxiableUUID()": "52d1902d",
    "queryRoot(uint256)": "3f7c178d",
    "registerIdentities(uint256[8],uint256,uint32,uint256[],uint256)": "2217b211",
    "renounceOwnership()": "715018a6",
    "requireValidRoot(uint256)": "f2358e1d",
    "setIdentityOperator(address)": "a7bba582",
    "setRegisterIdentitiesVerifierLookupTable(address)": "2f059fca",
    "setRootHistoryExpiry(uint256)": "c70aa727",
    "setSemaphoreVerifier(address)": "0e3a12f3",
    "transferOwnership(address)": "f2fde38b",
    "upgradeTo(address)": "3659cfe6",
    "upgradeToAndCall(address,bytes)": "4f1ef286",
    "verifyProof(uint256,uint256,uint256,uint256,uint256[8])": "354ca120"
  },
  "id": 43
}