{
  "abi": [
    {
      "inputs": [],
      "stateMutability": "nonpayable",
      "type": "constructor"
    },
    {
      "inputs": [],
      "name": "ExpiredRoot",
      "type": "error"
    },
    {
      "inputs": [],
      "name": "ImplementationNotInitialized",
      "type": "error"
    },
    {
      "inputs": [
        {
          "internalType": "uint256",
          "name": "index",
          "type": "uint256"
        }
      ],
      "name": "InvalidCommitment",
      "type": "error"
    },
    {
      "inputs": [],
      "name": "InvalidStateBridgeProxyAddress",
      "type": "error"
    },
    {
      "inputs": [],
      "name": "NonExistentRoot",
      "type": "error"
    },
    {
      "inputs": [
        {
          "internalType": "uint256",
          "name": "providedRoot",
          "type": "uint256"
        },
        {
          "internalType": "uint256",
          "name": "latestRoot",
          "type": "uint256"
        }
      ],
      "name": "NotLatestRoot",
      "type": "error"
    },
    {
      "inputs": [],
      "name": "ProofValidationFailure",
      "type": "error"
    },
    {
      "inputs": [],
      "name": "StateBridgeAlreadyDisabled",
      "type": "error"
    },
    {
      "inputs": [],
      "name": "StateBridgeAlreadyEnabled",
      "type": "error"
    },
    {
      "inputs": [],
      "name": "StateBridgeProxySendRootMultichainFailure",
      "type": "error"
    },
    {
      "inputs": [
        {
          "internalType": "address",
          "name": "user",
          "type": "address"
        }
      ],
      "name": "Unauthorized",
      "type": "error"
    },
    {
      "inputs": [
        {
          "internalType": "enum WorldIDIdentityManagerImplV1.UnreducedElementType",
          "name": "elementType",
          "type": "uint8"
        },
        {
          "internalType": "uint256",
          "name": "element",
          "type": "uint256"
        }
      ],
      "name": "UnreducedElement",
      "type": "error"
    },
    {
      "inputs": [
        {
          "internalType": "uint8",
          "name": "depth",
          "type": "uint8"
        }
      ],
      "name": "UnsupportedTreeDepth",
      "type": "error"
    },
    {
      "anonymous": false,
      "inputs": [
        {
          "indexed": false,
          "internalType": "address",
          "name": "previousAdmin",
          "type": "address"
        },
        {
          "indexed": false,
          "internalType": "address",
          "name": "newAdmin",
          "type": "address"
        }
      ],
      "name": "AdminChanged",
      "type": "event"
    },
    {
      "anonymous": false,
      "inputs": [
        {
          "indexed": true,
          "internalType": "address",
          "name": "beacon",
          "type": "address"
        }
      ],
      "name": "BeaconUpgraded",
      "type": "event"
    },
    {
      "anonymous": false,
      "inputs": [
        {
          "indexed": false,
          "internalType": "uint8",
          "name": "version",
          "type": "uint8"
        }
      ],
      "name": "Initialized",
      "type": "event"
    },
    {
      "anonymous": false,
      "inputs": [
        {
          "indexed": true,
          "internalType": "address",
          "name": "previousOwner",
          "type": "address"
        },
        {
          "indexed": true,
          "internalType": "address",
          "name": "newOwner",
          "type": "address"
        }
      ],
      "name": "OwnershipTransferred",
      "type": "event"
    },
    {
      "anonymous": false,
      "inputs": [
        {
          "indexed": true,
          "internalType": "address",
          "name": "implementation",
          "type": "address"
        }
      ],
      "name": "Upgraded",
      "type": "event"
    },
    {
      "inputs": [],
      "name": "NO_SUCH_ROOT",
      "outputs": [
        {
          "components": [
            {
              "internalType": "uint256",
              "name": "root",
              "type": "uint256"
            },
            {
              "internalType": "uint128",
              "name": "supersededTimestamp",
              "type": "uint128"
            },
            {
              "internalType": "bool",
              "name": "isValid",
              "type": "bool"
            }
          ],
          "internalType": "struct WorldIDIdentityManagerImplV1.RootInfo",
          "name": "rootInfo",
          "type": "tuple"
        }
      ],
      "stateMutability": "pure",
      "type": "function"
    },
    {
      "inputs": [
        {
          "internalType": "uint32",
          "name": "startIndex",
          "type": "uint32"
        },
        {
          "internalType": "uint256",
          "name": "preRoot",
          "type": "uint256"
        },
        {
          "internalType": "uint256",
          "name": "postRoot",
          "type": "uint256"
        },
        {
          "internalType": "uint256[]",
          "name": "identityCommitments",
          "type": "uint256[]"
        }
      ],
      "name": "calculateIdentityRegistrationInputHash",
      "outputs": [
        {
          "internalType": "bytes32",
          "name": "hash",
          "type": "bytes32"
        }
      ],
      "stateMutability": "view",
      "type": "function"
    },
    {
      "inputs": [
        {
          "internalType": "uint256",
          "name": "preRoot",
          "type": "uint256"
        },
        {
          "internalType": "uint256",
          "name": "postRoot",
          "type": "uint256"
        },
        {
          "components": [
            {
              "internalType": "uint32",
              "name": "leafIndex",
              "type": "uint32"
            },
            {
              "internalType": "uint256",
              "name": "oldCommitment",
              "type": "uint256"
            },
            {
              "internalType": "uint256",
              "name": "newCommitment",
              "type": "uint256"
            }
          ],
          "internalType": "struct WorldIDIdentityManagerImplV1.IdentityUpdate[]",
          "name": "identities",
          "type": "tuple[]"
        }
      ],
      "name": "calculateIdentityUpdateInputHash",
      "outputs": [
        {
          "internalType": "bytes32",
          "name": "hash",
          "type": "bytes32"
        }
      ],
      "stateMutability": "view",
      "type": "function"
    },
    {
      "inputs": [
        {
          "internalType": "uint256",
          "name": "root",
          "type": "uint256"
        }
      ],
      "name": "checkValidRoot",
      "outputs": [
        {
          "internalType": "bool",
          "name": "",
          "type": "bool"
        }
      ],
      "stateMutability": "view",
      "type": "function"
    },
    {
      "inputs": [],
      "name": "disableStateBridge",
      "outputs": [],
      "stateMutability": "nonpayable",
      "type": "function"
    },
    {
      "inputs": [],
      "name": "enableStateBridge",
      "outputs": [],
      "stateMutability": "nonpayable",
      "type": "function"
    },
    {
      "inputs": [],
      "name": "getIdentityUpdateVerifierLookupTableAddress",
      "outputs": [
        {
          "internalType": "address",
          "name": "addr",
          "type": "address"
        }
      ],
      "stateMutability": "view",
      "type": "function"
    },
    {
      "inputs": [],
      "name": "getRegisterIdentitiesVerifierLookupTableAddress",
      "outputs": [
        {
          "internalType": "address",
          "name": "addr",
          "type": "address"
        }
      ],
      "stateMutability": "view",
      "type": "function"
    },
    {
      "inputs": [],
      "name": "getRootHistoryExpiry",
      "outputs": [
        {
          "internalType": "uint256",
          "name": "expiryTime",
          "type": "uint256"
        }
      ],
      "stateMutability": "view",
      "type": "function"
    },
    {
      "inputs": [],
      "name": "getSemaphoreVerifierAddress",
      "outputs": [
        {
          "internalType": "address",
          "name": "addr",
          "type": "address"
        }
      ],
      "stateMutability": "view",
      "type": "function"
    },
    {
      "inputs": [],
      "name": "getTreeDepth",
      "outputs": [
        {
          "internalType": "uint8",
          "name": "initializedTreeDepth",
          "type": "uint8"
        }
      ],
      "stateMutability": "view",
      "type": "function"
    },
    {
      "inputs": [
        {
          "internalType": "uint8",
          "name": "_treeDepth",
          "type": "uint8"
        },
        {
          "internalType": "uint256",
          "name": "initialRoot",
          "type": "uint256"
        },
        {
          "internalType": "contract VerifierLookupTable",
          "name": "_batchInsertionVerifiers",
          "type": "address"
        },
        {
          "internalType": "contract VerifierLookupTable",
          "name": "_batchUpdateVerifiers",
          "type": "address"
        },
        {
          "internalType": "contract ISemaphoreVerifier",
          "name": "_semaphoreVerifier",
          "type": "address"
        },
        {
          "internalType": "bool",
          "name": "_enableStateBridge",
          "type": "bool"
        },
        {
          "internalType": "address",
          "name": "initialStateBridgeProxyAddress",
          "type": "address"
        }
      ],
      "name": "initialize",
      "outputs": [],
      "stateMutability": "nonpayable",
      "type": "function"
    },
    {
      "inputs": [
        {
          "internalType": "uint256",
          "name": "input",
          "type": "uint256"
        }
      ],
      "name": "isInputInReducedForm",
      "outputs": [
        {
          "internalType": "bool",
          "name": "isInReducedForm",
          "type": "bool"
        }
      ],
      "stateMutability": "view",
      "type": "function"
    },
    {
      "inputs": [],
      "name": "latestRoot",
      "outputs": [
        {
          "internalType": "uint256",
          "name": "root",
          "type": "uint256"
        }
      ],
      "stateMutability": "view",
      "type": "function"
    },
    {
      "inputs": [],
      "name": "owner",
      "outputs": [
        {
          "internalType": "address",
          "name": "",
          "type": "address"
        }
      ],
      "stateMutability": "view",
      "type": "function"
    },
    {
      "inputs": [],
      "name": "proxiableUUID",
      "outputs": [
        {
          "internalType": "bytes32",
          "name": "",
          "type": "bytes32"
        }
      ],
      "stateMutability": "view",
      "type": "function"
    },
    {
      "inputs": [
        {
          "internalType": "uint256",
          "name": "root",
          "type": "uint256"
        }
      ],
      "name": "queryRoot",
      "outputs": [
        {
          "components": [
            {
              "internalType": "uint256",
              "name": "root",
              "type": "uint256"
            },
            {
              "internalType": "uint128",
              "name": "supersededTimestamp",
              "type": "uint128"
            },
            {
              "internalType": "bool",
              "name": "isValid",
              "type": "bool"
            }
          ],
          "internalType": "struct WorldIDIdentityManagerImplV1.RootInfo",
          "name": "rootInfo",
          "type": "tuple"
        }
      ],
      "stateMutability": "view",
      "type": "function"
    },
    {
      "inputs": [
        {
          "internalType": "uint256[8]",
          "name": "insertionProof",
          "type": "uint256[8]"
        },
        {
          "internalType": "uint256",
          "name": "preRoot",
          "type": "uint256"
        },
        {
          "internalType": "uint32",
          "name": "startIndex",
          "type": "uint32"
        },
        {
          "internalType": "uint256[]",
          "name": "identityCommitments",
          "type": "uint256[]"
        },
        {
          "internalType": "uint256",
          "name": "postRoot",
          "type": "uint256"
        }
      ],
      "name": "registerIdentities",
      "outputs": [],
      "stateMutability": "nonpayable",
      "type": "function"
    },
    {
      "inputs": [
        {
          "internalType": "uint256[8]",
          "name": "removalProof",
          "type": "uint256[8]"
        },
        {
          "internalType": "uint256",
          "name": "preRoot",
          "type": "uint256"
        },
        {
          "components": [
            {
              "internalType": "uint32",
              "name": "leafIndex",
              "type": "uint32"
            },
            {
              "internalType": "uint256",
              "name": "oldCommitment",
              "type": "uint256"
            },
            {
              "internalType": "uint256",
              "name": "newCommitment",
              "type": "uint256"
            }
          ],
          "internalType": "struct WorldIDIdentityManagerImplV1.IdentityUpdate[]",
          "name": "removedIdentities",
          "type": "tuple[]"
        },
        {
          "internalType": "uint256",
          "name": "postRoot",
          "type": "uint256"
        }
      ],
      "name": "removeIdentities",
      "outputs": [],
      "stateMutability": "nonpayable",
      "type": "function"
    },
    {
      "inputs": [],
      "name": "renounceOwnership",
      "outputs": [],
      "stateMutability": "nonpayable",
      "type": "function"
    },
    {
      "inputs": [
        {
          "internalType": "contract VerifierLookupTable",
          "name": "newTable",
          "type": "address"
        }
      ],
      "name": "setIdentityUpdateVerifierLookupTable",
      "outputs": [],
      "stateMutability": "nonpayable",
      "type": "function"
    },
    {
      "inputs": [
        {
          "internalType": "contract VerifierLookupTable",
          "name": "newTable",
          "type": "address"
        }
      ],
      "name": "setRegisterIdentitiesVerifierLookupTable",
      "outputs": [],
      "stateMutability": "nonpayable",
      "type": "function"
    },
    {
      "inputs": [
        {
          "internalType": "uint256",
          "name": "newExpiryTime",
          "type": "uint256"
        }
      ],
      "name": "setRootHistoryExpiry",
      "outputs": [],
      "stateMutability": "nonpayable",
      "type": "function"
    },
    {
      "inputs": [
        {
          "internalType": "contract ISemaphoreVerifier",
          "name": "newVerifier",
          "type": "address"
        }
      ],
      "name": "setSemaphoreVerifier",
      "outputs": [],
      "stateMutability": "nonpayable",
      "type": "function"
    },
    {
      "inputs": [
        {
          "internalType": "address",
          "name": "newStateBridgeProxyAddress",
          "type": "address"
        }
      ],
      "name": "setStateBridgeProxyAddress",
      "outputs": [],
      "stateMutability": "nonpayable",
      "type": "function"
    },
    {
      "inputs": [],
      "name": "stateBridgeProxyAddress",
      "outputs": [
        {
          "internalType": "address",
          "name": "proxy",
          "type": "address"
        }
      ],
      "stateMutability": "view",
      "type": "function"
    },
    {
      "inputs": [
        {
          "internalType": "address",
          "name": "newOwner",
          "type": "address"
        }
      ],
      "name": "transferOwnership",
      "outputs": [],
      "stateMutability": "nonpayable",
      "type": "function"
    },
    {
      "inputs": [
        {
          "internalType": "uint256[8]",
          "name": "updateProof",
          "type": "uint256[8]"
        },
        {
          "internalType": "uint256",
          "name": "preRoot",
          "type": "uint256"
        },
        {
          "components": [
            {
              "internalType": "uint32",
              "name": "leafIndex",
              "type": "uint32"
            },
            {
              "internalType": "uint256",
              "name": "oldCommitment",
              "type": "uint256"
            },
            {
              "internalType": "uint256",
              "name": "newCommitment",
              "type": "uint256"
            }
          ],
          "internalType": "struct WorldIDIdentityManagerImplV1.IdentityUpdate[]",
          "name": "updatedIdentities",
          "type": "tuple[]"
        },
        {
          "internalType": "uint256",
          "name": "postRoot",
          "type": "uint256"
        }
      ],
      "name": "updateIdentities",
      "outputs": [],
      "stateMutability": "nonpayable",
      "type": "function"
    },
    {
      "inputs": [
        {
          "internalType": "address",
          "name": "newImplementation",
          "type": "address"
        }
      ],
      "name": "upgradeTo",
      "outputs": [],
      "stateMutability": "nonpayable",
      "type": "function"
    },
    {
      "inputs": [
        {
          "internalType": "address",
          "name": "newImplementation",
          "type": "address"
        },
        {
          "internalType": "bytes",
          "name": "data",
          "type": "bytes"
        }
      ],
      "name": "upgradeToAndCall",
      "outputs": [],
      "stateMutability": "payable",
      "type": "function"
    },
    {
      "inputs": [
        {
          "internalType": "uint256",
          "name": "root",
          "type": "uint256"
        },
        {
          "internalType": "uint256",
          "name": "signalHash",
          "type": "uint256"
        },
        {
          "internalType": "uint256",
          "name": "nullifierHash",
          "type": "uint256"
        },
        {
          "internalType": "uint256",
          "name": "externalNullifierHash",
          "type": "uint256"
        },
        {
          "internalType": "uint256[8]",
          "name": "proof",
          "type": "uint256[8]"
        }
      ],
      "name": "verifyProof",
      "outputs": [],
      "stateMutability": "view",
      "type": "function"
    }
  ],
  "bytecode": {
    "object": "0x60a0604052306080523480156200001557600080fd5b506200002062000026565b620000e8565b600054610100900460ff1615620000935760405162461bcd60e51b815260206004820152602760248201527f496e697469616c697a61626c653a20636f6e747261637420697320696e697469604482015266616c697a696e6760c81b606482015260840160405180910390fd5b60005460ff9081161015620000e6576000805460ff191660ff9081179091556040519081527f7f26b83ff96e1f2b6a682f133852f6798a09c465da95921460cefb38474024989060200160405180910390a15b565b608051613b1d6200027e600039600081816105e10152818161062a015281816107b5015281816107f5015281816108a3015281816108e301528181610caa01528181610cea01528181610d9901528181610dd901528181610e8601528181610ec601528181610fd201528181611012015281816110b7015281816110f701528181611248015281816112880152818161131301528181611353015281816116b8015281816116f801528181611773015281816117b301528181611849015281816118f90152818161193901528181611a0701528181611a4701528181611b0601528181611b4601528181611c3701528181611c7701528181611d8001528181611dc001528181611e6001528181611ea001528181611f3701528181611f770152818161200a0152818161204a0152818161211101528181612151015281816121f501528181612235015281816122c901528181612309015281816123eb0152818161242b015281816124b7015281816124f7015281816128e20152818161292201528181612a8f0152612acf0152613b1d6000f3fe6080604052600436106101d85760003560e01c80636b05660011610102578063a26b810e11610095578063d7b0fef111610064578063d7b0fef11461056b578063f2038f9514610580578063f2ebe63114610595578063f2fde38b146105b557600080fd5b8063a26b810e14610501578063b139090814610516578063b6621a3d14610536578063c70aa7271461054b57600080fd5b80638c76a909116100d15780638c76a909146104875780638da5cb5b146104a75780638e5cdd50146104c55780638fc22e9f146104ec57600080fd5b80636b05660014610412578063715018a6146104325780638939472e146104475780638b6c56c61461046757600080fd5b80633f7c178d1161017a5780634ffbdde5116101495780634ffbdde51461037757806352d1902d146103a4578063561f204b146103b957806361ea6a8d146103fd57600080fd5b80633f7c178d146102e257806343f974cb1461032f5780634bc511e6146103445780634f1ef2861461036457600080fd5b80632f059fca116101b65780632f059fca146102525780633492315214610272578063354ca120146102a25780633659cfe6146102c257600080fd5b806309edcb9c146101dd5780630e3a12f3146102105780632217b21114610232575b600080fd5b3480156101e957600080fd5b506101fd6101f836600461318b565b6105d5565b6040519081526020015b60405180910390f35b34801561021c57600080fd5b5061023061022b3660046131f3565b6107ab565b005b34801561023e57600080fd5b5061023061024d36600461327b565b610899565b34801561025e57600080fd5b5061023061026d3660046131f3565b610ca0565b34801561027e57600080fd5b5061029261028d3660046132f8565b610d8d565b6040519015158152602001610207565b3480156102ae57600080fd5b506102306102bd366004613311565b610e7c565b3480156102ce57600080fd5b506102306102dd3660046131f3565b610fc8565b3480156102ee57600080fd5b506103026102fd3660046132f8565b611090565b60408051825181526020808401516001600160801b03169082015291810151151590820152606001610207565b34801561033b57600080fd5b506101fd61123c565b34801561035057600080fd5b5061023061035f36600461335c565b611309565b610230610372366004613406565b6116ae565b34801561038357600080fd5b5061038c611767565b6040516001600160a01b039091168152602001610207565b3480156103b057600080fd5b506101fd61183c565b3480156103c557600080fd5b506040805160608082018352600080835260208084018290529284018190528351918201845280825291810182905291820152610302565b34801561040957600080fd5b506102306118ef565b34801561041e57600080fd5b5061023061042d3660046131f3565b6119fd565b34801561043e57600080fd5b50610230611aea565b34801561045357600080fd5b506102306104623660046131f3565b611afc565b34801561047357600080fd5b506102926104823660046132f8565b611c2b565b34801561049357600080fd5b506101fd6104a23660046134b2565b611d74565b3480156104b357600080fd5b506033546001600160a01b031661038c565b3480156104d157600080fd5b506104da611e54565b60405160ff9091168152602001610207565b3480156104f857600080fd5b5061038c611f2b565b34801561050d57600080fd5b50610230612000565b34801561052257600080fd5b5061023061053136600461335c565b612107565b34801561054257600080fd5b5061038c6121e9565b34801561055757600080fd5b506102306105663660046132f8565b6122bf565b34801561057757600080fd5b506101fd6123df565b34801561058c57600080fd5b5061038c6124ab565b3480156105a157600080fd5b506102306105b0366004613528565b612581565b3480156105c157600080fd5b506102306105d03660046131f3565b612720565b60006001600160a01b037f00000000000000000000000000000000000000000000000000000000000000001630036106285760405162461bcd60e51b815260040161061f906135bb565b60405180910390fd5b7f00000000000000000000000000000000000000000000000000000000000000006001600160a01b031661065a612796565b6001600160a01b0316146106805760405162461bcd60e51b815260040161061f90613607565b60c95460ff166106a357604051630103019560e11b815260040160405180910390fd5b60408051600080825260208201909252905b838110156107705760008585838181106106d1576106d1613653565b9050606002018036038101906106e79190613669565b8051602080830151604080850151905194955060009461072894930160e09390931b6001600160e01b03191683526004830191909152602482015260440190565b6040516020818303038152906040529050838160405160200161074c9291906136ee565b604051602081830303815290604052935050508061076990613733565b90506106b5565b5060008686836040516020016107889392919061374c565b60408051601f198184030181529190528051602090910120979650505050505050565b6001600160a01b037f00000000000000000000000000000000000000000000000000000000000000001630036107f35760405162461bcd60e51b815260040161061f906135bb565b7f00000000000000000000000000000000000000000000000000000000000000006001600160a01b0316610825612796565b6001600160a01b03161461084b5760405162461bcd60e51b815260040161061f90613607565b60c95460ff1661086e57604051630103019560e11b815260040160405180910390fd5b6108766127b2565b61010080546001600160a01b0319166001600160a01b0392909216919091179055565b6001600160a01b037f00000000000000000000000000000000000000000000000000000000000000001630036108e15760405162461bcd60e51b815260040161061f906135bb565b7f00000000000000000000000000000000000000000000000000000000000000006001600160a01b0316610913612796565b6001600160a01b0316146109395760405162461bcd60e51b815260040161061f90613607565b60c95460ff1661095c57604051630103019560e11b815260040160405180910390fd5b6109646127b2565b61096d85610d8d565b61098f5760008560405163af1e188960e01b815260040161061f929190613779565b60fb5485146109bf5760fb5460405163542fced960e11b815261061f918791600401918252602082015260400190565b6109c881610d8d565b6109ea5760028160405163af1e188960e01b815260040161061f929190613779565b6109f4838361280c565b6000610a038587848787611d74565b90506000610a10826128a6565b60fe54604051638a283fc360e01b8152600481018790529192506000916001600160a01b0390911690638a283fc390602401602060405180830381865afa158015610a5f573d6000803e3d6000fd5b505050506040513d601f19601f82011682018060405250810190610a8391906137a5565b9050806001600160a01b03166343753b4d60405180604001604052808c600060088110610ab257610ab2613653565b602002013581526020018c600160088110610acf57610acf613653565b60200201359052604080516080810182528d820135918101918252908190606082018f60036020020135815250815260200160405180604001604052808f600460088110610b1f57610b1f613653565b602002013581526020018f600560088110610b3c57610b3c613653565b60200201359052905260408051808201909152808e6006602002013581526020018e600760088110610b7057610b70613653565b60200201358152506040518060200160405280888152506040518563ffffffff1660e01b8152600401610ba694939291906137e5565b6020604051808303816000875af1925050508015610be1575060408051601f3d908101601f19168201909252610bde91810190613869565b60015b610c4157610bed613886565b806308c379a003610c265750610c016138a1565b80610c0c5750610c28565b8060405162461bcd60e51b815260040161061f919061392b565b505b604051631e716a8b60e01b815260040160405180910390fd5b80610c5f57604051631e716a8b60e01b815260040160405180910390fd5b60fb859055600089815260fc6020526040902080546001600160801b031916426001600160801b0316179055610c936128d8565b505b505050505050505050565b6001600160a01b037f0000000000000000000000000000000000000000000000000000000000000000163003610ce85760405162461bcd60e51b815260040161061f906135bb565b7f00000000000000000000000000000000000000000000000000000000000000006001600160a01b0316610d1a612796565b6001600160a01b031614610d405760405162461bcd60e51b815260040161061f90613607565b60c95460ff16610d6357604051630103019560e11b815260040160405180910390fd5b610d6b6127b2565b60fe80546001600160a01b0319166001600160a01b0392909216919091179055565b60006001600160a01b037f0000000000000000000000000000000000000000000000000000000000000000163003610dd75760405162461bcd60e51b815260040161061f906135bb565b7f00000000000000000000000000000000000000000000000000000000000000006001600160a01b0316610e09612796565b6001600160a01b031614610e2f5760405162461bcd60e51b815260040161061f90613607565b60c95460ff16610e5257604051630103019560e11b815260040160405180910390fd5b507f30644e72e131a029b85045b68181585d2833e84879b9709143e1f593f000000181105b919050565b6001600160a01b037f0000000000000000000000000000000000000000000000000000000000000000163003610ec45760405162461bcd60e51b815260040161061f906135bb565b7f00000000000000000000000000000000000000000000000000000000000000006001600160a01b0316610ef6612796565b6001600160a01b031614610f1c5760405162461bcd60e51b815260040161061f90613607565b60c95460ff16610f3f57604051630103019560e11b815260040160405180910390fd5b610f4885611c2b565b15610fc1576101005461010154604051634d65479560e11b81526001600160a01b0390921691639aca8f2a91610f9591899188918a9189918991600160a81b900460ff169060040161395e565b60006040518083038186803b158015610fad57600080fd5b505afa158015610c95573d6000803e3d6000fd5b5050505050565b6001600160a01b037f00000000000000000000000000000000000000000000000000000000000000001630036110105760405162461bcd60e51b815260040161061f906135bb565b7f00000000000000000000000000000000000000000000000000000000000000006001600160a01b0316611042612796565b6001600160a01b0316146110685760405162461bcd60e51b815260040161061f90613607565b61107181612a85565b6040805160008082526020820190925261108d91839190612b2d565b50565b60408051606081018252600080825260208201819052918101919091526001600160a01b037f00000000000000000000000000000000000000000000000000000000000000001630036110f55760405162461bcd60e51b815260040161061f906135bb565b7f00000000000000000000000000000000000000000000000000000000000000006001600160a01b0316611127612796565b6001600160a01b03161461114d5760405162461bcd60e51b815260040161061f90613607565b60c95460ff1661117057604051630103019560e11b815260040160405180910390fd5b60fb54820361119d5750506040805160608101825260fb5481526000602082015260019181019190915290565b600082815260fc60205260408120546001600160801b0316908190036111f75760408051606080820183526000808352602080840182905292840181905283519182018452808252918101829052918201525b9392505050565b60fd546000906112106001600160801b0384164261399a565b604080516060810182528781526001600160801b03909516602086015291101590830152509050919050565b60006001600160a01b037f00000000000000000000000000000000000000000000000000000000000000001630036112865760405162461bcd60e51b815260040161061f906135bb565b7f00000000000000000000000000000000000000000000000000000000000000006001600160a01b03166112b8612796565b6001600160a01b0316146112de5760405162461bcd60e51b815260040161061f90613607565b60c95460ff1661130157604051630103019560e11b815260040160405180910390fd5b5060fd545b90565b6001600160a01b037f00000000000000000000000000000000000000000000000000000000000000001630036113515760405162461bcd60e51b815260040161061f906135bb565b7f00000000000000000000000000000000000000000000000000000000000000006001600160a01b0316611383612796565b6001600160a01b0316146113a95760405162461bcd60e51b815260040161061f90613607565b60c95460ff166113cc57604051630103019560e11b815260040160405180910390fd5b6113d46127b2565b6113dd84610d8d565b6113ff5760008460405163af1e188960e01b815260040161061f929190613779565b60fb54841461142f5760fb5460405163542fced960e11b815261061f918691600401918252602082015260400190565b61143881610d8d565b61145a5760028160405163af1e188960e01b815260040161061f929190613779565b6114648383612c9d565b6000611472858386866105d5565b9050600061147f826128a6565b60ff54604051638a283fc360e01b8152600481018790529192506000916001600160a01b0390911690638a283fc390602401602060405180830381865afa1580156114ce573d6000803e3d6000fd5b505050506040513d601f19601f820116820180604052508101906114f291906137a5565b9050806001600160a01b03166343753b4d60405180604001604052808b60006008811061152157611521613653565b602002013581526020018b60016008811061153e5761153e613653565b60200201359052604080516080810182528c820135918101918252908190606082018e60036020020135815250815260200160405180604001604052808e60046008811061158e5761158e613653565b602002013581526020018e6005600881106115ab576115ab613653565b60200201359052905260408051808201909152808d6006602002013581526020018d6007600881106115df576115df613653565b60200201358152506040518060200160405280888152506040518563ffffffff1660e01b815260040161161594939291906137e5565b6020604051808303816000875af1925050508015611650575060408051601f3d908101601f1916820190925261164d91810190613869565b60015b61165c57610bed613886565b8061167a57604051631e716a8b60e01b815260040160405180910390fd5b60fb859055600088815260fc6020526040902080546001600160801b031916426001600160801b0316179055610c956128d8565b6001600160a01b037f00000000000000000000000000000000000000000000000000000000000000001630036116f65760405162461bcd60e51b815260040161061f906135bb565b7f00000000000000000000000000000000000000000000000000000000000000006001600160a01b0316611728612796565b6001600160a01b03161461174e5760405162461bcd60e51b815260040161061f90613607565b61175782612a85565b61176382826001612b2d565b5050565b60006001600160a01b037f00000000000000000000000000000000000000000000000000000000000000001630036117b15760405162461bcd60e51b815260040161061f906135bb565b7f00000000000000000000000000000000000000000000000000000000000000006001600160a01b03166117e3612796565b6001600160a01b0316146118095760405162461bcd60e51b815260040161061f90613607565b60c95460ff1661182c57604051630103019560e11b815260040160405180910390fd5b5060ff546001600160a01b031690565b6000306001600160a01b037f000000000000000000000000000000000000000000000000000000000000000016146118dc5760405162461bcd60e51b815260206004820152603860248201527f555550535570677261646561626c653a206d757374206e6f742062652063616c60448201527f6c6564207468726f7567682064656c656761746563616c6c0000000000000000606482015260840161061f565b50600080516020613aa183398151915290565b6001600160a01b037f00000000000000000000000000000000000000000000000000000000000000001630036119375760405162461bcd60e51b815260040161061f906135bb565b7f00000000000000000000000000000000000000000000000000000000000000006001600160a01b0316611969612796565b6001600160a01b03161461198f5760405162461bcd60e51b815260040161061f90613607565b60c95460ff166119b257604051630103019560e11b815260040160405180910390fd5b6119ba6127b2565b61010154600160a01b900460ff166119e257610101805460ff60a01b1916600160a01b179055565b60405163963a8d4f60e01b815260040160405180910390fd5b565b6001600160a01b037f0000000000000000000000000000000000000000000000000000000000000000163003611a455760405162461bcd60e51b815260040161061f906135bb565b7f00000000000000000000000000000000000000000000000000000000000000006001600160a01b0316611a77612796565b6001600160a01b031614611a9d5760405162461bcd60e51b815260040161061f90613607565b60c95460ff16611ac057604051630103019560e11b815260040160405180910390fd5b611ac86127b2565b60ff80546001600160a01b0319166001600160a01b0392909216919091179055565b611af26127b2565b6119fb6000612d4a565b6001600160a01b037f0000000000000000000000000000000000000000000000000000000000000000163003611b445760405162461bcd60e51b815260040161061f906135bb565b7f00000000000000000000000000000000000000000000000000000000000000006001600160a01b0316611b76612796565b6001600160a01b031614611b9c5760405162461bcd60e51b815260040161061f90613607565b60c95460ff16611bbf57604051630103019560e11b815260040160405180910390fd5b611bc76127b2565b6001600160a01b038116611bee57604051632d566eef60e11b815260040160405180910390fd5b61010154600160a01b900460ff16611c0857611c086118ef565b61010180546001600160a01b0319166001600160a01b0392909216919091179055565b60006001600160a01b037f0000000000000000000000000000000000000000000000000000000000000000163003611c755760405162461bcd60e51b815260040161061f906135bb565b7f00000000000000000000000000000000000000000000000000000000000000006001600160a01b0316611ca7612796565b6001600160a01b031614611ccd5760405162461bcd60e51b815260040161061f90613607565b60c95460ff16611cf057604051630103019560e11b815260040160405180910390fd5b60fb548214611d6c57600082815260fc602052604090205460fd546001600160801b0390911690611d21824261399a565b1115611d4057604051631d739acf60e11b815260040160405180910390fd5b806001600160801b0316600003611d6a5760405163ddae3b7160e01b815260040160405180910390fd5b505b506001919050565b60006001600160a01b037f0000000000000000000000000000000000000000000000000000000000000000163003611dbe5760405162461bcd60e51b815260040161061f906135bb565b7f00000000000000000000000000000000000000000000000000000000000000006001600160a01b0316611df0612796565b6001600160a01b031614611e165760405162461bcd60e51b815260040161061f90613607565b60c95460ff16611e3957604051630103019560e11b815260040160405180910390fd5b600086868686866040516020016107889594939291906139ad565b60006001600160a01b037f0000000000000000000000000000000000000000000000000000000000000000163003611e9e5760405162461bcd60e51b815260040161061f906135bb565b7f00000000000000000000000000000000000000000000000000000000000000006001600160a01b0316611ed0612796565b6001600160a01b031614611ef65760405162461bcd60e51b815260040161061f90613607565b60c95460ff16611f1957604051630103019560e11b815260040160405180910390fd5b5061010154600160a81b900460ff1690565b60006001600160a01b037f0000000000000000000000000000000000000000000000000000000000000000163003611f755760405162461bcd60e51b815260040161061f906135bb565b7f00000000000000000000000000000000000000000000000000000000000000006001600160a01b0316611fa7612796565b6001600160a01b031614611fcd5760405162461bcd60e51b815260040161061f90613607565b60c95460ff16611ff057604051630103019560e11b815260040160405180910390fd5b5060fe546001600160a01b031690565b6001600160a01b037f00000000000000000000000000000000000000000000000000000000000000001630036120485760405162461bcd60e51b815260040161061f906135bb565b7f00000000000000000000000000000000000000000000000000000000000000006001600160a01b031661207a612796565b6001600160a01b0316146120a05760405162461bcd60e51b815260040161061f90613607565b60c95460ff166120c357604051630103019560e11b815260040160405180910390fd5b6120cb6127b2565b61010154600160a01b900460ff16156120ee57610101805460ff60a01b19169055565b6040516331ae429160e21b815260040160405180910390fd5b6001600160a01b037f000000000000000000000000000000000000000000000000000000000000000016300361214f5760405162461bcd60e51b815260040161061f906135bb565b7f00000000000000000000000000000000000000000000000000000000000000006001600160a01b0316612181612796565b6001600160a01b0316146121a75760405162461bcd60e51b815260040161061f90613607565b60c95460ff166121ca57604051630103019560e11b815260040160405180910390fd5b6121d26127b2565b6121dc8383612d9c565b610fc18585858585611309565b60006001600160a01b037f00000000000000000000000000000000000000000000000000000000000000001630036122335760405162461bcd60e51b815260040161061f906135bb565b7f00000000000000000000000000000000000000000000000000000000000000006001600160a01b0316612265612796565b6001600160a01b03161461228b5760405162461bcd60e51b815260040161061f90613607565b60c95460ff166122ae57604051630103019560e11b815260040160405180910390fd5b50610101546001600160a01b031690565b6001600160a01b037f00000000000000000000000000000000000000000000000000000000000000001630036123075760405162461bcd60e51b815260040161061f906135bb565b7f00000000000000000000000000000000000000000000000000000000000000006001600160a01b0316612339612796565b6001600160a01b03161461235f5760405162461bcd60e51b815260040161061f90613607565b60c95460ff1661238257604051630103019560e11b815260040160405180910390fd5b61238a6127b2565b806000036123da5760405162461bcd60e51b815260206004820152601b60248201527f4578706972792074696d652063616e6e6f74206265207a65726f2e0000000000604482015260640161061f565b60fd55565b60006001600160a01b037f00000000000000000000000000000000000000000000000000000000000000001630036124295760405162461bcd60e51b815260040161061f906135bb565b7f00000000000000000000000000000000000000000000000000000000000000006001600160a01b031661245b612796565b6001600160a01b0316146124815760405162461bcd60e51b815260040161061f90613607565b60c95460ff166124a457604051630103019560e11b815260040160405180910390fd5b5060fb5490565b60006001600160a01b037f00000000000000000000000000000000000000000000000000000000000000001630036124f55760405162461bcd60e51b815260040161061f906135bb565b7f00000000000000000000000000000000000000000000000000000000000000006001600160a01b0316612527612796565b6001600160a01b03161461254d5760405162461bcd60e51b815260040161061f90613607565b60c95460ff1661257057604051630103019560e11b815260040160405180910390fd5b50610100546001600160a01b031690565b600054600190610100900460ff161580156125a3575060005460ff8083169116105b6126065760405162461bcd60e51b815260206004820152602e60248201527f496e697469616c697a61626c653a20636f6e747261637420697320616c72656160448201526d191e481a5b9a5d1a585b1a5e995960921b606482015260840161061f565b6000805461ffff191660ff831617610100179055612622612e0c565b61262b88612e43565b61264d57604051630220cee360e61b815260ff8916600482015260240161061f565b6101018054610e1060fd5560fb89905560fe80546001600160a01b03199081166001600160a01b038b81169190911790925560ff805482168a84161781556101008054909216898416179091559085166001600160b01b0319909216600160a81b918c16919091026001600160a81b0319161717600160a01b851515021790556126d5612e6a565b6000805461ff001916905560405160ff821681527f7f26b83ff96e1f2b6a682f133852f6798a09c465da95921460cefb38474024989060200160405180910390a15050505050505050565b6127286127b2565b6001600160a01b03811661278d5760405162461bcd60e51b815260206004820152602660248201527f4f776e61626c653a206e6577206f776e657220697320746865207a65726f206160448201526564647265737360d01b606482015260840161061f565b61108d81612d4a565b600080516020613aa1833981519152546001600160a01b031690565b6033546001600160a01b031633146119fb5760405162461bcd60e51b815260206004820181905260248201527f4f776e61626c653a2063616c6c6572206973206e6f7420746865206f776e6572604482015260640161061f565b6000805b828110156128a057600084848381811061282c5761282c613653565b90506020020135905082801561284157508015155b156128625760405163018f31f560e51b81526004810183905260240161061f565b61286b81610d8d565b61288d5760018160405163af1e188960e01b815260040161061f929190613779565b15915061289981613733565b9050612810565b50505050565b60006128d27f30644e72e131a029b85045b68181585d2833e84879b9709143e1f593f0000001836139fe565b92915050565b6001600160a01b037f00000000000000000000000000000000000000000000000000000000000000001630036129205760405162461bcd60e51b815260040161061f906135bb565b7f00000000000000000000000000000000000000000000000000000000000000006001600160a01b0316612952612796565b6001600160a01b0316146129785760405162461bcd60e51b815260040161061f90613607565b60c95460ff1661299b57604051630103019560e11b815260040160405180910390fd5b61010154600160a01b900460ff1680156129c05750610101546001600160a01b031615155b156119fb576101015460fb546040516000926001600160a01b0316916129ec9160240190815260200190565b60408051601f198184030181529181526020820180516001600160e01b031663393170cf60e01b17905251612a219190613a20565b6000604051808303816000865af19150503d8060008114612a5e576040519150601f19603f3d011682016040523d82523d6000602084013e612a63565b606091505b505090508061108d5760405163ca27883560e01b815260040160405180910390fd5b6001600160a01b037f0000000000000000000000000000000000000000000000000000000000000000163003612acd5760405162461bcd60e51b815260040161061f906135bb565b7f00000000000000000000000000000000000000000000000000000000000000006001600160a01b0316612aff612796565b6001600160a01b031614612b255760405162461bcd60e51b815260040161061f90613607565b61108d6127b2565b7f4910fdfa16fed3260ed0e7147f7cc6da11a60208b5b9406d12a635614ffd91435460ff1615612b6557612b6083612ea0565b505050565b826001600160a01b03166352d1902d6040518163ffffffff1660e01b8152600401602060405180830381865afa925050508015612bbf575060408051601f3d908101601f19168201909252612bbc91810190613a3c565b60015b612c225760405162461bcd60e51b815260206004820152602e60248201527f45524331393637557067726164653a206e657720696d706c656d656e7461746960448201526d6f6e206973206e6f74205555505360901b606482015260840161061f565b600080516020613aa18339815191528114612c915760405162461bcd60e51b815260206004820152602960248201527f45524331393637557067726164653a20756e737570706f727465642070726f786044820152681a58589b195555525160ba1b606482015260840161061f565b50612b60838383612f3c565b60005b81811015612b60576000838383818110612cbc57612cbc613653565b905060600201803603810190612cd29190613669565b9050612ce18160200151610d8d565b612d0657602081015160405163af1e188960e01b815261061f91600191600401613779565b612d138160400151610d8d565b612d39576001816040015160405163af1e188960e01b815260040161061f929190613779565b50612d4381613733565b9050612ca0565b603380546001600160a01b038381166001600160a01b0319831681179093556040519116919082907f8be0079c531659141344cd1fd0a4f28419497f9722a3daafe3b4186f6b6457e090600090a35050565b60005b81811015612b60576000838383818110612dbb57612dbb613653565b905060600201803603810190612dd19190613669565b90508060400151600014612dfb5760405163018f31f560e51b81526004810183905260240161061f565b50612e0581613733565b9050612d9f565b600054610100900460ff16612e335760405162461bcd60e51b815260040161061f90613a55565b612e3b612f61565b6119fb612f90565b60006010602060ff84168211801590612e6257508060ff168460ff1611155b949350505050565b600054610100900460ff16612e915760405162461bcd60e51b815260040161061f90613a55565b60c9805460ff19166001179055565b6001600160a01b0381163b612f0d5760405162461bcd60e51b815260206004820152602d60248201527f455243313936373a206e657720696d706c656d656e746174696f6e206973206e60448201526c1bdd08184818dbdb9d1c9858dd609a1b606482015260840161061f565b600080516020613aa183398151915280546001600160a01b0319166001600160a01b0392909216919091179055565b612f4583612fb7565b600082511180612f525750805b15612b60576128a08383612ff7565b600054610100900460ff16612f885760405162461bcd60e51b815260040161061f90613a55565b6119fb6130eb565b600054610100900460ff166119fb5760405162461bcd60e51b815260040161061f90613a55565b612fc081612ea0565b6040516001600160a01b038216907fbc7cd75a20ee27fd9adebab32041f755214dbc6bffa90cc0225b39da2e5c2d3b90600090a250565b60606001600160a01b0383163b61305f5760405162461bcd60e51b815260206004820152602660248201527f416464726573733a2064656c65676174652063616c6c20746f206e6f6e2d636f6044820152651b9d1c9858dd60d21b606482015260840161061f565b600080846001600160a01b03168460405161307a9190613a20565b600060405180830381855af49150503d80600081146130b5576040519150601f19603f3d011682016040523d82523d6000602084013e6130ba565b606091505b50915091506130e28282604051806060016040528060278152602001613ac16027913961311b565b95945050505050565b600054610100900460ff166131125760405162461bcd60e51b815260040161061f90613a55565b6119fb33612d4a565b6060831561312a5750816111f0565b6111f08383815115610c0c5781518083602001fd5b60008083601f84011261315157600080fd5b50813567ffffffffffffffff81111561316957600080fd5b60208301915083602060608302850101111561318457600080fd5b9250929050565b600080600080606085870312156131a157600080fd5b8435935060208501359250604085013567ffffffffffffffff8111156131c657600080fd5b6131d28782880161313f565b95989497509550505050565b6001600160a01b038116811461108d57600080fd5b60006020828403121561320557600080fd5b81356111f0816131de565b8061010081018310156128d257600080fd5b803563ffffffff81168114610e7757600080fd5b60008083601f84011261324857600080fd5b50813567ffffffffffffffff81111561326057600080fd5b6020830191508360208260051b850101111561318457600080fd5b600080600080600080610180878903121561329557600080fd5b61329f8888613210565b955061010087013594506132b66101208801613222565b935061014087013567ffffffffffffffff8111156132d357600080fd5b6132df89828a01613236565b979a969950949794969561016090950135949350505050565b60006020828403121561330a57600080fd5b5035919050565b6000806000806000610180868803121561332a57600080fd5b853594506020860135935060408601359250606086013591506133508760808801613210565b90509295509295909350565b6000806000806000610160868803121561337557600080fd5b61337f8787613210565b9450610100860135935061012086013567ffffffffffffffff8111156133a457600080fd5b6133b08882890161313f565b9699959850966101400135949350505050565b634e487b7160e01b600052604160045260246000fd5b601f8201601f1916810167ffffffffffffffff811182821017156133ff576133ff6133c3565b6040525050565b6000806040838503121561341957600080fd5b8235613424816131de565b915060208381013567ffffffffffffffff8082111561344257600080fd5b818601915086601f83011261345657600080fd5b813581811115613468576134686133c3565b6040519150613480601f8201601f19168501836133d9565b808252878482850101111561349457600080fd5b80848401858401376000848284010152508093505050509250929050565b6000806000806000608086880312156134ca57600080fd5b6134d386613222565b94506020860135935060408601359250606086013567ffffffffffffffff8111156134fd57600080fd5b61350988828901613236565b969995985093965092949392505050565b801515811461108d57600080fd5b600080600080600080600060e0888a03121561354357600080fd5b873560ff8116811461355457600080fd5b965060208801359550604088013561356b816131de565b9450606088013561357b816131de565b9350608088013561358b816131de565b925060a088013561359b8161351a565b915060c08801356135ab816131de565b8091505092959891949750929550565b6020808252602c908201527f46756e6374696f6e206d7573742062652063616c6c6564207468726f7567682060408201526b19195b1959d85d1958d85b1b60a21b606082015260800190565b6020808252602c908201527f46756e6374696f6e206d7573742062652063616c6c6564207468726f7567682060408201526b6163746976652070726f787960a01b606082015260800190565b634e487b7160e01b600052603260045260246000fd5b60006060828403121561367b57600080fd5b6040516060810181811067ffffffffffffffff8211171561369e5761369e6133c3565b6040526136aa83613222565b815260208301356020820152604083013560408201528091505092915050565b60005b838110156136e55781810151838201526020016136cd565b50506000910152565b600083516137008184602088016136ca565b8351908301906137148183602088016136ca565b01949350505050565b634e487b7160e01b600052601160045260246000fd5b6000600182016137455761374561371d565b5060010190565b8381528260208201526000825161376a8160408501602087016136ca565b91909101604001949350505050565b604081016003841061379b57634e487b7160e01b600052602160045260246000fd5b9281526020015290565b6000602082840312156137b757600080fd5b81516111f0816131de565b8060005b60028110156128a05781518452602093840193909101906001016137c6565b61012081016137f482876137c2565b60408083018660005b6002811015613824576138118383516137c2565b91830191602091909101906001016137fd565b5050505061383560c08301856137c2565b61010082018360005b600181101561385d57815183526020928301929091019060010161383e565b50505095945050505050565b60006020828403121561387b57600080fd5b81516111f08161351a565b600060033d11156113065760046000803e5060005160e01c90565b600060443d10156138af5790565b6040516003193d81016004833e81513d67ffffffffffffffff81602484011181841117156138df57505050505090565b82850191508151818111156138f75750505050505090565b843d87010160208285010111156139115750505050505090565b613920602082860101876133d9565b509095945050505050565b602081526000825180602084015261394a8160408501602087016136ca565b601f01601f19169190910160400192915050565b60006101a08201905087825286602083015285604083015284606083015261010084608084013760ff8316610180830152979650505050505050565b818103818111156128d2576128d261371d565b60e086901b6001600160e01b0319168152600481018590526024810184905260006001600160fb1b038311156139e257600080fd5b8260051b80856044850137919091016044019695505050505050565b600082613a1b57634e487b7160e01b600052601260045260246000fd5b500690565b60008251613a328184602087016136ca565b9190910192915050565b600060208284031215613a4e57600080fd5b5051919050565b6020808252602b908201527f496e697469616c697a61626c653a20636f6e7472616374206973206e6f74206960408201526a6e697469616c697a696e6760a81b60608201526080019056fe360894a13ba1a3210667c828492db98dca3e2076cc3735a920a3ca505d382bbc416464726573733a206c6f772d6c6576656c2064656c65676174652063616c6c206661696c6564a2646970667358221220b1e1c92eedc95f652511b147bb1f74a7227be4e1ca3c66ea0b69932f8258403064736f6c63430008130033",
    "linkReferences": {}
  },
  "methodIdentifiers": {
    "NO_SUCH_ROOT()": "561f204b",
    "calculateIdentityRegistrationInputHash(uint32,uint256,uint256,uint256[])": "8c76a909",
    "calculateIdentityUpdateInputHash(uint256,uint256,(uint32,uint256,uint256)[])": "09edcb9c",
    "checkValidRoot(uint256)": "8b6c56c6",
    "disableStateBridge()": "a26b810e",
    "enableStateBridge()": "61ea6a8d",
    "getIdentityUpdateVerifierLookupTableAddress()": "4ffbdde5",
    "getRegisterIdentitiesVerifierLookupTableAddress()": "8fc22e9f",
    "getRootHistoryExpiry()": "43f974cb",
    "getSemaphoreVerifierAddress()": "f2038f95",
    "getTreeDepth()": "8e5cdd50",
    "initialize(uint8,uint256,address,address,address,bool,address)": "f2ebe631",
    "isInputInReducedForm(uint256)": "34923152",
    "latestRoot()": "d7b0fef1",
    "owner()": "8da5cb5b",
    "proxiableUUID()": "52d1902d",
    "queryRoot(uint256)": "3f7c178d",
    "registerIdentities(uint256[8],uint256,uint32,uint256[],uint256)": "2217b211",
    "removeIdentities(uint256[8],uint256,(uint32,uint256,uint256)[],uint256)": "b1390908",
    "renounceOwnership()": "715018a6",
    "setIdentityUpdateVerifierLookupTable(address)": "6b056600",
    "setRegisterIdentitiesVerifierLookupTable(address)": "2f059fca",
    "setRootHistoryExpiry(uint256)": "c70aa727",
    "setSemaphoreVerifier(address)": "0e3a12f3",
    "setStateBridgeProxyAddress(address)": "8939472e",
    "stateBridgeProxyAddress()": "b6621a3d",
    "transferOwnership(address)": "f2fde38b",
    "updateIdentities(uint256[8],uint256,(uint32,uint256,uint256)[],uint256)": "4bc511e6",
    "upgradeTo(address)": "3659cfe6",
    "upgradeToAndCall(address,bytes)": "4f1ef286",
    "verifyProof(uint256,uint256,uint256,uint256,uint256[8])": "354ca120"
  },
  "id": 29
}