{
    "abi": [
        {
            "inputs": [],
            "stateMutability": "nonpayable",
            "type": "constructor"
        },
        {
            "inputs": [],
            "name": "ExpiredRoot",
            "type": "error"
        },
        {
            "inputs": [],
            "name": "ImplementationNotInitialized",
            "type": "error"
        },
        {
            "inputs": [
                {
                    "internalType": "uint256",
                    "name": "index",
                    "type": "uint256"
                }
            ],
            "name": "InvalidCommitment",
            "type": "error"
        },
        {
            "inputs": [],
            "name": "InvalidStateBridgeProxyAddress",
            "type": "error"
        },
        {
            "inputs": [],
            "name": "NonExistentRoot",
            "type": "error"
        },
        {
            "inputs": [
                {
                    "internalType": "uint256",
                    "name": "providedRoot",
                    "type": "uint256"
                },
                {
                    "internalType": "uint256",
                    "name": "latestRoot",
                    "type": "uint256"
                }
            ],
            "name": "NotLatestRoot",
            "type": "error"
        },
        {
            "inputs": [],
            "name": "ProofValidationFailure",
            "type": "error"
        },
        {
            "inputs": [],
            "name": "StateBridgeAlreadyDisabled",
            "type": "error"
        },
        {
            "inputs": [],
            "name": "StateBridgeAlreadyEnabled",
            "type": "error"
        },
        {
            "inputs": [],
            "name": "StateBridgeProxySendRootMultichainFailure",
            "type": "error"
        },
        {
            "inputs": [
                {
                    "internalType": "address",
                    "name": "user",
                    "type": "address"
                }
            ],
            "name": "Unauthorized",
            "type": "error"
        },
        {
            "inputs": [
                {
                    "internalType": "enum WorldIDIdentityManagerImplV1.UnreducedElementType",
                    "name": "elementType",
                    "type": "uint8"
                },
                {
                    "internalType": "uint256",
                    "name": "element",
                    "type": "uint256"
                }
            ],
            "name": "UnreducedElement",
            "type": "error"
        },
        {
            "anonymous": false,
            "inputs": [
                {
                    "indexed": false,
                    "internalType": "address",
                    "name": "previousAdmin",
                    "type": "address"
                },
                {
                    "indexed": false,
                    "internalType": "address",
                    "name": "newAdmin",
                    "type": "address"
                }
            ],
            "name": "AdminChanged",
            "type": "event"
        },
        {
            "anonymous": false,
            "inputs": [
                {
                    "indexed": true,
                    "internalType": "address",
                    "name": "beacon",
                    "type": "address"
                }
            ],
            "name": "BeaconUpgraded",
            "type": "event"
        },
        {
            "anonymous": false,
            "inputs": [
                {
                    "indexed": false,
                    "internalType": "uint8",
                    "name": "version",
                    "type": "uint8"
                }
            ],
            "name": "Initialized",
            "type": "event"
        },
        {
            "anonymous": false,
            "inputs": [
                {
                    "indexed": true,
                    "internalType": "address",
                    "name": "previousOwner",
                    "type": "address"
                },
                {
                    "indexed": true,
                    "internalType": "address",
                    "name": "newOwner",
                    "type": "address"
                }
            ],
            "name": "OwnershipTransferred",
            "type": "event"
        },
        {
            "anonymous": false,
            "inputs": [
                {
                    "indexed": true,
                    "internalType": "address",
                    "name": "implementation",
                    "type": "address"
                }
            ],
            "name": "Upgraded",
            "type": "event"
        },
        {
            "inputs": [],
            "name": "NO_SUCH_ROOT",
            "outputs": [
                {
                    "components": [
                        {
                            "internalType": "uint256",
                            "name": "root",
                            "type": "uint256"
                        },
                        {
                            "internalType": "uint128",
                            "name": "supersededTimestamp",
                            "type": "uint128"
                        },
                        {
                            "internalType": "bool",
                            "name": "isValid",
                            "type": "bool"
                        }
                    ],
                    "internalType": "struct WorldIDIdentityManagerImplV1.RootInfo",
                    "name": "rootInfo",
                    "type": "tuple"
                }
            ],
            "stateMutability": "pure",
            "type": "function"
        },
        {
            "inputs": [
                {
                    "internalType": "uint32",
                    "name": "startIndex",
                    "type": "uint32"
                },
                {
                    "internalType": "uint256",
                    "name": "preRoot",
                    "type": "uint256"
                },
                {
                    "internalType": "uint256",
                    "name": "postRoot",
                    "type": "uint256"
                },
                {
                    "internalType": "uint256[]",
                    "name": "identityCommitments",
                    "type": "uint256[]"
                }
            ],
            "name": "calculateIdentityRegistrationInputHash",
            "outputs": [
                {
                    "internalType": "bytes32",
                    "name": "hash",
                    "type": "bytes32"
                }
            ],
            "stateMutability": "view",
            "type": "function"
        },
        {
            "inputs": [
                {
                    "internalType": "uint256",
                    "name": "preRoot",
                    "type": "uint256"
                },
                {
                    "internalType": "uint256",
                    "name": "postRoot",
                    "type": "uint256"
                },
                {
                    "components": [
                        {
                            "internalType": "uint32",
                            "name": "leafIndex",
                            "type": "uint32"
                        },
                        {
                            "internalType": "uint256",
                            "name": "oldCommitment",
                            "type": "uint256"
                        },
                        {
                            "internalType": "uint256",
                            "name": "newCommitment",
                            "type": "uint256"
                        }
                    ],
                    "internalType": "struct WorldIDIdentityManagerImplV1.Identity[]",
                    "name": "identities",
                    "type": "tuple[]"
                }
            ],
            "name": "calculateIdentityUpdateInputHash",
            "outputs": [
                {
                    "internalType": "bytes32",
                    "name": "hash",
                    "type": "bytes32"
                }
            ],
            "stateMutability": "view",
            "type": "function"
        },
        {
            "inputs": [
                {
                    "internalType": "uint256",
                    "name": "root",
                    "type": "uint256"
                }
            ],
            "name": "checkValidRoot",
            "outputs": [
                {
                    "internalType": "bool",
                    "name": "",
                    "type": "bool"
                }
            ],
            "stateMutability": "view",
            "type": "function"
        },
        {
            "inputs": [],
            "name": "disableStateBridge",
            "outputs": [],
            "stateMutability": "nonpayable",
            "type": "function"
        },
        {
            "inputs": [],
            "name": "enableStateBridge",
            "outputs": [],
            "stateMutability": "nonpayable",
            "type": "function"
        },
        {
            "inputs": [],
            "name": "getIdentityUpdateVerifierAddress",
            "outputs": [
                {
                    "internalType": "address",
                    "name": "addr",
                    "type": "address"
                }
            ],
            "stateMutability": "view",
            "type": "function"
        },
        {
            "inputs": [],
            "name": "getRegisterIdentitiesVerifierAddress",
            "outputs": [
                {
                    "internalType": "address",
                    "name": "addr",
                    "type": "address"
                }
            ],
            "stateMutability": "view",
            "type": "function"
        },
        {
            "inputs": [],
            "name": "getRootHistoryExpiry",
            "outputs": [
                {
                    "internalType": "uint256",
                    "name": "expiryTime",
                    "type": "uint256"
                }
            ],
            "stateMutability": "view",
            "type": "function"
        },
        {
            "inputs": [],
            "name": "getSemaphoreVerifierAddress",
            "outputs": [
                {
                    "internalType": "address",
                    "name": "addr",
                    "type": "address"
                }
            ],
            "stateMutability": "view",
            "type": "function"
        },
        {
            "inputs": [
                {
                    "internalType": "uint256",
                    "name": "initialRoot",
                    "type": "uint256"
                },
                {
                    "internalType": "contract ITreeVerifier",
                    "name": "_merkleTreeVerifier",
                    "type": "address"
                },
                {
                    "internalType": "bool",
                    "name": "_enableStateBridge",
                    "type": "bool"
                },
                {
                    "internalType": "address",
                    "name": "initialStateBridgeProxyAddress",
                    "type": "address"
                }
            ],
            "name": "initialize",
            "outputs": [],
            "stateMutability": "nonpayable",
            "type": "function"
        },
        {
            "inputs": [
                {
                    "internalType": "uint256",
                    "name": "input",
                    "type": "uint256"
                }
            ],
            "name": "isInputInReducedForm",
            "outputs": [
                {
                    "internalType": "bool",
                    "name": "isInReducedForm",
                    "type": "bool"
                }
            ],
            "stateMutability": "view",
            "type": "function"
        },
        {
            "inputs": [],
            "name": "latestRoot",
            "outputs": [
                {
                    "internalType": "uint256",
                    "name": "root",
                    "type": "uint256"
                }
            ],
            "stateMutability": "view",
            "type": "function"
        },
        {
            "inputs": [],
            "name": "owner",
            "outputs": [
                {
                    "internalType": "address",
                    "name": "",
                    "type": "address"
                }
            ],
            "stateMutability": "view",
            "type": "function"
        },
        {
            "inputs": [],
            "name": "proxiableUUID",
            "outputs": [
                {
                    "internalType": "bytes32",
                    "name": "",
                    "type": "bytes32"
                }
            ],
            "stateMutability": "view",
            "type": "function"
        },
        {
            "inputs": [
                {
                    "internalType": "uint256",
                    "name": "root",
                    "type": "uint256"
                }
            ],
            "name": "queryRoot",
            "outputs": [
                {
                    "components": [
                        {
                            "internalType": "uint256",
                            "name": "root",
                            "type": "uint256"
                        },
                        {
                            "internalType": "uint128",
                            "name": "supersededTimestamp",
                            "type": "uint128"
                        },
                        {
                            "internalType": "bool",
                            "name": "isValid",
                            "type": "bool"
                        }
                    ],
                    "internalType": "struct WorldIDIdentityManagerImplV1.RootInfo",
                    "name": "rootInfo",
                    "type": "tuple"
                }
            ],
            "stateMutability": "view",
            "type": "function"
        },
        {
            "inputs": [
                {
                    "internalType": "uint256[8]",
                    "name": "insertionProof",
                    "type": "uint256[8]"
                },
                {
                    "internalType": "uint256",
                    "name": "preRoot",
                    "type": "uint256"
                },
                {
                    "internalType": "uint32",
                    "name": "startIndex",
                    "type": "uint32"
                },
                {
                    "internalType": "uint256[]",
                    "name": "identityCommitments",
                    "type": "uint256[]"
                },
                {
                    "internalType": "uint256",
                    "name": "postRoot",
                    "type": "uint256"
                }
            ],
            "name": "registerIdentities",
            "outputs": [],
            "stateMutability": "nonpayable",
            "type": "function"
        },
        {
            "inputs": [
                {
                    "internalType": "uint256[8]",
                    "name": "removalProof",
                    "type": "uint256[8]"
                },
                {
                    "internalType": "uint256",
                    "name": "preRoot",
                    "type": "uint256"
                },
                {
                    "components": [
                        {
                            "internalType": "uint32",
                            "name": "leafIndex",
                            "type": "uint32"
                        },
                        {
                            "internalType": "uint256",
                            "name": "oldCommitment",
                            "type": "uint256"
                        },
                        {
                            "internalType": "uint256",
                            "name": "newCommitment",
                            "type": "uint256"
                        }
                    ],
                    "internalType": "struct WorldIDIdentityManagerImplV1.Identity[]",
                    "name": "removedIdentities",
                    "type": "tuple[]"
                },
                {
                    "internalType": "uint256",
                    "name": "postRoot",
                    "type": "uint256"
                }
            ],
            "name": "removeIdentities",
            "outputs": [],
            "stateMutability": "nonpayable",
            "type": "function"
        },
        {
            "inputs": [],
            "name": "renounceOwnership",
            "outputs": [],
            "stateMutability": "nonpayable",
            "type": "function"
        },
        {
            "inputs": [
                {
                    "internalType": "contract ITreeVerifier",
                    "name": "newVerifier",
                    "type": "address"
                }
            ],
            "name": "setIdentityUpdateVerifier",
            "outputs": [],
            "stateMutability": "nonpayable",
            "type": "function"
        },
        {
            "inputs": [
                {
                    "internalType": "contract ITreeVerifier",
                    "name": "newVerifier",
                    "type": "address"
                }
            ],
            "name": "setRegisterIdentitiesVerifier",
            "outputs": [],
            "stateMutability": "nonpayable",
            "type": "function"
        },
        {
            "inputs": [
                {
                    "internalType": "uint256",
                    "name": "newExpiryTime",
                    "type": "uint256"
                }
            ],
            "name": "setRootHistoryExpiry",
            "outputs": [],
            "stateMutability": "nonpayable",
            "type": "function"
        },
        {
            "inputs": [
                {
                    "internalType": "contract Verifier",
                    "name": "newVerifier",
                    "type": "address"
                }
            ],
            "name": "setSemaphoreVerifier",
            "outputs": [],
            "stateMutability": "nonpayable",
            "type": "function"
        },
        {
            "inputs": [
                {
                    "internalType": "address",
                    "name": "newStateBridgeProxyAddress",
                    "type": "address"
                }
            ],
            "name": "setStateBridgeProxyAddress",
            "outputs": [],
            "stateMutability": "nonpayable",
            "type": "function"
        },
        {
            "inputs": [],
            "name": "stateBridgeProxyAddress",
            "outputs": [
                {
                    "internalType": "address",
                    "name": "proxy",
                    "type": "address"
                }
            ],
            "stateMutability": "view",
            "type": "function"
        },
        {
            "inputs": [
                {
                    "internalType": "address",
                    "name": "newOwner",
                    "type": "address"
                }
            ],
            "name": "transferOwnership",
            "outputs": [],
            "stateMutability": "nonpayable",
            "type": "function"
        },
        {
            "inputs": [
                {
                    "internalType": "uint256[8]",
                    "name": "updateProof",
                    "type": "uint256[8]"
                },
                {
                    "internalType": "uint256",
                    "name": "preRoot",
                    "type": "uint256"
                },
                {
                    "components": [
                        {
                            "internalType": "uint32",
                            "name": "leafIndex",
                            "type": "uint32"
                        },
                        {
                            "internalType": "uint256",
                            "name": "oldCommitment",
                            "type": "uint256"
                        },
                        {
                            "internalType": "uint256",
                            "name": "newCommitment",
                            "type": "uint256"
                        }
                    ],
                    "internalType": "struct WorldIDIdentityManagerImplV1.Identity[]",
                    "name": "updatedIdentities",
                    "type": "tuple[]"
                },
                {
                    "internalType": "uint256",
                    "name": "postRoot",
                    "type": "uint256"
                }
            ],
            "name": "updateIdentities",
            "outputs": [],
            "stateMutability": "nonpayable",
            "type": "function"
        },
        {
            "inputs": [
                {
                    "internalType": "address",
                    "name": "newImplementation",
                    "type": "address"
                }
            ],
            "name": "upgradeTo",
            "outputs": [],
            "stateMutability": "nonpayable",
            "type": "function"
        },
        {
            "inputs": [
                {
                    "internalType": "address",
                    "name": "newImplementation",
                    "type": "address"
                },
                {
                    "internalType": "bytes",
                    "name": "data",
                    "type": "bytes"
                }
            ],
            "name": "upgradeToAndCall",
            "outputs": [],
            "stateMutability": "payable",
            "type": "function"
        },
        {
            "inputs": [
                {
                    "internalType": "uint256",
                    "name": "root",
                    "type": "uint256"
                },
                {
                    "internalType": "uint256",
                    "name": "signalHash",
                    "type": "uint256"
                },
                {
                    "internalType": "uint256",
                    "name": "nullifierHash",
                    "type": "uint256"
                },
                {
                    "internalType": "uint256",
                    "name": "externalNullifierHash",
                    "type": "uint256"
                },
                {
                    "internalType": "uint256[8]",
                    "name": "proof",
                    "type": "uint256[8]"
                }
            ],
            "name": "verifyProof",
            "outputs": [],
            "stateMutability": "view",
            "type": "function"
        }
    ],
    "bytecode": {
        "object": "0x60a0604052306080523480156200001557600080fd5b506200002062000026565b620000e8565b600054610100900460ff1615620000935760405162461bcd60e51b815260206004820152602760248201527f496e697469616c697a61626c653a20636f6e747261637420697320696e697469604482015266616c697a696e6760c81b606482015260840160405180910390fd5b60005460ff9081161015620000e6576000805460ff191660ff9081179091556040519081527f7f26b83ff96e1f2b6a682f133852f6798a09c465da95921460cefb38474024989060200160405180910390a15b565b608051614db262000270600039600081816105af015281816105f801528181610783015281816107c301528181610871015281816108b101528181610be301528181610c2301528181610cb901528181610cf901528181610da601528181610de601528181610f6e01528181610fae0152818161105301528181611093015281816111e401528181611224015281816112ae015281816112ee015281816115a2015281816115e20152818161165e0152818161170e0152818161174e0152818161182e0152818161186e0152818161195f0152818161199f01528181611aa801528181611ae801528181611b8601528181611bc601528181611c8d01528181611ccd01528181611d7801528181611db801528181611e4c01528181611e8c01528181611f3901528181611f790152818161205b0152818161209b0152818161212701528181612167015281816123c2015281816124020152818161250c0152818161254c0152818161273b0152818161277b015281816128e801526129280152614db26000f3fe6080604052600436106101cd5760003560e01c80638939472e116100f7578063c37e680511610095578063ec126b6f11610064578063ec126b6f1461052e578063f2038f951461054e578063f2fde38b14610563578063f97033f41461058357600080fd5b8063c37e6805146104c4578063c70aa727146104e4578063d7b0fef114610504578063d9b3c7731461051957600080fd5b80638da5cb5b116100d15780638da5cb5b1461045c578063a26b810e1461047a578063b13909081461048f578063b6621a3d146104af57600080fd5b80638939472e146103fc5780638b6c56c61461041c5780638c76a9091461043c57600080fd5b80633f7c178d1161016f57806352d1902d1161013e57806352d1902d14610379578063561f204b1461038e57806361ea6a8d146103d2578063715018a6146103e757600080fd5b80633f7c178d146102e457806343f974cb146103315780634bc511e6146103465780634f1ef2861461036657600080fd5b80632c347ed9116101ab5780632c347ed9146102475780633492315214610274578063354ca120146102a45780633659cfe6146102c457600080fd5b806309edcb9c146101d25780630e3a12f3146102055780632217b21114610227575b600080fd5b3480156101de57600080fd5b506101f26101ed366004612fd7565b6105a3565b6040519081526020015b60405180910390f35b34801561021157600080fd5b5061022561022036600461303f565b610779565b005b34801561023357600080fd5b506102256102423660046130c7565b610867565b34801561025357600080fd5b5061025c610bd7565b6040516001600160a01b0390911681526020016101fc565b34801561028057600080fd5b5061029461028f366004613144565b610cad565b60405190151581526020016101fc565b3480156102b057600080fd5b506102256102bf36600461315d565b610d9c565b3480156102d057600080fd5b506102256102df36600461303f565b610f64565b3480156102f057600080fd5b506103046102ff366004613144565b61102c565b60408051825181526020808401516001600160801b031690820152918101511515908201526060016101fc565b34801561033d57600080fd5b506101f26111d8565b34801561035257600080fd5b506102256103613660046131a8565b6112a4565b610225610374366004613252565b611598565b34801561038557600080fd5b506101f2611651565b34801561039a57600080fd5b506040805160608082018352600080835260208084018290529284018190528351918201845280825291810182905291820152610304565b3480156103de57600080fd5b50610225611704565b3480156103f357600080fd5b50610225611812565b34801561040857600080fd5b5061022561041736600461303f565b611824565b34801561042857600080fd5b50610294610437366004613144565b611953565b34801561044857600080fd5b506101f26104573660046132fe565b611a9c565b34801561046857600080fd5b506033546001600160a01b031661025c565b34801561048657600080fd5b50610225611b7c565b34801561049b57600080fd5b506102256104aa3660046131a8565b611c83565b3480156104bb57600080fd5b5061025c611d6c565b3480156104d057600080fd5b506102256104df36600461303f565b611e42565b3480156104f057600080fd5b506102256104ff366004613144565b611f2f565b34801561051057600080fd5b506101f261204f565b34801561052557600080fd5b5061025c61211b565b34801561053a57600080fd5b50610225610549366004613374565b6121f0565b34801561055a57600080fd5b5061025c6123b6565b34801561056f57600080fd5b5061022561057e36600461303f565b61248c565b34801561058f57600080fd5b5061022561059e36600461303f565b612502565b60006001600160a01b037f00000000000000000000000000000000000000000000000000000000000000001630036105f65760405162461bcd60e51b81526004016105ed906133c7565b60405180910390fd5b7f00000000000000000000000000000000000000000000000000000000000000006001600160a01b03166106286125ef565b6001600160a01b03161461064e5760405162461bcd60e51b81526004016105ed90613413565b60c95460ff1661067157604051630103019560e11b815260040160405180910390fd5b60408051600080825260208201909252905b8381101561073e57600085858381811061069f5761069f61345f565b9050606002018036038101906106b59190613475565b805160208083015160408085015190519495506000946106f694930160e09390931b6001600160e01b03191683526004830191909152602482015260440190565b6040516020818303038152906040529050838160405160200161071a929190613502565b604051602081830303815290604052935050508061073790613547565b9050610683565b50600086868360405160200161075693929190613560565b60408051601f198184030181529190528051602090910120979650505050505050565b6001600160a01b037f00000000000000000000000000000000000000000000000000000000000000001630036107c15760405162461bcd60e51b81526004016105ed906133c7565b7f00000000000000000000000000000000000000000000000000000000000000006001600160a01b03166107f36125ef565b6001600160a01b0316146108195760405162461bcd60e51b81526004016105ed90613413565b60c95460ff1661083c57604051630103019560e11b815260040160405180910390fd5b61084461260b565b61010080546001600160a01b0319166001600160a01b0392909216919091179055565b6001600160a01b037f00000000000000000000000000000000000000000000000000000000000000001630036108af5760405162461bcd60e51b81526004016105ed906133c7565b7f00000000000000000000000000000000000000000000000000000000000000006001600160a01b03166108e16125ef565b6001600160a01b0316146109075760405162461bcd60e51b81526004016105ed90613413565b60c95460ff1661092a57604051630103019560e11b815260040160405180910390fd5b61093261260b565b61093b85610cad565b61095d5760008560405163af1e188960e01b81526004016105ed92919061358d565b60fb54851461098d5760fb5460405163542fced960e11b81526105ed918791600401918252602082015260400190565b61099681610cad565b6109b85760028160405163af1e188960e01b81526004016105ed92919061358d565b6109c28383612665565b60006109d18587848787611a9c565b905060006109de826126ff565b60fe54604080518082019091528a3581529192506001600160a01b0316906343753b4d90602081018b600160200201359052604080516080810182528c820135918101918252908190606082018e60036020020135815250815260200160405180604001604052808e600460088110610a5957610a5961345f565b602002013581526020018e600560088110610a7657610a7661345f565b60200201359052905260408051808201909152808d6006602002013581526020018d600760088110610aaa57610aaa61345f565b60200201358152506040518060200160405280878152506040518563ffffffff1660e01b8152600401610ae0949392919061360a565b602060405180830381865afa925050508015610b19575060408051601f3d908101601f19168201909252610b1691810190613667565b60015b610b7957610b25613684565b806308c379a003610b5e5750610b3961369f565b80610b445750610b60565b8060405162461bcd60e51b81526004016105ed9190613729565b505b604051631e716a8b60e01b815260040160405180910390fd5b80610b9757604051631e716a8b60e01b815260040160405180910390fd5b60fb849055600088815260fc6020526040902080546001600160801b031916426001600160801b0316179055610bcb612731565b505b5050505050505050565b60006001600160a01b037f0000000000000000000000000000000000000000000000000000000000000000163003610c215760405162461bcd60e51b81526004016105ed906133c7565b7f00000000000000000000000000000000000000000000000000000000000000006001600160a01b0316610c536125ef565b6001600160a01b031614610c795760405162461bcd60e51b81526004016105ed90613413565b60c95460ff16610c9c57604051630103019560e11b815260040160405180910390fd5b5060ff546001600160a01b03165b90565b60006001600160a01b037f0000000000000000000000000000000000000000000000000000000000000000163003610cf75760405162461bcd60e51b81526004016105ed906133c7565b7f00000000000000000000000000000000000000000000000000000000000000006001600160a01b0316610d296125ef565b6001600160a01b031614610d4f5760405162461bcd60e51b81526004016105ed90613413565b60c95460ff16610d7257604051630103019560e11b815260040160405180910390fd5b507f30644e72e131a029b85045b68181585d2833e84879b9709143e1f593f000000181105b919050565b6001600160a01b037f0000000000000000000000000000000000000000000000000000000000000000163003610de45760405162461bcd60e51b81526004016105ed906133c7565b7f00000000000000000000000000000000000000000000000000000000000000006001600160a01b0316610e166125ef565b6001600160a01b031614610e3c5760405162461bcd60e51b81526004016105ed90613413565b60c95460ff16610e5f57604051630103019560e11b815260040160405180910390fd5b604080516080810182528681526020810185905290810185905260608101839052610e8986611953565b15610f5c57610100546040805180820182528435815260208086013581830152825160808082018552878501358286019081526060808a01359084015282528451808601865290880135815260a088013581840152818301528351808501855260c0880135815260e0880135928101929092529251635fe8c13b60e01b81526001600160a01b0390941693635fe8c13b93610f2b93929091879060040161375c565b60006040518083038186803b158015610f4357600080fd5b505afa158015610f57573d6000803e3d6000fd5b505050505b505050505050565b6001600160a01b037f0000000000000000000000000000000000000000000000000000000000000000163003610fac5760405162461bcd60e51b81526004016105ed906133c7565b7f00000000000000000000000000000000000000000000000000000000000000006001600160a01b0316610fde6125ef565b6001600160a01b0316146110045760405162461bcd60e51b81526004016105ed90613413565b61100d816128de565b6040805160008082526020820190925261102991839190612986565b50565b60408051606081018252600080825260208201819052918101919091526001600160a01b037f00000000000000000000000000000000000000000000000000000000000000001630036110915760405162461bcd60e51b81526004016105ed906133c7565b7f00000000000000000000000000000000000000000000000000000000000000006001600160a01b03166110c36125ef565b6001600160a01b0316146110e95760405162461bcd60e51b81526004016105ed90613413565b60c95460ff1661110c57604051630103019560e11b815260040160405180910390fd5b60fb5482036111395750506040805160608101825260fb5481526000602082015260019181019190915290565b600082815260fc60205260408120546001600160801b0316908190036111935760408051606080820183526000808352602080840182905292840181905283519182018452808252918101829052918201525b9392505050565b60fd546000906111ac6001600160801b038416426137ad565b604080516060810182528781526001600160801b03909516602086015291101590830152509050919050565b60006001600160a01b037f00000000000000000000000000000000000000000000000000000000000000001630036112225760405162461bcd60e51b81526004016105ed906133c7565b7f00000000000000000000000000000000000000000000000000000000000000006001600160a01b03166112546125ef565b6001600160a01b03161461127a5760405162461bcd60e51b81526004016105ed90613413565b60c95460ff1661129d57604051630103019560e11b815260040160405180910390fd5b5060fd5490565b6001600160a01b037f00000000000000000000000000000000000000000000000000000000000000001630036112ec5760405162461bcd60e51b81526004016105ed906133c7565b7f00000000000000000000000000000000000000000000000000000000000000006001600160a01b031661131e6125ef565b6001600160a01b0316146113445760405162461bcd60e51b81526004016105ed90613413565b60c95460ff1661136757604051630103019560e11b815260040160405180910390fd5b61136f61260b565b61137884610cad565b61139a5760008460405163af1e188960e01b81526004016105ed92919061358d565b60fb5484146113ca5760fb5460405163542fced960e11b81526105ed918691600401918252602082015260400190565b6113d381610cad565b6113f55760028160405163af1e188960e01b81526004016105ed92919061358d565b6113ff8383612af6565b600061140d858386866105a3565b9050600061141a826126ff565b60fe546040805180820182528a3581526020808c01358183015282516080810184528c8401358185019081526060808f013590830152815283518085019094529495506001600160a01b03909316936343753b4d9391929091820190808d6004602002013581526020018d6005600881106114975761149761345f565b60200201359052905260408051808201909152808c6006602002013581526020018c6007600881106114cb576114cb61345f565b60200201358152506040518060200160405280878152506040518563ffffffff1660e01b8152600401611501949392919061360a565b602060405180830381865afa92505050801561153a575060408051601f3d908101601f1916820190925261153791810190613667565b60015b61154657610b25613684565b8061156457604051631e716a8b60e01b815260040160405180910390fd5b60fb849055600087815260fc6020526040902080546001600160801b031916426001600160801b0316179055610bcd612731565b6001600160a01b037f00000000000000000000000000000000000000000000000000000000000000001630036115e05760405162461bcd60e51b81526004016105ed906133c7565b7f00000000000000000000000000000000000000000000000000000000000000006001600160a01b03166116126125ef565b6001600160a01b0316146116385760405162461bcd60e51b81526004016105ed90613413565b611641826128de565b61164d82826001612986565b5050565b6000306001600160a01b037f000000000000000000000000000000000000000000000000000000000000000016146116f15760405162461bcd60e51b815260206004820152603860248201527f555550535570677261646561626c653a206d757374206e6f742062652063616c60448201527f6c6564207468726f7567682064656c656761746563616c6c000000000000000060648201526084016105ed565b50600080516020614d3683398151915290565b6001600160a01b037f000000000000000000000000000000000000000000000000000000000000000016300361174c5760405162461bcd60e51b81526004016105ed906133c7565b7f00000000000000000000000000000000000000000000000000000000000000006001600160a01b031661177e6125ef565b6001600160a01b0316146117a45760405162461bcd60e51b81526004016105ed90613413565b60c95460ff166117c757604051630103019560e11b815260040160405180910390fd5b6117cf61260b565b61010154600160a01b900460ff166117f757610101805460ff60a01b1916600160a01b179055565b60405163963a8d4f60e01b815260040160405180910390fd5b565b61181a61260b565b6118106000612ba3565b6001600160a01b037f000000000000000000000000000000000000000000000000000000000000000016300361186c5760405162461bcd60e51b81526004016105ed906133c7565b7f00000000000000000000000000000000000000000000000000000000000000006001600160a01b031661189e6125ef565b6001600160a01b0316146118c45760405162461bcd60e51b81526004016105ed90613413565b60c95460ff166118e757604051630103019560e11b815260040160405180910390fd5b6118ef61260b565b6001600160a01b03811661191657604051632d566eef60e11b815260040160405180910390fd5b61010154600160a01b900460ff1661193057611930611704565b61010180546001600160a01b0319166001600160a01b0392909216919091179055565b60006001600160a01b037f000000000000000000000000000000000000000000000000000000000000000016300361199d5760405162461bcd60e51b81526004016105ed906133c7565b7f00000000000000000000000000000000000000000000000000000000000000006001600160a01b03166119cf6125ef565b6001600160a01b0316146119f55760405162461bcd60e51b81526004016105ed90613413565b60c95460ff16611a1857604051630103019560e11b815260040160405180910390fd5b60fb548214611a9457600082815260fc602052604090205460fd546001600160801b0390911690611a4982426137ad565b1115611a6857604051631d739acf60e11b815260040160405180910390fd5b806001600160801b0316600003611a925760405163ddae3b7160e01b815260040160405180910390fd5b505b506001919050565b60006001600160a01b037f0000000000000000000000000000000000000000000000000000000000000000163003611ae65760405162461bcd60e51b81526004016105ed906133c7565b7f00000000000000000000000000000000000000000000000000000000000000006001600160a01b0316611b186125ef565b6001600160a01b031614611b3e5760405162461bcd60e51b81526004016105ed90613413565b60c95460ff16611b6157604051630103019560e11b815260040160405180910390fd5b600086868686866040516020016107569594939291906137c4565b6001600160a01b037f0000000000000000000000000000000000000000000000000000000000000000163003611bc45760405162461bcd60e51b81526004016105ed906133c7565b7f00000000000000000000000000000000000000000000000000000000000000006001600160a01b0316611bf66125ef565b6001600160a01b031614611c1c5760405162461bcd60e51b81526004016105ed90613413565b60c95460ff16611c3f57604051630103019560e11b815260040160405180910390fd5b611c4761260b565b61010154600160a01b900460ff1615611c6a57610101805460ff60a01b19169055565b6040516331ae429160e21b815260040160405180910390fd5b6001600160a01b037f0000000000000000000000000000000000000000000000000000000000000000163003611ccb5760405162461bcd60e51b81526004016105ed906133c7565b7f00000000000000000000000000000000000000000000000000000000000000006001600160a01b0316611cfd6125ef565b6001600160a01b031614611d235760405162461bcd60e51b81526004016105ed90613413565b60c95460ff16611d4657604051630103019560e11b815260040160405180910390fd5b611d4e61260b565b611d588383612bf5565b611d6585858585856112a4565b5050505050565b60006001600160a01b037f0000000000000000000000000000000000000000000000000000000000000000163003611db65760405162461bcd60e51b81526004016105ed906133c7565b7f00000000000000000000000000000000000000000000000000000000000000006001600160a01b0316611de86125ef565b6001600160a01b031614611e0e5760405162461bcd60e51b81526004016105ed90613413565b60c95460ff16611e3157604051630103019560e11b815260040160405180910390fd5b50610101546001600160a01b031690565b6001600160a01b037f0000000000000000000000000000000000000000000000000000000000000000163003611e8a5760405162461bcd60e51b81526004016105ed906133c7565b7f00000000000000000000000000000000000000000000000000000000000000006001600160a01b0316611ebc6125ef565b6001600160a01b031614611ee25760405162461bcd60e51b81526004016105ed90613413565b60c95460ff16611f0557604051630103019560e11b815260040160405180910390fd5b611f0d61260b565b60fe80546001600160a01b0319166001600160a01b0392909216919091179055565b6001600160a01b037f0000000000000000000000000000000000000000000000000000000000000000163003611f775760405162461bcd60e51b81526004016105ed906133c7565b7f00000000000000000000000000000000000000000000000000000000000000006001600160a01b0316611fa96125ef565b6001600160a01b031614611fcf5760405162461bcd60e51b81526004016105ed90613413565b60c95460ff16611ff257604051630103019560e11b815260040160405180910390fd5b611ffa61260b565b8060000361204a5760405162461bcd60e51b815260206004820152601b60248201527f4578706972792074696d652063616e6e6f74206265207a65726f2e000000000060448201526064016105ed565b60fd55565b60006001600160a01b037f00000000000000000000000000000000000000000000000000000000000000001630036120995760405162461bcd60e51b81526004016105ed906133c7565b7f00000000000000000000000000000000000000000000000000000000000000006001600160a01b03166120cb6125ef565b6001600160a01b0316146120f15760405162461bcd60e51b81526004016105ed90613413565b60c95460ff1661211457604051630103019560e11b815260040160405180910390fd5b5060fb5490565b60006001600160a01b037f00000000000000000000000000000000000000000000000000000000000000001630036121655760405162461bcd60e51b81526004016105ed906133c7565b7f00000000000000000000000000000000000000000000000000000000000000006001600160a01b03166121976125ef565b6001600160a01b0316146121bd5760405162461bcd60e51b81526004016105ed90613413565b60c95460ff166121e057604051630103019560e11b815260040160405180910390fd5b5060fe546001600160a01b031690565b600054600190610100900460ff16158015612212575060005460ff8083169116105b6122755760405162461bcd60e51b815260206004820152602e60248201527f496e697469616c697a61626c653a20636f6e747261637420697320616c72656160448201526d191e481a5b9a5d1a585b1a5e995960921b60648201526084016105ed565b6000805461ffff191660ff831617610100179055612291612c65565b610e1060fd556040516000906122a690612f71565b604051809103906000f0801580156122c2573d6000803e3d6000fd5b5060fb87905560fe80546001600160a01b038089166001600160a01b03199283161790925560ff80549284169290911691909117905560405190915061230790612f7e565b604051809103906000f080158015612323573d6000803e3d6000fd5b5061010080546001600160a01b0319166001600160a01b0392831617905561010180549185166001600160a81b031990921691909117600160a01b8615150217905561236d612c9c565b506000805461ff001916905560405160ff821681527f7f26b83ff96e1f2b6a682f133852f6798a09c465da95921460cefb38474024989060200160405180910390a15050505050565b60006001600160a01b037f00000000000000000000000000000000000000000000000000000000000000001630036124005760405162461bcd60e51b81526004016105ed906133c7565b7f00000000000000000000000000000000000000000000000000000000000000006001600160a01b03166124326125ef565b6001600160a01b0316146124585760405162461bcd60e51b81526004016105ed90613413565b60c95460ff1661247b57604051630103019560e11b815260040160405180910390fd5b50610100546001600160a01b031690565b61249461260b565b6001600160a01b0381166124f95760405162461bcd60e51b815260206004820152602660248201527f4f776e61626c653a206e6577206f776e657220697320746865207a65726f206160448201526564647265737360d01b60648201526084016105ed565b61102981612ba3565b6001600160a01b037f000000000000000000000000000000000000000000000000000000000000000016300361254a5760405162461bcd60e51b81526004016105ed906133c7565b7f00000000000000000000000000000000000000000000000000000000000000006001600160a01b031661257c6125ef565b6001600160a01b0316146125a25760405162461bcd60e51b81526004016105ed90613413565b60c95460ff166125c557604051630103019560e11b815260040160405180910390fd5b6125cd61260b565b60ff80546001600160a01b0319166001600160a01b0392909216919091179055565b600080516020614d36833981519152546001600160a01b031690565b6033546001600160a01b031633146118105760405162461bcd60e51b815260206004820181905260248201527f4f776e61626c653a2063616c6c6572206973206e6f7420746865206f776e657260448201526064016105ed565b6000805b828110156126f95760008484838181106126855761268561345f565b90506020020135905082801561269a57508015155b156126bb5760405163018f31f560e51b8152600481018390526024016105ed565b6126c481610cad565b6126e65760018160405163af1e188960e01b81526004016105ed92919061358d565b1591506126f281613547565b9050612669565b50505050565b600061272b7f30644e72e131a029b85045b68181585d2833e84879b9709143e1f593f000000183613818565b92915050565b6001600160a01b037f00000000000000000000000000000000000000000000000000000000000000001630036127795760405162461bcd60e51b81526004016105ed906133c7565b7f00000000000000000000000000000000000000000000000000000000000000006001600160a01b03166127ab6125ef565b6001600160a01b0316146127d15760405162461bcd60e51b81526004016105ed90613413565b60c95460ff166127f457604051630103019560e11b815260040160405180910390fd5b61010154600160a01b900460ff1680156128195750610101546001600160a01b031615155b15611810576101015460fb546040516000926001600160a01b0316916128459160240190815260200190565b60408051601f198184030181529181526020820180516001600160e01b031663393170cf60e01b1790525161287a919061383a565b6000604051808303816000865af19150503d80600081146128b7576040519150601f19603f3d011682016040523d82523d6000602084013e6128bc565b606091505b50509050806110295760405163ca27883560e01b815260040160405180910390fd5b6001600160a01b037f00000000000000000000000000000000000000000000000000000000000000001630036129265760405162461bcd60e51b81526004016105ed906133c7565b7f00000000000000000000000000000000000000000000000000000000000000006001600160a01b03166129586125ef565b6001600160a01b03161461297e5760405162461bcd60e51b81526004016105ed90613413565b61102961260b565b7f4910fdfa16fed3260ed0e7147f7cc6da11a60208b5b9406d12a635614ffd91435460ff16156129be576129b983612cd2565b505050565b826001600160a01b03166352d1902d6040518163ffffffff1660e01b8152600401602060405180830381865afa925050508015612a18575060408051601f3d908101601f19168201909252612a1591810190613856565b60015b612a7b5760405162461bcd60e51b815260206004820152602e60248201527f45524331393637557067726164653a206e657720696d706c656d656e7461746960448201526d6f6e206973206e6f74205555505360901b60648201526084016105ed565b600080516020614d368339815191528114612aea5760405162461bcd60e51b815260206004820152602960248201527f45524331393637557067726164653a20756e737570706f727465642070726f786044820152681a58589b195555525160ba1b60648201526084016105ed565b506129b9838383612d6e565b60005b818110156129b9576000838383818110612b1557612b1561345f565b905060600201803603810190612b2b9190613475565b9050612b3a8160200151610cad565b612b5f57602081015160405163af1e188960e01b81526105ed9160019160040161358d565b612b6c8160400151610cad565b612b92576001816040015160405163af1e188960e01b81526004016105ed92919061358d565b50612b9c81613547565b9050612af9565b603380546001600160a01b038381166001600160a01b0319831681179093556040519116919082907f8be0079c531659141344cd1fd0a4f28419497f9722a3daafe3b4186f6b6457e090600090a35050565b60005b818110156129b9576000838383818110612c1457612c1461345f565b905060600201803603810190612c2a9190613475565b90508060400151600014612c545760405163018f31f560e51b8152600481018390526024016105ed565b50612c5e81613547565b9050612bf8565b600054610100900460ff16612c8c5760405162461bcd60e51b81526004016105ed9061386f565b612c94612d93565b611810612dc2565b600054610100900460ff16612cc35760405162461bcd60e51b81526004016105ed9061386f565b60c9805460ff19166001179055565b6001600160a01b0381163b612d3f5760405162461bcd60e51b815260206004820152602d60248201527f455243313936373a206e657720696d706c656d656e746174696f6e206973206e60448201526c1bdd08184818dbdb9d1c9858dd609a1b60648201526084016105ed565b600080516020614d3683398151915280546001600160a01b0319166001600160a01b0392909216919091179055565b612d7783612de9565b600082511180612d845750805b156129b9576126f98383612e29565b600054610100900460ff16612dba5760405162461bcd60e51b81526004016105ed9061386f565b611810612f1d565b600054610100900460ff166118105760405162461bcd60e51b81526004016105ed9061386f565b612df281612cd2565b6040516001600160a01b038216907fbc7cd75a20ee27fd9adebab32041f755214dbc6bffa90cc0225b39da2e5c2d3b90600090a250565b60606001600160a01b0383163b612e915760405162461bcd60e51b815260206004820152602660248201527f416464726573733a2064656c65676174652063616c6c20746f206e6f6e2d636f6044820152651b9d1c9858dd60d21b60648201526084016105ed565b600080846001600160a01b031684604051612eac919061383a565b600060405180830381855af49150503d8060008114612ee7576040519150601f19603f3d011682016040523d82523d6000602084013e612eec565b606091505b5091509150612f148282604051806060016040528060278152602001614d5660279139612f4d565b95945050505050565b600054610100900460ff16612f445760405162461bcd60e51b81526004016105ed9061386f565b61181033612ba3565b60608315612f5c57508161118c565b61118c8383815115610b445781518083602001fd5b6102e9806138bb83390190565b61119280613ba483390190565b60008083601f840112612f9d57600080fd5b50813567ffffffffffffffff811115612fb557600080fd5b602083019150836020606083028501011115612fd057600080fd5b9250929050565b60008060008060608587031215612fed57600080fd5b8435935060208501359250604085013567ffffffffffffffff81111561301257600080fd5b61301e87828801612f8b565b95989497509550505050565b6001600160a01b038116811461102957600080fd5b60006020828403121561305157600080fd5b813561118c8161302a565b80610100810183101561272b57600080fd5b803563ffffffff81168114610d9757600080fd5b60008083601f84011261309457600080fd5b50813567ffffffffffffffff8111156130ac57600080fd5b6020830191508360208260051b8501011115612fd057600080fd5b60008060008060008061018087890312156130e157600080fd5b6130eb888861305c565b95506101008701359450613102610120880161306e565b935061014087013567ffffffffffffffff81111561311f57600080fd5b61312b89828a01613082565b979a969950949794969561016090950135949350505050565b60006020828403121561315657600080fd5b5035919050565b6000806000806000610180868803121561317657600080fd5b8535945060208601359350604086013592506060860135915061319c876080880161305c565b90509295509295909350565b600080600080600061016086880312156131c157600080fd5b6131cb878761305c565b9450610100860135935061012086013567ffffffffffffffff8111156131f057600080fd5b6131fc88828901612f8b565b9699959850966101400135949350505050565b634e487b7160e01b600052604160045260246000fd5b601f8201601f1916810167ffffffffffffffff8111828210171561324b5761324b61320f565b6040525050565b6000806040838503121561326557600080fd5b82356132708161302a565b915060208381013567ffffffffffffffff8082111561328e57600080fd5b818601915086601f8301126132a257600080fd5b8135818111156132b4576132b461320f565b60405191506132cc601f8201601f1916850183613225565b80825287848285010111156132e057600080fd5b80848401858401376000848284010152508093505050509250929050565b60008060008060006080868803121561331657600080fd5b61331f8661306e565b94506020860135935060408601359250606086013567ffffffffffffffff81111561334957600080fd5b61335588828901613082565b969995985093965092949392505050565b801515811461102957600080fd5b6000806000806080858703121561338a57600080fd5b84359350602085013561339c8161302a565b925060408501356133ac81613366565b915060608501356133bc8161302a565b939692955090935050565b6020808252602c908201527f46756e6374696f6e206d7573742062652063616c6c6564207468726f7567682060408201526b19195b1959d85d1958d85b1b60a21b606082015260800190565b6020808252602c908201527f46756e6374696f6e206d7573742062652063616c6c6564207468726f7567682060408201526b6163746976652070726f787960a01b606082015260800190565b634e487b7160e01b600052603260045260246000fd5b60006060828403121561348757600080fd5b6040516060810181811067ffffffffffffffff821117156134aa576134aa61320f565b6040526134b68361306e565b815260208301356020820152604083013560408201528091505092915050565b60005b838110156134f15781810151838201526020016134d9565b838111156126f95750506000910152565b600083516135148184602088016134d6565b8351908301906135288183602088016134d6565b01949350505050565b634e487b7160e01b600052601160045260246000fd5b60006001820161355957613559613531565b5060010190565b8381528260208201526000825161357e8160408501602087016134d6565b91909101604001949350505050565b60408101600384106135af57634e487b7160e01b600052602160045260246000fd5b9281526020015290565b8060005b60028110156126f95781518452602093840193909101906001016135bd565b8060005b60028110156126f9576135f48483516135b9565b60409390930192602091909101906001016135e0565b610120810161361982876135b9565b61362660408301866135dc565b61363360c08301856135b9565b61010082018360005b600181101561365b57815183526020928301929091019060010161363c565b50505095945050505050565b60006020828403121561367957600080fd5b815161118c81613366565b600060033d1115610caa5760046000803e5060005160e01c90565b600060443d10156136ad5790565b6040516003193d81016004833e81513d67ffffffffffffffff81602484011181841117156136dd57505050505090565b82850191508151818111156136f55750505050505090565b843d870101602082850101111561370f5750505050505090565b61371e60208286010187613225565b509095945050505050565b60208152600082518060208401526137488160408501602087016134d6565b601f01601f19169190910160400192915050565b610180810161376b82876135b9565b61377860408301866135dc565b61378560c08301856135b9565b61010082018360005b600481101561365b57815183526020928301929091019060010161378e565b6000828210156137bf576137bf613531565b500390565b60e086901b6001600160e01b0319168152600481018590526024810184905260006001600160fb1b038311156137f957600080fd5b8260051b80856044850137600092016044019182525095945050505050565b60008261383557634e487b7160e01b600052601260045260246000fd5b500690565b6000825161384c8184602087016134d6565b9190910192915050565b60006020828403121561386857600080fd5b5051919050565b6020808252602b908201527f496e697469616c697a61626c653a20636f6e7472616374206973206e6f74206960408201526a6e697469616c697a696e6760a81b60608201526080019056fe608060405234801561001057600080fd5b506102c9806100206000396000f3fe608060405234801561001057600080fd5b506004361061002b5760003560e01c806343753b4d14610030575b600080fd5b61004361003e3660046101b5565b610057565b604051901515815260200160405180910390f35b600061006161009a565b945061006b6100b8565b935061007561009a565b925061007f6100e5565b9150604051639ba6061b60e01b815260040160405180910390fd5b60405180604001604052806002906020820280368337509192915050565b60405180604001604052806002905b6100cf61009a565b8152602001906001900390816100c75790505090565b60405180602001604052806001906020820280368337509192915050565b634e487b7160e01b600052604160045260246000fd5b6040805190810167ffffffffffffffff8111828210171561013c5761013c610103565b60405290565b6040516020810167ffffffffffffffff8111828210171561013c5761013c610103565b600082601f83011261017657600080fd5b61017e610119565b80604084018581111561019057600080fd5b845b818110156101aa578035845260209384019301610192565b509095945050505050565b6000806000806101208086880312156101cd57600080fd5b6101d78787610165565b9450604087605f8801126101ea57600080fd5b6101f2610119565b8060c089018a81111561020457600080fd5b838a015b818110156102295761021a8c82610165565b84526020909301928401610208565b508197506102378b82610165565b9650505050508661011f87011261024d57600080fd5b610255610142565b90860190808883111561026757600080fd5b61010088015b8381101561028557803583526020928301920161026d565b50959894975092955050505056fea264697066735822122046eb94583f63e840fb59550ab0774c803f93d1f42217aefdbaa61d6cc3595aa764736f6c634300080f0033608060405234801561001057600080fd5b50611172806100206000396000f3fe608060405234801561001057600080fd5b506004361061002b5760003560e01c80635fe8c13b14610030575b600080fd5b61004361003e366004610fcb565b610045565b005b61004d610ddf565b6040805180820182528651815260208088015181830152908352815160808101835286515181840190815287518301516060830152815282518084018452878301805151825251830151818401528183015283820152815180830183528551815285820151918101919091529082015260006100c76103c0565b6080810151519091506100dc600460016110d5565b146100fa576040516309bde33960e01b815260040160405180910390fd5b60008160800151600081518110610113576101136110a9565b6020026020010151905061016581610160846080015160018151811061013b5761013b6110a9565b602002602001015187600060048110610156576101566110a9565b60200201516108c0565b610969565b90506101a0816101608460800151600281518110610185576101856110a9565b602002602001015187600160048110610156576101566110a9565b90506101db8161016084608001516003815181106101c0576101c06110a9565b602002602001015187600260048110610156576101566110a9565b90506102168161016084608001516004815181106101fb576101fb6110a9565b602002602001015187600360048110610156576101566110a9565b60408051600480825260a0820190925291925060009190816020015b604080518082019091526000808252602082015281526020019060019003908161023257505060408051600480825260a0820190925291925060009190602082015b61027c610e30565b815260200190600190039081610274575050855190915061029c906109d5565b826000815181106102af576102af6110a9565b60200260200101819052508460200151816000815181106102d2576102d26110a9565b60200260200101819052508360000151826001815181106102f5576102f56110a9565b6020026020010181905250836020015181600181518110610318576103186110a9565b60200260200101819052508282600281518110610337576103376110a9565b602002602001018190525083604001518160028151811061035a5761035a6110a9565b602002602001018190525084604001518260038151811061037d5761037d6110a9565b60200260200101819052508360600151816003815181106103a0576103a06110a9565b60200260200101819052506103b58282610ad7565b505050505050505050565b6103c8610e50565b6040805180820182527f2d4d9aa7e302d9df41749d5507949d05dbea33fbb16c643b22f599a2be6df2e281527f14bedd503c37ceb061d8ec60209fe345ce89830a19230301f076caff004d19266020808301919091529083528151608080820184527f0967032fcbf776d1afc985f88877f182d38480a653f2decaa9794cbc3bf3060c8285019081527f0e187847ad4c798374d0d6732bf501847dd68bc0e071241e0213bc7fc13db7ab606080850191909152908352845180860186527f304cfbd1e08a704a99f5e847d93f8c3caafddec46b7a0d379da69a4d112346a781527f1739c1b1a457a8c7313123d24d2f9192f896b7c63eea05a9d57f06547ad0cec8818601528385015285840192909252835180820185527f198e9393920d483a7260bfb731fb5d25f1aa493335a9e71297e485b7aef312c28186019081527f1800deef121f1e76426a00665e5c4479674322d4f75edadd46debd5cd992f6ed828501528152845180860186527f090689d0585ff075ec9e99ad690c3395bc4b313370b38ef355acdadcd122975b81527f12c85ea5db8c6deb4aab71808dcb408fe3d1e7690c43d37b4ce6cc0166fa7daa818601528185015285850152835190810184527f1bdb443ce61ebcf93daed4215a57e1cec90ca64973023e31197a112e8cee72f68185019081527f117e26c4235f42625b3404f2973059814ff260dba7176d7aae910f493a8e1fb5828401528152835180850185527f196e247a12f580e36894f256f0c122393489b4c213b3e913250feee806ca45ff81527f2fedff4e4bbcbf9f1c56e28a060d50eef5f54e2aab897f6b465acd2ed005ae918185015281840152908401528151600580825260c08201909352919082015b604080518082019091526000808252602082015281526020019060019003908161064357505060808201908152604080518082019091527f2c097b31a897227a6f64c9fc31d9a8fc421b0d8b8207f92532b464e431e61db881527f0fcf6d89d77d5123a43dfb23efb9c929c28c148ca82c794057864b8e66903c546020820152905180516000906106d6576106d66110a9565b602002602001018190525060405180604001604052807f0186dae5999acfe2cda6fa7a157ae726afda7c6f57b00ea0aa6c2c23bf83838881526020017f2f078608f710c45b60d23716c58e106d8c7a1c6db28119defffc413e074f8716815250816080015160018151811061074d5761074d6110a9565b602002602001018190525060405180604001604052807f2464c1784bda2cbfb51e5ab87cf7eb2764ad81f7038152bdbbb07d404b49aa3781526020017f0638b273e4ee33e03e42ca6c7de1ea7043dbdcaa48661864de644d91c6b4821f81525081608001516002815181106107c4576107c46110a9565b602002602001018190525060405180604001604052807f098ce8b5289ef791db34b68b9e0043ab7bf25306d83a9f0ce74396b8a69c57bb81526020017f1ec6f7a81748f3d2c2b87610d747ca72045ac1530e226f00710630d41aad7e26815250816080015160038151811061083b5761083b6110a9565b602002602001018190525060405180604001604052807f07dbf682cc528d3ff763fa576d05db50e023921728119ef66f880b6adae01cbe81526020017f0d287dcd9318207576eaa871e7b3308f613d9df7865059cdbc9f66fdef342dc681525081608001516004815181106108b2576108b26110a9565b602002602001018190525090565b60408051808201909152600080825260208201527f30644e72e131a029b85045b68181585d2833e84879b9709143e1f593f00000018210610914576040516309bde33960e01b815260040160405180910390fd5b61091c610ea1565b835181526020808501519082015260408101839052600060608360808460076107d05a03fa905080610961576040516309bde33960e01b815260040160405180910390fd5b505092915050565b6040805180820190915260008082526020820152610985610ebf565b8351815260208085015181830152835160408301528301516060808301919091526000908360c08460066107d05a03fa905080610961576040516309bde33960e01b815260040160405180910390fd5b604080518082019091526000808252602082015281511580156109fa57506020820151155b15610a18575050604080518082019091526000808252602082015290565b81517f30644e72e131a029b85045b68181585d97816a916871ca8d3c208c16d87cfd47111580610a6c57507f30644e72e131a029b85045b68181585d97816a916871ca8d3c208c16d87cfd47826020015110155b15610a8a576040516309bde33960e01b815260040160405180910390fd5b60405180604001604052808360000151815260200183602001517f30644e72e131a029b85045b68181585d97816a916871ca8d3c208c16d87cfd47610acf91906110ed565b905292915050565b8051825114610af9576040516309bde33960e01b815260040160405180910390fd5b81516000610b08826006611104565b905060008167ffffffffffffffff811115610b2557610b25610f19565b604051908082528060200260200182016040528015610b4e578160200160208202803683370190505b50905060005b83811015610d8957858181518110610b6e57610b6e6110a9565b60200260200101516000015182826006610b889190611104565b610b939060006110d5565b81518110610ba357610ba36110a9565b602002602001018181525050858181518110610bc157610bc16110a9565b60200260200101516020015182826006610bdb9190611104565b610be69060016110d5565b81518110610bf657610bf66110a9565b602002602001018181525050848181518110610c1457610c146110a9565b6020908102919091010151515182610c2d836006611104565b610c389060026110d5565b81518110610c4857610c486110a9565b602002602001018181525050848181518110610c6657610c666110a9565b60209081029190910181015151015182610c81836006611104565b610c8c9060036110d5565b81518110610c9c57610c9c6110a9565b602002602001018181525050848181518110610cba57610cba6110a9565b602002602001015160200151600060028110610cd857610cd86110a9565b602002015182610ce9836006611104565b610cf49060046110d5565b81518110610d0457610d046110a9565b602002602001018181525050848181518110610d2257610d226110a9565b602002602001015160200151600160028110610d4057610d406110a9565b602002015182610d51836006611104565b610d5c9060056110d5565b81518110610d6c57610d6c6110a9565b602090810291909101015280610d8181611123565b915050610b54565b50610d92610edd565b6000602082602086026020860160086107d05a03fa9050801580610db857508151600114155b15610dd6576040516309bde33960e01b815260040160405180910390fd5b50505050505050565b6040805160a081019091526000606082018181526080830191909152815260208101610e09610e30565b8152602001610e2b604051806040016040528060008152602001600081525090565b905290565b6040518060400160405280610e43610efb565b8152602001610e2b610efb565b6040805160e08101909152600060a0820181815260c0830191909152815260208101610e7a610e30565b8152602001610e87610e30565b8152602001610e94610e30565b8152602001606081525090565b60405180606001604052806003906020820280368337509192915050565b60405180608001604052806004906020820280368337509192915050565b60405180602001604052806001906020820280368337509192915050565b60405180604001604052806002906020820280368337509192915050565b634e487b7160e01b600052604160045260246000fd5b6040805190810167ffffffffffffffff81118282101715610f5257610f52610f19565b60405290565b6040516080810167ffffffffffffffff81118282101715610f5257610f52610f19565b600082601f830112610f8c57600080fd5b610f94610f2f565b806040840185811115610fa657600080fd5b845b81811015610fc0578035845260209384019301610fa8565b509095945050505050565b600080600080610180808688031215610fe357600080fd5b610fed8787610f7b565b9450604087605f88011261100057600080fd5b611008610f2f565b8060c089018a81111561101a57600080fd5b838a015b8181101561103f576110308c82610f7b565b8452602090930192840161101e565b5081975061104d8b82610f7b565b9650505050508661011f87011261106357600080fd5b61106b610f58565b90860190808883111561107d57600080fd5b61010088015b8381101561109b578035835260209283019201611083565b509598949750929550505050565b634e487b7160e01b600052603260045260246000fd5b634e487b7160e01b600052601160045260246000fd5b600082198211156110e8576110e86110bf565b500190565b6000828210156110ff576110ff6110bf565b500390565b600081600019048311821515161561111e5761111e6110bf565b500290565b600060018201611135576111356110bf565b506001019056fea264697066735822122009626aa4e02dd8bfe1a95c26a1920e8766568ddd71c2f8d345a7fbac349e360e64736f6c634300080f0033360894a13ba1a3210667c828492db98dca3e2076cc3735a920a3ca505d382bbc416464726573733a206c6f772d6c6576656c2064656c65676174652063616c6c206661696c6564a264697066735822122091fd3f1ae18ae9bdf2b32492ffbf89d254a314b139edc4f4382defe41be49b9464736f6c634300080f0033",
        "linkReferences": {}
    },
    "methodIdentifiers": {
        "NO_SUCH_ROOT()": "561f204b",
        "calculateIdentityRegistrationInputHash(uint32,uint256,uint256,uint256[])": "8c76a909",
        "calculateIdentityUpdateInputHash(uint256,uint256,(uint32,uint256,uint256)[])": "09edcb9c",
        "checkValidRoot(uint256)": "8b6c56c6",
        "disableStateBridge()": "a26b810e",
        "enableStateBridge()": "61ea6a8d",
        "getIdentityUpdateVerifierAddress()": "2c347ed9",
        "getRegisterIdentitiesVerifierAddress()": "d9b3c773",
        "getRootHistoryExpiry()": "43f974cb",
        "getSemaphoreVerifierAddress()": "f2038f95",
        "initialize(uint256,address,bool,address)": "ec126b6f",
        "isInputInReducedForm(uint256)": "34923152",
        "latestRoot()": "d7b0fef1",
        "owner()": "8da5cb5b",
        "proxiableUUID()": "52d1902d",
        "queryRoot(uint256)": "3f7c178d",
        "registerIdentities(uint256[8],uint256,uint32,uint256[],uint256)": "2217b211",
        "removeIdentities(uint256[8],uint256,(uint32,uint256,uint256)[],uint256)": "b1390908",
        "renounceOwnership()": "715018a6",
        "setIdentityUpdateVerifier(address)": "f97033f4",
        "setRegisterIdentitiesVerifier(address)": "c37e6805",
        "setRootHistoryExpiry(uint256)": "c70aa727",
        "setSemaphoreVerifier(address)": "0e3a12f3",
        "setStateBridgeProxyAddress(address)": "8939472e",
        "stateBridgeProxyAddress()": "b6621a3d",
        "transferOwnership(address)": "f2fde38b",
        "updateIdentities(uint256[8],uint256,(uint32,uint256,uint256)[],uint256)": "4bc511e6",
        "upgradeTo(address)": "3659cfe6",
        "upgradeToAndCall(address,bytes)": "4f1ef286",
        "verifyProof(uint256,uint256,uint256,uint256,uint256[8])": "354ca120"
    },
    "id": 24
}