{
  "abi": [
    {
      "inputs": [],
      "stateMutability": "nonpayable",
      "type": "constructor"
    },
    {
      "inputs": [],
      "name": "ExpiredRoot",
      "type": "error"
    },
    {
      "inputs": [],
      "name": "ImplementationNotInitialized",
      "type": "error"
    },
    {
      "inputs": [
        {
          "internalType": "uint256",
          "name": "index",
          "type": "uint256"
        }
      ],
      "name": "InvalidCommitment",
      "type": "error"
    },
    {
      "inputs": [],
      "name": "InvalidStateBridgeProxyAddress",
      "type": "error"
    },
    {
      "inputs": [],
      "name": "NonExistentRoot",
      "type": "error"
    },
    {
      "inputs": [
        {
          "internalType": "uint256",
          "name": "providedRoot",
          "type": "uint256"
        },
        {
          "internalType": "uint256",
          "name": "latestRoot",
          "type": "uint256"
        }
      ],
      "name": "NotLatestRoot",
      "type": "error"
    },
    {
      "inputs": [],
      "name": "ProofValidationFailure",
      "type": "error"
    },
    {
      "inputs": [],
      "name": "StateBridgeAlreadyDisabled",
      "type": "error"
    },
    {
      "inputs": [],
      "name": "StateBridgeAlreadyEnabled",
      "type": "error"
    },
    {
      "inputs": [],
      "name": "StateBridgeProxySendRootMultichainFailure",
      "type": "error"
    },
    {
      "inputs": [
        {
          "internalType": "address",
          "name": "user",
          "type": "address"
        }
      ],
      "name": "Unauthorized",
      "type": "error"
    },
    {
      "inputs": [
        {
          "internalType": "enum WorldIDIdentityManagerImplV1.UnreducedElementType",
          "name": "elementType",
          "type": "uint8"
        },
        {
          "internalType": "uint256",
          "name": "element",
          "type": "uint256"
        }
      ],
      "name": "UnreducedElement",
      "type": "error"
    },
    {
      "anonymous": false,
      "inputs": [
        {
          "indexed": false,
          "internalType": "address",
          "name": "previousAdmin",
          "type": "address"
        },
        {
          "indexed": false,
          "internalType": "address",
          "name": "newAdmin",
          "type": "address"
        }
      ],
      "name": "AdminChanged",
      "type": "event"
    },
    {
      "anonymous": false,
      "inputs": [
        {
          "indexed": true,
          "internalType": "address",
          "name": "beacon",
          "type": "address"
        }
      ],
      "name": "BeaconUpgraded",
      "type": "event"
    },
    {
      "anonymous": false,
      "inputs": [
        {
          "indexed": false,
          "internalType": "uint8",
          "name": "version",
          "type": "uint8"
        }
      ],
      "name": "Initialized",
      "type": "event"
    },
    {
      "anonymous": false,
      "inputs": [
        {
          "indexed": true,
          "internalType": "address",
          "name": "previousOwner",
          "type": "address"
        },
        {
          "indexed": true,
          "internalType": "address",
          "name": "newOwner",
          "type": "address"
        }
      ],
      "name": "OwnershipTransferred",
      "type": "event"
    },
    {
      "anonymous": false,
      "inputs": [
        {
          "indexed": true,
          "internalType": "address",
          "name": "implementation",
          "type": "address"
        }
      ],
      "name": "Upgraded",
      "type": "event"
    },
    {
      "inputs": [],
      "name": "NO_SUCH_ROOT",
      "outputs": [
        {
          "components": [
            {
              "internalType": "uint256",
              "name": "root",
              "type": "uint256"
            },
            {
              "internalType": "uint128",
              "name": "supersededTimestamp",
              "type": "uint128"
            },
            {
              "internalType": "bool",
              "name": "isValid",
              "type": "bool"
            }
          ],
          "internalType": "struct WorldIDIdentityManagerImplV1.RootInfo",
          "name": "rootInfo",
          "type": "tuple"
        }
      ],
      "stateMutability": "pure",
      "type": "function"
    },
    {
      "inputs": [
        {
          "internalType": "uint32",
          "name": "startIndex",
          "type": "uint32"
        },
        {
          "internalType": "uint256",
          "name": "preRoot",
          "type": "uint256"
        },
        {
          "internalType": "uint256",
          "name": "postRoot",
          "type": "uint256"
        },
        {
          "internalType": "uint256[]",
          "name": "identityCommitments",
          "type": "uint256[]"
        }
      ],
      "name": "calculateTreeVerifierInputHash",
      "outputs": [
        {
          "internalType": "bytes32",
          "name": "hash",
          "type": "bytes32"
        }
      ],
      "stateMutability": "view",
      "type": "function"
    },
    {
      "inputs": [
        {
          "internalType": "uint256",
          "name": "root",
          "type": "uint256"
        }
      ],
      "name": "checkValidRoot",
      "outputs": [
        {
          "internalType": "bool",
          "name": "",
          "type": "bool"
        }
      ],
      "stateMutability": "view",
      "type": "function"
    },
    {
      "inputs": [],
      "name": "disableStateBridge",
      "outputs": [],
      "stateMutability": "nonpayable",
      "type": "function"
    },
    {
      "inputs": [],
      "name": "enableStateBridge",
      "outputs": [],
      "stateMutability": "nonpayable",
      "type": "function"
    },
    {
      "inputs": [
        {
          "internalType": "uint256",
          "name": "initialRoot",
          "type": "uint256"
        },
        {
          "internalType": "contract ITreeVerifier",
          "name": "_merkleTreeVerifier",
          "type": "address"
        },
        {
          "internalType": "bool",
          "name": "_enableStateBridge",
          "type": "bool"
        },
        {
          "internalType": "address",
          "name": "initialStateBridgeProxyAddress",
          "type": "address"
        }
      ],
      "name": "initialize",
      "outputs": [],
      "stateMutability": "nonpayable",
      "type": "function"
    },
    {
      "inputs": [
        {
          "internalType": "uint256",
          "name": "input",
          "type": "uint256"
        }
      ],
      "name": "isInputInReducedForm",
      "outputs": [
        {
          "internalType": "bool",
          "name": "isInReducedForm",
          "type": "bool"
        }
      ],
      "stateMutability": "view",
      "type": "function"
    },
    {
      "inputs": [],
      "name": "latestRoot",
      "outputs": [
        {
          "internalType": "uint256",
          "name": "root",
          "type": "uint256"
        }
      ],
      "stateMutability": "view",
      "type": "function"
    },
    {
      "inputs": [],
      "name": "owner",
      "outputs": [
        {
          "internalType": "address",
          "name": "",
          "type": "address"
        }
      ],
      "stateMutability": "view",
      "type": "function"
    },
    {
      "inputs": [],
      "name": "proxiableUUID",
      "outputs": [
        {
          "internalType": "bytes32",
          "name": "",
          "type": "bytes32"
        }
      ],
      "stateMutability": "view",
      "type": "function"
    },
    {
      "inputs": [
        {
          "internalType": "uint256",
          "name": "root",
          "type": "uint256"
        }
      ],
      "name": "queryRoot",
      "outputs": [
        {
          "components": [
            {
              "internalType": "uint256",
              "name": "root",
              "type": "uint256"
            },
            {
              "internalType": "uint128",
              "name": "supersededTimestamp",
              "type": "uint128"
            },
            {
              "internalType": "bool",
              "name": "isValid",
              "type": "bool"
            }
          ],
          "internalType": "struct WorldIDIdentityManagerImplV1.RootInfo",
          "name": "rootInfo",
          "type": "tuple"
        }
      ],
      "stateMutability": "view",
      "type": "function"
    },
    {
      "inputs": [
        {
          "internalType": "uint256[8]",
          "name": "insertionProof",
          "type": "uint256[8]"
        },
        {
          "internalType": "uint256",
          "name": "preRoot",
          "type": "uint256"
        },
        {
          "internalType": "uint32",
          "name": "startIndex",
          "type": "uint32"
        },
        {
          "internalType": "uint256[]",
          "name": "identityCommitments",
          "type": "uint256[]"
        },
        {
          "internalType": "uint256",
          "name": "postRoot",
          "type": "uint256"
        }
      ],
      "name": "registerIdentities",
      "outputs": [],
      "stateMutability": "nonpayable",
      "type": "function"
    },
    {
      "inputs": [],
      "name": "renounceOwnership",
      "outputs": [],
      "stateMutability": "nonpayable",
      "type": "function"
    },
    {
      "inputs": [
        {
          "internalType": "address",
          "name": "newStateBridgeProxyAddress",
          "type": "address"
        }
      ],
      "name": "setStateBridgeProxyAddress",
      "outputs": [],
      "stateMutability": "nonpayable",
      "type": "function"
    },
    {
      "inputs": [],
      "name": "stateBridgeProxyAddress",
      "outputs": [
        {
          "internalType": "address",
          "name": "proxy",
          "type": "address"
        }
      ],
      "stateMutability": "view",
      "type": "function"
    },
    {
      "inputs": [
        {
          "internalType": "address",
          "name": "newOwner",
          "type": "address"
        }
      ],
      "name": "transferOwnership",
      "outputs": [],
      "stateMutability": "nonpayable",
      "type": "function"
    },
    {
      "inputs": [
        {
          "internalType": "address",
          "name": "newImplementation",
          "type": "address"
        }
      ],
      "name": "upgradeTo",
      "outputs": [],
      "stateMutability": "nonpayable",
      "type": "function"
    },
    {
      "inputs": [
        {
          "internalType": "address",
          "name": "newImplementation",
          "type": "address"
        },
        {
          "internalType": "bytes",
          "name": "data",
          "type": "bytes"
        }
      ],
      "name": "upgradeToAndCall",
      "outputs": [],
      "stateMutability": "payable",
      "type": "function"
    },
    {
      "inputs": [
        {
          "internalType": "uint256",
          "name": "root",
          "type": "uint256"
        },
        {
          "internalType": "uint256",
          "name": "signalHash",
          "type": "uint256"
        },
        {
          "internalType": "uint256",
          "name": "nullifierHash",
          "type": "uint256"
        },
        {
          "internalType": "uint256",
          "name": "externalNullifierHash",
          "type": "uint256"
        },
        {
          "internalType": "uint256[8]",
          "name": "proof",
          "type": "uint256[8]"
        }
      ],
      "name": "verifyProof",
      "outputs": [],
      "stateMutability": "view",
      "type": "function"
    }
  ],
  "bytecode": {
    "object": "0x60a0604052306080523480156200001557600080fd5b506200002062000026565b620000e8565b600054610100900460ff1615620000935760405162461bcd60e51b815260206004820152602760248201527f496e697469616c697a61626c653a20636f6e747261637420697320696e697469604482015266616c697a696e6760c81b606482015260840160405180910390fd5b60005460ff9081161015620000e6576000805460ff191660ff9081179091556040519081527f7f26b83ff96e1f2b6a682f133852f6798a09c465da95921460cefb38474024989060200160405180910390a15b565b6080516138dc620001d6600039600081816103bc015281816104050152818161073f0152818161077f0152818161082c0152818161086c015281816109f301528181610a3301528181610ad801528181610b1801528181610c6601528181610ca601528181610d2201528181610dd501528181610e1501528181610ed601528181610f1601528181610ff401528181611034015281816111230152818161116301528181611267015281816112a70152818161136e015281816113ae01528181611443015281816114830152818161184301528181611883015281816119ed0152611a2d01526138dc6000f3fe6080604052600436106101145760003560e01c806361ea6a8d116100a0578063a26b810e11610064578063a26b810e14610333578063b6621a3d14610348578063d7b0fef11461035d578063ec126b6f14610372578063f2fde38b1461039257600080fd5b806361ea6a8d14610297578063715018a6146102ac5780638939472e146102c15780638b6c56c6146102e15780638da5cb5b1461030157600080fd5b80633f7c178d116100e75780633f7c178d146101b05780634f1ef286146101fd57806352d1902d14610210578063561f204b1461023357806357f6c6ff1461027757600080fd5b80632217b21114610119578063349231521461013b578063354ca120146101705780633659cfe614610190575b600080fd5b34801561012557600080fd5b50610139610134366004611fa2565b6103b2565b005b34801561014757600080fd5b5061015b61015636600461201f565b610733565b60405190151581526020015b60405180910390f35b34801561017c57600080fd5b5061013961018b366004612038565b610822565b34801561019c57600080fd5b506101396101ab366004612098565b6109e9565b3480156101bc57600080fd5b506101d06101cb36600461201f565b610ab1565b60408051825181526020808401516001600160801b03169082015291810151151590820152606001610167565b61013961020b3660046120f8565b610c5c565b34801561021c57600080fd5b50610225610d15565b604051908152602001610167565b34801561023f57600080fd5b5060408051606080820183526000808352602080840182905292840181905283519182018452808252918101829052918201526101d0565b34801561028357600080fd5b506102256102923660046121a4565b610dc9565b3480156102a357600080fd5b50610139610ecc565b3480156102b857600080fd5b50610139610fd8565b3480156102cd57600080fd5b506101396102dc366004612098565b610fea565b3480156102ed57600080fd5b5061015b6102fc36600461201f565b611117565b34801561030d57600080fd5b506033546001600160a01b03165b6040516001600160a01b039091168152602001610167565b34801561033f57600080fd5b5061013961125d565b34801561035457600080fd5b5061031b611362565b34801561036957600080fd5b50610225611437565b34801561037e57600080fd5b5061013961038d36600461221a565b611503565b34801561039e57600080fd5b506101396103ad366004612098565b611681565b6001600160a01b037f00000000000000000000000000000000000000000000000000000000000000001630036104035760405162461bcd60e51b81526004016103fa9061226d565b60405180910390fd5b7f00000000000000000000000000000000000000000000000000000000000000006001600160a01b03166104356116f7565b6001600160a01b03161461045b5760405162461bcd60e51b81526004016103fa906122b9565b60c95460ff1661047e57604051630103019560e11b815260040160405180910390fd5b610486611713565b61048f85610733565b6104b15760008560405163af1e188960e01b81526004016103fa929190612305565b60ca5485146104e15760ca5460405163542fced960e11b81526103fa918791600401918252602082015260400190565b6104ea81610733565b61050c5760028160405163af1e188960e01b81526004016103fa929190612305565b610516838361176d565b60006105258587848787610dc9565b9050600061053282611807565b60cc54604080518082019091528a3581529192506001600160a01b0316906343753b4d90602081018b600160200201359052604080516080810182528c820135918101918252908190606082018e60036020020135815250815260200160405180604001604052808e6004600881106105ad576105ad612331565b602002013581526020018e6005600881106105ca576105ca612331565b60200201359052905260408051808201909152808d6006602002013581526020018d6007600881106105fe576105fe612331565b60200201358152506040518060200160405280878152506040518563ffffffff1660e01b815260040161063494939291906123c2565b602060405180830381865afa92505050801561066d575060408051601f3d908101601f1916820190925261066a9181019061241f565b60015b6106cd5761067961243c565b806308c379a0036106b2575061068d612457565b8061069857506106b4565b8060405162461bcd60e51b81526004016103fa919061250d565b505b604051631e716a8b60e01b815260040160405180910390fd5b806106eb57604051631e716a8b60e01b815260040160405180910390fd5b60ca849055600088815260cb6020526040902080546fffffffffffffffffffffffffffffffff1916426001600160801b0316179055610728611839565b505050505050505050565b60006001600160a01b037f000000000000000000000000000000000000000000000000000000000000000016300361077d5760405162461bcd60e51b81526004016103fa9061226d565b7f00000000000000000000000000000000000000000000000000000000000000006001600160a01b03166107af6116f7565b6001600160a01b0316146107d55760405162461bcd60e51b81526004016103fa906122b9565b60c95460ff166107f857604051630103019560e11b815260040160405180910390fd5b507f30644e72e131a029b85045b68181585d2833e84879b9709143e1f593f000000181105b919050565b6001600160a01b037f000000000000000000000000000000000000000000000000000000000000000016300361086a5760405162461bcd60e51b81526004016103fa9061226d565b7f00000000000000000000000000000000000000000000000000000000000000006001600160a01b031661089c6116f7565b6001600160a01b0316146108c25760405162461bcd60e51b81526004016103fa906122b9565b60c95460ff166108e557604051630103019560e11b815260040160405180910390fd5b60408051608081018252868152602081018590529081018590526060810183905261090f86611117565b156109e15760cd546040805180820182528435815260208086013581830152825160808082018552878501358286019081526060808a01359084015282528451808601865290880135815260a088013581840152818301528351808501855260c0880135815260e0880135928101929092529251635fe8c13b60e01b81526001600160a01b0390941693635fe8c13b936109b0939290918790600401612540565b60006040518083038186803b1580156109c857600080fd5b505afa1580156109dc573d6000803e3d6000fd5b505050505b505050505050565b6001600160a01b037f0000000000000000000000000000000000000000000000000000000000000000163003610a315760405162461bcd60e51b81526004016103fa9061226d565b7f00000000000000000000000000000000000000000000000000000000000000006001600160a01b0316610a636116f7565b6001600160a01b031614610a895760405162461bcd60e51b81526004016103fa906122b9565b610a92816119e3565b60408051600080825260208201909252610aae91839190611a8b565b50565b60408051606081018252600080825260208201819052918101919091526001600160a01b037f0000000000000000000000000000000000000000000000000000000000000000163003610b165760405162461bcd60e51b81526004016103fa9061226d565b7f00000000000000000000000000000000000000000000000000000000000000006001600160a01b0316610b486116f7565b6001600160a01b031614610b6e5760405162461bcd60e51b81526004016103fa906122b9565b60c95460ff16610b9157604051630103019560e11b815260040160405180910390fd5b60ca548203610bbe5750506040805160608101825260ca5481526000602082015260019181019190915290565b600082815260cb60205260408120546001600160801b031690819003610c185760408051606080820183526000808352602080840182905292840181905283519182018452808252918101829052918201525b9392505050565b6000610e10610c306001600160801b038416426125a7565b604080516060810182528781526001600160801b03909516602086015291101590830152509050919050565b6001600160a01b037f0000000000000000000000000000000000000000000000000000000000000000163003610ca45760405162461bcd60e51b81526004016103fa9061226d565b7f00000000000000000000000000000000000000000000000000000000000000006001600160a01b0316610cd66116f7565b6001600160a01b031614610cfc5760405162461bcd60e51b81526004016103fa906122b9565b610d05826119e3565b610d1182826001611a8b565b5050565b6000306001600160a01b037f00000000000000000000000000000000000000000000000000000000000000001614610db55760405162461bcd60e51b815260206004820152603860248201527f555550535570677261646561626c653a206d757374206e6f742062652063616c60448201527f6c6564207468726f7567682064656c656761746563616c6c000000000000000060648201526084016103fa565b506000805160206138608339815191525b90565b60006001600160a01b037f0000000000000000000000000000000000000000000000000000000000000000163003610e135760405162461bcd60e51b81526004016103fa9061226d565b7f00000000000000000000000000000000000000000000000000000000000000006001600160a01b0316610e456116f7565b6001600160a01b031614610e6b5760405162461bcd60e51b81526004016103fa906122b9565b60c95460ff16610e8e57604051630103019560e11b815260040160405180910390fd5b60008686868686604051602001610ea99594939291906125be565b60408051601f198184030181529190528051602090910120979650505050505050565b6001600160a01b037f0000000000000000000000000000000000000000000000000000000000000000163003610f145760405162461bcd60e51b81526004016103fa9061226d565b7f00000000000000000000000000000000000000000000000000000000000000006001600160a01b0316610f466116f7565b6001600160a01b031614610f6c5760405162461bcd60e51b81526004016103fa906122b9565b60c95460ff16610f8f57604051630103019560e11b815260040160405180910390fd5b610f97611713565b60ce54600160a01b900460ff16610fbd5760ce805460ff60a01b1916600160a01b179055565b60405163963a8d4f60e01b815260040160405180910390fd5b565b610fe0611713565b610fd66000611bfb565b6001600160a01b037f00000000000000000000000000000000000000000000000000000000000000001630036110325760405162461bcd60e51b81526004016103fa9061226d565b7f00000000000000000000000000000000000000000000000000000000000000006001600160a01b03166110646116f7565b6001600160a01b03161461108a5760405162461bcd60e51b81526004016103fa906122b9565b60c95460ff166110ad57604051630103019560e11b815260040160405180910390fd5b6110b5611713565b6001600160a01b0381166110dc57604051632d566eef60e11b815260040160405180910390fd5b60ce54600160a01b900460ff166110f5576110f5610ecc565b60ce80546001600160a01b0319166001600160a01b0392909216919091179055565b60006001600160a01b037f00000000000000000000000000000000000000000000000000000000000000001630036111615760405162461bcd60e51b81526004016103fa9061226d565b7f00000000000000000000000000000000000000000000000000000000000000006001600160a01b03166111936116f7565b6001600160a01b0316146111b95760405162461bcd60e51b81526004016103fa906122b9565b60c95460ff166111dc57604051630103019560e11b815260040160405180910390fd5b60ca54821461125557600082815260cb60205260409020546001600160801b0316610e1061120a82426125a7565b111561122957604051631d739acf60e11b815260040160405180910390fd5b806001600160801b03166000036112535760405163ddae3b7160e01b815260040160405180910390fd5b505b506001919050565b6001600160a01b037f00000000000000000000000000000000000000000000000000000000000000001630036112a55760405162461bcd60e51b81526004016103fa9061226d565b7f00000000000000000000000000000000000000000000000000000000000000006001600160a01b03166112d76116f7565b6001600160a01b0316146112fd5760405162461bcd60e51b81526004016103fa906122b9565b60c95460ff1661132057604051630103019560e11b815260040160405180910390fd5b611328611713565b60ce54600160a01b900460ff16156113495760ce805460ff60a01b19169055565b6040516331ae429160e21b815260040160405180910390fd5b60006001600160a01b037f00000000000000000000000000000000000000000000000000000000000000001630036113ac5760405162461bcd60e51b81526004016103fa9061226d565b7f00000000000000000000000000000000000000000000000000000000000000006001600160a01b03166113de6116f7565b6001600160a01b0316146114045760405162461bcd60e51b81526004016103fa906122b9565b60c95460ff1661142757604051630103019560e11b815260040160405180910390fd5b5060ce546001600160a01b031690565b60006001600160a01b037f00000000000000000000000000000000000000000000000000000000000000001630036114815760405162461bcd60e51b81526004016103fa9061226d565b7f00000000000000000000000000000000000000000000000000000000000000006001600160a01b03166114b36116f7565b6001600160a01b0316146114d95760405162461bcd60e51b81526004016103fa906122b9565b60c95460ff166114fc57604051630103019560e11b815260040160405180910390fd5b5060ca5490565b600054600190610100900460ff16158015611525575060005460ff8083169116105b6115885760405162461bcd60e51b815260206004820152602e60248201527f496e697469616c697a61626c653a20636f6e747261637420697320616c72656160448201526d191e481a5b9a5d1a585b1a5e995960921b60648201526084016103fa565b6000805461ffff191660ff8316176101001790556115a4611c4d565b60ca85905560cc80546001600160a01b0319166001600160a01b0386161790556040516115d090611f23565b604051809103906000f0801580156115ec573d6000803e3d6000fd5b5060cd80546001600160a01b0319166001600160a01b0392831617905560ce80549184166001600160a81b031990921691909117600160a01b8515150217905560c9805460ff191660011790556000805461ff001916905560405160ff821681527f7f26b83ff96e1f2b6a682f133852f6798a09c465da95921460cefb38474024989060200160405180910390a15050505050565b611689611713565b6001600160a01b0381166116ee5760405162461bcd60e51b815260206004820152602660248201527f4f776e61626c653a206e6577206f776e657220697320746865207a65726f206160448201526564647265737360d01b60648201526084016103fa565b610aae81611bfb565b600080516020613860833981519152546001600160a01b031690565b6033546001600160a01b03163314610fd65760405162461bcd60e51b815260206004820181905260248201527f4f776e61626c653a2063616c6c6572206973206e6f7420746865206f776e657260448201526064016103fa565b6000805b8281101561180157600084848381811061178d5761178d612331565b9050602002013590508280156117a257508015155b156117c35760405163018f31f560e51b8152600481018390526024016103fa565b6117cc81610733565b6117ee5760018160405163af1e188960e01b81526004016103fa929190612305565b1591506117fa81612612565b9050611771565b50505050565b60006118337f30644e72e131a029b85045b68181585d2833e84879b9709143e1f593f00000018361262b565b92915050565b6001600160a01b037f00000000000000000000000000000000000000000000000000000000000000001630036118815760405162461bcd60e51b81526004016103fa9061226d565b7f00000000000000000000000000000000000000000000000000000000000000006001600160a01b03166118b36116f7565b6001600160a01b0316146118d95760405162461bcd60e51b81526004016103fa906122b9565b60c95460ff166118fc57604051630103019560e11b815260040160405180910390fd5b60ce54600160a01b900460ff16801561191f575060ce546001600160a01b031615155b15610fd65760ce5460ca546040516000926001600160a01b03169161194a9160240190815260200190565b60408051601f198184030181529181526020820180516001600160e01b031663393170cf60e01b1790525161197f919061264d565b6000604051808303816000865af19150503d80600081146119bc576040519150601f19603f3d011682016040523d82523d6000602084013e6119c1565b606091505b5050905080610aae5760405163ca27883560e01b815260040160405180910390fd5b6001600160a01b037f0000000000000000000000000000000000000000000000000000000000000000163003611a2b5760405162461bcd60e51b81526004016103fa9061226d565b7f00000000000000000000000000000000000000000000000000000000000000006001600160a01b0316611a5d6116f7565b6001600160a01b031614611a835760405162461bcd60e51b81526004016103fa906122b9565b610aae611713565b7f4910fdfa16fed3260ed0e7147f7cc6da11a60208b5b9406d12a635614ffd91435460ff1615611ac357611abe83611c84565b505050565b826001600160a01b03166352d1902d6040518163ffffffff1660e01b8152600401602060405180830381865afa925050508015611b1d575060408051601f3d908101601f19168201909252611b1a91810190612669565b60015b611b805760405162461bcd60e51b815260206004820152602e60248201527f45524331393637557067726164653a206e657720696d706c656d656e7461746960448201526d6f6e206973206e6f74205555505360901b60648201526084016103fa565b6000805160206138608339815191528114611bef5760405162461bcd60e51b815260206004820152602960248201527f45524331393637557067726164653a20756e737570706f727465642070726f786044820152681a58589b195555525160ba1b60648201526084016103fa565b50611abe838383611d20565b603380546001600160a01b038381166001600160a01b0319831681179093556040519116919082907f8be0079c531659141344cd1fd0a4f28419497f9722a3daafe3b4186f6b6457e090600090a35050565b600054610100900460ff16611c745760405162461bcd60e51b81526004016103fa90612682565b611c7c611d45565b610fd6611d74565b6001600160a01b0381163b611cf15760405162461bcd60e51b815260206004820152602d60248201527f455243313936373a206e657720696d706c656d656e746174696f6e206973206e60448201526c1bdd08184818dbdb9d1c9858dd609a1b60648201526084016103fa565b60008051602061386083398151915280546001600160a01b0319166001600160a01b0392909216919091179055565b611d2983611d9b565b600082511180611d365750805b15611abe576118018383611ddb565b600054610100900460ff16611d6c5760405162461bcd60e51b81526004016103fa90612682565b610fd6611ecf565b600054610100900460ff16610fd65760405162461bcd60e51b81526004016103fa90612682565b611da481611c84565b6040516001600160a01b038216907fbc7cd75a20ee27fd9adebab32041f755214dbc6bffa90cc0225b39da2e5c2d3b90600090a250565b60606001600160a01b0383163b611e435760405162461bcd60e51b815260206004820152602660248201527f416464726573733a2064656c65676174652063616c6c20746f206e6f6e2d636f6044820152651b9d1c9858dd60d21b60648201526084016103fa565b600080846001600160a01b031684604051611e5e919061264d565b600060405180830381855af49150503d8060008114611e99576040519150601f19603f3d011682016040523d82523d6000602084013e611e9e565b606091505b5091509150611ec6828260405180606001604052806027815260200161388060279139611eff565b95945050505050565b600054610100900460ff16611ef65760405162461bcd60e51b81526004016103fa90612682565b610fd633611bfb565b60608315611f0e575081610c11565b610c1183838151156106985781518083602001fd5b611192806126ce83390190565b80610100810183101561183357600080fd5b803563ffffffff8116811461081d57600080fd5b60008083601f840112611f6857600080fd5b50813567ffffffffffffffff811115611f8057600080fd5b6020830191508360208260051b8501011115611f9b57600080fd5b9250929050565b6000806000806000806101808789031215611fbc57600080fd5b611fc68888611f30565b95506101008701359450611fdd6101208801611f42565b935061014087013567ffffffffffffffff811115611ffa57600080fd5b61200689828a01611f56565b979a969950949794969561016090950135949350505050565b60006020828403121561203157600080fd5b5035919050565b6000806000806000610180868803121561205157600080fd5b853594506020860135935060408601359250606086013591506120778760808801611f30565b90509295509295909350565b6001600160a01b0381168114610aae57600080fd5b6000602082840312156120aa57600080fd5b8135610c1181612083565b634e487b7160e01b600052604160045260246000fd5b601f8201601f1916810167ffffffffffffffff811182821017156120f1576120f16120b5565b6040525050565b6000806040838503121561210b57600080fd5b823561211681612083565b915060208381013567ffffffffffffffff8082111561213457600080fd5b818601915086601f83011261214857600080fd5b81358181111561215a5761215a6120b5565b6040519150612172601f8201601f19168501836120cb565b808252878482850101111561218657600080fd5b80848401858401376000848284010152508093505050509250929050565b6000806000806000608086880312156121bc57600080fd5b6121c586611f42565b94506020860135935060408601359250606086013567ffffffffffffffff8111156121ef57600080fd5b6121fb88828901611f56565b969995985093965092949392505050565b8015158114610aae57600080fd5b6000806000806080858703121561223057600080fd5b84359350602085013561224281612083565b925060408501356122528161220c565b9150606085013561226281612083565b939692955090935050565b6020808252602c908201527f46756e6374696f6e206d7573742062652063616c6c6564207468726f7567682060408201526b19195b1959d85d1958d85b1b60a21b606082015260800190565b6020808252602c908201527f46756e6374696f6e206d7573742062652063616c6c6564207468726f7567682060408201526b6163746976652070726f787960a01b606082015260800190565b604081016003841061232757634e487b7160e01b600052602160045260246000fd5b9281526020015290565b634e487b7160e01b600052603260045260246000fd5b8060005b600281101561180157815184526020938401939091019060010161234b565b806000805b600280821061237e57506123bb565b835186845b838110156123a1578251825260209283019290910190600101612383565b50505060409590950194506020929092019160010161236f565b5050505050565b61012081016123d18287612347565b6123de604083018661236a565b6123eb60c0830185612347565b61010082018360005b60018110156124135781518352602092830192909101906001016123f4565b50505095945050505050565b60006020828403121561243157600080fd5b8151610c118161220c565b600060033d1115610dc65760046000803e5060005160e01c90565b600060443d10156124655790565b6040516003193d81016004833e81513d67ffffffffffffffff816024840111818411171561249557505050505090565b82850191508151818111156124ad5750505050505090565b843d87010160208285010111156124c75750505050505090565b6124d6602082860101876120cb565b509095945050505050565b60005b838110156124fc5781810151838201526020016124e4565b838111156118015750506000910152565b602081526000825180602084015261252c8160408501602087016124e1565b601f01601f19169190910160400192915050565b610180810161254f8287612347565b61255c604083018661236a565b61256960c0830185612347565b61010082018360005b6004811015612413578151835260209283019290910190600101612572565b634e487b7160e01b600052601160045260246000fd5b6000828210156125b9576125b9612591565b500390565b60e086901b6001600160e01b0319168152600481018590526024810184905260006001600160fb1b038311156125f357600080fd5b8260051b80856044850137600092016044019182525095945050505050565b60006001820161262457612624612591565b5060010190565b60008261264857634e487b7160e01b600052601260045260246000fd5b500690565b6000825161265f8184602087016124e1565b9190910192915050565b60006020828403121561267b57600080fd5b5051919050565b6020808252602b908201527f496e697469616c697a61626c653a20636f6e7472616374206973206e6f74206960408201526a6e697469616c697a696e6760a81b60608201526080019056fe608060405234801561001057600080fd5b50611172806100206000396000f3fe608060405234801561001057600080fd5b506004361061002b5760003560e01c80635fe8c13b14610030575b600080fd5b61004361003e366004610fcb565b610045565b005b61004d610ddf565b6040805180820182528651815260208088015181830152908352815160808101835286515181840190815287518301516060830152815282518084018452878301805151825251830151818401528183015283820152815180830183528551815285820151918101919091529082015260006100c76103c0565b6080810151519091506100dc600460016110d5565b146100fa576040516309bde33960e01b815260040160405180910390fd5b60008160800151600081518110610113576101136110a9565b6020026020010151905061016581610160846080015160018151811061013b5761013b6110a9565b602002602001015187600060048110610156576101566110a9565b60200201516108c0565b610969565b90506101a0816101608460800151600281518110610185576101856110a9565b602002602001015187600160048110610156576101566110a9565b90506101db8161016084608001516003815181106101c0576101c06110a9565b602002602001015187600260048110610156576101566110a9565b90506102168161016084608001516004815181106101fb576101fb6110a9565b602002602001015187600360048110610156576101566110a9565b60408051600480825260a0820190925291925060009190816020015b604080518082019091526000808252602082015281526020019060019003908161023257505060408051600480825260a0820190925291925060009190602082015b61027c610e30565b815260200190600190039081610274575050855190915061029c906109d5565b826000815181106102af576102af6110a9565b60200260200101819052508460200151816000815181106102d2576102d26110a9565b60200260200101819052508360000151826001815181106102f5576102f56110a9565b6020026020010181905250836020015181600181518110610318576103186110a9565b60200260200101819052508282600281518110610337576103376110a9565b602002602001018190525083604001518160028151811061035a5761035a6110a9565b602002602001018190525084604001518260038151811061037d5761037d6110a9565b60200260200101819052508360600151816003815181106103a0576103a06110a9565b60200260200101819052506103b58282610ad7565b505050505050505050565b6103c8610e50565b6040805180820182527f2d4d9aa7e302d9df41749d5507949d05dbea33fbb16c643b22f599a2be6df2e281527f14bedd503c37ceb061d8ec60209fe345ce89830a19230301f076caff004d19266020808301919091529083528151608080820184527f0967032fcbf776d1afc985f88877f182d38480a653f2decaa9794cbc3bf3060c8285019081527f0e187847ad4c798374d0d6732bf501847dd68bc0e071241e0213bc7fc13db7ab606080850191909152908352845180860186527f304cfbd1e08a704a99f5e847d93f8c3caafddec46b7a0d379da69a4d112346a781527f1739c1b1a457a8c7313123d24d2f9192f896b7c63eea05a9d57f06547ad0cec8818601528385015285840192909252835180820185527f198e9393920d483a7260bfb731fb5d25f1aa493335a9e71297e485b7aef312c28186019081527f1800deef121f1e76426a00665e5c4479674322d4f75edadd46debd5cd992f6ed828501528152845180860186527f090689d0585ff075ec9e99ad690c3395bc4b313370b38ef355acdadcd122975b81527f12c85ea5db8c6deb4aab71808dcb408fe3d1e7690c43d37b4ce6cc0166fa7daa818601528185015285850152835190810184527f1bdb443ce61ebcf93daed4215a57e1cec90ca64973023e31197a112e8cee72f68185019081527f117e26c4235f42625b3404f2973059814ff260dba7176d7aae910f493a8e1fb5828401528152835180850185527f196e247a12f580e36894f256f0c122393489b4c213b3e913250feee806ca45ff81527f2fedff4e4bbcbf9f1c56e28a060d50eef5f54e2aab897f6b465acd2ed005ae918185015281840152908401528151600580825260c08201909352919082015b604080518082019091526000808252602082015281526020019060019003908161064357505060808201908152604080518082019091527f2c097b31a897227a6f64c9fc31d9a8fc421b0d8b8207f92532b464e431e61db881527f0fcf6d89d77d5123a43dfb23efb9c929c28c148ca82c794057864b8e66903c546020820152905180516000906106d6576106d66110a9565b602002602001018190525060405180604001604052807f0186dae5999acfe2cda6fa7a157ae726afda7c6f57b00ea0aa6c2c23bf83838881526020017f2f078608f710c45b60d23716c58e106d8c7a1c6db28119defffc413e074f8716815250816080015160018151811061074d5761074d6110a9565b602002602001018190525060405180604001604052807f2464c1784bda2cbfb51e5ab87cf7eb2764ad81f7038152bdbbb07d404b49aa3781526020017f0638b273e4ee33e03e42ca6c7de1ea7043dbdcaa48661864de644d91c6b4821f81525081608001516002815181106107c4576107c46110a9565b602002602001018190525060405180604001604052807f098ce8b5289ef791db34b68b9e0043ab7bf25306d83a9f0ce74396b8a69c57bb81526020017f1ec6f7a81748f3d2c2b87610d747ca72045ac1530e226f00710630d41aad7e26815250816080015160038151811061083b5761083b6110a9565b602002602001018190525060405180604001604052807f07dbf682cc528d3ff763fa576d05db50e023921728119ef66f880b6adae01cbe81526020017f0d287dcd9318207576eaa871e7b3308f613d9df7865059cdbc9f66fdef342dc681525081608001516004815181106108b2576108b26110a9565b602002602001018190525090565b60408051808201909152600080825260208201527f30644e72e131a029b85045b68181585d2833e84879b9709143e1f593f00000018210610914576040516309bde33960e01b815260040160405180910390fd5b61091c610ea1565b835181526020808501519082015260408101839052600060608360808460076107d05a03fa905080610961576040516309bde33960e01b815260040160405180910390fd5b505092915050565b6040805180820190915260008082526020820152610985610ebf565b8351815260208085015181830152835160408301528301516060808301919091526000908360c08460066107d05a03fa905080610961576040516309bde33960e01b815260040160405180910390fd5b604080518082019091526000808252602082015281511580156109fa57506020820151155b15610a18575050604080518082019091526000808252602082015290565b81517f30644e72e131a029b85045b68181585d97816a916871ca8d3c208c16d87cfd47111580610a6c57507f30644e72e131a029b85045b68181585d97816a916871ca8d3c208c16d87cfd47826020015110155b15610a8a576040516309bde33960e01b815260040160405180910390fd5b60405180604001604052808360000151815260200183602001517f30644e72e131a029b85045b68181585d97816a916871ca8d3c208c16d87cfd47610acf91906110ed565b905292915050565b8051825114610af9576040516309bde33960e01b815260040160405180910390fd5b81516000610b08826006611104565b905060008167ffffffffffffffff811115610b2557610b25610f19565b604051908082528060200260200182016040528015610b4e578160200160208202803683370190505b50905060005b83811015610d8957858181518110610b6e57610b6e6110a9565b60200260200101516000015182826006610b889190611104565b610b939060006110d5565b81518110610ba357610ba36110a9565b602002602001018181525050858181518110610bc157610bc16110a9565b60200260200101516020015182826006610bdb9190611104565b610be69060016110d5565b81518110610bf657610bf66110a9565b602002602001018181525050848181518110610c1457610c146110a9565b6020908102919091010151515182610c2d836006611104565b610c389060026110d5565b81518110610c4857610c486110a9565b602002602001018181525050848181518110610c6657610c666110a9565b60209081029190910181015151015182610c81836006611104565b610c8c9060036110d5565b81518110610c9c57610c9c6110a9565b602002602001018181525050848181518110610cba57610cba6110a9565b602002602001015160200151600060028110610cd857610cd86110a9565b602002015182610ce9836006611104565b610cf49060046110d5565b81518110610d0457610d046110a9565b602002602001018181525050848181518110610d2257610d226110a9565b602002602001015160200151600160028110610d4057610d406110a9565b602002015182610d51836006611104565b610d5c9060056110d5565b81518110610d6c57610d6c6110a9565b602090810291909101015280610d8181611123565b915050610b54565b50610d92610edd565b6000602082602086026020860160086107d05a03fa9050801580610db857508151600114155b15610dd6576040516309bde33960e01b815260040160405180910390fd5b50505050505050565b6040805160a081019091526000606082018181526080830191909152815260208101610e09610e30565b8152602001610e2b604051806040016040528060008152602001600081525090565b905290565b6040518060400160405280610e43610efb565b8152602001610e2b610efb565b6040805160e08101909152600060a0820181815260c0830191909152815260208101610e7a610e30565b8152602001610e87610e30565b8152602001610e94610e30565b8152602001606081525090565b60405180606001604052806003906020820280368337509192915050565b60405180608001604052806004906020820280368337509192915050565b60405180602001604052806001906020820280368337509192915050565b60405180604001604052806002906020820280368337509192915050565b634e487b7160e01b600052604160045260246000fd5b6040805190810167ffffffffffffffff81118282101715610f5257610f52610f19565b60405290565b6040516080810167ffffffffffffffff81118282101715610f5257610f52610f19565b600082601f830112610f8c57600080fd5b610f94610f2f565b806040840185811115610fa657600080fd5b845b81811015610fc0578035845260209384019301610fa8565b509095945050505050565b600080600080610180808688031215610fe357600080fd5b610fed8787610f7b565b9450604087605f88011261100057600080fd5b611008610f2f565b8060c089018a81111561101a57600080fd5b838a015b8181101561103f576110308c82610f7b565b8452602090930192840161101e565b5081975061104d8b82610f7b565b9650505050508661011f87011261106357600080fd5b61106b610f58565b90860190808883111561107d57600080fd5b61010088015b8381101561109b578035835260209283019201611083565b509598949750929550505050565b634e487b7160e01b600052603260045260246000fd5b634e487b7160e01b600052601160045260246000fd5b600082198211156110e8576110e86110bf565b500190565b6000828210156110ff576110ff6110bf565b500390565b600081600019048311821515161561111e5761111e6110bf565b500290565b600060018201611135576111356110bf565b506001019056fea264697066735822122009626aa4e02dd8bfe1a95c26a1920e8766568ddd71c2f8d345a7fbac349e360e64736f6c634300080f0033360894a13ba1a3210667c828492db98dca3e2076cc3735a920a3ca505d382bbc416464726573733a206c6f772d6c6576656c2064656c65676174652063616c6c206661696c6564a2646970667358221220ca9475abbafa2d8967c16a4be682200c7b4af57868c9ba1d71c562fee923996a64736f6c634300080f0033",
    "linkReferences": {}
  },
  "methodIdentifiers": {
    "NO_SUCH_ROOT()": "561f204b",
    "calculateTreeVerifierInputHash(uint32,uint256,uint256,uint256[])": "57f6c6ff",
    "checkValidRoot(uint256)": "8b6c56c6",
    "disableStateBridge()": "a26b810e",
    "enableStateBridge()": "61ea6a8d",
    "initialize(uint256,address,bool,address)": "ec126b6f",
    "isInputInReducedForm(uint256)": "34923152",
    "latestRoot()": "d7b0fef1",
    "owner()": "8da5cb5b",
    "proxiableUUID()": "52d1902d",
    "queryRoot(uint256)": "3f7c178d",
    "registerIdentities(uint256[8],uint256,uint32,uint256[],uint256)": "2217b211",
    "renounceOwnership()": "715018a6",
    "setStateBridgeProxyAddress(address)": "8939472e",
    "stateBridgeProxyAddress()": "b6621a3d",
    "transferOwnership(address)": "f2fde38b",
    "upgradeTo(address)": "3659cfe6",
    "upgradeToAndCall(address,bytes)": "4f1ef286",
    "verifyProof(uint256,uint256,uint256,uint256,uint256[8])": "354ca120"
  },
  "id": 25
}