{
  "abi": [
    {
      "inputs": [],
      "name": "CannotRenounceOwnership",
      "type": "error"
    },
    {
      "inputs": [],
      "name": "ExpiredRoot",
      "type": "error"
    },
    {
      "inputs": [],
      "name": "ImplementationNotInitialized",
      "type": "error"
    },
    {
      "inputs": [
        {
          "internalType": "uint256",
          "name": "index",
          "type": "uint256"
        }
      ],
      "name": "InvalidCommitment",
      "type": "error"
    },
    {
      "inputs": [],
      "name": "InvalidStateBridgeAddress",
      "type": "error"
    },
    {
      "inputs": [],
      "name": "MismatchedInputLengths",
      "type": "error"
    },
    {
      "inputs": [],
      "name": "NonExistentRoot",
      "type": "error"
    },
    {
      "inputs": [
        {
          "internalType": "uint256",
          "name": "providedRoot",
          "type": "uint256"
        },
        {
          "internalType": "uint256",
          "name": "latestRoot",
          "type": "uint256"
        }
      ],
      "name": "NotLatestRoot",
      "type": "error"
    },
    {
      "inputs": [],
      "name": "ProofValidationFailure",
      "type": "error"
    },
    {
      "inputs": [],
      "name": "StateBridgeAlreadyDisabled",
      "type": "error"
    },
    {
      "inputs": [],
      "name": "StateBridgeAlreadyEnabled",
      "type": "error"
    },
    {
      "inputs": [
        {
          "internalType": "address",
          "name": "user",
          "type": "address"
        }
      ],
      "name": "Unauthorized",
      "type": "error"
    },
    {
      "inputs": [
        {
          "internalType": "enum WorldIDIdentityManagerImplV1.UnreducedElementType",
          "name": "elementType",
          "type": "uint8"
        },
        {
          "internalType": "uint256",
          "name": "element",
          "type": "uint256"
        }
      ],
      "name": "UnreducedElement",
      "type": "error"
    },
    {
      "inputs": [
        {
          "internalType": "uint8",
          "name": "depth",
          "type": "uint8"
        }
      ],
      "name": "UnsupportedTreeDepth",
      "type": "error"
    },
    {
      "anonymous": false,
      "inputs": [
        {
          "indexed": false,
          "internalType": "address",
          "name": "previousAdmin",
          "type": "address"
        },
        {
          "indexed": false,
          "internalType": "address",
          "name": "newAdmin",
          "type": "address"
        }
      ],
      "name": "AdminChanged",
      "type": "event"
    },
    {
      "anonymous": false,
      "inputs": [
        {
          "indexed": true,
          "internalType": "address",
          "name": "beacon",
          "type": "address"
        }
      ],
      "name": "BeaconUpgraded",
      "type": "event"
    },
    {
      "anonymous": false,
      "inputs": [
        {
          "indexed": true,
          "internalType": "enum WorldIDIdentityManagerImplV1.Dependency",
          "name": "kind",
          "type": "uint8"
        },
        {
          "indexed": true,
          "internalType": "address",
          "name": "oldAddress",
          "type": "address"
        },
        {
          "indexed": true,
          "internalType": "address",
          "name": "newAddress",
          "type": "address"
        }
      ],
      "name": "DependencyUpdated",
      "type": "event"
    },
    {
      "anonymous": false,
      "inputs": [
        {
          "indexed": true,
          "internalType": "address",
          "name": "oldOperator",
          "type": "address"
        },
        {
          "indexed": true,
          "internalType": "address",
          "name": "newOperator",
          "type": "address"
        }
      ],
      "name": "IdentityOperatorChanged",
      "type": "event"
    },
    {
      "anonymous": false,
      "inputs": [
        {
          "indexed": false,
          "internalType": "uint8",
          "name": "version",
          "type": "uint8"
        }
      ],
      "name": "Initialized",
      "type": "event"
    },
    {
      "anonymous": false,
      "inputs": [
        {
          "indexed": true,
          "internalType": "address",
          "name": "previousOwner",
          "type": "address"
        },
        {
          "indexed": true,
          "internalType": "address",
          "name": "newOwner",
          "type": "address"
        }
      ],
      "name": "OwnershipTransferStarted",
      "type": "event"
    },
    {
      "anonymous": false,
      "inputs": [
        {
          "indexed": true,
          "internalType": "address",
          "name": "previousOwner",
          "type": "address"
        },
        {
          "indexed": true,
          "internalType": "address",
          "name": "newOwner",
          "type": "address"
        }
      ],
      "name": "OwnershipTransferred",
      "type": "event"
    },
    {
      "anonymous": false,
      "inputs": [
        {
          "indexed": true,
          "internalType": "uint256",
          "name": "oldExpiryTime",
          "type": "uint256"
        },
        {
          "indexed": true,
          "internalType": "uint256",
          "name": "newExpiryTime",
          "type": "uint256"
        }
      ],
      "name": "RootHistoryExpirySet",
      "type": "event"
    },
    {
      "anonymous": false,
      "inputs": [
        {
          "indexed": true,
          "internalType": "bool",
          "name": "isEnabled",
          "type": "bool"
        }
      ],
      "name": "StateBridgeStateChange",
      "type": "event"
    },
    {
      "anonymous": false,
      "inputs": [
        {
          "indexed": true,
          "internalType": "uint256",
          "name": "preRoot",
          "type": "uint256"
        },
        {
          "indexed": true,
          "internalType": "enum WorldIDIdentityManagerImplV1.TreeChange",
          "name": "kind",
          "type": "uint8"
        },
        {
          "indexed": true,
          "internalType": "uint256",
          "name": "postRoot",
          "type": "uint256"
        }
      ],
      "name": "TreeChanged",
      "type": "event"
    },
    {
      "anonymous": false,
      "inputs": [
        {
          "indexed": true,
          "internalType": "address",
          "name": "implementation",
          "type": "address"
        }
      ],
      "name": "Upgraded",
      "type": "event"
    },
    {
      "anonymous": false,
      "inputs": [
        {
          "indexed": false,
          "internalType": "uint8",
          "name": "_treeDepth",
          "type": "uint8"
        },
        {
          "indexed": false,
          "internalType": "uint256",
          "name": "initialRoot",
          "type": "uint256"
        }
      ],
      "name": "WorldIDIdentityManagerImplInitialized",
      "type": "event"
    },
    {
      "inputs": [],
      "name": "NO_SUCH_ROOT",
      "outputs": [
        {
          "components": [
            {
              "internalType": "uint256",
              "name": "root",
              "type": "uint256"
            },
            {
              "internalType": "uint128",
              "name": "supersededTimestamp",
              "type": "uint128"
            },
            {
              "internalType": "bool",
              "name": "isValid",
              "type": "bool"
            }
          ],
          "internalType": "struct WorldIDIdentityManagerImplV1.RootInfo",
          "name": "rootInfo",
          "type": "tuple"
        }
      ],
      "stateMutability": "pure",
      "type": "function"
    },
    {
      "inputs": [],
      "name": "acceptOwnership",
      "outputs": [],
      "stateMutability": "nonpayable",
      "type": "function"
    },
    {
      "inputs": [
        {
          "internalType": "bytes",
          "name": "packedDeletionIndices",
          "type": "bytes"
        },
        {
          "internalType": "uint256",
          "name": "preRoot",
          "type": "uint256"
        },
        {
          "internalType": "uint256",
          "name": "postRoot",
          "type": "uint256"
        },
        {
          "internalType": "uint32",
          "name": "batchSize",
          "type": "uint32"
        }
      ],
      "name": "calculateIdentityDeletionInputHash",
      "outputs": [
        {
          "internalType": "bytes32",
          "name": "hash",
          "type": "bytes32"
        }
      ],
      "stateMutability": "view",
      "type": "function"
    },
    {
      "inputs": [
        {
          "internalType": "uint32",
          "name": "startIndex",
          "type": "uint32"
        },
        {
          "internalType": "uint256",
          "name": "preRoot",
          "type": "uint256"
        },
        {
          "internalType": "uint256",
          "name": "postRoot",
          "type": "uint256"
        },
        {
          "internalType": "uint256[]",
          "name": "identityCommitments",
          "type": "uint256[]"
        }
      ],
      "name": "calculateIdentityRegistrationInputHash",
      "outputs": [
        {
          "internalType": "bytes32",
          "name": "hash",
          "type": "bytes32"
        }
      ],
      "stateMutability": "view",
      "type": "function"
    },
    {
      "inputs": [
        {
          "internalType": "uint256",
          "name": "preRoot",
          "type": "uint256"
        },
        {
          "internalType": "uint256",
          "name": "postRoot",
          "type": "uint256"
        },
        {
          "internalType": "uint32[]",
          "name": "leafIndices",
          "type": "uint32[]"
        },
        {
          "internalType": "uint256[]",
          "name": "oldIdentities",
          "type": "uint256[]"
        },
        {
          "internalType": "uint256[]",
          "name": "newIdentities",
          "type": "uint256[]"
        }
      ],
      "name": "calculateIdentityUpdateInputHash",
      "outputs": [
        {
          "internalType": "bytes32",
          "name": "hash",
          "type": "bytes32"
        }
      ],
      "stateMutability": "view",
      "type": "function"
    },
    {
      "inputs": [
        {
          "internalType": "uint256[8]",
          "name": "deletionProof",
          "type": "uint256[8]"
        },
        {
          "internalType": "uint32",
          "name": "batchSize",
          "type": "uint32"
        },
        {
          "internalType": "bytes",
          "name": "packedDeletionIndices",
          "type": "bytes"
        },
        {
          "internalType": "uint256",
          "name": "preRoot",
          "type": "uint256"
        },
        {
          "internalType": "uint256",
          "name": "postRoot",
          "type": "uint256"
        }
      ],
      "name": "deleteIdentities",
      "outputs": [],
      "stateMutability": "nonpayable",
      "type": "function"
    },
    {
      "inputs": [],
      "name": "getDeleteIdentitiesVerifierLookupTableAddress",
      "outputs": [
        {
          "internalType": "address",
          "name": "",
          "type": "address"
        }
      ],
      "stateMutability": "view",
      "type": "function"
    },
    {
      "inputs": [],
      "name": "getIdentityUpdateVerifierLookupTableAddress",
      "outputs": [
        {
          "internalType": "address",
          "name": "",
          "type": "address"
        }
      ],
      "stateMutability": "view",
      "type": "function"
    },
    {
      "inputs": [],
      "name": "getRegisterIdentitiesVerifierLookupTableAddress",
      "outputs": [
        {
          "internalType": "address",
          "name": "",
          "type": "address"
        }
      ],
      "stateMutability": "view",
      "type": "function"
    },
    {
      "inputs": [],
      "name": "getRootHistoryExpiry",
      "outputs": [
        {
          "internalType": "uint256",
          "name": "",
          "type": "uint256"
        }
      ],
      "stateMutability": "view",
      "type": "function"
    },
    {
      "inputs": [],
      "name": "getSemaphoreVerifierAddress",
      "outputs": [
        {
          "internalType": "address",
          "name": "",
          "type": "address"
        }
      ],
      "stateMutability": "view",
      "type": "function"
    },
    {
      "inputs": [],
      "name": "getTreeDepth",
      "outputs": [
        {
          "internalType": "uint8",
          "name": "",
          "type": "uint8"
        }
      ],
      "stateMutability": "view",
      "type": "function"
    },
    {
      "inputs": [],
      "name": "identityOperator",
      "outputs": [
        {
          "internalType": "address",
          "name": "",
          "type": "address"
        }
      ],
      "stateMutability": "view",
      "type": "function"
    },
    {
      "inputs": [
        {
          "internalType": "uint8",
          "name": "_treeDepth",
          "type": "uint8"
        },
        {
          "internalType": "uint256",
          "name": "initialRoot",
          "type": "uint256"
        },
        {
          "internalType": "contract VerifierLookupTable",
          "name": "_batchInsertionVerifiers",
          "type": "address"
        },
        {
          "internalType": "contract VerifierLookupTable",
          "name": "_batchUpdateVerifiers",
          "type": "address"
        },
        {
          "internalType": "contract ISemaphoreVerifier",
          "name": "_semaphoreVerifier",
          "type": "address"
        }
      ],
      "name": "initialize",
      "outputs": [],
      "stateMutability": "nonpayable",
      "type": "function"
    },
    {
      "inputs": [
        {
          "internalType": "contract VerifierLookupTable",
          "name": "_batchUpdateVerifiers",
          "type": "address"
        }
      ],
      "name": "initializeV2",
      "outputs": [],
      "stateMutability": "nonpayable",
      "type": "function"
    },
    {
      "inputs": [],
      "name": "latestRoot",
      "outputs": [
        {
          "internalType": "uint256",
          "name": "",
          "type": "uint256"
        }
      ],
      "stateMutability": "view",
      "type": "function"
    },
    {
      "inputs": [],
      "name": "owner",
      "outputs": [
        {
          "internalType": "address",
          "name": "",
          "type": "address"
        }
      ],
      "stateMutability": "view",
      "type": "function"
    },
    {
      "inputs": [],
      "name": "pendingOwner",
      "outputs": [
        {
          "internalType": "address",
          "name": "",
          "type": "address"
        }
      ],
      "stateMutability": "view",
      "type": "function"
    },
    {
      "inputs": [],
      "name": "proxiableUUID",
      "outputs": [
        {
          "internalType": "bytes32",
          "name": "",
          "type": "bytes32"
        }
      ],
      "stateMutability": "view",
      "type": "function"
    },
    {
      "inputs": [
        {
          "internalType": "uint256",
          "name": "root",
          "type": "uint256"
        }
      ],
      "name": "queryRoot",
      "outputs": [
        {
          "components": [
            {
              "internalType": "uint256",
              "name": "root",
              "type": "uint256"
            },
            {
              "internalType": "uint128",
              "name": "supersededTimestamp",
              "type": "uint128"
            },
            {
              "internalType": "bool",
              "name": "isValid",
              "type": "bool"
            }
          ],
          "internalType": "struct WorldIDIdentityManagerImplV1.RootInfo",
          "name": "",
          "type": "tuple"
        }
      ],
      "stateMutability": "view",
      "type": "function"
    },
    {
      "inputs": [
        {
          "internalType": "uint256[8]",
          "name": "insertionProof",
          "type": "uint256[8]"
        },
        {
          "internalType": "uint256",
          "name": "preRoot",
          "type": "uint256"
        },
        {
          "internalType": "uint32",
          "name": "startIndex",
          "type": "uint32"
        },
        {
          "internalType": "uint256[]",
          "name": "identityCommitments",
          "type": "uint256[]"
        },
        {
          "internalType": "uint256",
          "name": "postRoot",
          "type": "uint256"
        }
      ],
      "name": "registerIdentities",
      "outputs": [],
      "stateMutability": "nonpayable",
      "type": "function"
    },
    {
      "inputs": [],
      "name": "renounceOwnership",
      "outputs": [],
      "stateMutability": "view",
      "type": "function"
    },
    {
      "inputs": [
        {
          "internalType": "uint256",
          "name": "root",
          "type": "uint256"
        }
      ],
      "name": "requireValidRoot",
      "outputs": [],
      "stateMutability": "view",
      "type": "function"
    },
    {
      "inputs": [
        {
          "internalType": "contract VerifierLookupTable",
          "name": "newTable",
          "type": "address"
        }
      ],
      "name": "setDeleteIdentitiesVerifierLookupTable",
      "outputs": [],
      "stateMutability": "nonpayable",
      "type": "function"
    },
    {
      "inputs": [
        {
          "internalType": "address",
          "name": "newIdentityOperator",
          "type": "address"
        }
      ],
      "name": "setIdentityOperator",
      "outputs": [
        {
          "internalType": "address",
          "name": "",
          "type": "address"
        }
      ],
      "stateMutability": "nonpayable",
      "type": "function"
    },
    {
      "inputs": [
        {
          "internalType": "contract VerifierLookupTable",
          "name": "newTable",
          "type": "address"
        }
      ],
      "name": "setIdentityUpdateVerifierLookupTable",
      "outputs": [],
      "stateMutability": "nonpayable",
      "type": "function"
    },
    {
      "inputs": [
        {
          "internalType": "contract VerifierLookupTable",
          "name": "newTable",
          "type": "address"
        }
      ],
      "name": "setRegisterIdentitiesVerifierLookupTable",
      "outputs": [],
      "stateMutability": "nonpayable",
      "type": "function"
    },
    {
      "inputs": [
        {
          "internalType": "uint256",
          "name": "newExpiryTime",
          "type": "uint256"
        }
      ],
      "name": "setRootHistoryExpiry",
      "outputs": [],
      "stateMutability": "nonpayable",
      "type": "function"
    },
    {
      "inputs": [
        {
          "internalType": "contract ISemaphoreVerifier",
          "name": "newVerifier",
          "type": "address"
        }
      ],
      "name": "setSemaphoreVerifier",
      "outputs": [],
      "stateMutability": "nonpayable",
      "type": "function"
    },
    {
      "inputs": [
        {
          "internalType": "address",
          "name": "newOwner",
          "type": "address"
        }
      ],
      "name": "transferOwnership",
      "outputs": [],
      "stateMutability": "nonpayable",
      "type": "function"
    },
    {
      "inputs": [
        {
          "internalType": "uint256[8]",
          "name": "updateProof",
          "type": "uint256[8]"
        },
        {
          "internalType": "uint256",
          "name": "preRoot",
          "type": "uint256"
        },
        {
          "internalType": "uint32[]",
          "name": "leafIndices",
          "type": "uint32[]"
        },
        {
          "internalType": "uint256[]",
          "name": "oldIdentities",
          "type": "uint256[]"
        },
        {
          "internalType": "uint256[]",
          "name": "newIdentities",
          "type": "uint256[]"
        },
        {
          "internalType": "uint256",
          "name": "postRoot",
          "type": "uint256"
        }
      ],
      "name": "updateIdentities",
      "outputs": [],
      "stateMutability": "nonpayable",
      "type": "function"
    },
    {
      "inputs": [
        {
          "internalType": "address",
          "name": "newImplementation",
          "type": "address"
        }
      ],
      "name": "upgradeTo",
      "outputs": [],
      "stateMutability": "nonpayable",
      "type": "function"
    },
    {
      "inputs": [
        {
          "internalType": "address",
          "name": "newImplementation",
          "type": "address"
        },
        {
          "internalType": "bytes",
          "name": "data",
          "type": "bytes"
        }
      ],
      "name": "upgradeToAndCall",
      "outputs": [],
      "stateMutability": "payable",
      "type": "function"
    },
    {
      "inputs": [
        {
          "internalType": "uint256",
          "name": "root",
          "type": "uint256"
        },
        {
          "internalType": "uint256",
          "name": "signalHash",
          "type": "uint256"
        },
        {
          "internalType": "uint256",
          "name": "nullifierHash",
          "type": "uint256"
        },
        {
          "internalType": "uint256",
          "name": "externalNullifierHash",
          "type": "uint256"
        },
        {
          "internalType": "uint256[8]",
          "name": "proof",
          "type": "uint256[8]"
        }
      ],
      "name": "verifyProof",
      "outputs": [],
      "stateMutability": "view",
      "type": "function"
    }
  ],
  "bytecode": {
    "object": "0x60a0604052306080523480156200001557600080fd5b506200002062000026565b620000e8565b600054610100900460ff1615620000935760405162461bcd60e51b815260206004820152602760248201527f496e697469616c697a61626c653a20636f6e747261637420697320696e697469604482015266616c697a696e6760c81b606482015260840160405180910390fd5b60005460ff9081161015620000e6576000805460ff191660ff9081179091556040519081527f7f26b83ff96e1f2b6a682f133852f6798a09c465da95921460cefb38474024989060200160405180910390a15b565b608051613e706200027e6000396000818161064e0152818161069701528181610775015281816107b501528181610b8d01528181610bcd0152818161100401528181611044015281816110fb0152818161113b015281816111e701528181611227015281816113270152818161136701528181611577015281816115b701528181611669015281816116a9015281816117ff0152818161183f015281816118ca0152818161190a01528181611985015281816119c501528181611a5c01528181611b0c01528181611b4c01528181611c9b01528181611cdb01528181611da701528181611de701528181611eaa01528181611eea01528181611f8101528181611fc1015281816120570152818161209701528181612177015281816121b70152818161226c015281816122ac0152818161248d015281816124cd015281816125e401528181612624015281816126b1015281816126f101528181612787015281816127c70152818161285b0152818161289b01528181612a8101528181612ac101528181612d3e0152612d7e0152613e706000f3fe6080604052600436106101f95760003560e01c8063715018a61161010d578063aa4a729e116100a0578063e30c39781161006f578063e30c3978146105bc578063f134b6ca146105da578063f2038f95146105ef578063f2358e1d14610604578063f2fde38b1461062457600080fd5b8063aa4a729e14610547578063b843b4e514610567578063c70aa72714610587578063d7b0fef1146105a757600080fd5b80638da5cb5b116100dc5780638da5cb5b146104cd5780638e5cdd50146104eb5780638fc22e9f14610512578063a7bba5821461052757600080fd5b8063715018a61461046357806379ba50971461047857806386ec599a1461048d5780638c76a909146104ad57600080fd5b806338c87065116101905780634f1ef2861161015f5780634f1ef286146103c25780634ffbdde5146103d557806352d1902d146103ea578063561f204b146103ff5780636b0566001461044357600080fd5b806338c87065146103135780633e8919b6146103335780633f7c178d1461036057806343f974cb146103ad57600080fd5b80632f059fca116101cc5780632f059fca1461028057806331e4e992146102a0578063354ca120146102d35780633659cfe6146102f357600080fd5b80630e3a12f3146101fe5780632217b2111461022057806323cfdba51461024057806329b6eca914610260575b600080fd5b34801561020a57600080fd5b5061021e610219366004613375565b610644565b005b34801561022c57600080fd5b5061021e61023b366004613404565b61076b565b34801561024c57600080fd5b5061021e61025b3660046134c3565b610b83565b34801561026c57600080fd5b5061021e61027b366004613375565b610f4c565b34801561028c57600080fd5b5061021e61029b366004613375565b610ffa565b3480156102ac57600080fd5b506102c06102bb36600461353c565b6110ef565b6040519081526020015b60405180910390f35b3480156102df57600080fd5b5061021e6102ee3660046135a3565b6111dd565b3480156102ff57600080fd5b5061021e61030e366004613375565b61131d565b34801561031f57600080fd5b5061021e61032e3660046135e2565b6113e5565b34801561033f57600080fd5b5061034861156b565b6040516001600160a01b0390911681526020016102ca565b34801561036c57600080fd5b5061038061037b366004613650565b611642565b60408051825181526020808401516001600160801b031690820152918101511515908201526060016102ca565b3480156103b957600080fd5b506102c06117f3565b61021e6103d03660046136ac565b6118c0565b3480156103e157600080fd5b50610348611979565b3480156103f657600080fd5b506102c0611a4f565b34801561040b57600080fd5b506040805160608082018352600080835260208084018290529284018190528351918201845280825291810182905291820152610380565b34801561044f57600080fd5b5061021e61045e366004613375565b611b02565b34801561046f57600080fd5b5061021e611bf7565b34801561048457600080fd5b5061021e611c18565b34801561049957600080fd5b506102c06104a8366004613758565b611c8f565b3480156104b957600080fd5b506102c06104c8366004613805565b611d9b565b3480156104d957600080fd5b506033546001600160a01b0316610348565b3480156104f757600080fd5b50610500611e9e565b60405160ff90911681526020016102ca565b34801561051e57600080fd5b50610348611f75565b34801561053357600080fd5b50610348610542366004613375565b61204b565b34801561055357600080fd5b5061021e610562366004613375565b61216d565b34801561057357600080fd5b5061021e61058236600461386d565b612262565b34801561059357600080fd5b5061021e6105a2366004613650565b612483565b3480156105b357600080fd5b506102c06125d8565b3480156105c857600080fd5b506065546001600160a01b0316610348565b3480156105e657600080fd5b506103486126a5565b3480156105fb57600080fd5b5061034861277b565b34801561061057600080fd5b5061021e61061f366004613650565b612851565b34801561063057600080fd5b5061021e61063f366004613375565b61298e565b6001600160a01b037f00000000000000000000000000000000000000000000000000000000000000001630036106955760405162461bcd60e51b815260040161068c90613930565b60405180910390fd5b7f00000000000000000000000000000000000000000000000000000000000000006001600160a01b03166106c76129ff565b6001600160a01b0316146106ed5760405162461bcd60e51b815260040161068c9061397c565b60fb5460ff1661071057604051630103019560e11b815260040160405180910390fd5b610718612a1b565b61013380546001600160a01b038381166001600160a01b03198316811790935516908160045b6040517fd194b8423e9cb3c7cbebbbc3fe7f79dc2cbe0b40e03270d975abff491504c7b190600090a45050565b6001600160a01b037f00000000000000000000000000000000000000000000000000000000000000001630036107b35760405162461bcd60e51b815260040161068c90613930565b7f00000000000000000000000000000000000000000000000000000000000000006001600160a01b03166107e56129ff565b6001600160a01b03161461080b5760405162461bcd60e51b815260040161068c9061397c565b60fb5460ff1661082e57604051630103019560e11b815260040160405180910390fd5b61012d546001600160a01b0316331461085c5760405163472511eb60e11b815233600482015260240161068c565b61012e54851461088e5761012e5460405163542fced960e11b815261068c918791600401918252602082015260400190565b600061089d8587848787611d9b565b905060006108cb7f30644e72e131a029b85045b68181585d2833e84879b9709143e1f593f0000001836139c8565b61013154604051638a283fc360e01b8152600481018790529192506000916001600160a01b0390911690638a283fc390602401602060405180830381865afa15801561091b573d6000803e3d6000fd5b505050506040513d601f19601f8201168201806040525081019061093f91906139ea565b9050806001600160a01b03166343753b4d60405180604001604052808c60006008811061096e5761096e613a07565b602002013581526020018c60016008811061098b5761098b613a07565b60200201359052604080516080810182528d820135918101918252908190606082018f60036020020135815250815260200160405180604001604052808f6004600881106109db576109db613a07565b602002013581526020018f6005600881106109f8576109f8613a07565b60200201359052905260408051808201909152808e6006602002013581526020018e600760088110610a2c57610a2c613a07565b60200201358152506040518060200160405280888152506040518563ffffffff1660e01b8152600401610a629493929190613a40565b6020604051808303816000875af1925050508015610a9d575060408051601f3d908101601f19168201909252610a9a91810190613ae7565b60015b610afd57610aa9613b09565b806308c379a003610ae25750610abd613b24565b80610ac85750610ae4565b8060405162461bcd60e51b815260040161068c9190613bd2565b505b604051631e716a8b60e01b815260040160405180910390fd5b80610b1b57604051631e716a8b60e01b815260040160405180910390fd5b61012e859055600089815261012f6020526040812080546001600160801b031916426001600160801b031617905585906040518b907f25f6d5cc356ee0b49cf708c13c68197947f5740a878a298765e4b18e4afdaf0490600090a4505b505050505050505050565b6001600160a01b037f0000000000000000000000000000000000000000000000000000000000000000163003610bcb5760405162461bcd60e51b815260040161068c90613930565b7f00000000000000000000000000000000000000000000000000000000000000006001600160a01b0316610bfd6129ff565b6001600160a01b031614610c235760405162461bcd60e51b815260040161068c9061397c565b60fb5460ff16610c4657604051630103019560e11b815260040160405180910390fd5b61012d546001600160a01b03163314610c745760405163472511eb60e11b815233600482015260240161068c565b61012e548214610ca65761012e5460405163542fced960e11b815261068c918491600401918252602082015260400190565b6000610cb5858585858a6110ef565b90506000610ce37f30644e72e131a029b85045b68181585d2833e84879b9709143e1f593f0000001836139c8565b61013554604051638a283fc360e01b815263ffffffff8a1660048201529192506000916001600160a01b0390911690638a283fc390602401602060405180830381865afa158015610d38573d6000803e3d6000fd5b505050506040513d601f19601f82011682018060405250810190610d5c91906139ea565b9050806001600160a01b03166343753b4d60405180604001604052808c600060088110610d8b57610d8b613a07565b602002013581526020018c600160088110610da857610da8613a07565b60200201359052604080516080810182528d820135918101918252908190606082018f60036020020135815250815260200160405180604001604052808f600460088110610df857610df8613a07565b602002013581526020018f600560088110610e1557610e15613a07565b60200201359052905260408051808201909152808e6006602002013581526020018e600760088110610e4957610e49613a07565b60200201358152506040518060200160405280888152506040518563ffffffff1660e01b8152600401610e7f9493929190613a40565b6020604051808303816000875af1925050508015610eba575060408051601f3d908101601f19168201909252610eb791810190613ae7565b60015b610ec657610aa9613b09565b80610ee457604051631e716a8b60e01b815260040160405180910390fd5b61012e859055600086815261012f6020526040902080546001600160801b031916426001600160801b031617905584600160405188907f25f6d5cc356ee0b49cf708c13c68197947f5740a878a298765e4b18e4afdaf0490600090a450505050505050505050565b600054600290610100900460ff16158015610f6e575060005460ff8083169116105b610f8a5760405162461bcd60e51b815260040161068c90613c05565b6000805461013580546001600160a01b0319166001600160a01b03861617905561ff001961010060ff851661ffff19909316831717169091556040519081527f7f26b83ff96e1f2b6a682f133852f6798a09c465da95921460cefb38474024989060200160405180910390a15050565b6001600160a01b037f00000000000000000000000000000000000000000000000000000000000000001630036110425760405162461bcd60e51b815260040161068c90613930565b7f00000000000000000000000000000000000000000000000000000000000000006001600160a01b03166110746129ff565b6001600160a01b03161461109a5760405162461bcd60e51b815260040161068c9061397c565b60fb5460ff166110bd57604051630103019560e11b815260040160405180910390fd5b6110c5612a1b565b61013180546001600160a01b038381166001600160a01b031983168117909355169081600161073e565b60006001600160a01b037f00000000000000000000000000000000000000000000000000000000000000001630036111395760405162461bcd60e51b815260040161068c90613930565b7f00000000000000000000000000000000000000000000000000000000000000006001600160a01b031661116b6129ff565b6001600160a01b0316146111915760405162461bcd60e51b815260040161068c9061397c565b60fb5460ff166111b457604051630103019560e11b815260040160405180910390fd5b604051600483028088833781810195865260209095019390935250506040909101902092915050565b6001600160a01b037f00000000000000000000000000000000000000000000000000000000000000001630036112255760405162461bcd60e51b815260040161068c90613930565b7f00000000000000000000000000000000000000000000000000000000000000006001600160a01b03166112576129ff565b6001600160a01b03161461127d5760405162461bcd60e51b815260040161068c9061397c565b60fb5460ff166112a057604051630103019560e11b815260040160405180910390fd5b6112a985612851565b6101335461013454604051634d65479560e11b81526001600160a01b0390921691639aca8f2a916112f191899188918a9189918991600160a81b900460ff1690600401613c53565b60006040518083038186803b15801561130957600080fd5b505afa158015610b78573d6000803e3d6000fd5b6001600160a01b037f00000000000000000000000000000000000000000000000000000000000000001630036113655760405162461bcd60e51b815260040161068c90613930565b7f00000000000000000000000000000000000000000000000000000000000000006001600160a01b03166113976129ff565b6001600160a01b0316146113bd5760405162461bcd60e51b815260040161068c9061397c565b6113c681612a77565b604080516000808252602082019092526113e291839190612b1f565b50565b600054600190610100900460ff16158015611407575060005460ff8083169116105b6114235760405162461bcd60e51b815260040161068c90613c05565b6000805461ffff191660ff83161761010017905561143f612c8f565b61144886612cbe565b61146a57604051630220cee360e61b815260ff8716600482015260240161068c565b610134805460ff60a81b1916600160a81b60ff891602179055610e106101305561012e85905561013180546001600160a01b03199081166001600160a01b0387811691909117909255610132805482168684161790556101338054821685841617905560335461012d80549190931691161790556114e6612ce5565b6040805160ff88168152602081018790527fd1bcc66c061c32a21f569d138c2dadef4a38a0636309881954af5f44010ec1d8910160405180910390a16000805461ff001916905560405160ff821681527f7f26b83ff96e1f2b6a682f133852f6798a09c465da95921460cefb38474024989060200160405180910390a1505050505050565b60006001600160a01b037f00000000000000000000000000000000000000000000000000000000000000001630036115b55760405162461bcd60e51b815260040161068c90613930565b7f00000000000000000000000000000000000000000000000000000000000000006001600160a01b03166115e76129ff565b6001600160a01b03161461160d5760405162461bcd60e51b815260040161068c9061397c565b60fb5460ff1661163057604051630103019560e11b815260040160405180910390fd5b50610135546001600160a01b03165b90565b60408051606081018252600080825260208201819052918101919091526001600160a01b037f00000000000000000000000000000000000000000000000000000000000000001630036116a75760405162461bcd60e51b815260040161068c90613930565b7f00000000000000000000000000000000000000000000000000000000000000006001600160a01b03166116d96129ff565b6001600160a01b0316146116ff5760405162461bcd60e51b815260040161068c9061397c565b60fb5460ff1661172257604051630103019560e11b815260040160405180910390fd5b61012e5482036117515750506040805160608101825261012e5481526000602082015260019181019190915290565b600082815261012f60205260408120546001600160801b0316908190036117ac5760408051606080820183526000808352602080840182905292840181905283519182018452808252918101829052918201525b9392505050565b610130546000906117c66001600160801b03841642613c8f565b604080516060810182528781526001600160801b039095166020860152911015908301525090505b919050565b60006001600160a01b037f000000000000000000000000000000000000000000000000000000000000000016300361183d5760405162461bcd60e51b815260040161068c90613930565b7f00000000000000000000000000000000000000000000000000000000000000006001600160a01b031661186f6129ff565b6001600160a01b0316146118955760405162461bcd60e51b815260040161068c9061397c565b60fb5460ff166118b857604051630103019560e11b815260040160405180910390fd5b506101305490565b6001600160a01b037f00000000000000000000000000000000000000000000000000000000000000001630036119085760405162461bcd60e51b815260040161068c90613930565b7f00000000000000000000000000000000000000000000000000000000000000006001600160a01b031661193a6129ff565b6001600160a01b0316146119605760405162461bcd60e51b815260040161068c9061397c565b61196982612a77565b61197582826001612b1f565b5050565b60006001600160a01b037f00000000000000000000000000000000000000000000000000000000000000001630036119c35760405162461bcd60e51b815260040161068c90613930565b7f00000000000000000000000000000000000000000000000000000000000000006001600160a01b03166119f56129ff565b6001600160a01b031614611a1b5760405162461bcd60e51b815260040161068c9061397c565b60fb5460ff16611a3e57604051630103019560e11b815260040160405180910390fd5b50610132546001600160a01b031690565b6000306001600160a01b037f00000000000000000000000000000000000000000000000000000000000000001614611aef5760405162461bcd60e51b815260206004820152603860248201527f555550535570677261646561626c653a206d757374206e6f742062652063616c60448201527f6c6564207468726f7567682064656c656761746563616c6c0000000000000000606482015260840161068c565b50600080516020613df483398151915290565b6001600160a01b037f0000000000000000000000000000000000000000000000000000000000000000163003611b4a5760405162461bcd60e51b815260040161068c90613930565b7f00000000000000000000000000000000000000000000000000000000000000006001600160a01b0316611b7c6129ff565b6001600160a01b031614611ba25760405162461bcd60e51b815260040161068c9061397c565b60fb5460ff16611bc557604051630103019560e11b815260040160405180910390fd5b611bcd612a1b565b61013280546001600160a01b038381166001600160a01b031983168117909355169081600361073e565b611bff612a1b565b6040516377aeb0ad60e01b815260040160405180910390fd5b60655433906001600160a01b03168114611c865760405162461bcd60e51b815260206004820152602960248201527f4f776e61626c6532537465703a2063616c6c6572206973206e6f7420746865206044820152683732bb9037bbb732b960b91b606482015260840161068c565b6113e281612d1b565b60006001600160a01b037f0000000000000000000000000000000000000000000000000000000000000000163003611cd95760405162461bcd60e51b815260040161068c90613930565b7f00000000000000000000000000000000000000000000000000000000000000006001600160a01b0316611d0b6129ff565b6001600160a01b031614611d315760405162461bcd60e51b815260040161068c9061397c565b60fb5460ff16611d5457604051630103019560e11b815260040160405180910390fd5b60008989898989898989604051602001611d75989796959493929190613cd9565b60408051601f1981840301815291905280516020909101209a9950505050505050505050565b60006001600160a01b037f0000000000000000000000000000000000000000000000000000000000000000163003611de55760405162461bcd60e51b815260040161068c90613930565b7f00000000000000000000000000000000000000000000000000000000000000006001600160a01b0316611e176129ff565b6001600160a01b031614611e3d5760405162461bcd60e51b815260040161068c9061397c565b60fb5460ff16611e6057604051630103019560e11b815260040160405180910390fd5b60008686868686604051602001611e7b959493929190613d3d565b60408051601f198184030181529190528051602090910120979650505050505050565b60006001600160a01b037f0000000000000000000000000000000000000000000000000000000000000000163003611ee85760405162461bcd60e51b815260040161068c90613930565b7f00000000000000000000000000000000000000000000000000000000000000006001600160a01b0316611f1a6129ff565b6001600160a01b031614611f405760405162461bcd60e51b815260040161068c9061397c565b60fb5460ff16611f6357604051630103019560e11b815260040160405180910390fd5b5061013454600160a81b900460ff1690565b60006001600160a01b037f0000000000000000000000000000000000000000000000000000000000000000163003611fbf5760405162461bcd60e51b815260040161068c90613930565b7f00000000000000000000000000000000000000000000000000000000000000006001600160a01b0316611ff16129ff565b6001600160a01b0316146120175760405162461bcd60e51b815260040161068c9061397c565b60fb5460ff1661203a57604051630103019560e11b815260040160405180910390fd5b50610131546001600160a01b031690565b60006001600160a01b037f00000000000000000000000000000000000000000000000000000000000000001630036120955760405162461bcd60e51b815260040161068c90613930565b7f00000000000000000000000000000000000000000000000000000000000000006001600160a01b03166120c76129ff565b6001600160a01b0316146120ed5760405162461bcd60e51b815260040161068c9061397c565b60fb5460ff1661211057604051630103019560e11b815260040160405180910390fd5b612118612a1b565b61012d80546001600160a01b038481166001600160a01b0319831681179093556040519116919082907f5a674c516c196404869e5f502b5634ce442416bb016dde54b5de4c812cc019e690600090a392915050565b6001600160a01b037f00000000000000000000000000000000000000000000000000000000000000001630036121b55760405162461bcd60e51b815260040161068c90613930565b7f00000000000000000000000000000000000000000000000000000000000000006001600160a01b03166121e76129ff565b6001600160a01b03161461220d5760405162461bcd60e51b815260040161068c9061397c565b60fb5460ff1661223057604051630103019560e11b815260040160405180910390fd5b612238612a1b565b61013580546001600160a01b038381166001600160a01b031983168117909355169081600261073e565b6001600160a01b037f00000000000000000000000000000000000000000000000000000000000000001630036122aa5760405162461bcd60e51b815260040161068c90613930565b7f00000000000000000000000000000000000000000000000000000000000000006001600160a01b03166122dc6129ff565b6001600160a01b0316146123025760405162461bcd60e51b815260040161068c9061397c565b60fb5460ff1661232557604051630103019560e11b815260040160405180910390fd5b61012d546001600160a01b031633146123535760405163472511eb60e11b815233600482015260240161068c565b61012e5488146123855761012e5460405163542fced960e11b815261068c918a91600401918252602082015260400190565b85841415806123945750858214155b156123b25760405163a0b1d72d60e01b815260040160405180910390fd5b60006123c489838a8a8a8a8a8a611c8f565b905060006123f27f30644e72e131a029b85045b68181585d2833e84879b9709143e1f593f0000001836139c8565b61013254604051638a283fc360e01b8152600481018b90529192506000916001600160a01b0390911690638a283fc390602401602060405180830381865afa158015612442573d6000803e3d6000fd5b505050506040513d601f19601f8201168201806040525081019061246691906139ea565b9050612475818d848e88612d34565b505050505050505050505050565b6001600160a01b037f00000000000000000000000000000000000000000000000000000000000000001630036124cb5760405162461bcd60e51b815260040161068c90613930565b7f00000000000000000000000000000000000000000000000000000000000000006001600160a01b03166124fd6129ff565b6001600160a01b0316146125235760405162461bcd60e51b815260040161068c9061397c565b60fb5460ff1661254657604051630103019560e11b815260040160405180910390fd5b61254e612a1b565b8060000361259e5760405162461bcd60e51b815260206004820152601b60248201527f4578706972792074696d652063616e6e6f74206265207a65726f2e0000000000604482015260640161068c565b610130805490829055604051829082907ff62a6f06fde00a303cd5939e6b53762854412c96a196cda26720cedd28af9e7090600090a35050565b60006001600160a01b037f00000000000000000000000000000000000000000000000000000000000000001630036126225760405162461bcd60e51b815260040161068c90613930565b7f00000000000000000000000000000000000000000000000000000000000000006001600160a01b03166126546129ff565b6001600160a01b03161461267a5760405162461bcd60e51b815260040161068c9061397c565b60fb5460ff1661269d57604051630103019560e11b815260040160405180910390fd5b5061012e5490565b60006001600160a01b037f00000000000000000000000000000000000000000000000000000000000000001630036126ef5760405162461bcd60e51b815260040161068c90613930565b7f00000000000000000000000000000000000000000000000000000000000000006001600160a01b03166127216129ff565b6001600160a01b0316146127475760405162461bcd60e51b815260040161068c9061397c565b60fb5460ff1661276a57604051630103019560e11b815260040160405180910390fd5b5061012d546001600160a01b031690565b60006001600160a01b037f00000000000000000000000000000000000000000000000000000000000000001630036127c55760405162461bcd60e51b815260040161068c90613930565b7f00000000000000000000000000000000000000000000000000000000000000006001600160a01b03166127f76129ff565b6001600160a01b03161461281d5760405162461bcd60e51b815260040161068c9061397c565b60fb5460ff1661284057604051630103019560e11b815260040160405180910390fd5b50610133546001600160a01b031690565b6001600160a01b037f00000000000000000000000000000000000000000000000000000000000000001630036128995760405162461bcd60e51b815260040161068c90613930565b7f00000000000000000000000000000000000000000000000000000000000000006001600160a01b03166128cb6129ff565b6001600160a01b0316146128f15760405162461bcd60e51b815260040161068c9061397c565b60fb5460ff1661291457604051630103019560e11b815260040160405180910390fd5b61012e5481146113e257600081815261012f60205260408120546001600160801b0316908190036129585760405163ddae3b7160e01b815260040160405180910390fd5b6101305461296f6001600160801b03831642613c8f565b111561197557604051631d739acf60e11b815260040160405180910390fd5b612996612a1b565b606580546001600160a01b0383166001600160a01b031990911681179091556129c76033546001600160a01b031690565b6001600160a01b03167f38d16b8cac22d99fc7c124b9cd0de2d3fa1faef420bfe791d8c362d765e2270060405160405180910390a350565b600080516020613df4833981519152546001600160a01b031690565b6033546001600160a01b03163314612a755760405162461bcd60e51b815260206004820181905260248201527f4f776e61626c653a2063616c6c6572206973206e6f7420746865206f776e6572604482015260640161068c565b565b6001600160a01b037f0000000000000000000000000000000000000000000000000000000000000000163003612abf5760405162461bcd60e51b815260040161068c90613930565b7f00000000000000000000000000000000000000000000000000000000000000006001600160a01b0316612af16129ff565b6001600160a01b031614612b175760405162461bcd60e51b815260040161068c9061397c565b6113e2612a1b565b7f4910fdfa16fed3260ed0e7147f7cc6da11a60208b5b9406d12a635614ffd91435460ff1615612b5757612b528361302b565b505050565b826001600160a01b03166352d1902d6040518163ffffffff1660e01b8152600401602060405180830381865afa925050508015612bb1575060408051601f3d908101601f19168201909252612bae91810190613d73565b60015b612c145760405162461bcd60e51b815260206004820152602e60248201527f45524331393637557067726164653a206e657720696d706c656d656e7461746960448201526d6f6e206973206e6f74205555505360901b606482015260840161068c565b600080516020613df48339815191528114612c835760405162461bcd60e51b815260206004820152602960248201527f45524331393637557067726164653a20756e737570706f727465642070726f786044820152681a58589b195555525160ba1b606482015260840161068c565b50612b528383836130c7565b600054610100900460ff16612cb65760405162461bcd60e51b815260040161068c90613d8c565b612a756130f2565b60006010602060ff84168211801590612cdd57508060ff168460ff1611155b949350505050565b600054610100900460ff16612d0c5760405162461bcd60e51b815260040161068c90613d8c565b60fb805460ff19166001179055565b606580546001600160a01b03191690556113e281613129565b6001600160a01b037f0000000000000000000000000000000000000000000000000000000000000000163003612d7c5760405162461bcd60e51b815260040161068c90613930565b7f00000000000000000000000000000000000000000000000000000000000000006001600160a01b0316612dae6129ff565b6001600160a01b031614612dd45760405162461bcd60e51b815260040161068c9061397c565b60fb5460ff16612df757604051630103019560e11b815260040160405180910390fd5b61012d546001600160a01b03163314612e255760405163472511eb60e11b815233600482015260240161068c565b6000604051806040016040528086600060088110612e4557612e45613a07565b6020020135815260200186600160088110612e6257612e62613a07565b6020020135905260408051608081018252878201359181019182529192506000919081906060820189600360200201358152508152602001604051806040016040528089600460088110612eb857612eb8613a07565b6020020135815260200189600560088110612ed557612ed5613a07565b60200201359052905260408051808201909152909150600090808860066020020135815260200188600760088110612f0f57612f0f613a07565b6020020135815250905060006040518060200160405280888152509050886001600160a01b03166343753b4d858585856040518563ffffffff1660e01b8152600401612f5e9493929190613a40565b6020604051808303816000875af1925050508015612f99575060408051601f3d908101601f19168201909252612f9691810190613ae7565b60015b612fa557610aa9613b09565b80612fc357604051631e716a8b60e01b815260040160405180910390fd5b61012e869055600087815261012f6020526040902080546001600160801b031916426001600160801b031617905585600260405189907f25f6d5cc356ee0b49cf708c13c68197947f5740a878a298765e4b18e4afdaf0490600090a450505050505050505050565b6001600160a01b0381163b6130985760405162461bcd60e51b815260206004820152602d60248201527f455243313936373a206e657720696d706c656d656e746174696f6e206973206e60448201526c1bdd08184818dbdb9d1c9858dd609a1b606482015260840161068c565b600080516020613df483398151915280546001600160a01b0319166001600160a01b0392909216919091179055565b6130d08361317b565b6000825111806130dd5750805b15612b52576130ec83836131bb565b50505050565b600054610100900460ff166131195760405162461bcd60e51b815260040161068c90613d8c565b6131216132b1565b612a756132e0565b603380546001600160a01b038381166001600160a01b0319831681179093556040519116919082907f8be0079c531659141344cd1fd0a4f28419497f9722a3daafe3b4186f6b6457e090600090a35050565b6131848161302b565b6040516001600160a01b038216907fbc7cd75a20ee27fd9adebab32041f755214dbc6bffa90cc0225b39da2e5c2d3b90600090a250565b60606001600160a01b0383163b6132235760405162461bcd60e51b815260206004820152602660248201527f416464726573733a2064656c65676174652063616c6c20746f206e6f6e2d636f6044820152651b9d1c9858dd60d21b606482015260840161068c565b600080846001600160a01b03168460405161323e9190613dd7565b600060405180830381855af49150503d8060008114613279576040519150601f19603f3d011682016040523d82523d6000602084013e61327e565b606091505b50915091506132a68282604051806060016040528060278152602001613e1460279139613307565b925050505b92915050565b600054610100900460ff166132d85760405162461bcd60e51b815260040161068c90613d8c565b612a75613320565b600054610100900460ff16612a755760405162461bcd60e51b815260040161068c90613d8c565b606083156133165750816117a5565b6117a58383613350565b600054610100900460ff166133475760405162461bcd60e51b815260040161068c90613d8c565b612a7533612d1b565b815115610ac85781518083602001fd5b6001600160a01b03811681146113e257600080fd5b60006020828403121561338757600080fd5b81356117a581613360565b8061010081018310156132ab57600080fd5b803563ffffffff811681146117ee57600080fd5b60008083601f8401126133ca57600080fd5b50813567ffffffffffffffff8111156133e257600080fd5b6020830191508360208260051b85010111156133fd57600080fd5b9250929050565b600080600080600080610180878903121561341e57600080fd5b6134288888613392565b9550610100870135945061343f61012088016133a4565b935061014087013567ffffffffffffffff81111561345c57600080fd5b61346889828a016133b8565b979a969950949794969561016090950135949350505050565b60008083601f84011261349357600080fd5b50813567ffffffffffffffff8111156134ab57600080fd5b6020830191508360208285010111156133fd57600080fd5b60008060008060008061018087890312156134dd57600080fd5b6134e78888613392565b95506134f661010088016133a4565b945061012087013567ffffffffffffffff81111561351357600080fd5b61351f89828a01613481565b979a96995097610140810135966101609091013595509350505050565b60008060008060006080868803121561355457600080fd5b853567ffffffffffffffff81111561356b57600080fd5b61357788828901613481565b9096509450506020860135925060408601359150613597606087016133a4565b90509295509295909350565b600080600080600061018086880312156135bc57600080fd5b853594506020860135935060408601359250606086013591506135978760808801613392565b600080600080600060a086880312156135fa57600080fd5b853560ff8116811461360b57600080fd5b945060208601359350604086013561362281613360565b9250606086013561363281613360565b9150608086013561364281613360565b809150509295509295909350565b60006020828403121561366257600080fd5b5035919050565b634e487b7160e01b600052604160045260246000fd5b601f8201601f1916810167ffffffffffffffff811182821017156136a5576136a5613669565b6040525050565b600080604083850312156136bf57600080fd5b82356136ca81613360565b915060208381013567ffffffffffffffff808211156136e857600080fd5b818601915086601f8301126136fc57600080fd5b81358181111561370e5761370e613669565b6040519150613726601f8201601f191685018361367f565b808252878482850101111561373a57600080fd5b80848401858401376000848284010152508093505050509250929050565b60008060008060008060008060a0898b03121561377457600080fd5b8835975060208901359650604089013567ffffffffffffffff8082111561379a57600080fd5b6137a68c838d016133b8565b909850965060608b01359150808211156137bf57600080fd5b6137cb8c838d016133b8565b909650945060808b01359150808211156137e457600080fd5b506137f18b828c016133b8565b999c989b5096995094979396929594505050565b60008060008060006080868803121561381d57600080fd5b613826866133a4565b94506020860135935060408601359250606086013567ffffffffffffffff81111561385057600080fd5b61385c888289016133b8565b969995985093965092949392505050565b60008060008060008060008060006101a08a8c03121561388c57600080fd5b6138968b8b613392565b98506101008a013597506101208a013567ffffffffffffffff808211156138bc57600080fd5b6138c88d838e016133b8565b90995097506101408c01359150808211156138e257600080fd5b6138ee8d838e016133b8565b90975095506101608c013591508082111561390857600080fd5b506139158c828d016133b8565b9a9d999c50979a969995989497966101800135949350505050565b6020808252602c908201527f46756e6374696f6e206d7573742062652063616c6c6564207468726f7567682060408201526b19195b1959d85d1958d85b1b60a21b606082015260800190565b6020808252602c908201527f46756e6374696f6e206d7573742062652063616c6c6564207468726f7567682060408201526b6163746976652070726f787960a01b606082015260800190565b6000826139e557634e487b7160e01b600052601260045260246000fd5b500690565b6000602082840312156139fc57600080fd5b81516117a581613360565b634e487b7160e01b600052603260045260246000fd5b8060005b60028110156130ec578151845260209384019390910190600101613a21565b6101208101613a4f8287613a1d565b60408083018660005b6002808210613a675750613aa2565b82518460005b83811015613a8b578251825260209283019290910190600101613a6d565b505050928401925060209190910190600101613a58565b50505050613ab360c0830185613a1d565b61010082018360005b6001811015613adb578151835260209283019290910190600101613abc565b50505095945050505050565b600060208284031215613af957600080fd5b815180151581146117a557600080fd5b600060033d111561163f5760046000803e5060005160e01c90565b600060443d1015613b325790565b6040516003193d81016004833e81513d67ffffffffffffffff8160248401118184111715613b6257505050505090565b8285019150815181811115613b7a5750505050505090565b843d8701016020828501011115613b945750505050505090565b613ba36020828601018761367f565b509095945050505050565b60005b83811015613bc9578181015183820152602001613bb1565b50506000910152565b6020815260008251806020840152613bf1816040850160208701613bae565b601f01601f19169190910160400192915050565b6020808252602e908201527f496e697469616c697a61626c653a20636f6e747261637420697320616c72656160408201526d191e481a5b9a5d1a585b1a5e995960921b606082015260800190565b60006101a08201905087825286602083015285604083015284606083015261010084608084013760ff8316610180830152979650505050505050565b818103818111156132ab57634e487b7160e01b600052601160045260246000fd5b60006001600160fb1b03831115613cc657600080fd5b8260051b80838637939093019392505050565b888152600060208981840152604083018960005b8a811015613d165763ffffffff613d03836133a4565b1683529183019190830190600101613ced565b5050613d2d613d2682898b613cb0565b8688613cb0565b9c9b505050505050505050505050565b63ffffffff60e01b8660e01b1681528460048201528360248201526000613d68604483018486613cb0565b979650505050505050565b600060208284031215613d8557600080fd5b5051919050565b6020808252602b908201527f496e697469616c697a61626c653a20636f6e7472616374206973206e6f74206960408201526a6e697469616c697a696e6760a81b606082015260800190565b60008251613de9818460208701613bae565b919091019291505056fe360894a13ba1a3210667c828492db98dca3e2076cc3735a920a3ca505d382bbc416464726573733a206c6f772d6c6576656c2064656c65676174652063616c6c206661696c6564a26469706673582212202258b63db6550ae18ade93a6816c682fce5f6960e9619c49b1085dddff743c4364736f6c63430008150033",
    "linkReferences": {}
  },
  "methodIdentifiers": {
    "NO_SUCH_ROOT()": "561f204b",
    "acceptOwnership()": "79ba5097",
    "calculateIdentityDeletionInputHash(bytes,uint256,uint256,uint32)": "31e4e992",
    "calculateIdentityRegistrationInputHash(uint32,uint256,uint256,uint256[])": "8c76a909",
    "calculateIdentityUpdateInputHash(uint256,uint256,uint32[],uint256[],uint256[])": "86ec599a",
    "deleteIdentities(uint256[8],uint32,bytes,uint256,uint256)": "23cfdba5",
    "getDeleteIdentitiesVerifierLookupTableAddress()": "3e8919b6",
    "getIdentityUpdateVerifierLookupTableAddress()": "4ffbdde5",
    "getRegisterIdentitiesVerifierLookupTableAddress()": "8fc22e9f",
    "getRootHistoryExpiry()": "43f974cb",
    "getSemaphoreVerifierAddress()": "f2038f95",
    "getTreeDepth()": "8e5cdd50",
    "identityOperator()": "f134b6ca",
    "initialize(uint8,uint256,address,address,address)": "38c87065",
    "initializeV2(address)": "29b6eca9",
    "latestRoot()": "d7b0fef1",
    "owner()": "8da5cb5b",
    "pendingOwner()": "e30c3978",
    "proxiableUUID()": "52d1902d",
    "queryRoot(uint256)": "3f7c178d",
    "registerIdentities(uint256[8],uint256,uint32,uint256[],uint256)": "2217b211",
    "renounceOwnership()": "715018a6",
    "requireValidRoot(uint256)": "f2358e1d",
    "setDeleteIdentitiesVerifierLookupTable(address)": "aa4a729e",
    "setIdentityOperator(address)": "a7bba582",
    "setIdentityUpdateVerifierLookupTable(address)": "6b056600",
    "setRegisterIdentitiesVerifierLookupTable(address)": "2f059fca",
    "setRootHistoryExpiry(uint256)": "c70aa727",
    "setSemaphoreVerifier(address)": "0e3a12f3",
    "transferOwnership(address)": "f2fde38b",
    "updateIdentities(uint256[8],uint256,uint32[],uint256[],uint256[],uint256)": "b843b4e5",
    "upgradeTo(address)": "3659cfe6",
    "upgradeToAndCall(address,bytes)": "4f1ef286",
    "verifyProof(uint256,uint256,uint256,uint256,uint256[8])": "354ca120"
  },
  "id": 43
}