{
  "abi": [
    {
      "inputs": [],
      "stateMutability": "nonpayable",
      "type": "constructor"
    },
    {
      "inputs": [],
      "name": "CannotRenounceOwnership",
      "type": "error"
    },
    {
      "inputs": [],
      "name": "ExpiredRoot",
      "type": "error"
    },
    {
      "inputs": [],
      "name": "ImplementationNotInitialized",
      "type": "error"
    },
    {
      "inputs": [
        {
          "internalType": "uint256",
          "name": "index",
          "type": "uint256"
        }
      ],
      "name": "InvalidCommitment",
      "type": "error"
    },
    {
      "inputs": [],
      "name": "InvalidStateBridgeAddress",
      "type": "error"
    },
    {
      "inputs": [],
      "name": "MismatchedInputLengths",
      "type": "error"
    },
    {
      "inputs": [],
      "name": "NonExistentRoot",
      "type": "error"
    },
    {
      "inputs": [
        {
          "internalType": "uint256",
          "name": "providedRoot",
          "type": "uint256"
        },
        {
          "internalType": "uint256",
          "name": "latestRoot",
          "type": "uint256"
        }
      ],
      "name": "NotLatestRoot",
      "type": "error"
    },
    {
      "inputs": [],
      "name": "ProofValidationFailure",
      "type": "error"
    },
    {
      "inputs": [],
      "name": "StateBridgeAlreadyDisabled",
      "type": "error"
    },
    {
      "inputs": [],
      "name": "StateBridgeAlreadyEnabled",
      "type": "error"
    },
    {
      "inputs": [
        {
          "internalType": "address",
          "name": "user",
          "type": "address"
        }
      ],
      "name": "Unauthorized",
      "type": "error"
    },
    {
      "inputs": [
        {
          "internalType": "enum WorldIDIdentityManagerImplV1.UnreducedElementType",
          "name": "elementType",
          "type": "uint8"
        },
        {
          "internalType": "uint256",
          "name": "element",
          "type": "uint256"
        }
      ],
      "name": "UnreducedElement",
      "type": "error"
    },
    {
      "inputs": [
        {
          "internalType": "uint8",
          "name": "depth",
          "type": "uint8"
        }
      ],
      "name": "UnsupportedTreeDepth",
      "type": "error"
    },
    {
      "anonymous": false,
      "inputs": [
        {
          "indexed": false,
          "internalType": "address",
          "name": "previousAdmin",
          "type": "address"
        },
        {
          "indexed": false,
          "internalType": "address",
          "name": "newAdmin",
          "type": "address"
        }
      ],
      "name": "AdminChanged",
      "type": "event"
    },
    {
      "anonymous": false,
      "inputs": [
        {
          "indexed": true,
          "internalType": "address",
          "name": "beacon",
          "type": "address"
        }
      ],
      "name": "BeaconUpgraded",
      "type": "event"
    },
    {
      "anonymous": false,
      "inputs": [
        {
          "indexed": true,
          "internalType": "enum WorldIDIdentityManagerImplV1.Dependency",
          "name": "kind",
          "type": "uint8"
        },
        {
          "indexed": true,
          "internalType": "address",
          "name": "oldAddress",
          "type": "address"
        },
        {
          "indexed": true,
          "internalType": "address",
          "name": "newAddress",
          "type": "address"
        }
      ],
      "name": "DependencyUpdated",
      "type": "event"
    },
    {
      "anonymous": false,
      "inputs": [
        {
          "indexed": true,
          "internalType": "address",
          "name": "oldOperator",
          "type": "address"
        },
        {
          "indexed": true,
          "internalType": "address",
          "name": "newOperator",
          "type": "address"
        }
      ],
      "name": "IdentityOperatorChanged",
      "type": "event"
    },
    {
      "anonymous": false,
      "inputs": [
        {
          "indexed": false,
          "internalType": "uint8",
          "name": "version",
          "type": "uint8"
        }
      ],
      "name": "Initialized",
      "type": "event"
    },
    {
      "anonymous": false,
      "inputs": [
        {
          "indexed": true,
          "internalType": "address",
          "name": "previousOwner",
          "type": "address"
        },
        {
          "indexed": true,
          "internalType": "address",
          "name": "newOwner",
          "type": "address"
        }
      ],
      "name": "OwnershipTransferStarted",
      "type": "event"
    },
    {
      "anonymous": false,
      "inputs": [
        {
          "indexed": true,
          "internalType": "address",
          "name": "previousOwner",
          "type": "address"
        },
        {
          "indexed": true,
          "internalType": "address",
          "name": "newOwner",
          "type": "address"
        }
      ],
      "name": "OwnershipTransferred",
      "type": "event"
    },
    {
      "anonymous": false,
      "inputs": [
        {
          "indexed": true,
          "internalType": "uint256",
          "name": "oldExpiryTime",
          "type": "uint256"
        },
        {
          "indexed": true,
          "internalType": "uint256",
          "name": "newExpiryTime",
          "type": "uint256"
        }
      ],
      "name": "RootHistoryExpirySet",
      "type": "event"
    },
    {
      "anonymous": false,
      "inputs": [
        {
          "indexed": true,
          "internalType": "bool",
          "name": "isEnabled",
          "type": "bool"
        }
      ],
      "name": "StateBridgeStateChange",
      "type": "event"
    },
    {
      "anonymous": false,
      "inputs": [
        {
          "indexed": true,
          "internalType": "uint256",
          "name": "preRoot",
          "type": "uint256"
        },
        {
          "indexed": true,
          "internalType": "enum WorldIDIdentityManagerImplV1.TreeChange",
          "name": "kind",
          "type": "uint8"
        },
        {
          "indexed": true,
          "internalType": "uint256",
          "name": "postRoot",
          "type": "uint256"
        }
      ],
      "name": "TreeChanged",
      "type": "event"
    },
    {
      "anonymous": false,
      "inputs": [
        {
          "indexed": true,
          "internalType": "address",
          "name": "implementation",
          "type": "address"
        }
      ],
      "name": "Upgraded",
      "type": "event"
    },
    {
      "anonymous": false,
      "inputs": [
        {
          "indexed": false,
          "internalType": "uint8",
          "name": "_treeDepth",
          "type": "uint8"
        },
        {
          "indexed": false,
          "internalType": "uint256",
          "name": "initialRoot",
          "type": "uint256"
        },
        {
          "indexed": false,
          "internalType": "bool",
          "name": "_enableStateBridge",
          "type": "bool"
        },
        {
          "indexed": false,
          "internalType": "contract IBridge",
          "name": "__stateBridge",
          "type": "address"
        }
      ],
      "name": "WorldIDIdentityManagerImplInitialized",
      "type": "event"
    },
    {
      "inputs": [],
      "name": "NO_SUCH_ROOT",
      "outputs": [
        {
          "components": [
            {
              "internalType": "uint256",
              "name": "root",
              "type": "uint256"
            },
            {
              "internalType": "uint128",
              "name": "supersededTimestamp",
              "type": "uint128"
            },
            {
              "internalType": "bool",
              "name": "isValid",
              "type": "bool"
            }
          ],
          "internalType": "struct WorldIDIdentityManagerImplV1.RootInfo",
          "name": "rootInfo",
          "type": "tuple"
        }
      ],
      "stateMutability": "pure",
      "type": "function"
    },
    {
      "inputs": [],
      "name": "acceptOwnership",
      "outputs": [],
      "stateMutability": "nonpayable",
      "type": "function"
    },
    {
      "inputs": [
        {
          "internalType": "uint32",
          "name": "startIndex",
          "type": "uint32"
        },
        {
          "internalType": "uint256",
          "name": "preRoot",
          "type": "uint256"
        },
        {
          "internalType": "uint256",
          "name": "postRoot",
          "type": "uint256"
        },
        {
          "internalType": "uint256[]",
          "name": "identityCommitments",
          "type": "uint256[]"
        }
      ],
      "name": "calculateIdentityRegistrationInputHash",
      "outputs": [
        {
          "internalType": "bytes32",
          "name": "hash",
          "type": "bytes32"
        }
      ],
      "stateMutability": "view",
      "type": "function"
    },
    {
      "inputs": [
        {
          "internalType": "uint256",
          "name": "preRoot",
          "type": "uint256"
        },
        {
          "internalType": "uint256",
          "name": "postRoot",
          "type": "uint256"
        },
        {
          "internalType": "uint32[]",
          "name": "leafIndices",
          "type": "uint32[]"
        },
        {
          "internalType": "uint256[]",
          "name": "oldIdentities",
          "type": "uint256[]"
        },
        {
          "internalType": "uint256[]",
          "name": "newIdentities",
          "type": "uint256[]"
        }
      ],
      "name": "calculateIdentityUpdateInputHash",
      "outputs": [
        {
          "internalType": "bytes32",
          "name": "hash",
          "type": "bytes32"
        }
      ],
      "stateMutability": "view",
      "type": "function"
    },
    {
      "inputs": [],
      "name": "disableStateBridge",
      "outputs": [],
      "stateMutability": "nonpayable",
      "type": "function"
    },
    {
      "inputs": [],
      "name": "enableStateBridge",
      "outputs": [],
      "stateMutability": "nonpayable",
      "type": "function"
    },
    {
      "inputs": [],
      "name": "getIdentityUpdateVerifierLookupTableAddress",
      "outputs": [
        {
          "internalType": "address",
          "name": "",
          "type": "address"
        }
      ],
      "stateMutability": "view",
      "type": "function"
    },
    {
      "inputs": [],
      "name": "getRegisterIdentitiesVerifierLookupTableAddress",
      "outputs": [
        {
          "internalType": "address",
          "name": "",
          "type": "address"
        }
      ],
      "stateMutability": "view",
      "type": "function"
    },
    {
      "inputs": [],
      "name": "getRootHistoryExpiry",
      "outputs": [
        {
          "internalType": "uint256",
          "name": "",
          "type": "uint256"
        }
      ],
      "stateMutability": "view",
      "type": "function"
    },
    {
      "inputs": [],
      "name": "getSemaphoreVerifierAddress",
      "outputs": [
        {
          "internalType": "address",
          "name": "",
          "type": "address"
        }
      ],
      "stateMutability": "view",
      "type": "function"
    },
    {
      "inputs": [],
      "name": "getTreeDepth",
      "outputs": [
        {
          "internalType": "uint8",
          "name": "",
          "type": "uint8"
        }
      ],
      "stateMutability": "view",
      "type": "function"
    },
    {
      "inputs": [],
      "name": "identityOperator",
      "outputs": [
        {
          "internalType": "address",
          "name": "",
          "type": "address"
        }
      ],
      "stateMutability": "view",
      "type": "function"
    },
    {
      "inputs": [
        {
          "internalType": "uint8",
          "name": "_treeDepth",
          "type": "uint8"
        },
        {
          "internalType": "uint256",
          "name": "initialRoot",
          "type": "uint256"
        },
        {
          "internalType": "contract VerifierLookupTable",
          "name": "_batchInsertionVerifiers",
          "type": "address"
        },
        {
          "internalType": "contract VerifierLookupTable",
          "name": "_batchUpdateVerifiers",
          "type": "address"
        },
        {
          "internalType": "contract ISemaphoreVerifier",
          "name": "_semaphoreVerifier",
          "type": "address"
        },
        {
          "internalType": "bool",
          "name": "_enableStateBridge",
          "type": "bool"
        },
        {
          "internalType": "contract IBridge",
          "name": "__stateBridge",
          "type": "address"
        }
      ],
      "name": "initialize",
      "outputs": [],
      "stateMutability": "nonpayable",
      "type": "function"
    },
    {
      "inputs": [],
      "name": "latestRoot",
      "outputs": [
        {
          "internalType": "uint256",
          "name": "",
          "type": "uint256"
        }
      ],
      "stateMutability": "view",
      "type": "function"
    },
    {
      "inputs": [],
      "name": "owner",
      "outputs": [
        {
          "internalType": "address",
          "name": "",
          "type": "address"
        }
      ],
      "stateMutability": "view",
      "type": "function"
    },
    {
      "inputs": [],
      "name": "pendingOwner",
      "outputs": [
        {
          "internalType": "address",
          "name": "",
          "type": "address"
        }
      ],
      "stateMutability": "view",
      "type": "function"
    },
    {
      "inputs": [],
      "name": "proxiableUUID",
      "outputs": [
        {
          "internalType": "bytes32",
          "name": "",
          "type": "bytes32"
        }
      ],
      "stateMutability": "view",
      "type": "function"
    },
    {
      "inputs": [
        {
          "internalType": "uint256",
          "name": "root",
          "type": "uint256"
        }
      ],
      "name": "queryRoot",
      "outputs": [
        {
          "components": [
            {
              "internalType": "uint256",
              "name": "root",
              "type": "uint256"
            },
            {
              "internalType": "uint128",
              "name": "supersededTimestamp",
              "type": "uint128"
            },
            {
              "internalType": "bool",
              "name": "isValid",
              "type": "bool"
            }
          ],
          "internalType": "struct WorldIDIdentityManagerImplV1.RootInfo",
          "name": "",
          "type": "tuple"
        }
      ],
      "stateMutability": "view",
      "type": "function"
    },
    {
      "inputs": [
        {
          "internalType": "uint256[8]",
          "name": "insertionProof",
          "type": "uint256[8]"
        },
        {
          "internalType": "uint256",
          "name": "preRoot",
          "type": "uint256"
        },
        {
          "internalType": "uint32",
          "name": "startIndex",
          "type": "uint32"
        },
        {
          "internalType": "uint256[]",
          "name": "identityCommitments",
          "type": "uint256[]"
        },
        {
          "internalType": "uint256",
          "name": "postRoot",
          "type": "uint256"
        }
      ],
      "name": "registerIdentities",
      "outputs": [],
      "stateMutability": "nonpayable",
      "type": "function"
    },
    {
      "inputs": [],
      "name": "renounceOwnership",
      "outputs": [],
      "stateMutability": "view",
      "type": "function"
    },
    {
      "inputs": [
        {
          "internalType": "uint256",
          "name": "root",
          "type": "uint256"
        }
      ],
      "name": "requireValidRoot",
      "outputs": [],
      "stateMutability": "view",
      "type": "function"
    },
    {
      "inputs": [
        {
          "internalType": "address",
          "name": "newIdentityOperator",
          "type": "address"
        }
      ],
      "name": "setIdentityOperator",
      "outputs": [
        {
          "internalType": "address",
          "name": "",
          "type": "address"
        }
      ],
      "stateMutability": "nonpayable",
      "type": "function"
    },
    {
      "inputs": [
        {
          "internalType": "contract VerifierLookupTable",
          "name": "newTable",
          "type": "address"
        }
      ],
      "name": "setIdentityUpdateVerifierLookupTable",
      "outputs": [],
      "stateMutability": "nonpayable",
      "type": "function"
    },
    {
      "inputs": [
        {
          "internalType": "contract VerifierLookupTable",
          "name": "newTable",
          "type": "address"
        }
      ],
      "name": "setRegisterIdentitiesVerifierLookupTable",
      "outputs": [],
      "stateMutability": "nonpayable",
      "type": "function"
    },
    {
      "inputs": [
        {
          "internalType": "uint256",
          "name": "newExpiryTime",
          "type": "uint256"
        }
      ],
      "name": "setRootHistoryExpiry",
      "outputs": [],
      "stateMutability": "nonpayable",
      "type": "function"
    },
    {
      "inputs": [
        {
          "internalType": "contract ISemaphoreVerifier",
          "name": "newVerifier",
          "type": "address"
        }
      ],
      "name": "setSemaphoreVerifier",
      "outputs": [],
      "stateMutability": "nonpayable",
      "type": "function"
    },
    {
      "inputs": [
        {
          "internalType": "contract IBridge",
          "name": "newStateBridge",
          "type": "address"
        }
      ],
      "name": "setStateBridge",
      "outputs": [],
      "stateMutability": "nonpayable",
      "type": "function"
    },
    {
      "inputs": [],
      "name": "stateBridge",
      "outputs": [
        {
          "internalType": "contract IBridge",
          "name": "stateBridgeContract",
          "type": "address"
        }
      ],
      "stateMutability": "view",
      "type": "function"
    },
    {
      "inputs": [
        {
          "internalType": "address",
          "name": "newOwner",
          "type": "address"
        }
      ],
      "name": "transferOwnership",
      "outputs": [],
      "stateMutability": "nonpayable",
      "type": "function"
    },
    {
      "inputs": [
        {
          "internalType": "uint256[8]",
          "name": "updateProof",
          "type": "uint256[8]"
        },
        {
          "internalType": "uint256",
          "name": "preRoot",
          "type": "uint256"
        },
        {
          "internalType": "uint32[]",
          "name": "leafIndices",
          "type": "uint32[]"
        },
        {
          "internalType": "uint256[]",
          "name": "oldIdentities",
          "type": "uint256[]"
        },
        {
          "internalType": "uint256[]",
          "name": "newIdentities",
          "type": "uint256[]"
        },
        {
          "internalType": "uint256",
          "name": "postRoot",
          "type": "uint256"
        }
      ],
      "name": "updateIdentities",
      "outputs": [],
      "stateMutability": "nonpayable",
      "type": "function"
    },
    {
      "inputs": [
        {
          "internalType": "address",
          "name": "newImplementation",
          "type": "address"
        }
      ],
      "name": "upgradeTo",
      "outputs": [],
      "stateMutability": "nonpayable",
      "type": "function"
    },
    {
      "inputs": [
        {
          "internalType": "address",
          "name": "newImplementation",
          "type": "address"
        },
        {
          "internalType": "bytes",
          "name": "data",
          "type": "bytes"
        }
      ],
      "name": "upgradeToAndCall",
      "outputs": [],
      "stateMutability": "payable",
      "type": "function"
    },
    {
      "inputs": [
        {
          "internalType": "uint256",
          "name": "root",
          "type": "uint256"
        },
        {
          "internalType": "uint256",
          "name": "signalHash",
          "type": "uint256"
        },
        {
          "internalType": "uint256",
          "name": "nullifierHash",
          "type": "uint256"
        },
        {
          "internalType": "uint256",
          "name": "externalNullifierHash",
          "type": "uint256"
        },
        {
          "internalType": "uint256[8]",
          "name": "proof",
          "type": "uint256[8]"
        }
      ],
      "name": "verifyProof",
      "outputs": [],
      "stateMutability": "view",
      "type": "function"
    }
  ],
  "bytecode": {
    "object": "0x60a0604052306080523480156200001557600080fd5b506200002062000026565b620000e8565b600054610100900460ff1615620000935760405162461bcd60e51b815260206004820152602760248201527f496e697469616c697a61626c653a20636f6e747261637420697320696e697469604482015266616c697a696e6760c81b606482015260840160405180910390fd5b60005460ff9081161015620000e6576000805460ff191660ff9081179091556040519081527f7f26b83ff96e1f2b6a682f133852f6798a09c465da95921460cefb38474024989060200160405180910390a15b565b608051613f506200028c6000396000818161060d01528181610656015281816107340152818161077401528181610bb301528181610bf301528181610ca801528181610ce801528181610de801528181610e2801528181610ecd01528181610f0d01528181611063015281816110a30152818161112f0152818161116f015281816111ea0152818161122a015281816112c101528181611371015281816113b1015281816114ab015281816114eb0152818161163a0152818161167a015281816117460152818161178601528181611849015281816118890152818161192001528181611960015281816119f601528181611a3601528181611aca01528181611b0a01528181611bfe01528181611c3e01528181611d1e01528181611d5e01528181611f9f01528181611fdf01528181612155015281816121950152818161222201528181612262015281816122f801528181612338015281816123cc0152818161240c01528181612781015281816127c101528181612a5601528181612a9601528181612ba801528181612be801528181612ded0152612e2d0152613f506000f3fe6080604052600436106101ee5760003560e01c80638c76a9091161010d578063c70aa727116100a0578063f2038f951161006f578063f2038f951461056e578063f2358e1d14610583578063f2ebe631146105a3578063f2fde38b146105c3578063fa8ca810146105e357600080fd5b8063c70aa72714610506578063d7b0fef114610526578063e30c39781461053b578063f134b6ca1461055957600080fd5b806391f262d3116100dc57806391f262d31461049c578063a26b810e146104b1578063a7bba582146104c6578063b843b4e5146104e657600080fd5b80638c76a909146104225780638da5cb5b146104425780638e5cdd50146104605780638fc22e9f1461048757600080fd5b80634ffbdde5116101855780636b056600116101545780636b056600146103b8578063715018a6146103d857806379ba5097146103ed57806386ec599a1461040257600080fd5b80634ffbdde51461031d57806352d1902d1461034a578063561f204b1461035f57806361ea6a8d146103a357600080fd5b80633659cfe6116101c15780633659cfe6146102755780633f7c178d1461029557806343f974cb146102e75780634f1ef2861461030a57600080fd5b80630e3a12f3146101f35780632217b211146102155780632f059fca14610235578063354ca12014610255575b600080fd5b3480156101ff57600080fd5b5061021361020e36600461353f565b610603565b005b34801561022157600080fd5b506102136102303660046135ce565b61072a565b34801561024157600080fd5b5061021361025036600461353f565b610ba9565b34801561026157600080fd5b5061021361027036600461364b565b610c9e565b34801561028157600080fd5b5061021361029036600461353f565b610dde565b3480156102a157600080fd5b506102b56102b0366004613696565b610ea6565b60408051825181526020808401516001600160801b031690820152918101511515908201526060015b60405180910390f35b3480156102f357600080fd5b506102fc611057565b6040519081526020016102de565b6102136103183660046136f2565b611125565b34801561032957600080fd5b506103326111de565b6040516001600160a01b0390911681526020016102de565b34801561035657600080fd5b506102fc6112b4565b34801561036b57600080fd5b5060408051606080820183526000808352602080840182905292840181905283519182018452808252918101829052918201526102b5565b3480156103af57600080fd5b50610213611367565b3480156103c457600080fd5b506102136103d336600461353f565b6114a1565b3480156103e457600080fd5b50610213611596565b3480156103f957600080fd5b506102136115b7565b34801561040e57600080fd5b506102fc61041d36600461379e565b61162e565b34801561042e57600080fd5b506102fc61043d36600461384b565b61173a565b34801561044e57600080fd5b506033546001600160a01b0316610332565b34801561046c57600080fd5b5061047561183d565b60405160ff90911681526020016102de565b34801561049357600080fd5b50610332611914565b3480156104a857600080fd5b506103326119ea565b3480156104bd57600080fd5b50610213611ac0565b3480156104d257600080fd5b506103326104e136600461353f565b611bf2565b3480156104f257600080fd5b506102136105013660046138b3565b611d14565b34801561051257600080fd5b50610213610521366004613696565b611f95565b34801561053257600080fd5b506102fc612149565b34801561054757600080fd5b506065546001600160a01b0316610332565b34801561056557600080fd5b50610332612216565b34801561057a57600080fd5b506103326122ec565b34801561058f57600080fd5b5061021361059e366004613696565b6123c2565b3480156105af57600080fd5b506102136105be366004613984565b6124ff565b3480156105cf57600080fd5b506102136105de36600461353f565b612706565b3480156105ef57600080fd5b506102136105fe36600461353f565b612777565b6001600160a01b037f00000000000000000000000000000000000000000000000000000000000000001630036106545760405162461bcd60e51b815260040161064b90613a17565b60405180910390fd5b7f00000000000000000000000000000000000000000000000000000000000000006001600160a01b03166106866128ad565b6001600160a01b0316146106ac5760405162461bcd60e51b815260040161064b90613a63565b60fb5460ff166106cf57604051630103019560e11b815260040160405180910390fd5b6106d76128c9565b61013380546001600160a01b038381166001600160a01b03198316811790935516908160035b6040517fd194b8423e9cb3c7cbebbbc3fe7f79dc2cbe0b40e03270d975abff491504c7b190600090a45050565b6001600160a01b037f00000000000000000000000000000000000000000000000000000000000000001630036107725760405162461bcd60e51b815260040161064b90613a17565b7f00000000000000000000000000000000000000000000000000000000000000006001600160a01b03166107a46128ad565b6001600160a01b0316146107ca5760405162461bcd60e51b815260040161064b90613a63565b60fb5460ff166107ed57604051630103019560e11b815260040160405180910390fd5b61012d546001600160a01b0316331461081b5760405163472511eb60e11b815233600482015260240161064b565b600080516020613ed4833981519152851061084e5760008560405163af1e188960e01b815260040161064b929190613aaf565b61012e5485146108805761012e5460405163542fced960e11b815261064b918791600401918252602082015260400190565b600080516020613ed483398151915281106108b35760028160405163af1e188960e01b815260040161064b929190613aaf565b6108bd8383612923565b60006108cc858784878761173a565b905060006108e8600080516020613ed483398151915283613adb565b61013154604051638a283fc360e01b8152600481018790529192506000916001600160a01b0390911690638a283fc390602401602060405180830381865afa158015610938573d6000803e3d6000fd5b505050506040513d601f19601f8201168201806040525081019061095c9190613afd565b9050806001600160a01b03166343753b4d60405180604001604052808c60006008811061098b5761098b613b1a565b602002013581526020018c6001600881106109a8576109a8613b1a565b60200201359052604080516080810182528d820135918101918252908190606082018f60036020020135815250815260200160405180604001604052808f6004600881106109f8576109f8613b1a565b602002013581526020018f600560088110610a1557610a15613b1a565b60200201359052905260408051808201909152808e6006602002013581526020018e600760088110610a4957610a49613b1a565b60200201358152506040518060200160405280888152506040518563ffffffff1660e01b8152600401610a7f9493929190613b53565b6020604051808303816000875af1925050508015610aba575060408051601f3d908101601f19168201909252610ab791810190613bfa565b60015b610b1a57610ac6613c17565b806308c379a003610aff5750610ada613c32565b80610ae55750610b01565b8060405162461bcd60e51b815260040161064b9190613ce0565b505b604051631e716a8b60e01b815260040160405180910390fd5b80610b3857604051631e716a8b60e01b815260040160405180910390fd5b61012e859055600089815261012f6020526040902080546001600160801b031916426001600160801b0316179055610b6e612a4c565b8460006040518b907f25f6d5cc356ee0b49cf708c13c68197947f5740a878a298765e4b18e4afdaf0490600090a4505b505050505050505050565b6001600160a01b037f0000000000000000000000000000000000000000000000000000000000000000163003610bf15760405162461bcd60e51b815260040161064b90613a17565b7f00000000000000000000000000000000000000000000000000000000000000006001600160a01b0316610c236128ad565b6001600160a01b031614610c495760405162461bcd60e51b815260040161064b90613a63565b60fb5460ff16610c6c57604051630103019560e11b815260040160405180910390fd5b610c746128c9565b61013180546001600160a01b038381166001600160a01b03198316811790935516908160016106fd565b6001600160a01b037f0000000000000000000000000000000000000000000000000000000000000000163003610ce65760405162461bcd60e51b815260040161064b90613a17565b7f00000000000000000000000000000000000000000000000000000000000000006001600160a01b0316610d186128ad565b6001600160a01b031614610d3e5760405162461bcd60e51b815260040161064b90613a63565b60fb5460ff16610d6157604051630103019560e11b815260040160405180910390fd5b610d6a856123c2565b6101335461013454604051634d65479560e11b81526001600160a01b0390921691639aca8f2a91610db291899188918a9189918991600160a81b900460ff1690600401613d13565b60006040518083038186803b158015610dca57600080fd5b505afa158015610b9e573d6000803e3d6000fd5b6001600160a01b037f0000000000000000000000000000000000000000000000000000000000000000163003610e265760405162461bcd60e51b815260040161064b90613a17565b7f00000000000000000000000000000000000000000000000000000000000000006001600160a01b0316610e586128ad565b6001600160a01b031614610e7e5760405162461bcd60e51b815260040161064b90613a63565b610e8781612b9e565b60408051600080825260208201909252610ea391839190612c46565b50565b60408051606081018252600080825260208201819052918101919091526001600160a01b037f0000000000000000000000000000000000000000000000000000000000000000163003610f0b5760405162461bcd60e51b815260040161064b90613a17565b7f00000000000000000000000000000000000000000000000000000000000000006001600160a01b0316610f3d6128ad565b6001600160a01b031614610f635760405162461bcd60e51b815260040161064b90613a63565b60fb5460ff16610f8657604051630103019560e11b815260040160405180910390fd5b61012e548203610fb55750506040805160608101825261012e5481526000602082015260019181019190915290565b600082815261012f60205260408120546001600160801b0316908190036110105760408051606080820183526000808352602080840182905292840181905283519182018452808252918101829052918201525b9392505050565b6101305460009061102a6001600160801b03841642613d4f565b604080516060810182528781526001600160801b039095166020860152911015908301525090505b919050565b60006001600160a01b037f00000000000000000000000000000000000000000000000000000000000000001630036110a15760405162461bcd60e51b815260040161064b90613a17565b7f00000000000000000000000000000000000000000000000000000000000000006001600160a01b03166110d36128ad565b6001600160a01b0316146110f95760405162461bcd60e51b815260040161064b90613a63565b60fb5460ff1661111c57604051630103019560e11b815260040160405180910390fd5b50610130545b90565b6001600160a01b037f000000000000000000000000000000000000000000000000000000000000000016300361116d5760405162461bcd60e51b815260040161064b90613a17565b7f00000000000000000000000000000000000000000000000000000000000000006001600160a01b031661119f6128ad565b6001600160a01b0316146111c55760405162461bcd60e51b815260040161064b90613a63565b6111ce82612b9e565b6111da82826001612c46565b5050565b60006001600160a01b037f00000000000000000000000000000000000000000000000000000000000000001630036112285760405162461bcd60e51b815260040161064b90613a17565b7f00000000000000000000000000000000000000000000000000000000000000006001600160a01b031661125a6128ad565b6001600160a01b0316146112805760405162461bcd60e51b815260040161064b90613a63565b60fb5460ff166112a357604051630103019560e11b815260040160405180910390fd5b50610132546001600160a01b031690565b6000306001600160a01b037f000000000000000000000000000000000000000000000000000000000000000016146113545760405162461bcd60e51b815260206004820152603860248201527f555550535570677261646561626c653a206d757374206e6f742062652063616c60448201527f6c6564207468726f7567682064656c656761746563616c6c0000000000000000606482015260840161064b565b50600080516020613eb483398151915290565b6001600160a01b037f00000000000000000000000000000000000000000000000000000000000000001630036113af5760405162461bcd60e51b815260040161064b90613a17565b7f00000000000000000000000000000000000000000000000000000000000000006001600160a01b03166113e16128ad565b6001600160a01b0316146114075760405162461bcd60e51b815260040161064b90613a63565b60fb5460ff1661142a57604051630103019560e11b815260040160405180910390fd5b6114326128c9565b61013454600160a01b900460ff1661148657610134805460ff60a01b1916600160a01b1790556040516001907fc2481c150ab648d8248c5a0b452a12da07a6a26d8e11b0ed6cee10375e14d5e490600090a2565b60405163963a8d4f60e01b815260040160405180910390fd5b565b6001600160a01b037f00000000000000000000000000000000000000000000000000000000000000001630036114e95760405162461bcd60e51b815260040161064b90613a17565b7f00000000000000000000000000000000000000000000000000000000000000006001600160a01b031661151b6128ad565b6001600160a01b0316146115415760405162461bcd60e51b815260040161064b90613a63565b60fb5460ff1661156457604051630103019560e11b815260040160405180910390fd5b61156c6128c9565b61013280546001600160a01b038381166001600160a01b03198316811790935516908160026106fd565b61159e6128c9565b6040516377aeb0ad60e01b815260040160405180910390fd5b60655433906001600160a01b031681146116255760405162461bcd60e51b815260206004820152602960248201527f4f776e61626c6532537465703a2063616c6c6572206973206e6f7420746865206044820152683732bb9037bbb732b960b91b606482015260840161064b565b610ea381612db6565b60006001600160a01b037f00000000000000000000000000000000000000000000000000000000000000001630036116785760405162461bcd60e51b815260040161064b90613a17565b7f00000000000000000000000000000000000000000000000000000000000000006001600160a01b03166116aa6128ad565b6001600160a01b0316146116d05760405162461bcd60e51b815260040161064b90613a63565b60fb5460ff166116f357604051630103019560e11b815260040160405180910390fd5b60008989898989898989604051602001611714989796959493929190613d99565b60408051601f1981840301815291905280516020909101209a9950505050505050505050565b60006001600160a01b037f00000000000000000000000000000000000000000000000000000000000000001630036117845760405162461bcd60e51b815260040161064b90613a17565b7f00000000000000000000000000000000000000000000000000000000000000006001600160a01b03166117b66128ad565b6001600160a01b0316146117dc5760405162461bcd60e51b815260040161064b90613a63565b60fb5460ff166117ff57604051630103019560e11b815260040160405180910390fd5b6000868686868660405160200161181a959493929190613dfd565b60408051601f198184030181529190528051602090910120979650505050505050565b60006001600160a01b037f00000000000000000000000000000000000000000000000000000000000000001630036118875760405162461bcd60e51b815260040161064b90613a17565b7f00000000000000000000000000000000000000000000000000000000000000006001600160a01b03166118b96128ad565b6001600160a01b0316146118df5760405162461bcd60e51b815260040161064b90613a63565b60fb5460ff1661190257604051630103019560e11b815260040160405180910390fd5b5061013454600160a81b900460ff1690565b60006001600160a01b037f000000000000000000000000000000000000000000000000000000000000000016300361195e5760405162461bcd60e51b815260040161064b90613a17565b7f00000000000000000000000000000000000000000000000000000000000000006001600160a01b03166119906128ad565b6001600160a01b0316146119b65760405162461bcd60e51b815260040161064b90613a63565b60fb5460ff166119d957604051630103019560e11b815260040160405180910390fd5b50610131546001600160a01b031690565b60006001600160a01b037f0000000000000000000000000000000000000000000000000000000000000000163003611a345760405162461bcd60e51b815260040161064b90613a17565b7f00000000000000000000000000000000000000000000000000000000000000006001600160a01b0316611a666128ad565b6001600160a01b031614611a8c5760405162461bcd60e51b815260040161064b90613a63565b60fb5460ff16611aaf57604051630103019560e11b815260040160405180910390fd5b50610134546001600160a01b031690565b6001600160a01b037f0000000000000000000000000000000000000000000000000000000000000000163003611b085760405162461bcd60e51b815260040161064b90613a17565b7f00000000000000000000000000000000000000000000000000000000000000006001600160a01b0316611b3a6128ad565b6001600160a01b031614611b605760405162461bcd60e51b815260040161064b90613a63565b60fb5460ff16611b8357604051630103019560e11b815260040160405180910390fd5b611b8b6128c9565b61013454600160a01b900460ff1615611bd957610134805460ff60a01b191690556040516000907fc2481c150ab648d8248c5a0b452a12da07a6a26d8e11b0ed6cee10375e14d5e4908290a2565b6040516331ae429160e21b815260040160405180910390fd5b60006001600160a01b037f0000000000000000000000000000000000000000000000000000000000000000163003611c3c5760405162461bcd60e51b815260040161064b90613a17565b7f00000000000000000000000000000000000000000000000000000000000000006001600160a01b0316611c6e6128ad565b6001600160a01b031614611c945760405162461bcd60e51b815260040161064b90613a63565b60fb5460ff16611cb757604051630103019560e11b815260040160405180910390fd5b611cbf6128c9565b61012d80546001600160a01b038481166001600160a01b0319831681179093556040519116919082907f5a674c516c196404869e5f502b5634ce442416bb016dde54b5de4c812cc019e690600090a392915050565b6001600160a01b037f0000000000000000000000000000000000000000000000000000000000000000163003611d5c5760405162461bcd60e51b815260040161064b90613a17565b7f00000000000000000000000000000000000000000000000000000000000000006001600160a01b0316611d8e6128ad565b6001600160a01b031614611db45760405162461bcd60e51b815260040161064b90613a63565b60fb5460ff16611dd757604051630103019560e11b815260040160405180910390fd5b61012d546001600160a01b03163314611e055760405163472511eb60e11b815233600482015260240161064b565b600080516020613ed48339815191528810611e385760008860405163af1e188960e01b815260040161064b929190613aaf565b61012e548814611e6a5761012e5460405163542fced960e11b815261064b918a91600401918252602082015260400190565b600080516020613ed48339815191528110611e9d5760028160405163af1e188960e01b815260040161064b929190613aaf565b8584141580611eac5750858214155b15611eca5760405163a0b1d72d60e01b815260040160405180910390fd5b611ed685858585612dcf565b6000611ee889838a8a8a8a8a8a61162e565b90506000611f04600080516020613ed483398151915283613adb565b61013254604051638a283fc360e01b8152600481018b90529192506000916001600160a01b0390911690638a283fc390602401602060405180830381865afa158015611f54573d6000803e3d6000fd5b505050506040513d601f19601f82011682018060405250810190611f789190613afd565b9050611f87818d848e88612de3565b505050505050505050505050565b6001600160a01b037f0000000000000000000000000000000000000000000000000000000000000000163003611fdd5760405162461bcd60e51b815260040161064b90613a17565b7f00000000000000000000000000000000000000000000000000000000000000006001600160a01b031661200f6128ad565b6001600160a01b0316146120355760405162461bcd60e51b815260040161064b90613a63565b60fb5460ff1661205857604051630103019560e11b815260040160405180910390fd5b6120606128c9565b806000036120b05760405162461bcd60e51b815260206004820152601b60248201527f4578706972792074696d652063616e6e6f74206265207a65726f2e0000000000604482015260640161064b565b6101308054908290556101345460405163c70aa72760e01b8152600481018490526001600160a01b039091169063c70aa72790602401600060405180830381600087803b15801561210057600080fd5b505af1158015612114573d6000803e3d6000fd5b50506040518492508391507ff62a6f06fde00a303cd5939e6b53762854412c96a196cda26720cedd28af9e7090600090a35050565b60006001600160a01b037f00000000000000000000000000000000000000000000000000000000000000001630036121935760405162461bcd60e51b815260040161064b90613a17565b7f00000000000000000000000000000000000000000000000000000000000000006001600160a01b03166121c56128ad565b6001600160a01b0316146121eb5760405162461bcd60e51b815260040161064b90613a63565b60fb5460ff1661220e57604051630103019560e11b815260040160405180910390fd5b5061012e5490565b60006001600160a01b037f00000000000000000000000000000000000000000000000000000000000000001630036122605760405162461bcd60e51b815260040161064b90613a17565b7f00000000000000000000000000000000000000000000000000000000000000006001600160a01b03166122926128ad565b6001600160a01b0316146122b85760405162461bcd60e51b815260040161064b90613a63565b60fb5460ff166122db57604051630103019560e11b815260040160405180910390fd5b5061012d546001600160a01b031690565b60006001600160a01b037f00000000000000000000000000000000000000000000000000000000000000001630036123365760405162461bcd60e51b815260040161064b90613a17565b7f00000000000000000000000000000000000000000000000000000000000000006001600160a01b03166123686128ad565b6001600160a01b03161461238e5760405162461bcd60e51b815260040161064b90613a63565b60fb5460ff166123b157604051630103019560e11b815260040160405180910390fd5b50610133546001600160a01b031690565b6001600160a01b037f000000000000000000000000000000000000000000000000000000000000000016300361240a5760405162461bcd60e51b815260040161064b90613a17565b7f00000000000000000000000000000000000000000000000000000000000000006001600160a01b031661243c6128ad565b6001600160a01b0316146124625760405162461bcd60e51b815260040161064b90613a63565b60fb5460ff1661248557604051630103019560e11b815260040160405180910390fd5b61012e548114610ea357600081815261012f60205260408120546001600160801b0316908190036124c95760405163ddae3b7160e01b815260040160405180910390fd5b610130546124e06001600160801b03831642613d4f565b11156111da57604051631d739acf60e11b815260040160405180910390fd5b600054600190610100900460ff16158015612521575060005460ff8083169116105b6125845760405162461bcd60e51b815260206004820152602e60248201527f496e697469616c697a61626c653a20636f6e747261637420697320616c72656160448201526d191e481a5b9a5d1a585b1a5e995960921b606482015260840161064b565b6000805461ffff191660ff8316176101001790556125a06130e2565b6125a988613111565b6125cb57604051630220cee360e61b815260ff8916600482015260240161064b565b6101348054610e106101305561012e89905561013180546001600160a01b03199081166001600160a01b038b811691909117909255610132805482168a8416179055610133805482168984161790558582166001600160b01b0319909316600160a81b60ff8e16026001600160a81b0319161792909217600160a01b871515021790925560335461012d8054919093169116179055612668613138565b6040805160ff8a16815260208101899052841515818301526001600160a01b038416606082015290517fd93f9e4e87e2eb65cf1cc7027724822fb326319f779480e9e74e58dc0993d2609181900360800190a16000805461ff001916905560405160ff821681527f7f26b83ff96e1f2b6a682f133852f6798a09c465da95921460cefb38474024989060200160405180910390a15050505050505050565b61270e6128c9565b606580546001600160a01b0383166001600160a01b0319909116811790915561273f6033546001600160a01b031690565b6001600160a01b03167f38d16b8cac22d99fc7c124b9cd0de2d3fa1faef420bfe791d8c362d765e2270060405160405180910390a350565b6001600160a01b037f00000000000000000000000000000000000000000000000000000000000000001630036127bf5760405162461bcd60e51b815260040161064b90613a17565b7f00000000000000000000000000000000000000000000000000000000000000006001600160a01b03166127f16128ad565b6001600160a01b0316146128175760405162461bcd60e51b815260040161064b90613a63565b60fb5460ff1661283a57604051630103019560e11b815260040160405180910390fd5b6128426128c9565b6001600160a01b0381166128695760405163ed4cf55760e01b815260040160405180910390fd5b61013454600160a01b900460ff1661288357612883611367565b61013480546001600160a01b038381166001600160a01b03198316811790935516908160006106fd565b600080516020613eb4833981519152546001600160a01b031690565b6033546001600160a01b0316331461149f5760405162461bcd60e51b815260206004820181905260248201527f4f776e61626c653a2063616c6c6572206973206e6f7420746865206f776e6572604482015260640161064b565b81600582901b81015b7f30644e72e131a029b85045b68181585d2833e84879b9709143e1f593f000000060018335031081831016156129675760208201915061292c565b80821015612a46576000600561297d8484613d4f565b612988911c85613d4f565b9050600085858381811061299e5761299e613b1a565b90506020020135905080600003612a10576020840193505b83351583851016156129cd576020840193506129b6565b82841015612a0b5760056129e18585613d4f565b6129ec911c86613d4f565b91508160405163018f31f560e51b815260040161064b91815260200190565b612a43565b600080516020613ed48339815191528110612a435760018160405163af1e188960e01b815260040161064b929190613aaf565b50505b50505050565b6001600160a01b037f0000000000000000000000000000000000000000000000000000000000000000163003612a945760405162461bcd60e51b815260040161064b90613a17565b7f00000000000000000000000000000000000000000000000000000000000000006001600160a01b0316612ac66128ad565b6001600160a01b031614612aec5760405162461bcd60e51b815260040161064b90613a63565b60fb5460ff16612b0f57604051630103019560e11b815260040160405180910390fd5b61013454600160a01b900460ff168015612b345750610134546001600160a01b031615155b1561149f576101345461012e5460405163393170cf60e01b81526001600160a01b039092169163393170cf91612b709160040190815260200190565b600060405180830381600087803b158015612b8a57600080fd5b505af1158015612a46573d6000803e3d6000fd5b6001600160a01b037f0000000000000000000000000000000000000000000000000000000000000000163003612be65760405162461bcd60e51b815260040161064b90613a17565b7f00000000000000000000000000000000000000000000000000000000000000006001600160a01b0316612c186128ad565b6001600160a01b031614612c3e5760405162461bcd60e51b815260040161064b90613a63565b610ea36128c9565b7f4910fdfa16fed3260ed0e7147f7cc6da11a60208b5b9406d12a635614ffd91435460ff1615612c7e57612c798361316e565b505050565b826001600160a01b03166352d1902d6040518163ffffffff1660e01b8152600401602060405180830381865afa925050508015612cd8575060408051601f3d908101601f19168201909252612cd591810190613e33565b60015b612d3b5760405162461bcd60e51b815260206004820152602e60248201527f45524331393637557067726164653a206e657720696d706c656d656e7461746960448201526d6f6e206973206e6f74205555505360901b606482015260840161064b565b600080516020613eb48339815191528114612daa5760405162461bcd60e51b815260206004820152602960248201527f45524331393637557067726164653a20756e737570706f727465642070726f786044820152681a58589b195555525160ba1b606482015260840161064b565b50612c7983838361320a565b606580546001600160a01b0319169055610ea38161322f565b612dd98484613281565b612a468282613281565b6001600160a01b037f0000000000000000000000000000000000000000000000000000000000000000163003612e2b5760405162461bcd60e51b815260040161064b90613a17565b7f00000000000000000000000000000000000000000000000000000000000000006001600160a01b0316612e5d6128ad565b6001600160a01b031614612e835760405162461bcd60e51b815260040161064b90613a63565b60fb5460ff16612ea657604051630103019560e11b815260040160405180910390fd5b61012d546001600160a01b03163314612ed45760405163472511eb60e11b815233600482015260240161064b565b6000604051806040016040528086600060088110612ef457612ef4613b1a565b6020020135815260200186600160088110612f1157612f11613b1a565b6020020135905260408051608081018252878201359181019182529192506000919081906060820189600360200201358152508152602001604051806040016040528089600460088110612f6757612f67613b1a565b6020020135815260200189600560088110612f8457612f84613b1a565b60200201359052905260408051808201909152909150600090808860066020020135815260200188600760088110612fbe57612fbe613b1a565b6020020135815250905060006040518060200160405280888152509050886001600160a01b03166343753b4d858585856040518563ffffffff1660e01b815260040161300d9493929190613b53565b6020604051808303816000875af1925050508015613048575060408051601f3d908101601f1916820190925261304591810190613bfa565b60015b61305457610ac6613c17565b8061307257604051631e716a8b60e01b815260040160405180910390fd5b61012e869055600087815261012f6020526040902080546001600160801b031916426001600160801b03161790556130a8612a4c565b85600160405189907f25f6d5cc356ee0b49cf708c13c68197947f5740a878a298765e4b18e4afdaf0490600090a450505050505050505050565b600054610100900460ff166131095760405162461bcd60e51b815260040161064b90613e4c565b61149f61330e565b60006010602060ff8416821180159061313057508060ff168460ff1611155b949350505050565b600054610100900460ff1661315f5760405162461bcd60e51b815260040161064b90613e4c565b60fb805460ff19166001179055565b6001600160a01b0381163b6131db5760405162461bcd60e51b815260206004820152602d60248201527f455243313936373a206e657720696d706c656d656e746174696f6e206973206e60448201526c1bdd08184818dbdb9d1c9858dd609a1b606482015260840161064b565b600080516020613eb483398151915280546001600160a01b0319166001600160a01b0392909216919091179055565b61321383613345565b6000825111806132205750805b15612c7957612a468383613385565b603380546001600160a01b038381166001600160a01b0319831681179093556040519116919082907f8be0079c531659141344cd1fd0a4f28419497f9722a3daafe3b4186f6b6457e090600090a35050565b81600582901b81015b600080516020613ed483398151915282351081831016156132b05760208201915061328a565b80821015612a4657600060056132c68484613d4f565b6132d1911c85613d4f565b905060008585838181106132e7576132e7613b1a565b90506020020135905060018160405163af1e188960e01b815260040161064b929190613aaf565b600054610100900460ff166133355760405162461bcd60e51b815260040161064b90613e4c565b61333d61347b565b61149f6134aa565b61334e8161316e565b6040516001600160a01b038216907fbc7cd75a20ee27fd9adebab32041f755214dbc6bffa90cc0225b39da2e5c2d3b90600090a250565b60606001600160a01b0383163b6133ed5760405162461bcd60e51b815260206004820152602660248201527f416464726573733a2064656c65676174652063616c6c20746f206e6f6e2d636f6044820152651b9d1c9858dd60d21b606482015260840161064b565b600080846001600160a01b0316846040516134089190613e97565b600060405180830381855af49150503d8060008114613443576040519150601f19603f3d011682016040523d82523d6000602084013e613448565b606091505b50915091506134708282604051806060016040528060278152602001613ef4602791396134d1565b925050505b92915050565b600054610100900460ff166134a25760405162461bcd60e51b815260040161064b90613e4c565b61149f6134ea565b600054610100900460ff1661149f5760405162461bcd60e51b815260040161064b90613e4c565b606083156134e0575081611009565b611009838361351a565b600054610100900460ff166135115760405162461bcd60e51b815260040161064b90613e4c565b61149f33612db6565b815115610ae55781518083602001fd5b6001600160a01b0381168114610ea357600080fd5b60006020828403121561355157600080fd5b81356110098161352a565b80610100810183101561347557600080fd5b803563ffffffff8116811461105257600080fd5b60008083601f84011261359457600080fd5b50813567ffffffffffffffff8111156135ac57600080fd5b6020830191508360208260051b85010111156135c757600080fd5b9250929050565b60008060008060008061018087890312156135e857600080fd5b6135f2888861355c565b95506101008701359450613609610120880161356e565b935061014087013567ffffffffffffffff81111561362657600080fd5b61363289828a01613582565b979a969950949794969561016090950135949350505050565b6000806000806000610180868803121561366457600080fd5b8535945060208601359350604086013592506060860135915061368a876080880161355c565b90509295509295909350565b6000602082840312156136a857600080fd5b5035919050565b634e487b7160e01b600052604160045260246000fd5b601f8201601f1916810167ffffffffffffffff811182821017156136eb576136eb6136af565b6040525050565b6000806040838503121561370557600080fd5b82356137108161352a565b915060208381013567ffffffffffffffff8082111561372e57600080fd5b818601915086601f83011261374257600080fd5b813581811115613754576137546136af565b604051915061376c601f8201601f19168501836136c5565b808252878482850101111561378057600080fd5b80848401858401376000848284010152508093505050509250929050565b60008060008060008060008060a0898b0312156137ba57600080fd5b8835975060208901359650604089013567ffffffffffffffff808211156137e057600080fd5b6137ec8c838d01613582565b909850965060608b013591508082111561380557600080fd5b6138118c838d01613582565b909650945060808b013591508082111561382a57600080fd5b506138378b828c01613582565b999c989b5096995094979396929594505050565b60008060008060006080868803121561386357600080fd5b61386c8661356e565b94506020860135935060408601359250606086013567ffffffffffffffff81111561389657600080fd5b6138a288828901613582565b969995985093965092949392505050565b60008060008060008060008060006101a08a8c0312156138d257600080fd5b6138dc8b8b61355c565b98506101008a013597506101208a013567ffffffffffffffff8082111561390257600080fd5b61390e8d838e01613582565b90995097506101408c013591508082111561392857600080fd5b6139348d838e01613582565b90975095506101608c013591508082111561394e57600080fd5b5061395b8c828d01613582565b9a9d999c50979a969995989497966101800135949350505050565b8015158114610ea357600080fd5b600080600080600080600060e0888a03121561399f57600080fd5b873560ff811681146139b057600080fd5b96506020880135955060408801356139c78161352a565b945060608801356139d78161352a565b935060808801356139e78161352a565b925060a08801356139f781613976565b915060c0880135613a078161352a565b8091505092959891949750929550565b6020808252602c908201527f46756e6374696f6e206d7573742062652063616c6c6564207468726f7567682060408201526b19195b1959d85d1958d85b1b60a21b606082015260800190565b6020808252602c908201527f46756e6374696f6e206d7573742062652063616c6c6564207468726f7567682060408201526b6163746976652070726f787960a01b606082015260800190565b6040810160038410613ad157634e487b7160e01b600052602160045260246000fd5b9281526020015290565b600082613af857634e487b7160e01b600052601260045260246000fd5b500690565b600060208284031215613b0f57600080fd5b81516110098161352a565b634e487b7160e01b600052603260045260246000fd5b8060005b6002811015612a46578151845260209384019390910190600101613b34565b6101208101613b628287613b30565b60408083018660005b6002808210613b7a5750613bb5565b82518460005b83811015613b9e578251825260209283019290910190600101613b80565b505050928401925060209190910190600101613b6b565b50505050613bc660c0830185613b30565b61010082018360005b6001811015613bee578151835260209283019290910190600101613bcf565b50505095945050505050565b600060208284031215613c0c57600080fd5b815161100981613976565b600060033d11156111225760046000803e5060005160e01c90565b600060443d1015613c405790565b6040516003193d81016004833e81513d67ffffffffffffffff8160248401118184111715613c7057505050505090565b8285019150815181811115613c885750505050505090565b843d8701016020828501011115613ca25750505050505090565b613cb1602082860101876136c5565b509095945050505050565b60005b83811015613cd7578181015183820152602001613cbf565b50506000910152565b6020815260008251806020840152613cff816040850160208701613cbc565b601f01601f19169190910160400192915050565b60006101a08201905087825286602083015285604083015284606083015261010084608084013760ff8316610180830152979650505050505050565b8181038181111561347557634e487b7160e01b600052601160045260246000fd5b60006001600160fb1b03831115613d8657600080fd5b8260051b80838637939093019392505050565b888152600060208981840152604083018960005b8a811015613dd65763ffffffff613dc38361356e565b1683529183019190830190600101613dad565b5050613ded613de682898b613d70565b8688613d70565b9c9b505050505050505050505050565b63ffffffff60e01b8660e01b1681528460048201528360248201526000613e28604483018486613d70565b979650505050505050565b600060208284031215613e4557600080fd5b5051919050565b6020808252602b908201527f496e697469616c697a61626c653a20636f6e7472616374206973206e6f74206960408201526a6e697469616c697a696e6760a81b606082015260800190565b60008251613ea9818460208701613cbc565b919091019291505056fe360894a13ba1a3210667c828492db98dca3e2076cc3735a920a3ca505d382bbc30644e72e131a029b85045b68181585d2833e84879b9709143e1f593f0000001416464726573733a206c6f772d6c6576656c2064656c65676174652063616c6c206661696c6564a2646970667358221220a6bd3b4b30c83f6b688e2bb816c3a65abbd0dd57b8326384c0691073056504b664736f6c63430008130033",
    "linkReferences": {}
  },
  "methodIdentifiers": {
    "NO_SUCH_ROOT()": "561f204b",
    "acceptOwnership()": "79ba5097",
    "calculateIdentityRegistrationInputHash(uint32,uint256,uint256,uint256[])": "8c76a909",
    "calculateIdentityUpdateInputHash(uint256,uint256,uint32[],uint256[],uint256[])": "86ec599a",
    "disableStateBridge()": "a26b810e",
    "enableStateBridge()": "61ea6a8d",
    "getIdentityUpdateVerifierLookupTableAddress()": "4ffbdde5",
    "getRegisterIdentitiesVerifierLookupTableAddress()": "8fc22e9f",
    "getRootHistoryExpiry()": "43f974cb",
    "getSemaphoreVerifierAddress()": "f2038f95",
    "getTreeDepth()": "8e5cdd50",
    "identityOperator()": "f134b6ca",
    "initialize(uint8,uint256,address,address,address,bool,address)": "f2ebe631",
    "latestRoot()": "d7b0fef1",
    "owner()": "8da5cb5b",
    "pendingOwner()": "e30c3978",
    "proxiableUUID()": "52d1902d",
    "queryRoot(uint256)": "3f7c178d",
    "registerIdentities(uint256[8],uint256,uint32,uint256[],uint256)": "2217b211",
    "renounceOwnership()": "715018a6",
    "requireValidRoot(uint256)": "f2358e1d",
    "setIdentityOperator(address)": "a7bba582",
    "setIdentityUpdateVerifierLookupTable(address)": "6b056600",
    "setRegisterIdentitiesVerifierLookupTable(address)": "2f059fca",
    "setRootHistoryExpiry(uint256)": "c70aa727",
    "setSemaphoreVerifier(address)": "0e3a12f3",
    "setStateBridge(address)": "fa8ca810",
    "stateBridge()": "91f262d3",
    "transferOwnership(address)": "f2fde38b",
    "updateIdentities(uint256[8],uint256,uint32[],uint256[],uint256[],uint256)": "b843b4e5",
    "upgradeTo(address)": "3659cfe6",
    "upgradeToAndCall(address,bytes)": "4f1ef286",
    "verifyProof(uint256,uint256,uint256,uint256,uint256[8])": "354ca120"
  },
  "id": 42
}