{
  "abi": [
    {
      "inputs": [],
      "stateMutability": "nonpayable",
      "type": "constructor"
    },
    {
      "inputs": [],
      "name": "ExpiredRoot",
      "type": "error"
    },
    {
      "inputs": [],
      "name": "ImplementationNotInitialized",
      "type": "error"
    },
    {
      "inputs": [
        {
          "internalType": "uint256",
          "name": "index",
          "type": "uint256"
        }
      ],
      "name": "InvalidCommitment",
      "type": "error"
    },
    {
      "inputs": [],
      "name": "InvalidStateBridgeProxyAddress",
      "type": "error"
    },
    {
      "inputs": [],
      "name": "NoSuchVerifier",
      "type": "error"
    },
    {
      "inputs": [],
      "name": "NonExistentRoot",
      "type": "error"
    },
    {
      "inputs": [
        {
          "internalType": "uint256",
          "name": "providedRoot",
          "type": "uint256"
        },
        {
          "internalType": "uint256",
          "name": "latestRoot",
          "type": "uint256"
        }
      ],
      "name": "NotLatestRoot",
      "type": "error"
    },
    {
      "inputs": [],
      "name": "ProofValidationFailure",
      "type": "error"
    },
    {
      "inputs": [],
      "name": "StateBridgeAlreadyDisabled",
      "type": "error"
    },
    {
      "inputs": [],
      "name": "StateBridgeAlreadyEnabled",
      "type": "error"
    },
    {
      "inputs": [],
      "name": "StateBridgeProxySendRootMultichainFailure",
      "type": "error"
    },
    {
      "inputs": [
        {
          "internalType": "address",
          "name": "user",
          "type": "address"
        }
      ],
      "name": "Unauthorized",
      "type": "error"
    },
    {
      "inputs": [
        {
          "internalType": "enum WorldIDIdentityManagerImplV1.UnreducedElementType",
          "name": "elementType",
          "type": "uint8"
        },
        {
          "internalType": "uint256",
          "name": "element",
          "type": "uint256"
        }
      ],
      "name": "UnreducedElement",
      "type": "error"
    },
    {
      "anonymous": false,
      "inputs": [
        {
          "indexed": false,
          "internalType": "address",
          "name": "previousAdmin",
          "type": "address"
        },
        {
          "indexed": false,
          "internalType": "address",
          "name": "newAdmin",
          "type": "address"
        }
      ],
      "name": "AdminChanged",
      "type": "event"
    },
    {
      "anonymous": false,
      "inputs": [
        {
          "indexed": true,
          "internalType": "address",
          "name": "beacon",
          "type": "address"
        }
      ],
      "name": "BeaconUpgraded",
      "type": "event"
    },
    {
      "anonymous": false,
      "inputs": [
        {
          "indexed": false,
          "internalType": "uint8",
          "name": "version",
          "type": "uint8"
        }
      ],
      "name": "Initialized",
      "type": "event"
    },
    {
      "anonymous": false,
      "inputs": [
        {
          "indexed": true,
          "internalType": "address",
          "name": "previousOwner",
          "type": "address"
        },
        {
          "indexed": true,
          "internalType": "address",
          "name": "newOwner",
          "type": "address"
        }
      ],
      "name": "OwnershipTransferred",
      "type": "event"
    },
    {
      "anonymous": false,
      "inputs": [
        {
          "indexed": true,
          "internalType": "address",
          "name": "implementation",
          "type": "address"
        }
      ],
      "name": "Upgraded",
      "type": "event"
    },
    {
      "inputs": [],
      "name": "NO_SUCH_ROOT",
      "outputs": [
        {
          "components": [
            {
              "internalType": "uint256",
              "name": "root",
              "type": "uint256"
            },
            {
              "internalType": "uint128",
              "name": "supersededTimestamp",
              "type": "uint128"
            },
            {
              "internalType": "bool",
              "name": "isValid",
              "type": "bool"
            }
          ],
          "internalType": "struct WorldIDIdentityManagerImplV1.RootInfo",
          "name": "rootInfo",
          "type": "tuple"
        }
      ],
      "stateMutability": "pure",
      "type": "function"
    },
    {
      "inputs": [
        {
          "internalType": "uint32",
          "name": "startIndex",
          "type": "uint32"
        },
        {
          "internalType": "uint256",
          "name": "preRoot",
          "type": "uint256"
        },
        {
          "internalType": "uint256",
          "name": "postRoot",
          "type": "uint256"
        },
        {
          "internalType": "uint256[]",
          "name": "identityCommitments",
          "type": "uint256[]"
        }
      ],
      "name": "calculateIdentityRegistrationInputHash",
      "outputs": [
        {
          "internalType": "bytes32",
          "name": "hash",
          "type": "bytes32"
        }
      ],
      "stateMutability": "view",
      "type": "function"
    },
    {
      "inputs": [
        {
          "internalType": "uint256",
          "name": "preRoot",
          "type": "uint256"
        },
        {
          "internalType": "uint256",
          "name": "postRoot",
          "type": "uint256"
        },
        {
          "components": [
            {
              "internalType": "uint32",
              "name": "leafIndex",
              "type": "uint32"
            },
            {
              "internalType": "uint256",
              "name": "oldCommitment",
              "type": "uint256"
            },
            {
              "internalType": "uint256",
              "name": "newCommitment",
              "type": "uint256"
            }
          ],
          "internalType": "struct WorldIDIdentityManagerImplV1.IdentityUpdate[]",
          "name": "identities",
          "type": "tuple[]"
        }
      ],
      "name": "calculateIdentityUpdateInputHash",
      "outputs": [
        {
          "internalType": "bytes32",
          "name": "hash",
          "type": "bytes32"
        }
      ],
      "stateMutability": "view",
      "type": "function"
    },
    {
      "inputs": [
        {
          "internalType": "uint256",
          "name": "root",
          "type": "uint256"
        }
      ],
      "name": "checkValidRoot",
      "outputs": [
        {
          "internalType": "bool",
          "name": "",
          "type": "bool"
        }
      ],
      "stateMutability": "view",
      "type": "function"
    },
    {
      "inputs": [],
      "name": "disableStateBridge",
      "outputs": [],
      "stateMutability": "nonpayable",
      "type": "function"
    },
    {
      "inputs": [],
      "name": "enableStateBridge",
      "outputs": [],
      "stateMutability": "nonpayable",
      "type": "function"
    },
    {
      "inputs": [],
      "name": "getIdentityUpdateVerifierLookupTableAddress",
      "outputs": [
        {
          "internalType": "address",
          "name": "addr",
          "type": "address"
        }
      ],
      "stateMutability": "view",
      "type": "function"
    },
    {
      "inputs": [],
      "name": "getRegisterIdentitiesVerifierLookupTableAddress",
      "outputs": [
        {
          "internalType": "address",
          "name": "addr",
          "type": "address"
        }
      ],
      "stateMutability": "view",
      "type": "function"
    },
    {
      "inputs": [],
      "name": "getRootHistoryExpiry",
      "outputs": [
        {
          "internalType": "uint256",
          "name": "expiryTime",
          "type": "uint256"
        }
      ],
      "stateMutability": "view",
      "type": "function"
    },
    {
      "inputs": [],
      "name": "getSemaphoreVerifierAddress",
      "outputs": [
        {
          "internalType": "address",
          "name": "addr",
          "type": "address"
        }
      ],
      "stateMutability": "view",
      "type": "function"
    },
    {
      "inputs": [
        {
          "internalType": "uint256",
          "name": "initialRoot",
          "type": "uint256"
        },
        {
          "internalType": "contract VerifierLookupTable",
          "name": "_batchInsertionVerifiers",
          "type": "address"
        },
        {
          "internalType": "contract VerifierLookupTable",
          "name": "_batchUpdateVerifiers",
          "type": "address"
        },
        {
          "internalType": "contract Verifier",
          "name": "_semaphoreVerifier",
          "type": "address"
        },
        {
          "internalType": "bool",
          "name": "_enableStateBridge",
          "type": "bool"
        },
        {
          "internalType": "address",
          "name": "initialStateBridgeProxyAddress",
          "type": "address"
        }
      ],
      "name": "initialize",
      "outputs": [],
      "stateMutability": "nonpayable",
      "type": "function"
    },
    {
      "inputs": [
        {
          "internalType": "uint256",
          "name": "input",
          "type": "uint256"
        }
      ],
      "name": "isInputInReducedForm",
      "outputs": [
        {
          "internalType": "bool",
          "name": "isInReducedForm",
          "type": "bool"
        }
      ],
      "stateMutability": "view",
      "type": "function"
    },
    {
      "inputs": [],
      "name": "latestRoot",
      "outputs": [
        {
          "internalType": "uint256",
          "name": "root",
          "type": "uint256"
        }
      ],
      "stateMutability": "view",
      "type": "function"
    },
    {
      "inputs": [],
      "name": "owner",
      "outputs": [
        {
          "internalType": "address",
          "name": "",
          "type": "address"
        }
      ],
      "stateMutability": "view",
      "type": "function"
    },
    {
      "inputs": [],
      "name": "proxiableUUID",
      "outputs": [
        {
          "internalType": "bytes32",
          "name": "",
          "type": "bytes32"
        }
      ],
      "stateMutability": "view",
      "type": "function"
    },
    {
      "inputs": [
        {
          "internalType": "uint256",
          "name": "root",
          "type": "uint256"
        }
      ],
      "name": "queryRoot",
      "outputs": [
        {
          "components": [
            {
              "internalType": "uint256",
              "name": "root",
              "type": "uint256"
            },
            {
              "internalType": "uint128",
              "name": "supersededTimestamp",
              "type": "uint128"
            },
            {
              "internalType": "bool",
              "name": "isValid",
              "type": "bool"
            }
          ],
          "internalType": "struct WorldIDIdentityManagerImplV1.RootInfo",
          "name": "rootInfo",
          "type": "tuple"
        }
      ],
      "stateMutability": "view",
      "type": "function"
    },
    {
      "inputs": [
        {
          "internalType": "uint256[8]",
          "name": "insertionProof",
          "type": "uint256[8]"
        },
        {
          "internalType": "uint256",
          "name": "preRoot",
          "type": "uint256"
        },
        {
          "internalType": "uint32",
          "name": "startIndex",
          "type": "uint32"
        },
        {
          "internalType": "uint256[]",
          "name": "identityCommitments",
          "type": "uint256[]"
        },
        {
          "internalType": "uint256",
          "name": "postRoot",
          "type": "uint256"
        }
      ],
      "name": "registerIdentities",
      "outputs": [],
      "stateMutability": "nonpayable",
      "type": "function"
    },
    {
      "inputs": [
        {
          "internalType": "uint256[8]",
          "name": "removalProof",
          "type": "uint256[8]"
        },
        {
          "internalType": "uint256",
          "name": "preRoot",
          "type": "uint256"
        },
        {
          "components": [
            {
              "internalType": "uint32",
              "name": "leafIndex",
              "type": "uint32"
            },
            {
              "internalType": "uint256",
              "name": "oldCommitment",
              "type": "uint256"
            },
            {
              "internalType": "uint256",
              "name": "newCommitment",
              "type": "uint256"
            }
          ],
          "internalType": "struct WorldIDIdentityManagerImplV1.IdentityUpdate[]",
          "name": "removedIdentities",
          "type": "tuple[]"
        },
        {
          "internalType": "uint256",
          "name": "postRoot",
          "type": "uint256"
        }
      ],
      "name": "removeIdentities",
      "outputs": [],
      "stateMutability": "nonpayable",
      "type": "function"
    },
    {
      "inputs": [],
      "name": "renounceOwnership",
      "outputs": [],
      "stateMutability": "nonpayable",
      "type": "function"
    },
    {
      "inputs": [
        {
          "internalType": "contract VerifierLookupTable",
          "name": "newTable",
          "type": "address"
        }
      ],
      "name": "setIdentityUpdateVerifierLookupTable",
      "outputs": [],
      "stateMutability": "nonpayable",
      "type": "function"
    },
    {
      "inputs": [
        {
          "internalType": "contract VerifierLookupTable",
          "name": "newTable",
          "type": "address"
        }
      ],
      "name": "setRegisterIdentitiesVerifierLookupTable",
      "outputs": [],
      "stateMutability": "nonpayable",
      "type": "function"
    },
    {
      "inputs": [
        {
          "internalType": "uint256",
          "name": "newExpiryTime",
          "type": "uint256"
        }
      ],
      "name": "setRootHistoryExpiry",
      "outputs": [],
      "stateMutability": "nonpayable",
      "type": "function"
    },
    {
      "inputs": [
        {
          "internalType": "contract Verifier",
          "name": "newVerifier",
          "type": "address"
        }
      ],
      "name": "setSemaphoreVerifier",
      "outputs": [],
      "stateMutability": "nonpayable",
      "type": "function"
    },
    {
      "inputs": [
        {
          "internalType": "address",
          "name": "newStateBridgeProxyAddress",
          "type": "address"
        }
      ],
      "name": "setStateBridgeProxyAddress",
      "outputs": [],
      "stateMutability": "nonpayable",
      "type": "function"
    },
    {
      "inputs": [],
      "name": "stateBridgeProxyAddress",
      "outputs": [
        {
          "internalType": "address",
          "name": "proxy",
          "type": "address"
        }
      ],
      "stateMutability": "view",
      "type": "function"
    },
    {
      "inputs": [
        {
          "internalType": "address",
          "name": "newOwner",
          "type": "address"
        }
      ],
      "name": "transferOwnership",
      "outputs": [],
      "stateMutability": "nonpayable",
      "type": "function"
    },
    {
      "inputs": [
        {
          "internalType": "uint256[8]",
          "name": "updateProof",
          "type": "uint256[8]"
        },
        {
          "internalType": "uint256",
          "name": "preRoot",
          "type": "uint256"
        },
        {
          "components": [
            {
              "internalType": "uint32",
              "name": "leafIndex",
              "type": "uint32"
            },
            {
              "internalType": "uint256",
              "name": "oldCommitment",
              "type": "uint256"
            },
            {
              "internalType": "uint256",
              "name": "newCommitment",
              "type": "uint256"
            }
          ],
          "internalType": "struct WorldIDIdentityManagerImplV1.IdentityUpdate[]",
          "name": "updatedIdentities",
          "type": "tuple[]"
        },
        {
          "internalType": "uint256",
          "name": "postRoot",
          "type": "uint256"
        }
      ],
      "name": "updateIdentities",
      "outputs": [],
      "stateMutability": "nonpayable",
      "type": "function"
    },
    {
      "inputs": [
        {
          "internalType": "address",
          "name": "newImplementation",
          "type": "address"
        }
      ],
      "name": "upgradeTo",
      "outputs": [],
      "stateMutability": "nonpayable",
      "type": "function"
    },
    {
      "inputs": [
        {
          "internalType": "address",
          "name": "newImplementation",
          "type": "address"
        },
        {
          "internalType": "bytes",
          "name": "data",
          "type": "bytes"
        }
      ],
      "name": "upgradeToAndCall",
      "outputs": [],
      "stateMutability": "payable",
      "type": "function"
    },
    {
      "inputs": [
        {
          "internalType": "uint256",
          "name": "root",
          "type": "uint256"
        },
        {
          "internalType": "uint256",
          "name": "signalHash",
          "type": "uint256"
        },
        {
          "internalType": "uint256",
          "name": "nullifierHash",
          "type": "uint256"
        },
        {
          "internalType": "uint256",
          "name": "externalNullifierHash",
          "type": "uint256"
        },
        {
          "internalType": "uint256[8]",
          "name": "proof",
          "type": "uint256[8]"
        }
      ],
      "name": "verifyProof",
      "outputs": [],
      "stateMutability": "view",
      "type": "function"
    }
  ],
  "bytecode": {
    "object": "0x60a0604052306080523480156200001557600080fd5b506200002062000026565b620000e8565b600054610100900460ff1615620000935760405162461bcd60e51b815260206004820152602760248201527f496e697469616c697a61626c653a20636f6e747261637420697320696e697469604482015266616c697a696e6760c81b606482015260840160405180910390fd5b60005460ff9081161015620000e6576000805460ff191660ff9081179091556040519081527f7f26b83ff96e1f2b6a682f133852f6798a09c465da95921460cefb38474024989060200160405180910390a15b565b608051613ba162000270600039600081816105af015281816105f801528181610783015281816107c301528181610871015281816108b101528181610d7f01528181610dbf01528181610e6e01528181610eae01528181610f5b01528181610f9b0152818161111e0152818161115e015281816112030152818161124301528181611394015281816113d40152818161145f0152818161149f0152818161180101528181611841015281816118bc015281816118fc0152818161199201528181611a4201528181611a8201528181611b5001528181611b9001528181611c4f01528181611c8f01528181611d8001528181611dc001528181611ec901528181611f0901528181611fa901528181611fe90152818161207c015281816120bc01528181612183015281816121c30152818161226e015281816122ae0152818161234201528181612382015281816125c2015281816126020152818161268e015281816126ce0152818161298b015281816129cb01528181612b380152612b780152613ba16000f3fe6080604052600436106101cd5760003560e01c80636b056600116100f7578063a26b810e11610095578063d11e8ef811610064578063d11e8ef814610539578063d7b0fef114610559578063f2038f951461056e578063f2fde38b1461058357600080fd5b8063a26b810e146104cf578063b1390908146104e4578063b6621a3d14610504578063c70aa7271461051957600080fd5b80638b6c56c6116100d15780638b6c56c61461045c5780638c76a9091461047c5780638da5cb5b1461049c5780638fc22e9f146104ba57600080fd5b80636b05660014610407578063715018a6146104275780638939472e1461043c57600080fd5b80633f7c178d1161016f5780634ffbdde51161013e5780634ffbdde51461036c57806352d1902d14610399578063561f204b146103ae57806361ea6a8d146103f257600080fd5b80633f7c178d146102d757806343f974cb146103245780634bc511e6146103395780634f1ef2861461035957600080fd5b80632f059fca116101ab5780632f059fca146102475780633492315214610267578063354ca120146102975780633659cfe6146102b757600080fd5b806309edcb9c146101d25780630e3a12f3146102055780632217b21114610227575b600080fd5b3480156101de57600080fd5b506101f26101ed36600461320d565b6105a3565b6040519081526020015b60405180910390f35b34801561021157600080fd5b50610225610220366004613275565b610779565b005b34801561023357600080fd5b506102256102423660046132fd565b610867565b34801561025357600080fd5b50610225610262366004613275565b610d75565b34801561027357600080fd5b5061028761028236600461337a565b610e62565b60405190151581526020016101fc565b3480156102a357600080fd5b506102256102b2366004613393565b610f51565b3480156102c357600080fd5b506102256102d2366004613275565b611114565b3480156102e357600080fd5b506102f76102f236600461337a565b6111dc565b60408051825181526020808401516001600160801b031690820152918101511515908201526060016101fc565b34801561033057600080fd5b506101f2611388565b34801561034557600080fd5b506102256103543660046133de565b611455565b610225610367366004613488565b6117f7565b34801561037857600080fd5b506103816118b0565b6040516001600160a01b0390911681526020016101fc565b3480156103a557600080fd5b506101f2611985565b3480156103ba57600080fd5b5060408051606080820183526000808352602080840182905292840181905283519182018452808252918101829052918201526102f7565b3480156103fe57600080fd5b50610225611a38565b34801561041357600080fd5b50610225610422366004613275565b611b46565b34801561043357600080fd5b50610225611c33565b34801561044857600080fd5b50610225610457366004613275565b611c45565b34801561046857600080fd5b5061028761047736600461337a565b611d74565b34801561048857600080fd5b506101f2610497366004613534565b611ebd565b3480156104a857600080fd5b506033546001600160a01b0316610381565b3480156104c657600080fd5b50610381611f9d565b3480156104db57600080fd5b50610225612072565b3480156104f057600080fd5b506102256104ff3660046133de565b612179565b34801561051057600080fd5b50610381612262565b34801561052557600080fd5b5061022561053436600461337a565b612338565b34801561054557600080fd5b506102256105543660046135aa565b612458565b34801561056557600080fd5b506101f26125b6565b34801561057a57600080fd5b50610381612682565b34801561058f57600080fd5b5061022561059e366004613275565b612758565b60006001600160a01b037f00000000000000000000000000000000000000000000000000000000000000001630036105f65760405162461bcd60e51b81526004016105ed90613623565b60405180910390fd5b7f00000000000000000000000000000000000000000000000000000000000000006001600160a01b03166106286127ce565b6001600160a01b03161461064e5760405162461bcd60e51b81526004016105ed9061366f565b60c95460ff1661067157604051630103019560e11b815260040160405180910390fd5b60408051600080825260208201909252905b8381101561073e57600085858381811061069f5761069f6136bb565b9050606002018036038101906106b591906136d1565b805160208083015160408085015190519495506000946106f694930160e09390931b6001600160e01b03191683526004830191909152602482015260440190565b6040516020818303038152906040529050838160405160200161071a929190613756565b60405160208183030381529060405293505050806107379061379b565b9050610683565b506000868683604051602001610756939291906137b4565b60408051601f198184030181529190528051602090910120979650505050505050565b6001600160a01b037f00000000000000000000000000000000000000000000000000000000000000001630036107c15760405162461bcd60e51b81526004016105ed90613623565b7f00000000000000000000000000000000000000000000000000000000000000006001600160a01b03166107f36127ce565b6001600160a01b0316146108195760405162461bcd60e51b81526004016105ed9061366f565b60c95460ff1661083c57604051630103019560e11b815260040160405180910390fd5b6108446127ea565b61010080546001600160a01b0319166001600160a01b0392909216919091179055565b6001600160a01b037f00000000000000000000000000000000000000000000000000000000000000001630036108af5760405162461bcd60e51b81526004016105ed90613623565b7f00000000000000000000000000000000000000000000000000000000000000006001600160a01b03166108e16127ce565b6001600160a01b0316146109075760405162461bcd60e51b81526004016105ed9061366f565b60c95460ff1661092a57604051630103019560e11b815260040160405180910390fd5b6109326127ea565b61093b85610e62565b61095d5760008560405163af1e188960e01b81526004016105ed9291906137e1565b60fb54851461098d5760fb5460405163542fced960e11b81526105ed918791600401918252602082015260400190565b61099681610e62565b6109b85760028160405163af1e188960e01b81526004016105ed9291906137e1565b6109c28383612844565b60006109d18587848787611ebd565b905060006109de826128de565b60fe54604051638a283fc360e01b8152600481018790529192506001600160a01b031690638a283fc390602401602060405180830381865afa925050508015610a44575060408051601f3d908101601f19168201909252610a419181019061380d565b60015b610b7457610a5061382a565b806308c379a003610a895750610a64613845565b80610a6f5750610a8b565b8060405162461bcd60e51b81526004016105ed91906138cf565b505b3d808015610ab5576040519150601f19603f3d011682016040523d82523d6000602084013e610aba565b606091505b5080516004811015610acd578060208301fd5b6000610ad883612910565b905063e18e957560e01b6001600160e01b0319821601610b0b57604051631e716a8b60e01b815260040160405180910390fd5b632cc2303160e11b6001600160e01b0319821601610b3c576040516312ea862760e21b815260040160405180910390fd5b632d1579d960e21b6001600160e01b0319821601610b6d576040516312ea862760e21b815260040160405180910390fd5b8160208401fd5b806001600160a01b03166343753b4d60405180604001604052808c600060088110610ba157610ba16136bb565b602002013581526020018c600160088110610bbe57610bbe6136bb565b60200201359052604080516080810182528d820135918101918252908190606082018f60036020020135815250815260200160405180604001604052808f600460088110610c0e57610c0e6136bb565b602002013581526020018f600560088110610c2b57610c2b6136bb565b60200201359052905260408051808201909152808e6006602002013581526020018e600760088110610c5f57610c5f6136bb565b60200201358152506040518060200160405280888152506040518563ffffffff1660e01b8152600401610c959493929190613953565b6020604051808303816000875af1925050508015610cd0575060408051601f3d908101601f19168201909252610ccd918101906139b0565b60015b610d1657610cdc61382a565b806308c379a003610cfb5750610cf0613845565b80610a6f5750610cfd565b505b604051631e716a8b60e01b815260040160405180910390fd5b80610d3457604051631e716a8b60e01b815260040160405180910390fd5b60fb859055600089815260fc6020526040902080546001600160801b031916426001600160801b0316179055610d68612981565b505b505050505050505050565b6001600160a01b037f0000000000000000000000000000000000000000000000000000000000000000163003610dbd5760405162461bcd60e51b81526004016105ed90613623565b7f00000000000000000000000000000000000000000000000000000000000000006001600160a01b0316610def6127ce565b6001600160a01b031614610e155760405162461bcd60e51b81526004016105ed9061366f565b60c95460ff16610e3857604051630103019560e11b815260040160405180910390fd5b610e406127ea565b60fe80546001600160a01b0319166001600160a01b0392909216919091179055565b60006001600160a01b037f0000000000000000000000000000000000000000000000000000000000000000163003610eac5760405162461bcd60e51b81526004016105ed90613623565b7f00000000000000000000000000000000000000000000000000000000000000006001600160a01b0316610ede6127ce565b6001600160a01b031614610f045760405162461bcd60e51b81526004016105ed9061366f565b60c95460ff16610f2757604051630103019560e11b815260040160405180910390fd5b507f30644e72e131a029b85045b68181585d2833e84879b9709143e1f593f000000181105b919050565b6001600160a01b037f0000000000000000000000000000000000000000000000000000000000000000163003610f995760405162461bcd60e51b81526004016105ed90613623565b7f00000000000000000000000000000000000000000000000000000000000000006001600160a01b0316610fcb6127ce565b6001600160a01b031614610ff15760405162461bcd60e51b81526004016105ed9061366f565b60c95460ff1661101457604051630103019560e11b815260040160405180910390fd5b60408051608081018252868152602081018590529081018590526060810183905261103e86611d74565b1561110c57610100546040805180820182528435815260208086013581830152825160808082018552878501358286019081526060808a01359084015282528451808601865290880135815260a088013581840152818301528351808501855260c0880135815260e0880135928101929092529251635fe8c13b60e01b81526001600160a01b0390941693635fe8c13b936110e09392909187906004016139cd565b60006040518083038186803b1580156110f857600080fd5b505afa158015610d68573d6000803e3d6000fd5b505050505050565b6001600160a01b037f000000000000000000000000000000000000000000000000000000000000000016300361115c5760405162461bcd60e51b81526004016105ed90613623565b7f00000000000000000000000000000000000000000000000000000000000000006001600160a01b031661118e6127ce565b6001600160a01b0316146111b45760405162461bcd60e51b81526004016105ed9061366f565b6111bd81612b2e565b604080516000808252602082019092526111d991839190612bd6565b50565b60408051606081018252600080825260208201819052918101919091526001600160a01b037f00000000000000000000000000000000000000000000000000000000000000001630036112415760405162461bcd60e51b81526004016105ed90613623565b7f00000000000000000000000000000000000000000000000000000000000000006001600160a01b03166112736127ce565b6001600160a01b0316146112995760405162461bcd60e51b81526004016105ed9061366f565b60c95460ff166112bc57604051630103019560e11b815260040160405180910390fd5b60fb5482036112e95750506040805160608101825260fb5481526000602082015260019181019190915290565b600082815260fc60205260408120546001600160801b0316908190036113435760408051606080820183526000808352602080840182905292840181905283519182018452808252918101829052918201525b9392505050565b60fd5460009061135c6001600160801b03841642613a1e565b604080516060810182528781526001600160801b03909516602086015291101590830152509050919050565b60006001600160a01b037f00000000000000000000000000000000000000000000000000000000000000001630036113d25760405162461bcd60e51b81526004016105ed90613623565b7f00000000000000000000000000000000000000000000000000000000000000006001600160a01b03166114046127ce565b6001600160a01b03161461142a5760405162461bcd60e51b81526004016105ed9061366f565b60c95460ff1661144d57604051630103019560e11b815260040160405180910390fd5b5060fd545b90565b6001600160a01b037f000000000000000000000000000000000000000000000000000000000000000016300361149d5760405162461bcd60e51b81526004016105ed90613623565b7f00000000000000000000000000000000000000000000000000000000000000006001600160a01b03166114cf6127ce565b6001600160a01b0316146114f55760405162461bcd60e51b81526004016105ed9061366f565b60c95460ff1661151857604051630103019560e11b815260040160405180910390fd5b6115206127ea565b61152984610e62565b61154b5760008460405163af1e188960e01b81526004016105ed9291906137e1565b60fb54841461157b5760fb5460405163542fced960e11b81526105ed918691600401918252602082015260400190565b61158481610e62565b6115a65760028160405163af1e188960e01b81526004016105ed9291906137e1565b6115b08383612d46565b60006115be858386866105a3565b905060006115cb826128de565b60ff54604051638a283fc360e01b8152600481018790529192506001600160a01b031690638a283fc390602401602060405180830381865afa925050508015611631575060408051601f3d908101601f1916820190925261162e9181019061380d565b60015b61163d57610a5061382a565b806001600160a01b03166343753b4d60405180604001604052808b60006008811061166a5761166a6136bb565b602002013581526020018b600160088110611687576116876136bb565b60200201359052604080516080810182528c820135918101918252908190606082018e60036020020135815250815260200160405180604001604052808e6004600881106116d7576116d76136bb565b602002013581526020018e6005600881106116f4576116f46136bb565b60200201359052905260408051808201909152808d6006602002013581526020018d600760088110611728576117286136bb565b60200201358152506040518060200160405280888152506040518563ffffffff1660e01b815260040161175e9493929190613953565b6020604051808303816000875af1925050508015611799575060408051601f3d908101601f19168201909252611796918101906139b0565b60015b6117a557610cdc61382a565b806117c357604051631e716a8b60e01b815260040160405180910390fd5b60fb859055600088815260fc6020526040902080546001600160801b031916426001600160801b0316179055610d6a612981565b6001600160a01b037f000000000000000000000000000000000000000000000000000000000000000016300361183f5760405162461bcd60e51b81526004016105ed90613623565b7f00000000000000000000000000000000000000000000000000000000000000006001600160a01b03166118716127ce565b6001600160a01b0316146118975760405162461bcd60e51b81526004016105ed9061366f565b6118a082612b2e565b6118ac82826001612bd6565b5050565b60006001600160a01b037f00000000000000000000000000000000000000000000000000000000000000001630036118fa5760405162461bcd60e51b81526004016105ed90613623565b7f00000000000000000000000000000000000000000000000000000000000000006001600160a01b031661192c6127ce565b6001600160a01b0316146119525760405162461bcd60e51b81526004016105ed9061366f565b60c95460ff1661197557604051630103019560e11b815260040160405180910390fd5b5060ff546001600160a01b031690565b6000306001600160a01b037f00000000000000000000000000000000000000000000000000000000000000001614611a255760405162461bcd60e51b815260206004820152603860248201527f555550535570677261646561626c653a206d757374206e6f742062652063616c60448201527f6c6564207468726f7567682064656c656761746563616c6c000000000000000060648201526084016105ed565b50600080516020613b2583398151915290565b6001600160a01b037f0000000000000000000000000000000000000000000000000000000000000000163003611a805760405162461bcd60e51b81526004016105ed90613623565b7f00000000000000000000000000000000000000000000000000000000000000006001600160a01b0316611ab26127ce565b6001600160a01b031614611ad85760405162461bcd60e51b81526004016105ed9061366f565b60c95460ff16611afb57604051630103019560e11b815260040160405180910390fd5b611b036127ea565b61010154600160a01b900460ff16611b2b57610101805460ff60a01b1916600160a01b179055565b60405163963a8d4f60e01b815260040160405180910390fd5b565b6001600160a01b037f0000000000000000000000000000000000000000000000000000000000000000163003611b8e5760405162461bcd60e51b81526004016105ed90613623565b7f00000000000000000000000000000000000000000000000000000000000000006001600160a01b0316611bc06127ce565b6001600160a01b031614611be65760405162461bcd60e51b81526004016105ed9061366f565b60c95460ff16611c0957604051630103019560e11b815260040160405180910390fd5b611c116127ea565b60ff80546001600160a01b0319166001600160a01b0392909216919091179055565b611c3b6127ea565b611b446000612df3565b6001600160a01b037f0000000000000000000000000000000000000000000000000000000000000000163003611c8d5760405162461bcd60e51b81526004016105ed90613623565b7f00000000000000000000000000000000000000000000000000000000000000006001600160a01b0316611cbf6127ce565b6001600160a01b031614611ce55760405162461bcd60e51b81526004016105ed9061366f565b60c95460ff16611d0857604051630103019560e11b815260040160405180910390fd5b611d106127ea565b6001600160a01b038116611d3757604051632d566eef60e11b815260040160405180910390fd5b61010154600160a01b900460ff16611d5157611d51611a38565b61010180546001600160a01b0319166001600160a01b0392909216919091179055565b60006001600160a01b037f0000000000000000000000000000000000000000000000000000000000000000163003611dbe5760405162461bcd60e51b81526004016105ed90613623565b7f00000000000000000000000000000000000000000000000000000000000000006001600160a01b0316611df06127ce565b6001600160a01b031614611e165760405162461bcd60e51b81526004016105ed9061366f565b60c95460ff16611e3957604051630103019560e11b815260040160405180910390fd5b60fb548214611eb557600082815260fc602052604090205460fd546001600160801b0390911690611e6a8242613a1e565b1115611e8957604051631d739acf60e11b815260040160405180910390fd5b806001600160801b0316600003611eb35760405163ddae3b7160e01b815260040160405180910390fd5b505b506001919050565b60006001600160a01b037f0000000000000000000000000000000000000000000000000000000000000000163003611f075760405162461bcd60e51b81526004016105ed90613623565b7f00000000000000000000000000000000000000000000000000000000000000006001600160a01b0316611f396127ce565b6001600160a01b031614611f5f5760405162461bcd60e51b81526004016105ed9061366f565b60c95460ff16611f8257604051630103019560e11b815260040160405180910390fd5b60008686868686604051602001610756959493929190613a31565b60006001600160a01b037f0000000000000000000000000000000000000000000000000000000000000000163003611fe75760405162461bcd60e51b81526004016105ed90613623565b7f00000000000000000000000000000000000000000000000000000000000000006001600160a01b03166120196127ce565b6001600160a01b03161461203f5760405162461bcd60e51b81526004016105ed9061366f565b60c95460ff1661206257604051630103019560e11b815260040160405180910390fd5b5060fe546001600160a01b031690565b6001600160a01b037f00000000000000000000000000000000000000000000000000000000000000001630036120ba5760405162461bcd60e51b81526004016105ed90613623565b7f00000000000000000000000000000000000000000000000000000000000000006001600160a01b03166120ec6127ce565b6001600160a01b0316146121125760405162461bcd60e51b81526004016105ed9061366f565b60c95460ff1661213557604051630103019560e11b815260040160405180910390fd5b61213d6127ea565b61010154600160a01b900460ff161561216057610101805460ff60a01b19169055565b6040516331ae429160e21b815260040160405180910390fd5b6001600160a01b037f00000000000000000000000000000000000000000000000000000000000000001630036121c15760405162461bcd60e51b81526004016105ed90613623565b7f00000000000000000000000000000000000000000000000000000000000000006001600160a01b03166121f36127ce565b6001600160a01b0316146122195760405162461bcd60e51b81526004016105ed9061366f565b60c95460ff1661223c57604051630103019560e11b815260040160405180910390fd5b6122446127ea565b61224e8383612e45565b61225b8585858585611455565b5050505050565b60006001600160a01b037f00000000000000000000000000000000000000000000000000000000000000001630036122ac5760405162461bcd60e51b81526004016105ed90613623565b7f00000000000000000000000000000000000000000000000000000000000000006001600160a01b03166122de6127ce565b6001600160a01b0316146123045760405162461bcd60e51b81526004016105ed9061366f565b60c95460ff1661232757604051630103019560e11b815260040160405180910390fd5b50610101546001600160a01b031690565b6001600160a01b037f00000000000000000000000000000000000000000000000000000000000000001630036123805760405162461bcd60e51b81526004016105ed90613623565b7f00000000000000000000000000000000000000000000000000000000000000006001600160a01b03166123b26127ce565b6001600160a01b0316146123d85760405162461bcd60e51b81526004016105ed9061366f565b60c95460ff166123fb57604051630103019560e11b815260040160405180910390fd5b6124036127ea565b806000036124535760405162461bcd60e51b815260206004820152601b60248201527f4578706972792074696d652063616e6e6f74206265207a65726f2e000000000060448201526064016105ed565b60fd55565b600054600190610100900460ff1615801561247a575060005460ff8083169116105b6124dd5760405162461bcd60e51b815260206004820152602e60248201527f496e697469616c697a61626c653a20636f6e747261637420697320616c72656160448201526d191e481a5b9a5d1a585b1a5e995960921b60648201526084016105ed565b6000805461ffff191660ff8316176101001790556124f9612eb5565b610e1060fd5560fb87905560fe80546001600160a01b03199081166001600160a01b038981169190911790925560ff80548216888416179055610100805490911686831617905561010180549184166001600160a81b031990921691909117600160a01b8515150217905561256c612eec565b6000805461ff001916905560405160ff821681527f7f26b83ff96e1f2b6a682f133852f6798a09c465da95921460cefb38474024989060200160405180910390a150505050505050565b60006001600160a01b037f00000000000000000000000000000000000000000000000000000000000000001630036126005760405162461bcd60e51b81526004016105ed90613623565b7f00000000000000000000000000000000000000000000000000000000000000006001600160a01b03166126326127ce565b6001600160a01b0316146126585760405162461bcd60e51b81526004016105ed9061366f565b60c95460ff1661267b57604051630103019560e11b815260040160405180910390fd5b5060fb5490565b60006001600160a01b037f00000000000000000000000000000000000000000000000000000000000000001630036126cc5760405162461bcd60e51b81526004016105ed90613623565b7f00000000000000000000000000000000000000000000000000000000000000006001600160a01b03166126fe6127ce565b6001600160a01b0316146127245760405162461bcd60e51b81526004016105ed9061366f565b60c95460ff1661274757604051630103019560e11b815260040160405180910390fd5b50610100546001600160a01b031690565b6127606127ea565b6001600160a01b0381166127c55760405162461bcd60e51b815260206004820152602660248201527f4f776e61626c653a206e6577206f776e657220697320746865207a65726f206160448201526564647265737360d01b60648201526084016105ed565b6111d981612df3565b600080516020613b25833981519152546001600160a01b031690565b6033546001600160a01b03163314611b445760405162461bcd60e51b815260206004820181905260248201527f4f776e61626c653a2063616c6c6572206973206e6f7420746865206f776e657260448201526064016105ed565b6000805b828110156128d8576000848483818110612864576128646136bb565b90506020020135905082801561287957508015155b1561289a5760405163018f31f560e51b8152600481018390526024016105ed565b6128a381610e62565b6128c55760018160405163af1e188960e01b81526004016105ed9291906137e1565b1591506128d18161379b565b9050612848565b50505050565b600061290a7f30644e72e131a029b85045b68181585d2833e84879b9709143e1f593f000000183613a82565b92915050565b60006004825110156129795760405162461bcd60e51b815260206004820152602c60248201527f44617461206c656e67746820746f6f2073686f727420746f20636f6e7461696e60448201526b10309039b2b632b1ba37b91760a11b60648201526084016105ed565b506020015190565b6001600160a01b037f00000000000000000000000000000000000000000000000000000000000000001630036129c95760405162461bcd60e51b81526004016105ed90613623565b7f00000000000000000000000000000000000000000000000000000000000000006001600160a01b03166129fb6127ce565b6001600160a01b031614612a215760405162461bcd60e51b81526004016105ed9061366f565b60c95460ff16612a4457604051630103019560e11b815260040160405180910390fd5b61010154600160a01b900460ff168015612a695750610101546001600160a01b031615155b15611b44576101015460fb546040516000926001600160a01b031691612a959160240190815260200190565b60408051601f198184030181529181526020820180516001600160e01b031663393170cf60e01b17905251612aca9190613aa4565b6000604051808303816000865af19150503d8060008114612b07576040519150601f19603f3d011682016040523d82523d6000602084013e612b0c565b606091505b50509050806111d95760405163ca27883560e01b815260040160405180910390fd5b6001600160a01b037f0000000000000000000000000000000000000000000000000000000000000000163003612b765760405162461bcd60e51b81526004016105ed90613623565b7f00000000000000000000000000000000000000000000000000000000000000006001600160a01b0316612ba86127ce565b6001600160a01b031614612bce5760405162461bcd60e51b81526004016105ed9061366f565b6111d96127ea565b7f4910fdfa16fed3260ed0e7147f7cc6da11a60208b5b9406d12a635614ffd91435460ff1615612c0e57612c0983612f22565b505050565b826001600160a01b03166352d1902d6040518163ffffffff1660e01b8152600401602060405180830381865afa925050508015612c68575060408051601f3d908101601f19168201909252612c6591810190613ac0565b60015b612ccb5760405162461bcd60e51b815260206004820152602e60248201527f45524331393637557067726164653a206e657720696d706c656d656e7461746960448201526d6f6e206973206e6f74205555505360901b60648201526084016105ed565b600080516020613b258339815191528114612d3a5760405162461bcd60e51b815260206004820152602960248201527f45524331393637557067726164653a20756e737570706f727465642070726f786044820152681a58589b195555525160ba1b60648201526084016105ed565b50612c09838383612fbe565b60005b81811015612c09576000838383818110612d6557612d656136bb565b905060600201803603810190612d7b91906136d1565b9050612d8a8160200151610e62565b612daf57602081015160405163af1e188960e01b81526105ed916001916004016137e1565b612dbc8160400151610e62565b612de2576001816040015160405163af1e188960e01b81526004016105ed9291906137e1565b50612dec8161379b565b9050612d49565b603380546001600160a01b038381166001600160a01b0319831681179093556040519116919082907f8be0079c531659141344cd1fd0a4f28419497f9722a3daafe3b4186f6b6457e090600090a35050565b60005b81811015612c09576000838383818110612e6457612e646136bb565b905060600201803603810190612e7a91906136d1565b90508060400151600014612ea45760405163018f31f560e51b8152600481018390526024016105ed565b50612eae8161379b565b9050612e48565b600054610100900460ff16612edc5760405162461bcd60e51b81526004016105ed90613ad9565b612ee4612fe3565b611b44613012565b600054610100900460ff16612f135760405162461bcd60e51b81526004016105ed90613ad9565b60c9805460ff19166001179055565b6001600160a01b0381163b612f8f5760405162461bcd60e51b815260206004820152602d60248201527f455243313936373a206e657720696d706c656d656e746174696f6e206973206e60448201526c1bdd08184818dbdb9d1c9858dd609a1b60648201526084016105ed565b600080516020613b2583398151915280546001600160a01b0319166001600160a01b0392909216919091179055565b612fc783613039565b600082511180612fd45750805b15612c09576128d88383613079565b600054610100900460ff1661300a5760405162461bcd60e51b81526004016105ed90613ad9565b611b4461316d565b600054610100900460ff16611b445760405162461bcd60e51b81526004016105ed90613ad9565b61304281612f22565b6040516001600160a01b038216907fbc7cd75a20ee27fd9adebab32041f755214dbc6bffa90cc0225b39da2e5c2d3b90600090a250565b60606001600160a01b0383163b6130e15760405162461bcd60e51b815260206004820152602660248201527f416464726573733a2064656c65676174652063616c6c20746f206e6f6e2d636f6044820152651b9d1c9858dd60d21b60648201526084016105ed565b600080846001600160a01b0316846040516130fc9190613aa4565b600060405180830381855af49150503d8060008114613137576040519150601f19603f3d011682016040523d82523d6000602084013e61313c565b606091505b50915091506131648282604051806060016040528060278152602001613b456027913961319d565b95945050505050565b600054610100900460ff166131945760405162461bcd60e51b81526004016105ed90613ad9565b611b4433612df3565b606083156131ac57508161133c565b61133c8383815115610a6f5781518083602001fd5b60008083601f8401126131d357600080fd5b50813567ffffffffffffffff8111156131eb57600080fd5b60208301915083602060608302850101111561320657600080fd5b9250929050565b6000806000806060858703121561322357600080fd5b8435935060208501359250604085013567ffffffffffffffff81111561324857600080fd5b613254878288016131c1565b95989497509550505050565b6001600160a01b03811681146111d957600080fd5b60006020828403121561328757600080fd5b813561133c81613260565b80610100810183101561290a57600080fd5b803563ffffffff81168114610f4c57600080fd5b60008083601f8401126132ca57600080fd5b50813567ffffffffffffffff8111156132e257600080fd5b6020830191508360208260051b850101111561320657600080fd5b600080600080600080610180878903121561331757600080fd5b6133218888613292565b9550610100870135945061333861012088016132a4565b935061014087013567ffffffffffffffff81111561335557600080fd5b61336189828a016132b8565b979a969950949794969561016090950135949350505050565b60006020828403121561338c57600080fd5b5035919050565b600080600080600061018086880312156133ac57600080fd5b853594506020860135935060408601359250606086013591506133d28760808801613292565b90509295509295909350565b600080600080600061016086880312156133f757600080fd5b6134018787613292565b9450610100860135935061012086013567ffffffffffffffff81111561342657600080fd5b613432888289016131c1565b9699959850966101400135949350505050565b634e487b7160e01b600052604160045260246000fd5b601f8201601f1916810167ffffffffffffffff8111828210171561348157613481613445565b6040525050565b6000806040838503121561349b57600080fd5b82356134a681613260565b915060208381013567ffffffffffffffff808211156134c457600080fd5b818601915086601f8301126134d857600080fd5b8135818111156134ea576134ea613445565b6040519150613502601f8201601f191685018361345b565b808252878482850101111561351657600080fd5b80848401858401376000848284010152508093505050509250929050565b60008060008060006080868803121561354c57600080fd5b613555866132a4565b94506020860135935060408601359250606086013567ffffffffffffffff81111561357f57600080fd5b61358b888289016132b8565b969995985093965092949392505050565b80151581146111d957600080fd5b60008060008060008060c087890312156135c357600080fd5b8635955060208701356135d581613260565b945060408701356135e581613260565b935060608701356135f581613260565b925060808701356136058161359c565b915060a087013561361581613260565b809150509295509295509295565b6020808252602c908201527f46756e6374696f6e206d7573742062652063616c6c6564207468726f7567682060408201526b19195b1959d85d1958d85b1b60a21b606082015260800190565b6020808252602c908201527f46756e6374696f6e206d7573742062652063616c6c6564207468726f7567682060408201526b6163746976652070726f787960a01b606082015260800190565b634e487b7160e01b600052603260045260246000fd5b6000606082840312156136e357600080fd5b6040516060810181811067ffffffffffffffff8211171561370657613706613445565b604052613712836132a4565b815260208301356020820152604083013560408201528091505092915050565b60005b8381101561374d578181015183820152602001613735565b50506000910152565b60008351613768818460208801613732565b83519083019061377c818360208801613732565b01949350505050565b634e487b7160e01b600052601160045260246000fd5b6000600182016137ad576137ad613785565b5060010190565b838152826020820152600082516137d2816040850160208701613732565b91909101604001949350505050565b604081016003841061380357634e487b7160e01b600052602160045260246000fd5b9281526020015290565b60006020828403121561381f57600080fd5b815161133c81613260565b600060033d11156114525760046000803e5060005160e01c90565b600060443d10156138535790565b6040516003193d81016004833e81513d67ffffffffffffffff816024840111818411171561388357505050505090565b828501915081518181111561389b5750505050505090565b843d87010160208285010111156138b55750505050505090565b6138c46020828601018761345b565b509095945050505050565b60208152600082518060208401526138ee816040850160208701613732565b601f01601f19169190910160400192915050565b8060005b60028110156128d8578151845260209384019390910190600101613906565b8060005b60028110156128d85761393d848351613902565b6040939093019260209190910190600101613929565b61012081016139628287613902565b61396f6040830186613925565b61397c60c0830185613902565b61010082018360005b60018110156139a4578151835260209283019290910190600101613985565b50505095945050505050565b6000602082840312156139c257600080fd5b815161133c8161359c565b61018081016139dc8287613902565b6139e96040830186613925565b6139f660c0830185613902565b61010082018360005b60048110156139a45781518352602092830192909101906001016139ff565b8181038181111561290a5761290a613785565b60e086901b6001600160e01b0319168152600481018590526024810184905260006001600160fb1b03831115613a6657600080fd5b8260051b80856044850137919091016044019695505050505050565b600082613a9f57634e487b7160e01b600052601260045260246000fd5b500690565b60008251613ab6818460208701613732565b9190910192915050565b600060208284031215613ad257600080fd5b5051919050565b6020808252602b908201527f496e697469616c697a61626c653a20636f6e7472616374206973206e6f74206960408201526a6e697469616c697a696e6760a81b60608201526080019056fe360894a13ba1a3210667c828492db98dca3e2076cc3735a920a3ca505d382bbc416464726573733a206c6f772d6c6576656c2064656c65676174652063616c6c206661696c6564a26469706673582212207799138d70d39607965387a23c1fbee401eba4096c8840cc2880611028d99f8f64736f6c63430008130033",
    "linkReferences": {}
  },
  "methodIdentifiers": {
    "NO_SUCH_ROOT()": "561f204b",
    "calculateIdentityRegistrationInputHash(uint32,uint256,uint256,uint256[])": "8c76a909",
    "calculateIdentityUpdateInputHash(uint256,uint256,(uint32,uint256,uint256)[])": "09edcb9c",
    "checkValidRoot(uint256)": "8b6c56c6",
    "disableStateBridge()": "a26b810e",
    "enableStateBridge()": "61ea6a8d",
    "getIdentityUpdateVerifierLookupTableAddress()": "4ffbdde5",
    "getRegisterIdentitiesVerifierLookupTableAddress()": "8fc22e9f",
    "getRootHistoryExpiry()": "43f974cb",
    "getSemaphoreVerifierAddress()": "f2038f95",
    "initialize(uint256,address,address,address,bool,address)": "d11e8ef8",
    "isInputInReducedForm(uint256)": "34923152",
    "latestRoot()": "d7b0fef1",
    "owner()": "8da5cb5b",
    "proxiableUUID()": "52d1902d",
    "queryRoot(uint256)": "3f7c178d",
    "registerIdentities(uint256[8],uint256,uint32,uint256[],uint256)": "2217b211",
    "removeIdentities(uint256[8],uint256,(uint32,uint256,uint256)[],uint256)": "b1390908",
    "renounceOwnership()": "715018a6",
    "setIdentityUpdateVerifierLookupTable(address)": "6b056600",
    "setRegisterIdentitiesVerifierLookupTable(address)": "2f059fca",
    "setRootHistoryExpiry(uint256)": "c70aa727",
    "setSemaphoreVerifier(address)": "0e3a12f3",
    "setStateBridgeProxyAddress(address)": "8939472e",
    "stateBridgeProxyAddress()": "b6621a3d",
    "transferOwnership(address)": "f2fde38b",
    "updateIdentities(uint256[8],uint256,(uint32,uint256,uint256)[],uint256)": "4bc511e6",
    "upgradeTo(address)": "3659cfe6",
    "upgradeToAndCall(address,bytes)": "4f1ef286",
    "verifyProof(uint256,uint256,uint256,uint256,uint256[8])": "354ca120"
  },
  "id": 27
}